{
	"ERC721.sol": {
		"ERC721": {
			"abi": [
				{
					"inputs": [],
					"stateMutability": "nonpayable",
					"type": "constructor"
				},
				{
					"anonymous": false,
					"inputs": [
						{
							"indexed": true,
							"internalType": "address",
							"name": "owner",
							"type": "address"
						},
						{
							"indexed": true,
							"internalType": "address",
							"name": "approved",
							"type": "address"
						},
						{
							"indexed": true,
							"internalType": "uint256",
							"name": "tokenId",
							"type": "uint256"
						}
					],
					"name": "Approval",
					"type": "event"
				},
				{
					"anonymous": false,
					"inputs": [
						{
							"indexed": true,
							"internalType": "address",
							"name": "owner",
							"type": "address"
						},
						{
							"indexed": true,
							"internalType": "address",
							"name": "operator",
							"type": "address"
						},
						{
							"indexed": false,
							"internalType": "bool",
							"name": "approved",
							"type": "bool"
						}
					],
					"name": "ApprovalForAll",
					"type": "event"
				},
				{
					"anonymous": false,
					"inputs": [
						{
							"indexed": true,
							"internalType": "address",
							"name": "from",
							"type": "address"
						},
						{
							"indexed": true,
							"internalType": "address",
							"name": "to",
							"type": "address"
						},
						{
							"indexed": true,
							"internalType": "uint256",
							"name": "tokenId",
							"type": "uint256"
						}
					],
					"name": "Transfer",
					"type": "event"
				},
				{
					"inputs": [
						{
							"internalType": "address",
							"name": "spender",
							"type": "address"
						},
						{
							"internalType": "uint256",
							"name": "tokenId",
							"type": "uint256"
						}
					],
					"name": "_isApprovedOrOwner",
					"outputs": [
						{
							"internalType": "bool",
							"name": "",
							"type": "bool"
						}
					],
					"stateMutability": "view",
					"type": "function"
				},
				{
					"inputs": [
						{
							"internalType": "address",
							"name": "to",
							"type": "address"
						},
						{
							"internalType": "uint256",
							"name": "tokenId",
							"type": "uint256"
						}
					],
					"name": "approve",
					"outputs": [],
					"stateMutability": "nonpayable",
					"type": "function"
				},
				{
					"inputs": [
						{
							"internalType": "address",
							"name": "owner",
							"type": "address"
						}
					],
					"name": "balanceOf",
					"outputs": [
						{
							"internalType": "uint256",
							"name": "",
							"type": "uint256"
						}
					],
					"stateMutability": "view",
					"type": "function"
				},
				{
					"inputs": [
						{
							"internalType": "uint256",
							"name": "tokenId",
							"type": "uint256"
						}
					],
					"name": "getApproved",
					"outputs": [
						{
							"internalType": "address",
							"name": "",
							"type": "address"
						}
					],
					"stateMutability": "view",
					"type": "function"
				},
				{
					"inputs": [
						{
							"internalType": "address",
							"name": "spender",
							"type": "address"
						},
						{
							"internalType": "address",
							"name": "operator",
							"type": "address"
						}
					],
					"name": "isApprovedForAll",
					"outputs": [
						{
							"internalType": "bool",
							"name": "",
							"type": "bool"
						}
					],
					"stateMutability": "view",
					"type": "function"
				},
				{
					"inputs": [
						{
							"internalType": "uint256",
							"name": "tokenId",
							"type": "uint256"
						}
					],
					"name": "ownerOf",
					"outputs": [
						{
							"internalType": "address",
							"name": "",
							"type": "address"
						}
					],
					"stateMutability": "view",
					"type": "function"
				},
				{
					"inputs": [
						{
							"internalType": "address",
							"name": "from",
							"type": "address"
						},
						{
							"internalType": "address",
							"name": "to",
							"type": "address"
						},
						{
							"internalType": "uint256",
							"name": "tokenId",
							"type": "uint256"
						}
					],
					"name": "safeTransferFrom",
					"outputs": [],
					"stateMutability": "nonpayable",
					"type": "function"
				},
				{
					"inputs": [
						{
							"internalType": "address",
							"name": "from",
							"type": "address"
						},
						{
							"internalType": "address",
							"name": "to",
							"type": "address"
						},
						{
							"internalType": "uint256",
							"name": "tokenId",
							"type": "uint256"
						},
						{
							"internalType": "bytes",
							"name": "_data",
							"type": "bytes"
						}
					],
					"name": "safeTransferFrom",
					"outputs": [],
					"stateMutability": "nonpayable",
					"type": "function"
				},
				{
					"inputs": [
						{
							"internalType": "address",
							"name": "to",
							"type": "address"
						},
						{
							"internalType": "bool",
							"name": "approved",
							"type": "bool"
						}
					],
					"name": "setApprovalForAll",
					"outputs": [],
					"stateMutability": "nonpayable",
					"type": "function"
				},
				{
					"inputs": [
						{
							"internalType": "bytes4",
							"name": "interfaceId",
							"type": "bytes4"
						}
					],
					"name": "supportsInterface",
					"outputs": [
						{
							"internalType": "bool",
							"name": "",
							"type": "bool"
						}
					],
					"stateMutability": "view",
					"type": "function"
				},
				{
					"inputs": [
						{
							"internalType": "address",
							"name": "from",
							"type": "address"
						},
						{
							"internalType": "address",
							"name": "to",
							"type": "address"
						},
						{
							"internalType": "uint256",
							"name": "tokenId",
							"type": "uint256"
						}
					],
					"name": "transferFrom",
					"outputs": [],
					"stateMutability": "nonpayable",
					"type": "function"
				}
			],
			"devdoc": {
				"kind": "dev",
				"methods": {},
				"version": 1
			},
			"evm": {
				"assembly": "    /* \"ERC721.sol\":197:4427  contract ERC721 is ERC165,IERC721{... */\n  mstore(0x40, 0x80)\n    /* \"ERC721.sol\":647:719  constructor(){... */\n  callvalue\n  dup1\n  iszero\n  tag_1\n  jumpi\n  0x00\n  dup1\n  revert\ntag_1:\n  pop\n    /* \"introsecption/ERC165.sol\":290:330  _registerInterface(_INTERFACE_ID_ERC165) */\n  tag_5\n    /* \"introsecption/ERC165.sol\":178:188  0x01ffc9a7 */\n  0x01ffc9a7\n    /* \"introsecption/ERC165.sol\":309:329  _INTERFACE_ID_ERC165 */\n  0xe0\n  shl\n    /* \"introsecption/ERC165.sol\":290:308  _registerInterface */\n  shl(0x20, tag_6)\n    /* \"introsecption/ERC165.sol\":290:330  _registerInterface(_INTERFACE_ID_ERC165) */\n  0x20\n  shr\n  jump\t// in\ntag_5:\n    /* \"ERC721.sol\":671:711  _registerInterface(_INTERFACE_ID_ERC721) */\n  tag_8\n    /* \"ERC721.sol\":375:385  0x80ac58cd */\n  0x80ac58cd\n    /* \"ERC721.sol\":690:710  _INTERFACE_ID_ERC721 */\n  0xe0\n  shl\n    /* \"ERC721.sol\":671:689  _registerInterface */\n  shl(0x20, tag_6)\n    /* \"ERC721.sol\":671:711  _registerInterface(_INTERFACE_ID_ERC721) */\n  0x20\n  shr\n  jump\t// in\ntag_8:\n    /* \"ERC721.sol\":197:4427  contract ERC721 is ERC165,IERC721{... */\n  jump(tag_9)\n    /* \"introsecption/ERC165.sol\":352:521  function _registerInterface( bytes4 interfaceId) internal{... */\ntag_6:\n    /* \"introsecption/ERC165.sol\":445:455  0xffffffff */\n  0xffffffff\n    /* \"introsecption/ERC165.sol\":432:455  interfaceId!=0xffffffff */\n  0xe0\n  shl\n    /* \"introsecption/ERC165.sol\":432:443  interfaceId */\n  dup2\n    /* \"introsecption/ERC165.sol\":432:455  interfaceId!=0xffffffff */\n  not(0xffffffffffffffffffffffffffffffffffffffffffffffffffffffff)\n  and\n  sub\n    /* \"introsecption/ERC165.sol\":424:456  require(interfaceId!=0xffffffff) */\n  tag_11\n  jumpi\n  0x00\n  dup1\n  revert\ntag_11:\n    /* \"introsecption/ERC165.sol\":505:509  true */\n  0x01\n    /* \"introsecption/ERC165.sol\":471:491  _supportedInterfaces */\n  0x00\n    /* \"introsecption/ERC165.sol\":471:504  _supportedInterfaces[interfaceId] */\n  dup1\n    /* \"introsecption/ERC165.sol\":492:503  interfaceId */\n  dup4\n    /* \"introsecption/ERC165.sol\":471:504  _supportedInterfaces[interfaceId] */\n  not(0xffffffffffffffffffffffffffffffffffffffffffffffffffffffff)\n  and\n  not(0xffffffffffffffffffffffffffffffffffffffffffffffffffffffff)\n  and\n  dup2\n  mstore\n  0x20\n  add\n  swap1\n  dup2\n  mstore\n  0x20\n  add\n  0x00\n  keccak256\n  0x00\n    /* \"introsecption/ERC165.sol\":471:509  _supportedInterfaces[interfaceId]=true */\n  0x0100\n  exp\n  dup2\n  sload\n  dup2\n  0xff\n  mul\n  not\n  and\n  swap1\n  dup4\n  iszero\n  iszero\n  mul\n  or\n  swap1\n  sstore\n  pop\n    /* \"introsecption/ERC165.sol\":352:521  function _registerInterface( bytes4 interfaceId) internal{... */\n  pop\n  jump\t// out\n    /* \"ERC721.sol\":197:4427  contract ERC721 is ERC165,IERC721{... */\ntag_9:\n  dataSize(sub_0)\n  dup1\n  dataOffset(sub_0)\n  0x00\n  codecopy\n  0x00\n  return\nstop\n\nsub_0: assembly {\n        /* \"ERC721.sol\":197:4427  contract ERC721 is ERC165,IERC721{... */\n      mstore(0x40, 0x80)\n      callvalue\n      dup1\n      iszero\n      tag_1\n      jumpi\n      0x00\n      dup1\n      revert\n    tag_1:\n      pop\n      jumpi(tag_2, lt(calldatasize, 0x04))\n      shr(0xe0, calldataload(0x00))\n      dup1\n      0x4cdc9549\n      gt\n      tag_14\n      jumpi\n      dup1\n      0x4cdc9549\n      eq\n      tag_8\n      jumpi\n      dup1\n      0x6352211e\n      eq\n      tag_9\n      jumpi\n      dup1\n      0x70a08231\n      eq\n      tag_10\n      jumpi\n      dup1\n      0xa22cb465\n      eq\n      tag_11\n      jumpi\n      dup1\n      0xb88d4fde\n      eq\n      tag_12\n      jumpi\n      dup1\n      0xe985e9c5\n      eq\n      tag_13\n      jumpi\n      jump(tag_2)\n    tag_14:\n      dup1\n      0x01ffc9a7\n      eq\n      tag_3\n      jumpi\n      dup1\n      0x081812fc\n      eq\n      tag_4\n      jumpi\n      dup1\n      0x095ea7b3\n      eq\n      tag_5\n      jumpi\n      dup1\n      0x23b872dd\n      eq\n      tag_6\n      jumpi\n      dup1\n      0x42842e0e\n      eq\n      tag_7\n      jumpi\n    tag_2:\n      0x00\n      dup1\n      revert\n        /* \"introsecption/ERC165.sol\":531:682  function supportsInterface(bytes4 interfaceId) external  override view returns(bool){... */\n    tag_3:\n      tag_15\n      0x04\n      dup1\n      calldatasize\n      sub\n      dup2\n      add\n      swap1\n      tag_16\n      swap2\n      swap1\n      tag_17\n      jump\t// in\n    tag_16:\n      tag_18\n      jump\t// in\n    tag_15:\n      mload(0x40)\n      tag_19\n      swap2\n      swap1\n      tag_20\n      jump\t// in\n    tag_19:\n      mload(0x40)\n      dup1\n      swap2\n      sub\n      swap1\n      return\n        /* \"ERC721.sol\":1390:1548  function getApproved(uint tokenId) public override view returns(address){... */\n    tag_4:\n      tag_21\n      0x04\n      dup1\n      calldatasize\n      sub\n      dup2\n      add\n      swap1\n      tag_22\n      swap2\n      swap1\n      tag_23\n      jump\t// in\n    tag_22:\n      tag_24\n      jump\t// in\n    tag_21:\n      mload(0x40)\n      tag_25\n      swap2\n      swap1\n      tag_26\n      jump\t// in\n    tag_25:\n      mload(0x40)\n      dup1\n      swap2\n      sub\n      swap1\n      return\n        /* \"ERC721.sol\":1082:1384  function approve(address to,uint tokenId ) public override {... */\n    tag_5:\n      tag_27\n      0x04\n      dup1\n      calldatasize\n      sub\n      dup2\n      add\n      swap1\n      tag_28\n      swap2\n      swap1\n      tag_29\n      jump\t// in\n    tag_28:\n      tag_30\n      jump\t// in\n    tag_27:\n      stop\n        /* \"ERC721.sol\":1779:1964  function transferFrom(address from ,address to,uint tokenId) public override{... */\n    tag_6:\n      tag_31\n      0x04\n      dup1\n      calldatasize\n      sub\n      dup2\n      add\n      swap1\n      tag_32\n      swap2\n      swap1\n      tag_33\n      jump\t// in\n    tag_32:\n      tag_34\n      jump\t// in\n    tag_31:\n      stop\n        /* \"ERC721.sol\":2189:2322  function safeTransferFrom(address from,address to,uint tokenId )public override{... */\n    tag_7:\n      tag_35\n      0x04\n      dup1\n      calldatasize\n      sub\n      dup2\n      add\n      swap1\n      tag_36\n      swap2\n      swap1\n      tag_33\n      jump\t// in\n    tag_36:\n      tag_37\n      jump\t// in\n    tag_35:\n      stop\n        /* \"ERC721.sol\":2481:2713  function _isApprovedOrOwner(address spender,uint tokenId) public view returns(bool){... */\n    tag_8:\n      tag_38\n      0x04\n      dup1\n      calldatasize\n      sub\n      dup2\n      add\n      swap1\n      tag_39\n      swap2\n      swap1\n      tag_29\n      jump\t// in\n    tag_39:\n      tag_40\n      jump\t// in\n    tag_38:\n      mload(0x40)\n      tag_41\n      swap2\n      swap1\n      tag_20\n      jump\t// in\n    tag_41:\n      mload(0x40)\n      dup1\n      swap2\n      sub\n      swap1\n      return\n        /* \"ERC721.sol\":886:1076  function ownerOf(uint256 tokenId)public override view returns(address){... */\n    tag_9:\n      tag_42\n      0x04\n      dup1\n      calldatasize\n      sub\n      dup2\n      add\n      swap1\n      tag_43\n      swap2\n      swap1\n      tag_23\n      jump\t// in\n    tag_43:\n      tag_44\n      jump\t// in\n    tag_42:\n      mload(0x40)\n      tag_45\n      swap2\n      swap1\n      tag_26\n      jump\t// in\n    tag_45:\n      mload(0x40)\n      dup1\n      swap2\n      sub\n      swap1\n      return\n        /* \"ERC721.sol\":725:880  function balanceOf(address owner) public override view returns(uint){... */\n    tag_10:\n      tag_46\n      0x04\n      dup1\n      calldatasize\n      sub\n      dup2\n      add\n      swap1\n      tag_47\n      swap2\n      swap1\n      tag_48\n      jump\t// in\n    tag_47:\n      tag_49\n      jump\t// in\n    tag_46:\n      mload(0x40)\n      tag_50\n      swap2\n      swap1\n      tag_51\n      jump\t// in\n    tag_50:\n      mload(0x40)\n      dup1\n      swap2\n      sub\n      swap1\n      return\n        /* \"ERC721.sol\":1554:1773  function setApprovalForAll(address to, bool approved) public override{... */\n    tag_11:\n      tag_52\n      0x04\n      dup1\n      calldatasize\n      sub\n      dup2\n      add\n      swap1\n      tag_53\n      swap2\n      swap1\n      tag_54\n      jump\t// in\n    tag_53:\n      tag_55\n      jump\t// in\n    tag_52:\n      stop\n        /* \"ERC721.sol\":1970:2183  function safeTransferFrom(address from ,address to,uint tokenId, bytes memory _data) public override{... */\n    tag_12:\n      tag_56\n      0x04\n      dup1\n      calldatasize\n      sub\n      dup2\n      add\n      swap1\n      tag_57\n      swap2\n      swap1\n      tag_58\n      jump\t// in\n    tag_57:\n      tag_59\n      jump\t// in\n    tag_56:\n      stop\n        /* \"ERC721.sol\":4254:4415  function isApprovedForAll(address spender,address operator) public override view returns(bool){... */\n    tag_13:\n      tag_60\n      0x04\n      dup1\n      calldatasize\n      sub\n      dup2\n      add\n      swap1\n      tag_61\n      swap2\n      swap1\n      tag_62\n      jump\t// in\n    tag_61:\n      tag_63\n      jump\t// in\n    tag_60:\n      mload(0x40)\n      tag_64\n      swap2\n      swap1\n      tag_20\n      jump\t// in\n    tag_64:\n      mload(0x40)\n      dup1\n      swap2\n      sub\n      swap1\n      return\n        /* \"introsecption/ERC165.sol\":531:682  function supportsInterface(bytes4 interfaceId) external  override view returns(bool){... */\n    tag_18:\n        /* \"introsecption/ERC165.sol\":610:614  bool */\n      0x00\n        /* \"introsecption/ERC165.sol\":637:657  _supportedInterfaces */\n      dup1\n        /* \"introsecption/ERC165.sol\":637:670  _supportedInterfaces[interfaceId] */\n      0x00\n        /* \"introsecption/ERC165.sol\":658:669  interfaceId */\n      dup4\n        /* \"introsecption/ERC165.sol\":637:670  _supportedInterfaces[interfaceId] */\n      not(0xffffffffffffffffffffffffffffffffffffffffffffffffffffffff)\n      and\n      not(0xffffffffffffffffffffffffffffffffffffffffffffffffffffffff)\n      and\n      dup2\n      mstore\n      0x20\n      add\n      swap1\n      dup2\n      mstore\n      0x20\n      add\n      0x00\n      keccak256\n      0x00\n      swap1\n      sload\n      swap1\n      0x0100\n      exp\n      swap1\n      div\n      0xff\n      and\n        /* \"introsecption/ERC165.sol\":630:670  return _supportedInterfaces[interfaceId] */\n      swap1\n      pop\n        /* \"introsecption/ERC165.sol\":531:682  function supportsInterface(bytes4 interfaceId) external  override view returns(bool){... */\n      swap2\n      swap1\n      pop\n      jump\t// out\n        /* \"ERC721.sol\":1390:1548  function getApproved(uint tokenId) public override view returns(address){... */\n    tag_24:\n        /* \"ERC721.sol\":1454:1461  address */\n      0x00\n        /* \"ERC721.sol\":1481:1497  _exists(tokenId) */\n      tag_67\n        /* \"ERC721.sol\":1489:1496  tokenId */\n      dup3\n        /* \"ERC721.sol\":1481:1488  _exists */\n      tag_68\n        /* \"ERC721.sol\":1481:1497  _exists(tokenId) */\n      jump\t// in\n    tag_67:\n        /* \"ERC721.sol\":1473:1498  require(_exists(tokenId)) */\n      tag_69\n      jumpi\n      0x00\n      dup1\n      revert\n    tag_69:\n        /* \"ERC721.sol\":1516:1531  _tokenApprovals */\n      0x03\n        /* \"ERC721.sol\":1516:1540  _tokenApprovals[tokenId] */\n      0x00\n        /* \"ERC721.sol\":1532:1539  tokenId */\n      dup4\n        /* \"ERC721.sol\":1516:1540  _tokenApprovals[tokenId] */\n      dup2\n      mstore\n      0x20\n      add\n      swap1\n      dup2\n      mstore\n      0x20\n      add\n      0x00\n      keccak256\n      0x00\n      swap1\n      sload\n      swap1\n      0x0100\n      exp\n      swap1\n      div\n      0xffffffffffffffffffffffffffffffffffffffff\n      and\n        /* \"ERC721.sol\":1509:1540  return _tokenApprovals[tokenId] */\n      swap1\n      pop\n        /* \"ERC721.sol\":1390:1548  function getApproved(uint tokenId) public override view returns(address){... */\n      swap2\n      swap1\n      pop\n      jump\t// out\n        /* \"ERC721.sol\":1082:1384  function approve(address to,uint tokenId ) public override {... */\n    tag_30:\n        /* \"ERC721.sol\":1154:1167  address owner */\n      0x00\n        /* \"ERC721.sol\":1168:1184  ownerOf(tokenId) */\n      tag_71\n        /* \"ERC721.sol\":1176:1183  tokenId */\n      dup3\n        /* \"ERC721.sol\":1168:1175  ownerOf */\n      tag_44\n        /* \"ERC721.sol\":1168:1184  ownerOf(tokenId) */\n      jump\t// in\n    tag_71:\n        /* \"ERC721.sol\":1154:1184  address owner=ownerOf(tokenId) */\n      swap1\n      pop\n        /* \"ERC721.sol\":1212:1214  to */\n      dup3\n        /* \"ERC721.sol\":1205:1214  owner!=to */\n      0xffffffffffffffffffffffffffffffffffffffff\n      and\n        /* \"ERC721.sol\":1205:1210  owner */\n      dup2\n        /* \"ERC721.sol\":1205:1214  owner!=to */\n      0xffffffffffffffffffffffffffffffffffffffff\n      and\n      sub\n        /* \"ERC721.sol\":1197:1215  require(owner!=to) */\n      tag_72\n      jumpi\n      0x00\n      dup1\n      revert\n    tag_72:\n        /* \"ERC721.sol\":1248:1253  owner */\n      dup1\n        /* \"ERC721.sol\":1236:1253  msg.sender==owner */\n      0xffffffffffffffffffffffffffffffffffffffff\n      and\n        /* \"ERC721.sol\":1236:1246  msg.sender */\n      caller\n        /* \"ERC721.sol\":1236:1253  msg.sender==owner */\n      0xffffffffffffffffffffffffffffffffffffffff\n      and\n      eq\n        /* \"ERC721.sol\":1236:1291  msg.sender==owner || isApprovedForAll(owner,msg.sender) */\n      dup1\n      tag_73\n      jumpi\n      pop\n        /* \"ERC721.sol\":1257:1291  isApprovedForAll(owner,msg.sender) */\n      tag_74\n        /* \"ERC721.sol\":1274:1279  owner */\n      dup2\n        /* \"ERC721.sol\":1280:1290  msg.sender */\n      caller\n        /* \"ERC721.sol\":1257:1273  isApprovedForAll */\n      tag_63\n        /* \"ERC721.sol\":1257:1291  isApprovedForAll(owner,msg.sender) */\n      jump\t// in\n    tag_74:\n        /* \"ERC721.sol\":1236:1291  msg.sender==owner || isApprovedForAll(owner,msg.sender) */\n    tag_73:\n        /* \"ERC721.sol\":1228:1292  require(msg.sender==owner || isApprovedForAll(owner,msg.sender)) */\n      tag_75\n      jumpi\n      0x00\n      dup1\n      revert\n    tag_75:\n        /* \"ERC721.sol\":1330:1332  to */\n      dup3\n        /* \"ERC721.sol\":1305:1320  _tokenApprovals */\n      0x03\n        /* \"ERC721.sol\":1305:1329  _tokenApprovals[tokenId] */\n      0x00\n        /* \"ERC721.sol\":1321:1328  tokenId */\n      dup5\n        /* \"ERC721.sol\":1305:1329  _tokenApprovals[tokenId] */\n      dup2\n      mstore\n      0x20\n      add\n      swap1\n      dup2\n      mstore\n      0x20\n      add\n      0x00\n      keccak256\n      0x00\n        /* \"ERC721.sol\":1305:1332  _tokenApprovals[tokenId]=to */\n      0x0100\n      exp\n      dup2\n      sload\n      dup2\n      0xffffffffffffffffffffffffffffffffffffffff\n      mul\n      not\n      and\n      swap1\n      dup4\n      0xffffffffffffffffffffffffffffffffffffffff\n      and\n      mul\n      or\n      swap1\n      sstore\n      pop\n        /* \"ERC721.sol\":1368:1375  tokenId */\n      dup2\n        /* \"ERC721.sol\":1365:1367  to */\n      dup4\n        /* \"ERC721.sol\":1350:1376  Approval(owner,to,tokenId) */\n      0xffffffffffffffffffffffffffffffffffffffff\n      and\n        /* \"ERC721.sol\":1359:1364  owner */\n      dup3\n        /* \"ERC721.sol\":1350:1376  Approval(owner,to,tokenId) */\n      0xffffffffffffffffffffffffffffffffffffffff\n      and\n      0x8c5be1e5ebec7d5bd14f71427d1e84f3dd0314c0f7b2291e5b200ac8c7c3b925\n      mload(0x40)\n      mload(0x40)\n      dup1\n      swap2\n      sub\n      swap1\n      log4\n        /* \"ERC721.sol\":1141:1384  {... */\n      pop\n        /* \"ERC721.sol\":1082:1384  function approve(address to,uint tokenId ) public override {... */\n      pop\n      pop\n      jump\t// out\n        /* \"ERC721.sol\":1779:1964  function transferFrom(address from ,address to,uint tokenId) public override{... */\n    tag_34:\n        /* \"ERC721.sol\":1874:1912  _isApprovedOrOwner(msg.sender,tokenId) */\n      tag_77\n        /* \"ERC721.sol\":1893:1903  msg.sender */\n      caller\n        /* \"ERC721.sol\":1904:1911  tokenId */\n      dup3\n        /* \"ERC721.sol\":1874:1892  _isApprovedOrOwner */\n      tag_40\n        /* \"ERC721.sol\":1874:1912  _isApprovedOrOwner(msg.sender,tokenId) */\n      jump\t// in\n    tag_77:\n        /* \"ERC721.sol\":1866:1913  require(_isApprovedOrOwner(msg.sender,tokenId)) */\n      tag_78\n      jumpi\n      0x00\n      dup1\n      revert\n    tag_78:\n        /* \"ERC721.sol\":1924:1954  _transferFrom(from,to,tokenId) */\n      tag_79\n        /* \"ERC721.sol\":1938:1942  from */\n      dup4\n        /* \"ERC721.sol\":1943:1945  to */\n      dup4\n        /* \"ERC721.sol\":1946:1953  tokenId */\n      dup4\n        /* \"ERC721.sol\":1924:1937  _transferFrom */\n      tag_80\n        /* \"ERC721.sol\":1924:1954  _transferFrom(from,to,tokenId) */\n      jump\t// in\n    tag_79:\n        /* \"ERC721.sol\":1779:1964  function transferFrom(address from ,address to,uint tokenId) public override{... */\n      pop\n      pop\n      pop\n      jump\t// out\n        /* \"ERC721.sol\":2189:2322  function safeTransferFrom(address from,address to,uint tokenId )public override{... */\n    tag_37:\n        /* \"ERC721.sol\":2278:2314  safeTransferFrom(from,to,tokenId,\"\") */\n      tag_82\n        /* \"ERC721.sol\":2295:2299  from */\n      dup4\n        /* \"ERC721.sol\":2300:2302  to */\n      dup4\n        /* \"ERC721.sol\":2303:2310  tokenId */\n      dup4\n        /* \"ERC721.sol\":2278:2314  safeTransferFrom(from,to,tokenId,\"\") */\n      mload(0x40)\n      dup1\n      0x20\n      add\n      0x40\n      mstore\n      dup1\n      0x00\n      dup2\n      mstore\n      pop\n        /* \"ERC721.sol\":2278:2294  safeTransferFrom */\n      tag_59\n        /* \"ERC721.sol\":2278:2314  safeTransferFrom(from,to,tokenId,\"\") */\n      jump\t// in\n    tag_82:\n        /* \"ERC721.sol\":2189:2322  function safeTransferFrom(address from,address to,uint tokenId )public override{... */\n      pop\n      pop\n      pop\n      jump\t// out\n        /* \"ERC721.sol\":2481:2713  function _isApprovedOrOwner(address spender,uint tokenId) public view returns(bool){... */\n    tag_40:\n        /* \"ERC721.sol\":2559:2563  bool */\n      0x00\n        /* \"ERC721.sol\":2575:2588  address owner */\n      dup1\n        /* \"ERC721.sol\":2589:2605  ownerOf(tokenId) */\n      tag_84\n        /* \"ERC721.sol\":2597:2604  tokenId */\n      dup4\n        /* \"ERC721.sol\":2589:2596  ownerOf */\n      tag_44\n        /* \"ERC721.sol\":2589:2605  ownerOf(tokenId) */\n      jump\t// in\n    tag_84:\n        /* \"ERC721.sol\":2575:2605  address owner=ownerOf(tokenId) */\n      swap1\n      pop\n        /* \"ERC721.sol\":2632:2637  owner */\n      dup1\n        /* \"ERC721.sol\":2623:2637  spender==owner */\n      0xffffffffffffffffffffffffffffffffffffffff\n      and\n        /* \"ERC721.sol\":2623:2630  spender */\n      dup5\n        /* \"ERC721.sol\":2623:2637  spender==owner */\n      0xffffffffffffffffffffffffffffffffffffffff\n      and\n      eq\n        /* \"ERC721.sol\":2623:2670  spender==owner || getApproved(tokenId)==spender */\n      dup1\n      tag_85\n      jumpi\n      pop\n        /* \"ERC721.sol\":2663:2670  spender */\n      dup4\n        /* \"ERC721.sol\":2641:2670  getApproved(tokenId)==spender */\n      0xffffffffffffffffffffffffffffffffffffffff\n      and\n        /* \"ERC721.sol\":2641:2661  getApproved(tokenId) */\n      tag_86\n        /* \"ERC721.sol\":2653:2660  tokenId */\n      dup5\n        /* \"ERC721.sol\":2641:2652  getApproved */\n      tag_24\n        /* \"ERC721.sol\":2641:2661  getApproved(tokenId) */\n      jump\t// in\n    tag_86:\n        /* \"ERC721.sol\":2641:2670  getApproved(tokenId)==spender */\n      0xffffffffffffffffffffffffffffffffffffffff\n      and\n      eq\n        /* \"ERC721.sol\":2623:2670  spender==owner || getApproved(tokenId)==spender */\n    tag_85:\n        /* \"ERC721.sol\":2623:2704  spender==owner || getApproved(tokenId)==spender|| isApprovedForAll(spender,owner) */\n      dup1\n      tag_87\n      jumpi\n      pop\n        /* \"ERC721.sol\":2673:2704  isApprovedForAll(spender,owner) */\n      tag_88\n        /* \"ERC721.sol\":2690:2697  spender */\n      dup5\n        /* \"ERC721.sol\":2698:2703  owner */\n      dup3\n        /* \"ERC721.sol\":2673:2689  isApprovedForAll */\n      tag_63\n        /* \"ERC721.sol\":2673:2704  isApprovedForAll(spender,owner) */\n      jump\t// in\n    tag_88:\n        /* \"ERC721.sol\":2623:2704  spender==owner || getApproved(tokenId)==spender|| isApprovedForAll(spender,owner) */\n    tag_87:\n        /* \"ERC721.sol\":2616:2705  return(spender==owner || getApproved(tokenId)==spender|| isApprovedForAll(spender,owner)) */\n      swap2\n      pop\n      pop\n        /* \"ERC721.sol\":2481:2713  function _isApprovedOrOwner(address spender,uint tokenId) public view returns(bool){... */\n      swap3\n      swap2\n      pop\n      pop\n      jump\t// out\n        /* \"ERC721.sol\":886:1076  function ownerOf(uint256 tokenId)public override view returns(address){... */\n    tag_44:\n        /* \"ERC721.sol\":948:955  address */\n      0x00\n        /* \"ERC721.sol\":967:980  address owner */\n      dup1\n        /* \"ERC721.sol\":981:993  _tokenowners */\n      0x01\n        /* \"ERC721.sol\":981:1002  _tokenowners[tokenId] */\n      0x00\n        /* \"ERC721.sol\":994:1001  tokenId */\n      dup5\n        /* \"ERC721.sol\":981:1002  _tokenowners[tokenId] */\n      dup2\n      mstore\n      0x20\n      add\n      swap1\n      dup2\n      mstore\n      0x20\n      add\n      0x00\n      keccak256\n      0x00\n      swap1\n      sload\n      swap1\n      0x0100\n      exp\n      swap1\n      div\n      0xffffffffffffffffffffffffffffffffffffffff\n      and\n        /* \"ERC721.sol\":967:1002  address owner=_tokenowners[tokenId] */\n      swap1\n      pop\n        /* \"ERC721.sol\":1040:1041  0 */\n      0x00\n        /* \"ERC721.sol\":1025:1042  owner!=address(0) */\n      0xffffffffffffffffffffffffffffffffffffffff\n      and\n        /* \"ERC721.sol\":1025:1030  owner */\n      dup2\n        /* \"ERC721.sol\":1025:1042  owner!=address(0) */\n      0xffffffffffffffffffffffffffffffffffffffff\n      and\n      sub\n        /* \"ERC721.sol\":1017:1043  require(owner!=address(0)) */\n      tag_90\n      jumpi\n      0x00\n      dup1\n      revert\n    tag_90:\n        /* \"ERC721.sol\":1061:1066  owner */\n      dup1\n        /* \"ERC721.sol\":1054:1066  return owner */\n      swap2\n      pop\n      pop\n        /* \"ERC721.sol\":886:1076  function ownerOf(uint256 tokenId)public override view returns(address){... */\n      swap2\n      swap1\n      pop\n      jump\t// out\n        /* \"ERC721.sol\":725:880  function balanceOf(address owner) public override view returns(uint){... */\n    tag_49:\n        /* \"ERC721.sol\":788:792  uint */\n      0x00\n        /* \"ERC721.sol\":827:828  0 */\n      dup1\n        /* \"ERC721.sol\":812:829  owner!=address(0) */\n      0xffffffffffffffffffffffffffffffffffffffff\n      and\n        /* \"ERC721.sol\":812:817  owner */\n      dup3\n        /* \"ERC721.sol\":812:829  owner!=address(0) */\n      0xffffffffffffffffffffffffffffffffffffffff\n      and\n      sub\n        /* \"ERC721.sol\":804:830  require(owner!=address(0)) */\n      tag_92\n      jumpi\n      0x00\n      dup1\n      revert\n    tag_92:\n        /* \"ERC721.sol\":848:865  _ownedTokensCount */\n      0x02\n        /* \"ERC721.sol\":848:872  _ownedTokensCount[owner] */\n      0x00\n        /* \"ERC721.sol\":866:871  owner */\n      dup4\n        /* \"ERC721.sol\":848:872  _ownedTokensCount[owner] */\n      0xffffffffffffffffffffffffffffffffffffffff\n      and\n      0xffffffffffffffffffffffffffffffffffffffff\n      and\n      dup2\n      mstore\n      0x20\n      add\n      swap1\n      dup2\n      mstore\n      0x20\n      add\n      0x00\n      keccak256\n      sload\n        /* \"ERC721.sol\":841:872  return _ownedTokensCount[owner] */\n      swap1\n      pop\n        /* \"ERC721.sol\":725:880  function balanceOf(address owner) public override view returns(uint){... */\n      swap2\n      swap1\n      pop\n      jump\t// out\n        /* \"ERC721.sol\":1554:1773  function setApprovalForAll(address to, bool approved) public override{... */\n    tag_55:\n        /* \"ERC721.sol\":1646:1656  msg.sender */\n      caller\n        /* \"ERC721.sol\":1642:1656  to!=msg.sender */\n      0xffffffffffffffffffffffffffffffffffffffff\n      and\n        /* \"ERC721.sol\":1642:1644  to */\n      dup3\n        /* \"ERC721.sol\":1642:1656  to!=msg.sender */\n      0xffffffffffffffffffffffffffffffffffffffff\n      and\n      sub\n        /* \"ERC721.sol\":1634:1657  require(to!=msg.sender) */\n      tag_94\n      jumpi\n      0x00\n      dup1\n      revert\n    tag_94:\n        /* \"ERC721.sol\":1703:1711  approved */\n      dup1\n        /* \"ERC721.sol\":1668:1686  _operatorApprovals */\n      0x04\n        /* \"ERC721.sol\":1668:1698  _operatorApprovals[msg.sender] */\n      0x00\n        /* \"ERC721.sol\":1687:1697  msg.sender */\n      caller\n        /* \"ERC721.sol\":1668:1698  _operatorApprovals[msg.sender] */\n      0xffffffffffffffffffffffffffffffffffffffff\n      and\n      0xffffffffffffffffffffffffffffffffffffffff\n      and\n      dup2\n      mstore\n      0x20\n      add\n      swap1\n      dup2\n      mstore\n      0x20\n      add\n      0x00\n      keccak256\n        /* \"ERC721.sol\":1668:1702  _operatorApprovals[msg.sender][to] */\n      0x00\n        /* \"ERC721.sol\":1699:1701  to */\n      dup5\n        /* \"ERC721.sol\":1668:1702  _operatorApprovals[msg.sender][to] */\n      0xffffffffffffffffffffffffffffffffffffffff\n      and\n      0xffffffffffffffffffffffffffffffffffffffff\n      and\n      dup2\n      mstore\n      0x20\n      add\n      swap1\n      dup2\n      mstore\n      0x20\n      add\n      0x00\n      keccak256\n      0x00\n        /* \"ERC721.sol\":1668:1711  _operatorApprovals[msg.sender][to]=approved */\n      0x0100\n      exp\n      dup2\n      sload\n      dup2\n      0xff\n      mul\n      not\n      and\n      swap1\n      dup4\n      iszero\n      iszero\n      mul\n      or\n      swap1\n      sstore\n      pop\n        /* \"ERC721.sol\":1753:1755  to */\n      dup2\n        /* \"ERC721.sol\":1727:1765  ApprovalForAll(msg.sender,to,approved) */\n      0xffffffffffffffffffffffffffffffffffffffff\n      and\n        /* \"ERC721.sol\":1742:1752  msg.sender */\n      caller\n        /* \"ERC721.sol\":1727:1765  ApprovalForAll(msg.sender,to,approved) */\n      0xffffffffffffffffffffffffffffffffffffffff\n      and\n      0x17307eab39ab6107e8899845ad3d59bd9653f200f220920489ca2b5937696c31\n        /* \"ERC721.sol\":1756:1764  approved */\n      dup4\n        /* \"ERC721.sol\":1727:1765  ApprovalForAll(msg.sender,to,approved) */\n      mload(0x40)\n      tag_95\n      swap2\n      swap1\n      tag_20\n      jump\t// in\n    tag_95:\n      mload(0x40)\n      dup1\n      swap2\n      sub\n      swap1\n      log3\n        /* \"ERC721.sol\":1554:1773  function setApprovalForAll(address to, bool approved) public override{... */\n      pop\n      pop\n      jump\t// out\n        /* \"ERC721.sol\":1970:2183  function safeTransferFrom(address from ,address to,uint tokenId, bytes memory _data) public override{... */\n    tag_59:\n        /* \"ERC721.sol\":2081:2110  transferFrom(to,from,tokenId) */\n      tag_97\n        /* \"ERC721.sol\":2094:2096  to */\n      dup4\n        /* \"ERC721.sol\":2097:2101  from */\n      dup6\n        /* \"ERC721.sol\":2102:2109  tokenId */\n      dup5\n        /* \"ERC721.sol\":2081:2093  transferFrom */\n      tag_34\n        /* \"ERC721.sol\":2081:2110  transferFrom(to,from,tokenId) */\n      jump\t// in\n    tag_97:\n        /* \"ERC721.sol\":2129:2174  _checkOnERC721Recieved(from,to,tokenId,_data) */\n      tag_98\n        /* \"ERC721.sol\":2152:2156  from */\n      dup5\n        /* \"ERC721.sol\":2157:2159  to */\n      dup5\n        /* \"ERC721.sol\":2160:2167  tokenId */\n      dup5\n        /* \"ERC721.sol\":2168:2173  _data */\n      dup5\n        /* \"ERC721.sol\":2129:2151  _checkOnERC721Recieved */\n      tag_99\n        /* \"ERC721.sol\":2129:2174  _checkOnERC721Recieved(from,to,tokenId,_data) */\n      jump\t// in\n    tag_98:\n        /* \"ERC721.sol\":2121:2175  require(_checkOnERC721Recieved(from,to,tokenId,_data)) */\n      tag_100\n      jumpi\n      0x00\n      dup1\n      revert\n    tag_100:\n        /* \"ERC721.sol\":1970:2183  function safeTransferFrom(address from ,address to,uint tokenId, bytes memory _data) public override{... */\n      pop\n      pop\n      pop\n      pop\n      jump\t// out\n        /* \"ERC721.sol\":4254:4415  function isApprovedForAll(address spender,address operator) public override view returns(bool){... */\n    tag_63:\n        /* \"ERC721.sol\":4343:4347  bool */\n      0x00\n        /* \"ERC721.sol\":4370:4388  _operatorApprovals */\n      0x04\n        /* \"ERC721.sol\":4370:4397  _operatorApprovals[spender] */\n      0x00\n        /* \"ERC721.sol\":4389:4396  spender */\n      dup5\n        /* \"ERC721.sol\":4370:4397  _operatorApprovals[spender] */\n      0xffffffffffffffffffffffffffffffffffffffff\n      and\n      0xffffffffffffffffffffffffffffffffffffffff\n      and\n      dup2\n      mstore\n      0x20\n      add\n      swap1\n      dup2\n      mstore\n      0x20\n      add\n      0x00\n      keccak256\n        /* \"ERC721.sol\":4370:4407  _operatorApprovals[spender][operator] */\n      0x00\n        /* \"ERC721.sol\":4398:4406  operator */\n      dup4\n        /* \"ERC721.sol\":4370:4407  _operatorApprovals[spender][operator] */\n      0xffffffffffffffffffffffffffffffffffffffff\n      and\n      0xffffffffffffffffffffffffffffffffffffffff\n      and\n      dup2\n      mstore\n      0x20\n      add\n      swap1\n      dup2\n      mstore\n      0x20\n      add\n      0x00\n      keccak256\n      0x00\n      swap1\n      sload\n      swap1\n      0x0100\n      exp\n      swap1\n      div\n      0xff\n      and\n        /* \"ERC721.sol\":4363:4407  return _operatorApprovals[spender][operator] */\n      swap1\n      pop\n        /* \"ERC721.sol\":4254:4415  function isApprovedForAll(address spender,address operator) public override view returns(bool){... */\n      swap3\n      swap2\n      pop\n      pop\n      jump\t// out\n        /* \"ERC721.sol\":2328:2475  function _exists(uint tokenId)internal view returns(bool){... */\n    tag_68:\n        /* \"ERC721.sol\":2380:2384  bool */\n      0x00\n        /* \"ERC721.sol\":2396:2409  address owner */\n      dup1\n        /* \"ERC721.sol\":2411:2423  _tokenowners */\n      0x01\n        /* \"ERC721.sol\":2411:2432  _tokenowners[tokenId] */\n      0x00\n        /* \"ERC721.sol\":2424:2431  tokenId */\n      dup5\n        /* \"ERC721.sol\":2411:2432  _tokenowners[tokenId] */\n      dup2\n      mstore\n      0x20\n      add\n      swap1\n      dup2\n      mstore\n      0x20\n      add\n      0x00\n      keccak256\n      0x00\n      swap1\n      sload\n      swap1\n      0x0100\n      exp\n      swap1\n      div\n      0xffffffffffffffffffffffffffffffffffffffff\n      and\n        /* \"ERC721.sol\":2396:2432  address owner= _tokenowners[tokenId] */\n      swap1\n      pop\n        /* \"ERC721.sol\":2465:2466  0 */\n      0x00\n        /* \"ERC721.sol\":2450:2467  owner!=address(0) */\n      0xffffffffffffffffffffffffffffffffffffffff\n      and\n        /* \"ERC721.sol\":2450:2455  owner */\n      dup2\n        /* \"ERC721.sol\":2450:2467  owner!=address(0) */\n      0xffffffffffffffffffffffffffffffffffffffff\n      and\n      eq\n      iszero\n        /* \"ERC721.sol\":2443:2467  return owner!=address(0) */\n      swap2\n      pop\n      pop\n        /* \"ERC721.sol\":2328:2475  function _exists(uint tokenId)internal view returns(bool){... */\n      swap2\n      swap1\n      pop\n      jump\t// out\n        /* \"ERC721.sol\":3377:3750  function _transferFrom(address from, address to,uint tokenId) internal{... */\n    tag_80:\n        /* \"ERC721.sol\":3471:3487  ownerOf(tokenId) */\n      tag_104\n        /* \"ERC721.sol\":3479:3486  tokenId */\n      dup2\n        /* \"ERC721.sol\":3471:3478  ownerOf */\n      tag_44\n        /* \"ERC721.sol\":3471:3487  ownerOf(tokenId) */\n      jump\t// in\n    tag_104:\n        /* \"ERC721.sol\":3465:3487  from==ownerOf(tokenId) */\n      0xffffffffffffffffffffffffffffffffffffffff\n      and\n        /* \"ERC721.sol\":3465:3469  from */\n      dup4\n        /* \"ERC721.sol\":3465:3487  from==ownerOf(tokenId) */\n      0xffffffffffffffffffffffffffffffffffffffff\n      and\n      eq\n        /* \"ERC721.sol\":3457:3488  require(from==ownerOf(tokenId)) */\n      tag_105\n      jumpi\n      0x00\n      dup1\n      revert\n    tag_105:\n        /* \"ERC721.sol\":3518:3519  0 */\n      0x00\n        /* \"ERC721.sol\":3506:3520  to!=address(0) */\n      0xffffffffffffffffffffffffffffffffffffffff\n      and\n        /* \"ERC721.sol\":3506:3508  to */\n      dup3\n        /* \"ERC721.sol\":3506:3520  to!=address(0) */\n      0xffffffffffffffffffffffffffffffffffffffff\n      and\n      sub\n        /* \"ERC721.sol\":3498:3521  require(to!=address(0)) */\n      tag_106\n      jumpi\n      0x00\n      dup1\n      revert\n    tag_106:\n        /* \"ERC721.sol\":3531:3554  _clearApproval(tokenId) */\n      tag_107\n        /* \"ERC721.sol\":3546:3553  tokenId */\n      dup2\n        /* \"ERC721.sol\":3531:3545  _clearApproval */\n      tag_108\n        /* \"ERC721.sol\":3531:3554  _clearApproval(tokenId) */\n      jump\t// in\n    tag_107:\n        /* \"ERC721.sol\":3612:3613  1 */\n      0x01\n        /* \"ERC721.sol\":3588:3605  _ownedTokensCount */\n      0x02\n        /* \"ERC721.sol\":3588:3611  _ownedTokensCount[from] */\n      0x00\n        /* \"ERC721.sol\":3606:3610  from */\n      dup6\n        /* \"ERC721.sol\":3588:3611  _ownedTokensCount[from] */\n      0xffffffffffffffffffffffffffffffffffffffff\n      and\n      0xffffffffffffffffffffffffffffffffffffffff\n      and\n      dup2\n      mstore\n      0x20\n      add\n      swap1\n      dup2\n      mstore\n      0x20\n      add\n      0x00\n      keccak256\n      sload\n        /* \"ERC721.sol\":3588:3613  _ownedTokensCount[from]-1 */\n      tag_109\n      swap2\n      swap1\n      tag_110\n      jump\t// in\n    tag_109:\n        /* \"ERC721.sol\":3564:3581  _ownedTokensCount */\n      0x02\n        /* \"ERC721.sol\":3564:3587  _ownedTokensCount[from] */\n      0x00\n        /* \"ERC721.sol\":3582:3586  from */\n      dup6\n        /* \"ERC721.sol\":3564:3587  _ownedTokensCount[from] */\n      0xffffffffffffffffffffffffffffffffffffffff\n      and\n      0xffffffffffffffffffffffffffffffffffffffff\n      and\n      dup2\n      mstore\n      0x20\n      add\n      swap1\n      dup2\n      mstore\n      0x20\n      add\n      0x00\n      keccak256\n        /* \"ERC721.sol\":3564:3613  _ownedTokensCount[from]=_ownedTokensCount[from]-1 */\n      dup2\n      swap1\n      sstore\n      pop\n        /* \"ERC721.sol\":3667:3668  1 */\n      0x01\n        /* \"ERC721.sol\":3645:3662  _ownedTokensCount */\n      0x02\n        /* \"ERC721.sol\":3645:3666  _ownedTokensCount[to] */\n      0x00\n        /* \"ERC721.sol\":3663:3665  to */\n      dup5\n        /* \"ERC721.sol\":3645:3666  _ownedTokensCount[to] */\n      0xffffffffffffffffffffffffffffffffffffffff\n      and\n      0xffffffffffffffffffffffffffffffffffffffff\n      and\n      dup2\n      mstore\n      0x20\n      add\n      swap1\n      dup2\n      mstore\n      0x20\n      add\n      0x00\n      keccak256\n      sload\n        /* \"ERC721.sol\":3645:3668  _ownedTokensCount[to]+1 */\n      tag_111\n      swap2\n      swap1\n      tag_112\n      jump\t// in\n    tag_111:\n        /* \"ERC721.sol\":3623:3640  _ownedTokensCount */\n      0x02\n        /* \"ERC721.sol\":3623:3644  _ownedTokensCount[to] */\n      0x00\n        /* \"ERC721.sol\":3641:3643  to */\n      dup5\n        /* \"ERC721.sol\":3623:3644  _ownedTokensCount[to] */\n      0xffffffffffffffffffffffffffffffffffffffff\n      and\n      0xffffffffffffffffffffffffffffffffffffffff\n      and\n      dup2\n      mstore\n      0x20\n      add\n      swap1\n      dup2\n      mstore\n      0x20\n      add\n      0x00\n      keccak256\n        /* \"ERC721.sol\":3623:3668  _ownedTokensCount[to]=_ownedTokensCount[to]+1 */\n      dup2\n      swap1\n      sstore\n      pop\n        /* \"ERC721.sol\":3700:3702  to */\n      dup2\n        /* \"ERC721.sol\":3678:3690  _tokenowners */\n      0x01\n        /* \"ERC721.sol\":3678:3699  _tokenowners[tokenId] */\n      0x00\n        /* \"ERC721.sol\":3691:3698  tokenId */\n      dup4\n        /* \"ERC721.sol\":3678:3699  _tokenowners[tokenId] */\n      dup2\n      mstore\n      0x20\n      add\n      swap1\n      dup2\n      mstore\n      0x20\n      add\n      0x00\n      keccak256\n      0x00\n        /* \"ERC721.sol\":3678:3702  _tokenowners[tokenId]=to */\n      0x0100\n      exp\n      dup2\n      sload\n      dup2\n      0xffffffffffffffffffffffffffffffffffffffff\n      mul\n      not\n      and\n      swap1\n      dup4\n      0xffffffffffffffffffffffffffffffffffffffff\n      and\n      mul\n      or\n      swap1\n      sstore\n      pop\n        /* \"ERC721.sol\":3734:3741  tokenId */\n      dup1\n        /* \"ERC721.sol\":3731:3733  to */\n      dup3\n        /* \"ERC721.sol\":3717:3742  Transfer(from,to,tokenId) */\n      0xffffffffffffffffffffffffffffffffffffffff\n      and\n        /* \"ERC721.sol\":3726:3730  from */\n      dup5\n        /* \"ERC721.sol\":3717:3742  Transfer(from,to,tokenId) */\n      0xffffffffffffffffffffffffffffffffffffffff\n      and\n      0xddf252ad1be2c89b69c2b068fc378daa952ba7f163c4a11628f55a4df523b3ef\n      mload(0x40)\n      mload(0x40)\n      dup1\n      swap2\n      sub\n      swap1\n      log4\n        /* \"ERC721.sol\":3377:3750  function _transferFrom(address from, address to,uint tokenId) internal{... */\n      pop\n      pop\n      pop\n      jump\t// out\n        /* \"ERC721.sol\":3756:4076  function _checkOnERC721Recieved(address from ,address to,uint tokenId,bytes memory _data) internal returns(bool){... */\n    tag_99:\n        /* \"ERC721.sol\":3863:3867  bool */\n      0x00\n        /* \"ERC721.sol\":3882:3897  to.isContract() */\n      tag_114\n        /* \"ERC721.sol\":3882:3884  to */\n      dup5\n        /* \"ERC721.sol\":3882:3895  to.isContract */\n      0xffffffffffffffffffffffffffffffffffffffff\n      and\n      tag_115\n        /* \"ERC721.sol\":3882:3897  to.isContract() */\n      jump\t// in\n    tag_114:\n        /* \"ERC721.sol\":3878:3934  if(!to.isContract()){... */\n      tag_116\n      jumpi\n        /* \"ERC721.sol\":3919:3923  true */\n      0x01\n        /* \"ERC721.sol\":3912:3923  return true */\n      swap1\n      pop\n      jump(tag_113)\n        /* \"ERC721.sol\":3878:3934  if(!to.isContract()){... */\n    tag_116:\n        /* \"ERC721.sol\":3943:3956  bytes4 retval */\n      0x00\n        /* \"ERC721.sol\":3973:3975  to */\n      dup5\n        /* \"ERC721.sol\":3957:3993  IERC721Receiver(to).onERC721Received */\n      0xffffffffffffffffffffffffffffffffffffffff\n      and\n      0x150b7a02\n        /* \"ERC721.sol\":3995:4005  msg.sender */\n      caller\n        /* \"ERC721.sol\":4006:4010  from */\n      dup9\n        /* \"ERC721.sol\":4011:4018  tokenId */\n      dup8\n        /* \"ERC721.sol\":4019:4024  _data */\n      dup8\n        /* \"ERC721.sol\":3957:4025  IERC721Receiver(to).onERC721Received (msg.sender,from,tokenId,_data) */\n      mload(0x40)\n      dup6\n      0xffffffff\n      and\n      0xe0\n      shl\n      dup2\n      mstore\n      0x04\n      add\n      tag_117\n      swap5\n      swap4\n      swap3\n      swap2\n      swap1\n      tag_118\n      jump\t// in\n    tag_117:\n      0x20\n      mload(0x40)\n      dup1\n      dup4\n      sub\n      dup2\n      0x00\n      dup8\n      gas\n      call\n      iszero\n      dup1\n      iszero\n      tag_120\n      jumpi\n      returndatasize\n      0x00\n      dup1\n      returndatacopy\n      revert(0x00, returndatasize)\n    tag_120:\n      pop\n      pop\n      pop\n      pop\n      mload(0x40)\n      returndatasize\n      not(0x1f)\n      0x1f\n      dup3\n      add\n      and\n      dup3\n      add\n      dup1\n      0x40\n      mstore\n      pop\n      dup2\n      add\n      swap1\n      tag_121\n      swap2\n      swap1\n      tag_122\n      jump\t// in\n    tag_121:\n        /* \"ERC721.sol\":3943:4025  bytes4 retval=IERC721Receiver(to).onERC721Received (msg.sender,from,tokenId,_data) */\n      swap1\n      pop\n        /* \"ERC721.sol\":312:322  0x150b7a02 */\n      0x150b7a02\n        /* \"ERC721.sol\":4051:4067  _ERC721_RECEIVED */\n      0xe0\n      shl\n        /* \"ERC721.sol\":4043:4067  retval==_ERC721_RECEIVED */\n      not(0xffffffffffffffffffffffffffffffffffffffffffffffffffffffff)\n      and\n        /* \"ERC721.sol\":4043:4049  retval */\n      dup2\n        /* \"ERC721.sol\":4043:4067  retval==_ERC721_RECEIVED */\n      not(0xffffffffffffffffffffffffffffffffffffffffffffffffffffffff)\n      and\n      eq\n        /* \"ERC721.sol\":4035:4068  return (retval==_ERC721_RECEIVED) */\n      swap2\n      pop\n      pop\n        /* \"ERC721.sol\":3756:4076  function _checkOnERC721Recieved(address from ,address to,uint tokenId,bytes memory _data) internal returns(bool){... */\n    tag_113:\n      swap5\n      swap4\n      pop\n      pop\n      pop\n      pop\n      jump\t// out\n        /* \"ERC721.sol\":4082:4248  function _clearApproval(uint tokenId) private {... */\n    tag_108:\n        /* \"ERC721.sol\":4176:4177  0 */\n      0x00\n        /* \"ERC721.sol\":4142:4178  _tokenApprovals[tokenId]!=address(0) */\n      0xffffffffffffffffffffffffffffffffffffffff\n      and\n        /* \"ERC721.sol\":4142:4157  _tokenApprovals */\n      0x03\n        /* \"ERC721.sol\":4142:4166  _tokenApprovals[tokenId] */\n      0x00\n        /* \"ERC721.sol\":4158:4165  tokenId */\n      dup4\n        /* \"ERC721.sol\":4142:4166  _tokenApprovals[tokenId] */\n      dup2\n      mstore\n      0x20\n      add\n      swap1\n      dup2\n      mstore\n      0x20\n      add\n      0x00\n      keccak256\n      0x00\n      swap1\n      sload\n      swap1\n      0x0100\n      exp\n      swap1\n      div\n      0xffffffffffffffffffffffffffffffffffffffff\n      and\n        /* \"ERC721.sol\":4142:4178  _tokenApprovals[tokenId]!=address(0) */\n      0xffffffffffffffffffffffffffffffffffffffff\n      and\n      eq\n        /* \"ERC721.sol\":4139:4241  if(_tokenApprovals[tokenId]!=address(0)){... */\n      tag_124\n      jumpi\n        /* \"ERC721.sol\":4227:4228  0 */\n      0x00\n        /* \"ERC721.sol\":4194:4209  _tokenApprovals */\n      0x03\n        /* \"ERC721.sol\":4194:4218  _tokenApprovals[tokenId] */\n      0x00\n        /* \"ERC721.sol\":4210:4217  tokenId */\n      dup4\n        /* \"ERC721.sol\":4194:4218  _tokenApprovals[tokenId] */\n      dup2\n      mstore\n      0x20\n      add\n      swap1\n      dup2\n      mstore\n      0x20\n      add\n      0x00\n      keccak256\n      0x00\n        /* \"ERC721.sol\":4194:4229  _tokenApprovals[tokenId]=address(0) */\n      0x0100\n      exp\n      dup2\n      sload\n      dup2\n      0xffffffffffffffffffffffffffffffffffffffff\n      mul\n      not\n      and\n      swap1\n      dup4\n      0xffffffffffffffffffffffffffffffffffffffff\n      and\n      mul\n      or\n      swap1\n      sstore\n      pop\n        /* \"ERC721.sol\":4139:4241  if(_tokenApprovals[tokenId]!=address(0)){... */\n    tag_124:\n        /* \"ERC721.sol\":4082:4248  function _clearApproval(uint tokenId) private {... */\n      pop\n      jump\t// out\n        /* \"utils/Address.sol\":1451:1777  function isContract(address account) internal view returns (bool) {... */\n    tag_115:\n        /* \"utils/Address.sol\":1511:1515  bool */\n      0x00\n        /* \"utils/Address.sol\":1768:1769  0 */\n      dup1\n        /* \"utils/Address.sol\":1746:1753  account */\n      dup3\n        /* \"utils/Address.sol\":1746:1765  account.code.length */\n      0xffffffffffffffffffffffffffffffffffffffff\n      and\n      extcodesize\n        /* \"utils/Address.sol\":1746:1769  account.code.length > 0 */\n      gt\n        /* \"utils/Address.sol\":1739:1769  return account.code.length > 0 */\n      swap1\n      pop\n        /* \"utils/Address.sol\":1451:1777  function isContract(address account) internal view returns (bool) {... */\n      swap2\n      swap1\n      pop\n      jump\t// out\n        /* \"#utility.yul\":7:82   */\n    tag_126:\n        /* \"#utility.yul\":40:46   */\n      0x00\n        /* \"#utility.yul\":73:75   */\n      0x40\n        /* \"#utility.yul\":67:76   */\n      mload\n        /* \"#utility.yul\":57:76   */\n      swap1\n      pop\n        /* \"#utility.yul\":7:82   */\n      swap1\n      jump\t// out\n        /* \"#utility.yul\":88:205   */\n    tag_127:\n        /* \"#utility.yul\":197:198   */\n      0x00\n        /* \"#utility.yul\":194:195   */\n      dup1\n        /* \"#utility.yul\":187:199   */\n      revert\n        /* \"#utility.yul\":211:328   */\n    tag_128:\n        /* \"#utility.yul\":320:321   */\n      0x00\n        /* \"#utility.yul\":317:318   */\n      dup1\n        /* \"#utility.yul\":310:322   */\n      revert\n        /* \"#utility.yul\":334:483   */\n    tag_129:\n        /* \"#utility.yul\":370:377   */\n      0x00\n        /* \"#utility.yul\":410:476   */\n      0xffffffff00000000000000000000000000000000000000000000000000000000\n        /* \"#utility.yul\":403:408   */\n      dup3\n        /* \"#utility.yul\":399:477   */\n      and\n        /* \"#utility.yul\":388:477   */\n      swap1\n      pop\n        /* \"#utility.yul\":334:483   */\n      swap2\n      swap1\n      pop\n      jump\t// out\n        /* \"#utility.yul\":489:609   */\n    tag_130:\n        /* \"#utility.yul\":561:584   */\n      tag_167\n        /* \"#utility.yul\":578:583   */\n      dup2\n        /* \"#utility.yul\":561:584   */\n      tag_129\n      jump\t// in\n    tag_167:\n        /* \"#utility.yul\":554:559   */\n      dup2\n        /* \"#utility.yul\":551:585   */\n      eq\n        /* \"#utility.yul\":541:603   */\n      tag_168\n      jumpi\n        /* \"#utility.yul\":599:600   */\n      0x00\n        /* \"#utility.yul\":596:597   */\n      dup1\n        /* \"#utility.yul\":589:601   */\n      revert\n        /* \"#utility.yul\":541:603   */\n    tag_168:\n        /* \"#utility.yul\":489:609   */\n      pop\n      jump\t// out\n        /* \"#utility.yul\":615:752   */\n    tag_131:\n        /* \"#utility.yul\":660:665   */\n      0x00\n        /* \"#utility.yul\":698:704   */\n      dup2\n        /* \"#utility.yul\":685:705   */\n      calldataload\n        /* \"#utility.yul\":676:705   */\n      swap1\n      pop\n        /* \"#utility.yul\":714:746   */\n      tag_170\n        /* \"#utility.yul\":740:745   */\n      dup2\n        /* \"#utility.yul\":714:746   */\n      tag_130\n      jump\t// in\n    tag_170:\n        /* \"#utility.yul\":615:752   */\n      swap3\n      swap2\n      pop\n      pop\n      jump\t// out\n        /* \"#utility.yul\":758:1085   */\n    tag_17:\n        /* \"#utility.yul\":816:822   */\n      0x00\n        /* \"#utility.yul\":865:867   */\n      0x20\n        /* \"#utility.yul\":853:862   */\n      dup3\n        /* \"#utility.yul\":844:851   */\n      dup5\n        /* \"#utility.yul\":840:863   */\n      sub\n        /* \"#utility.yul\":836:868   */\n      slt\n        /* \"#utility.yul\":833:952   */\n      iszero\n      tag_172\n      jumpi\n        /* \"#utility.yul\":871:950   */\n      tag_173\n      tag_127\n      jump\t// in\n    tag_173:\n        /* \"#utility.yul\":833:952   */\n    tag_172:\n        /* \"#utility.yul\":991:992   */\n      0x00\n        /* \"#utility.yul\":1016:1068   */\n      tag_174\n        /* \"#utility.yul\":1060:1067   */\n      dup5\n        /* \"#utility.yul\":1051:1057   */\n      dup3\n        /* \"#utility.yul\":1040:1049   */\n      dup6\n        /* \"#utility.yul\":1036:1058   */\n      add\n        /* \"#utility.yul\":1016:1068   */\n      tag_131\n      jump\t// in\n    tag_174:\n        /* \"#utility.yul\":1006:1068   */\n      swap2\n      pop\n        /* \"#utility.yul\":962:1078   */\n      pop\n        /* \"#utility.yul\":758:1085   */\n      swap3\n      swap2\n      pop\n      pop\n      jump\t// out\n        /* \"#utility.yul\":1091:1181   */\n    tag_132:\n        /* \"#utility.yul\":1125:1132   */\n      0x00\n        /* \"#utility.yul\":1168:1173   */\n      dup2\n        /* \"#utility.yul\":1161:1174   */\n      iszero\n        /* \"#utility.yul\":1154:1175   */\n      iszero\n        /* \"#utility.yul\":1143:1175   */\n      swap1\n      pop\n        /* \"#utility.yul\":1091:1181   */\n      swap2\n      swap1\n      pop\n      jump\t// out\n        /* \"#utility.yul\":1187:1296   */\n    tag_133:\n        /* \"#utility.yul\":1268:1289   */\n      tag_177\n        /* \"#utility.yul\":1283:1288   */\n      dup2\n        /* \"#utility.yul\":1268:1289   */\n      tag_132\n      jump\t// in\n    tag_177:\n        /* \"#utility.yul\":1263:1266   */\n      dup3\n        /* \"#utility.yul\":1256:1290   */\n      mstore\n        /* \"#utility.yul\":1187:1296   */\n      pop\n      pop\n      jump\t// out\n        /* \"#utility.yul\":1302:1512   */\n    tag_20:\n        /* \"#utility.yul\":1389:1393   */\n      0x00\n        /* \"#utility.yul\":1427:1429   */\n      0x20\n        /* \"#utility.yul\":1416:1425   */\n      dup3\n        /* \"#utility.yul\":1412:1430   */\n      add\n        /* \"#utility.yul\":1404:1430   */\n      swap1\n      pop\n        /* \"#utility.yul\":1440:1505   */\n      tag_179\n        /* \"#utility.yul\":1502:1503   */\n      0x00\n        /* \"#utility.yul\":1491:1500   */\n      dup4\n        /* \"#utility.yul\":1487:1504   */\n      add\n        /* \"#utility.yul\":1478:1484   */\n      dup5\n        /* \"#utility.yul\":1440:1505   */\n      tag_133\n      jump\t// in\n    tag_179:\n        /* \"#utility.yul\":1302:1512   */\n      swap3\n      swap2\n      pop\n      pop\n      jump\t// out\n        /* \"#utility.yul\":1518:1595   */\n    tag_134:\n        /* \"#utility.yul\":1555:1562   */\n      0x00\n        /* \"#utility.yul\":1584:1589   */\n      dup2\n        /* \"#utility.yul\":1573:1589   */\n      swap1\n      pop\n        /* \"#utility.yul\":1518:1595   */\n      swap2\n      swap1\n      pop\n      jump\t// out\n        /* \"#utility.yul\":1601:1723   */\n    tag_135:\n        /* \"#utility.yul\":1674:1698   */\n      tag_182\n        /* \"#utility.yul\":1692:1697   */\n      dup2\n        /* \"#utility.yul\":1674:1698   */\n      tag_134\n      jump\t// in\n    tag_182:\n        /* \"#utility.yul\":1667:1672   */\n      dup2\n        /* \"#utility.yul\":1664:1699   */\n      eq\n        /* \"#utility.yul\":1654:1717   */\n      tag_183\n      jumpi\n        /* \"#utility.yul\":1713:1714   */\n      0x00\n        /* \"#utility.yul\":1710:1711   */\n      dup1\n        /* \"#utility.yul\":1703:1715   */\n      revert\n        /* \"#utility.yul\":1654:1717   */\n    tag_183:\n        /* \"#utility.yul\":1601:1723   */\n      pop\n      jump\t// out\n        /* \"#utility.yul\":1729:1868   */\n    tag_136:\n        /* \"#utility.yul\":1775:1780   */\n      0x00\n        /* \"#utility.yul\":1813:1819   */\n      dup2\n        /* \"#utility.yul\":1800:1820   */\n      calldataload\n        /* \"#utility.yul\":1791:1820   */\n      swap1\n      pop\n        /* \"#utility.yul\":1829:1862   */\n      tag_185\n        /* \"#utility.yul\":1856:1861   */\n      dup2\n        /* \"#utility.yul\":1829:1862   */\n      tag_135\n      jump\t// in\n    tag_185:\n        /* \"#utility.yul\":1729:1868   */\n      swap3\n      swap2\n      pop\n      pop\n      jump\t// out\n        /* \"#utility.yul\":1874:2203   */\n    tag_23:\n        /* \"#utility.yul\":1933:1939   */\n      0x00\n        /* \"#utility.yul\":1982:1984   */\n      0x20\n        /* \"#utility.yul\":1970:1979   */\n      dup3\n        /* \"#utility.yul\":1961:1968   */\n      dup5\n        /* \"#utility.yul\":1957:1980   */\n      sub\n        /* \"#utility.yul\":1953:1985   */\n      slt\n        /* \"#utility.yul\":1950:2069   */\n      iszero\n      tag_187\n      jumpi\n        /* \"#utility.yul\":1988:2067   */\n      tag_188\n      tag_127\n      jump\t// in\n    tag_188:\n        /* \"#utility.yul\":1950:2069   */\n    tag_187:\n        /* \"#utility.yul\":2108:2109   */\n      0x00\n        /* \"#utility.yul\":2133:2186   */\n      tag_189\n        /* \"#utility.yul\":2178:2185   */\n      dup5\n        /* \"#utility.yul\":2169:2175   */\n      dup3\n        /* \"#utility.yul\":2158:2167   */\n      dup6\n        /* \"#utility.yul\":2154:2176   */\n      add\n        /* \"#utility.yul\":2133:2186   */\n      tag_136\n      jump\t// in\n    tag_189:\n        /* \"#utility.yul\":2123:2186   */\n      swap2\n      pop\n        /* \"#utility.yul\":2079:2196   */\n      pop\n        /* \"#utility.yul\":1874:2203   */\n      swap3\n      swap2\n      pop\n      pop\n      jump\t// out\n        /* \"#utility.yul\":2209:2335   */\n    tag_137:\n        /* \"#utility.yul\":2246:2253   */\n      0x00\n        /* \"#utility.yul\":2286:2328   */\n      0xffffffffffffffffffffffffffffffffffffffff\n        /* \"#utility.yul\":2279:2284   */\n      dup3\n        /* \"#utility.yul\":2275:2329   */\n      and\n        /* \"#utility.yul\":2264:2329   */\n      swap1\n      pop\n        /* \"#utility.yul\":2209:2335   */\n      swap2\n      swap1\n      pop\n      jump\t// out\n        /* \"#utility.yul\":2341:2437   */\n    tag_138:\n        /* \"#utility.yul\":2378:2385   */\n      0x00\n        /* \"#utility.yul\":2407:2431   */\n      tag_192\n        /* \"#utility.yul\":2425:2430   */\n      dup3\n        /* \"#utility.yul\":2407:2431   */\n      tag_137\n      jump\t// in\n    tag_192:\n        /* \"#utility.yul\":2396:2431   */\n      swap1\n      pop\n        /* \"#utility.yul\":2341:2437   */\n      swap2\n      swap1\n      pop\n      jump\t// out\n        /* \"#utility.yul\":2443:2561   */\n    tag_139:\n        /* \"#utility.yul\":2530:2554   */\n      tag_194\n        /* \"#utility.yul\":2548:2553   */\n      dup2\n        /* \"#utility.yul\":2530:2554   */\n      tag_138\n      jump\t// in\n    tag_194:\n        /* \"#utility.yul\":2525:2528   */\n      dup3\n        /* \"#utility.yul\":2518:2555   */\n      mstore\n        /* \"#utility.yul\":2443:2561   */\n      pop\n      pop\n      jump\t// out\n        /* \"#utility.yul\":2567:2789   */\n    tag_26:\n        /* \"#utility.yul\":2660:2664   */\n      0x00\n        /* \"#utility.yul\":2698:2700   */\n      0x20\n        /* \"#utility.yul\":2687:2696   */\n      dup3\n        /* \"#utility.yul\":2683:2701   */\n      add\n        /* \"#utility.yul\":2675:2701   */\n      swap1\n      pop\n        /* \"#utility.yul\":2711:2782   */\n      tag_196\n        /* \"#utility.yul\":2779:2780   */\n      0x00\n        /* \"#utility.yul\":2768:2777   */\n      dup4\n        /* \"#utility.yul\":2764:2781   */\n      add\n        /* \"#utility.yul\":2755:2761   */\n      dup5\n        /* \"#utility.yul\":2711:2782   */\n      tag_139\n      jump\t// in\n    tag_196:\n        /* \"#utility.yul\":2567:2789   */\n      swap3\n      swap2\n      pop\n      pop\n      jump\t// out\n        /* \"#utility.yul\":2795:2917   */\n    tag_140:\n        /* \"#utility.yul\":2868:2892   */\n      tag_198\n        /* \"#utility.yul\":2886:2891   */\n      dup2\n        /* \"#utility.yul\":2868:2892   */\n      tag_138\n      jump\t// in\n    tag_198:\n        /* \"#utility.yul\":2861:2866   */\n      dup2\n        /* \"#utility.yul\":2858:2893   */\n      eq\n        /* \"#utility.yul\":2848:2911   */\n      tag_199\n      jumpi\n        /* \"#utility.yul\":2907:2908   */\n      0x00\n        /* \"#utility.yul\":2904:2905   */\n      dup1\n        /* \"#utility.yul\":2897:2909   */\n      revert\n        /* \"#utility.yul\":2848:2911   */\n    tag_199:\n        /* \"#utility.yul\":2795:2917   */\n      pop\n      jump\t// out\n        /* \"#utility.yul\":2923:3062   */\n    tag_141:\n        /* \"#utility.yul\":2969:2974   */\n      0x00\n        /* \"#utility.yul\":3007:3013   */\n      dup2\n        /* \"#utility.yul\":2994:3014   */\n      calldataload\n        /* \"#utility.yul\":2985:3014   */\n      swap1\n      pop\n        /* \"#utility.yul\":3023:3056   */\n      tag_201\n        /* \"#utility.yul\":3050:3055   */\n      dup2\n        /* \"#utility.yul\":3023:3056   */\n      tag_140\n      jump\t// in\n    tag_201:\n        /* \"#utility.yul\":2923:3062   */\n      swap3\n      swap2\n      pop\n      pop\n      jump\t// out\n        /* \"#utility.yul\":3068:3542   */\n    tag_29:\n        /* \"#utility.yul\":3136:3142   */\n      0x00\n        /* \"#utility.yul\":3144:3150   */\n      dup1\n        /* \"#utility.yul\":3193:3195   */\n      0x40\n        /* \"#utility.yul\":3181:3190   */\n      dup4\n        /* \"#utility.yul\":3172:3179   */\n      dup6\n        /* \"#utility.yul\":3168:3191   */\n      sub\n        /* \"#utility.yul\":3164:3196   */\n      slt\n        /* \"#utility.yul\":3161:3280   */\n      iszero\n      tag_203\n      jumpi\n        /* \"#utility.yul\":3199:3278   */\n      tag_204\n      tag_127\n      jump\t// in\n    tag_204:\n        /* \"#utility.yul\":3161:3280   */\n    tag_203:\n        /* \"#utility.yul\":3319:3320   */\n      0x00\n        /* \"#utility.yul\":3344:3397   */\n      tag_205\n        /* \"#utility.yul\":3389:3396   */\n      dup6\n        /* \"#utility.yul\":3380:3386   */\n      dup3\n        /* \"#utility.yul\":3369:3378   */\n      dup7\n        /* \"#utility.yul\":3365:3387   */\n      add\n        /* \"#utility.yul\":3344:3397   */\n      tag_141\n      jump\t// in\n    tag_205:\n        /* \"#utility.yul\":3334:3397   */\n      swap3\n      pop\n        /* \"#utility.yul\":3290:3407   */\n      pop\n        /* \"#utility.yul\":3446:3448   */\n      0x20\n        /* \"#utility.yul\":3472:3525   */\n      tag_206\n        /* \"#utility.yul\":3517:3524   */\n      dup6\n        /* \"#utility.yul\":3508:3514   */\n      dup3\n        /* \"#utility.yul\":3497:3506   */\n      dup7\n        /* \"#utility.yul\":3493:3515   */\n      add\n        /* \"#utility.yul\":3472:3525   */\n      tag_136\n      jump\t// in\n    tag_206:\n        /* \"#utility.yul\":3462:3525   */\n      swap2\n      pop\n        /* \"#utility.yul\":3417:3535   */\n      pop\n        /* \"#utility.yul\":3068:3542   */\n      swap3\n      pop\n      swap3\n      swap1\n      pop\n      jump\t// out\n        /* \"#utility.yul\":3548:4167   */\n    tag_33:\n        /* \"#utility.yul\":3625:3631   */\n      0x00\n        /* \"#utility.yul\":3633:3639   */\n      dup1\n        /* \"#utility.yul\":3641:3647   */\n      0x00\n        /* \"#utility.yul\":3690:3692   */\n      0x60\n        /* \"#utility.yul\":3678:3687   */\n      dup5\n        /* \"#utility.yul\":3669:3676   */\n      dup7\n        /* \"#utility.yul\":3665:3688   */\n      sub\n        /* \"#utility.yul\":3661:3693   */\n      slt\n        /* \"#utility.yul\":3658:3777   */\n      iszero\n      tag_208\n      jumpi\n        /* \"#utility.yul\":3696:3775   */\n      tag_209\n      tag_127\n      jump\t// in\n    tag_209:\n        /* \"#utility.yul\":3658:3777   */\n    tag_208:\n        /* \"#utility.yul\":3816:3817   */\n      0x00\n        /* \"#utility.yul\":3841:3894   */\n      tag_210\n        /* \"#utility.yul\":3886:3893   */\n      dup7\n        /* \"#utility.yul\":3877:3883   */\n      dup3\n        /* \"#utility.yul\":3866:3875   */\n      dup8\n        /* \"#utility.yul\":3862:3884   */\n      add\n        /* \"#utility.yul\":3841:3894   */\n      tag_141\n      jump\t// in\n    tag_210:\n        /* \"#utility.yul\":3831:3894   */\n      swap4\n      pop\n        /* \"#utility.yul\":3787:3904   */\n      pop\n        /* \"#utility.yul\":3943:3945   */\n      0x20\n        /* \"#utility.yul\":3969:4022   */\n      tag_211\n        /* \"#utility.yul\":4014:4021   */\n      dup7\n        /* \"#utility.yul\":4005:4011   */\n      dup3\n        /* \"#utility.yul\":3994:4003   */\n      dup8\n        /* \"#utility.yul\":3990:4012   */\n      add\n        /* \"#utility.yul\":3969:4022   */\n      tag_141\n      jump\t// in\n    tag_211:\n        /* \"#utility.yul\":3959:4022   */\n      swap3\n      pop\n        /* \"#utility.yul\":3914:4032   */\n      pop\n        /* \"#utility.yul\":4071:4073   */\n      0x40\n        /* \"#utility.yul\":4097:4150   */\n      tag_212\n        /* \"#utility.yul\":4142:4149   */\n      dup7\n        /* \"#utility.yul\":4133:4139   */\n      dup3\n        /* \"#utility.yul\":4122:4131   */\n      dup8\n        /* \"#utility.yul\":4118:4140   */\n      add\n        /* \"#utility.yul\":4097:4150   */\n      tag_136\n      jump\t// in\n    tag_212:\n        /* \"#utility.yul\":4087:4150   */\n      swap2\n      pop\n        /* \"#utility.yul\":4042:4160   */\n      pop\n        /* \"#utility.yul\":3548:4167   */\n      swap3\n      pop\n      swap3\n      pop\n      swap3\n      jump\t// out\n        /* \"#utility.yul\":4173:4502   */\n    tag_48:\n        /* \"#utility.yul\":4232:4238   */\n      0x00\n        /* \"#utility.yul\":4281:4283   */\n      0x20\n        /* \"#utility.yul\":4269:4278   */\n      dup3\n        /* \"#utility.yul\":4260:4267   */\n      dup5\n        /* \"#utility.yul\":4256:4279   */\n      sub\n        /* \"#utility.yul\":4252:4284   */\n      slt\n        /* \"#utility.yul\":4249:4368   */\n      iszero\n      tag_214\n      jumpi\n        /* \"#utility.yul\":4287:4366   */\n      tag_215\n      tag_127\n      jump\t// in\n    tag_215:\n        /* \"#utility.yul\":4249:4368   */\n    tag_214:\n        /* \"#utility.yul\":4407:4408   */\n      0x00\n        /* \"#utility.yul\":4432:4485   */\n      tag_216\n        /* \"#utility.yul\":4477:4484   */\n      dup5\n        /* \"#utility.yul\":4468:4474   */\n      dup3\n        /* \"#utility.yul\":4457:4466   */\n      dup6\n        /* \"#utility.yul\":4453:4475   */\n      add\n        /* \"#utility.yul\":4432:4485   */\n      tag_141\n      jump\t// in\n    tag_216:\n        /* \"#utility.yul\":4422:4485   */\n      swap2\n      pop\n        /* \"#utility.yul\":4378:4495   */\n      pop\n        /* \"#utility.yul\":4173:4502   */\n      swap3\n      swap2\n      pop\n      pop\n      jump\t// out\n        /* \"#utility.yul\":4508:4626   */\n    tag_142:\n        /* \"#utility.yul\":4595:4619   */\n      tag_218\n        /* \"#utility.yul\":4613:4618   */\n      dup2\n        /* \"#utility.yul\":4595:4619   */\n      tag_134\n      jump\t// in\n    tag_218:\n        /* \"#utility.yul\":4590:4593   */\n      dup3\n        /* \"#utility.yul\":4583:4620   */\n      mstore\n        /* \"#utility.yul\":4508:4626   */\n      pop\n      pop\n      jump\t// out\n        /* \"#utility.yul\":4632:4854   */\n    tag_51:\n        /* \"#utility.yul\":4725:4729   */\n      0x00\n        /* \"#utility.yul\":4763:4765   */\n      0x20\n        /* \"#utility.yul\":4752:4761   */\n      dup3\n        /* \"#utility.yul\":4748:4766   */\n      add\n        /* \"#utility.yul\":4740:4766   */\n      swap1\n      pop\n        /* \"#utility.yul\":4776:4847   */\n      tag_220\n        /* \"#utility.yul\":4844:4845   */\n      0x00\n        /* \"#utility.yul\":4833:4842   */\n      dup4\n        /* \"#utility.yul\":4829:4846   */\n      add\n        /* \"#utility.yul\":4820:4826   */\n      dup5\n        /* \"#utility.yul\":4776:4847   */\n      tag_142\n      jump\t// in\n    tag_220:\n        /* \"#utility.yul\":4632:4854   */\n      swap3\n      swap2\n      pop\n      pop\n      jump\t// out\n        /* \"#utility.yul\":4860:4976   */\n    tag_143:\n        /* \"#utility.yul\":4930:4951   */\n      tag_222\n        /* \"#utility.yul\":4945:4950   */\n      dup2\n        /* \"#utility.yul\":4930:4951   */\n      tag_132\n      jump\t// in\n    tag_222:\n        /* \"#utility.yul\":4923:4928   */\n      dup2\n        /* \"#utility.yul\":4920:4952   */\n      eq\n        /* \"#utility.yul\":4910:4970   */\n      tag_223\n      jumpi\n        /* \"#utility.yul\":4966:4967   */\n      0x00\n        /* \"#utility.yul\":4963:4964   */\n      dup1\n        /* \"#utility.yul\":4956:4968   */\n      revert\n        /* \"#utility.yul\":4910:4970   */\n    tag_223:\n        /* \"#utility.yul\":4860:4976   */\n      pop\n      jump\t// out\n        /* \"#utility.yul\":4982:5115   */\n    tag_144:\n        /* \"#utility.yul\":5025:5030   */\n      0x00\n        /* \"#utility.yul\":5063:5069   */\n      dup2\n        /* \"#utility.yul\":5050:5070   */\n      calldataload\n        /* \"#utility.yul\":5041:5070   */\n      swap1\n      pop\n        /* \"#utility.yul\":5079:5109   */\n      tag_225\n        /* \"#utility.yul\":5103:5108   */\n      dup2\n        /* \"#utility.yul\":5079:5109   */\n      tag_143\n      jump\t// in\n    tag_225:\n        /* \"#utility.yul\":4982:5115   */\n      swap3\n      swap2\n      pop\n      pop\n      jump\t// out\n        /* \"#utility.yul\":5121:5589   */\n    tag_54:\n        /* \"#utility.yul\":5186:5192   */\n      0x00\n        /* \"#utility.yul\":5194:5200   */\n      dup1\n        /* \"#utility.yul\":5243:5245   */\n      0x40\n        /* \"#utility.yul\":5231:5240   */\n      dup4\n        /* \"#utility.yul\":5222:5229   */\n      dup6\n        /* \"#utility.yul\":5218:5241   */\n      sub\n        /* \"#utility.yul\":5214:5246   */\n      slt\n        /* \"#utility.yul\":5211:5330   */\n      iszero\n      tag_227\n      jumpi\n        /* \"#utility.yul\":5249:5328   */\n      tag_228\n      tag_127\n      jump\t// in\n    tag_228:\n        /* \"#utility.yul\":5211:5330   */\n    tag_227:\n        /* \"#utility.yul\":5369:5370   */\n      0x00\n        /* \"#utility.yul\":5394:5447   */\n      tag_229\n        /* \"#utility.yul\":5439:5446   */\n      dup6\n        /* \"#utility.yul\":5430:5436   */\n      dup3\n        /* \"#utility.yul\":5419:5428   */\n      dup7\n        /* \"#utility.yul\":5415:5437   */\n      add\n        /* \"#utility.yul\":5394:5447   */\n      tag_141\n      jump\t// in\n    tag_229:\n        /* \"#utility.yul\":5384:5447   */\n      swap3\n      pop\n        /* \"#utility.yul\":5340:5457   */\n      pop\n        /* \"#utility.yul\":5496:5498   */\n      0x20\n        /* \"#utility.yul\":5522:5572   */\n      tag_230\n        /* \"#utility.yul\":5564:5571   */\n      dup6\n        /* \"#utility.yul\":5555:5561   */\n      dup3\n        /* \"#utility.yul\":5544:5553   */\n      dup7\n        /* \"#utility.yul\":5540:5562   */\n      add\n        /* \"#utility.yul\":5522:5572   */\n      tag_144\n      jump\t// in\n    tag_230:\n        /* \"#utility.yul\":5512:5572   */\n      swap2\n      pop\n        /* \"#utility.yul\":5467:5582   */\n      pop\n        /* \"#utility.yul\":5121:5589   */\n      swap3\n      pop\n      swap3\n      swap1\n      pop\n      jump\t// out\n        /* \"#utility.yul\":5595:5712   */\n    tag_145:\n        /* \"#utility.yul\":5704:5705   */\n      0x00\n        /* \"#utility.yul\":5701:5702   */\n      dup1\n        /* \"#utility.yul\":5694:5706   */\n      revert\n        /* \"#utility.yul\":5718:5835   */\n    tag_146:\n        /* \"#utility.yul\":5827:5828   */\n      0x00\n        /* \"#utility.yul\":5824:5825   */\n      dup1\n        /* \"#utility.yul\":5817:5829   */\n      revert\n        /* \"#utility.yul\":5841:5943   */\n    tag_147:\n        /* \"#utility.yul\":5882:5888   */\n      0x00\n        /* \"#utility.yul\":5933:5935   */\n      0x1f\n        /* \"#utility.yul\":5929:5936   */\n      not\n        /* \"#utility.yul\":5924:5926   */\n      0x1f\n        /* \"#utility.yul\":5917:5922   */\n      dup4\n        /* \"#utility.yul\":5913:5927   */\n      add\n        /* \"#utility.yul\":5909:5937   */\n      and\n        /* \"#utility.yul\":5899:5937   */\n      swap1\n      pop\n        /* \"#utility.yul\":5841:5943   */\n      swap2\n      swap1\n      pop\n      jump\t// out\n        /* \"#utility.yul\":5949:6129   */\n    tag_148:\n        /* \"#utility.yul\":5997:6074   */\n      0x4e487b7100000000000000000000000000000000000000000000000000000000\n        /* \"#utility.yul\":5994:5995   */\n      0x00\n        /* \"#utility.yul\":5987:6075   */\n      mstore\n        /* \"#utility.yul\":6094:6098   */\n      0x41\n        /* \"#utility.yul\":6091:6092   */\n      0x04\n        /* \"#utility.yul\":6084:6099   */\n      mstore\n        /* \"#utility.yul\":6118:6122   */\n      0x24\n        /* \"#utility.yul\":6115:6116   */\n      0x00\n        /* \"#utility.yul\":6108:6123   */\n      revert\n        /* \"#utility.yul\":6135:6416   */\n    tag_149:\n        /* \"#utility.yul\":6218:6245   */\n      tag_236\n        /* \"#utility.yul\":6240:6244   */\n      dup3\n        /* \"#utility.yul\":6218:6245   */\n      tag_147\n      jump\t// in\n    tag_236:\n        /* \"#utility.yul\":6210:6216   */\n      dup2\n        /* \"#utility.yul\":6206:6246   */\n      add\n        /* \"#utility.yul\":6348:6354   */\n      dup2\n        /* \"#utility.yul\":6336:6346   */\n      dup2\n        /* \"#utility.yul\":6333:6355   */\n      lt\n        /* \"#utility.yul\":6312:6330   */\n      0xffffffffffffffff\n        /* \"#utility.yul\":6300:6310   */\n      dup3\n        /* \"#utility.yul\":6297:6331   */\n      gt\n        /* \"#utility.yul\":6294:6356   */\n      or\n        /* \"#utility.yul\":6291:6379   */\n      iszero\n      tag_237\n      jumpi\n        /* \"#utility.yul\":6359:6377   */\n      tag_238\n      tag_148\n      jump\t// in\n    tag_238:\n        /* \"#utility.yul\":6291:6379   */\n    tag_237:\n        /* \"#utility.yul\":6399:6409   */\n      dup1\n        /* \"#utility.yul\":6395:6397   */\n      0x40\n        /* \"#utility.yul\":6388:6410   */\n      mstore\n        /* \"#utility.yul\":6178:6416   */\n      pop\n        /* \"#utility.yul\":6135:6416   */\n      pop\n      pop\n      jump\t// out\n        /* \"#utility.yul\":6422:6551   */\n    tag_150:\n        /* \"#utility.yul\":6456:6462   */\n      0x00\n        /* \"#utility.yul\":6483:6503   */\n      tag_240\n      tag_126\n      jump\t// in\n    tag_240:\n        /* \"#utility.yul\":6473:6503   */\n      swap1\n      pop\n        /* \"#utility.yul\":6512:6545   */\n      tag_241\n        /* \"#utility.yul\":6540:6544   */\n      dup3\n        /* \"#utility.yul\":6532:6538   */\n      dup3\n        /* \"#utility.yul\":6512:6545   */\n      tag_149\n      jump\t// in\n    tag_241:\n        /* \"#utility.yul\":6422:6551   */\n      swap2\n      swap1\n      pop\n      jump\t// out\n        /* \"#utility.yul\":6557:6864   */\n    tag_151:\n        /* \"#utility.yul\":6618:6622   */\n      0x00\n        /* \"#utility.yul\":6708:6726   */\n      0xffffffffffffffff\n        /* \"#utility.yul\":6700:6706   */\n      dup3\n        /* \"#utility.yul\":6697:6727   */\n      gt\n        /* \"#utility.yul\":6694:6750   */\n      iszero\n      tag_243\n      jumpi\n        /* \"#utility.yul\":6730:6748   */\n      tag_244\n      tag_148\n      jump\t// in\n    tag_244:\n        /* \"#utility.yul\":6694:6750   */\n    tag_243:\n        /* \"#utility.yul\":6768:6797   */\n      tag_245\n        /* \"#utility.yul\":6790:6796   */\n      dup3\n        /* \"#utility.yul\":6768:6797   */\n      tag_147\n      jump\t// in\n    tag_245:\n        /* \"#utility.yul\":6760:6797   */\n      swap1\n      pop\n        /* \"#utility.yul\":6852:6856   */\n      0x20\n        /* \"#utility.yul\":6846:6850   */\n      dup2\n        /* \"#utility.yul\":6842:6857   */\n      add\n        /* \"#utility.yul\":6834:6857   */\n      swap1\n      pop\n        /* \"#utility.yul\":6557:6864   */\n      swap2\n      swap1\n      pop\n      jump\t// out\n        /* \"#utility.yul\":6870:7016   */\n    tag_152:\n        /* \"#utility.yul\":6967:6973   */\n      dup3\n        /* \"#utility.yul\":6962:6965   */\n      dup2\n        /* \"#utility.yul\":6957:6960   */\n      dup4\n        /* \"#utility.yul\":6944:6974   */\n      calldatacopy\n        /* \"#utility.yul\":7008:7009   */\n      0x00\n        /* \"#utility.yul\":6999:7005   */\n      dup4\n        /* \"#utility.yul\":6994:6997   */\n      dup4\n        /* \"#utility.yul\":6990:7006   */\n      add\n        /* \"#utility.yul\":6983:7010   */\n      mstore\n        /* \"#utility.yul\":6870:7016   */\n      pop\n      pop\n      pop\n      jump\t// out\n        /* \"#utility.yul\":7022:7445   */\n    tag_153:\n        /* \"#utility.yul\":7099:7104   */\n      0x00\n        /* \"#utility.yul\":7124:7189   */\n      tag_248\n        /* \"#utility.yul\":7140:7188   */\n      tag_249\n        /* \"#utility.yul\":7181:7187   */\n      dup5\n        /* \"#utility.yul\":7140:7188   */\n      tag_151\n      jump\t// in\n    tag_249:\n        /* \"#utility.yul\":7124:7189   */\n      tag_150\n      jump\t// in\n    tag_248:\n        /* \"#utility.yul\":7115:7189   */\n      swap1\n      pop\n        /* \"#utility.yul\":7212:7218   */\n      dup3\n        /* \"#utility.yul\":7205:7210   */\n      dup2\n        /* \"#utility.yul\":7198:7219   */\n      mstore\n        /* \"#utility.yul\":7250:7254   */\n      0x20\n        /* \"#utility.yul\":7243:7248   */\n      dup2\n        /* \"#utility.yul\":7239:7255   */\n      add\n        /* \"#utility.yul\":7288:7291   */\n      dup5\n        /* \"#utility.yul\":7279:7285   */\n      dup5\n        /* \"#utility.yul\":7274:7277   */\n      dup5\n        /* \"#utility.yul\":7270:7286   */\n      add\n        /* \"#utility.yul\":7267:7292   */\n      gt\n        /* \"#utility.yul\":7264:7376   */\n      iszero\n      tag_250\n      jumpi\n        /* \"#utility.yul\":7295:7374   */\n      tag_251\n      tag_146\n      jump\t// in\n    tag_251:\n        /* \"#utility.yul\":7264:7376   */\n    tag_250:\n        /* \"#utility.yul\":7385:7439   */\n      tag_252\n        /* \"#utility.yul\":7432:7438   */\n      dup5\n        /* \"#utility.yul\":7427:7430   */\n      dup3\n        /* \"#utility.yul\":7422:7425   */\n      dup6\n        /* \"#utility.yul\":7385:7439   */\n      tag_152\n      jump\t// in\n    tag_252:\n        /* \"#utility.yul\":7105:7445   */\n      pop\n        /* \"#utility.yul\":7022:7445   */\n      swap4\n      swap3\n      pop\n      pop\n      pop\n      jump\t// out\n        /* \"#utility.yul\":7464:7802   */\n    tag_154:\n        /* \"#utility.yul\":7519:7524   */\n      0x00\n        /* \"#utility.yul\":7568:7571   */\n      dup3\n        /* \"#utility.yul\":7561:7565   */\n      0x1f\n        /* \"#utility.yul\":7553:7559   */\n      dup4\n        /* \"#utility.yul\":7549:7566   */\n      add\n        /* \"#utility.yul\":7545:7572   */\n      slt\n        /* \"#utility.yul\":7535:7657   */\n      tag_254\n      jumpi\n        /* \"#utility.yul\":7576:7655   */\n      tag_255\n      tag_145\n      jump\t// in\n    tag_255:\n        /* \"#utility.yul\":7535:7657   */\n    tag_254:\n        /* \"#utility.yul\":7693:7699   */\n      dup2\n        /* \"#utility.yul\":7680:7700   */\n      calldataload\n        /* \"#utility.yul\":7718:7796   */\n      tag_256\n        /* \"#utility.yul\":7792:7795   */\n      dup5\n        /* \"#utility.yul\":7784:7790   */\n      dup3\n        /* \"#utility.yul\":7777:7781   */\n      0x20\n        /* \"#utility.yul\":7769:7775   */\n      dup7\n        /* \"#utility.yul\":7765:7782   */\n      add\n        /* \"#utility.yul\":7718:7796   */\n      tag_153\n      jump\t// in\n    tag_256:\n        /* \"#utility.yul\":7709:7796   */\n      swap2\n      pop\n        /* \"#utility.yul\":7525:7802   */\n      pop\n        /* \"#utility.yul\":7464:7802   */\n      swap3\n      swap2\n      pop\n      pop\n      jump\t// out\n        /* \"#utility.yul\":7808:8751   */\n    tag_58:\n        /* \"#utility.yul\":7903:7909   */\n      0x00\n        /* \"#utility.yul\":7911:7917   */\n      dup1\n        /* \"#utility.yul\":7919:7925   */\n      0x00\n        /* \"#utility.yul\":7927:7933   */\n      dup1\n        /* \"#utility.yul\":7976:7979   */\n      0x80\n        /* \"#utility.yul\":7964:7973   */\n      dup6\n        /* \"#utility.yul\":7955:7962   */\n      dup8\n        /* \"#utility.yul\":7951:7974   */\n      sub\n        /* \"#utility.yul\":7947:7980   */\n      slt\n        /* \"#utility.yul\":7944:8064   */\n      iszero\n      tag_258\n      jumpi\n        /* \"#utility.yul\":7983:8062   */\n      tag_259\n      tag_127\n      jump\t// in\n    tag_259:\n        /* \"#utility.yul\":7944:8064   */\n    tag_258:\n        /* \"#utility.yul\":8103:8104   */\n      0x00\n        /* \"#utility.yul\":8128:8181   */\n      tag_260\n        /* \"#utility.yul\":8173:8180   */\n      dup8\n        /* \"#utility.yul\":8164:8170   */\n      dup3\n        /* \"#utility.yul\":8153:8162   */\n      dup9\n        /* \"#utility.yul\":8149:8171   */\n      add\n        /* \"#utility.yul\":8128:8181   */\n      tag_141\n      jump\t// in\n    tag_260:\n        /* \"#utility.yul\":8118:8181   */\n      swap5\n      pop\n        /* \"#utility.yul\":8074:8191   */\n      pop\n        /* \"#utility.yul\":8230:8232   */\n      0x20\n        /* \"#utility.yul\":8256:8309   */\n      tag_261\n        /* \"#utility.yul\":8301:8308   */\n      dup8\n        /* \"#utility.yul\":8292:8298   */\n      dup3\n        /* \"#utility.yul\":8281:8290   */\n      dup9\n        /* \"#utility.yul\":8277:8299   */\n      add\n        /* \"#utility.yul\":8256:8309   */\n      tag_141\n      jump\t// in\n    tag_261:\n        /* \"#utility.yul\":8246:8309   */\n      swap4\n      pop\n        /* \"#utility.yul\":8201:8319   */\n      pop\n        /* \"#utility.yul\":8358:8360   */\n      0x40\n        /* \"#utility.yul\":8384:8437   */\n      tag_262\n        /* \"#utility.yul\":8429:8436   */\n      dup8\n        /* \"#utility.yul\":8420:8426   */\n      dup3\n        /* \"#utility.yul\":8409:8418   */\n      dup9\n        /* \"#utility.yul\":8405:8427   */\n      add\n        /* \"#utility.yul\":8384:8437   */\n      tag_136\n      jump\t// in\n    tag_262:\n        /* \"#utility.yul\":8374:8437   */\n      swap3\n      pop\n        /* \"#utility.yul\":8329:8447   */\n      pop\n        /* \"#utility.yul\":8514:8516   */\n      0x60\n        /* \"#utility.yul\":8503:8512   */\n      dup6\n        /* \"#utility.yul\":8499:8517   */\n      add\n        /* \"#utility.yul\":8486:8518   */\n      calldataload\n        /* \"#utility.yul\":8545:8563   */\n      0xffffffffffffffff\n        /* \"#utility.yul\":8537:8543   */\n      dup2\n        /* \"#utility.yul\":8534:8564   */\n      gt\n        /* \"#utility.yul\":8531:8648   */\n      iszero\n      tag_263\n      jumpi\n        /* \"#utility.yul\":8567:8646   */\n      tag_264\n      tag_128\n      jump\t// in\n    tag_264:\n        /* \"#utility.yul\":8531:8648   */\n    tag_263:\n        /* \"#utility.yul\":8672:8734   */\n      tag_265\n        /* \"#utility.yul\":8726:8733   */\n      dup8\n        /* \"#utility.yul\":8717:8723   */\n      dup3\n        /* \"#utility.yul\":8706:8715   */\n      dup9\n        /* \"#utility.yul\":8702:8724   */\n      add\n        /* \"#utility.yul\":8672:8734   */\n      tag_154\n      jump\t// in\n    tag_265:\n        /* \"#utility.yul\":8662:8734   */\n      swap2\n      pop\n        /* \"#utility.yul\":8457:8744   */\n      pop\n        /* \"#utility.yul\":7808:8751   */\n      swap3\n      swap6\n      swap2\n      swap5\n      pop\n      swap3\n      pop\n      jump\t// out\n        /* \"#utility.yul\":8757:9231   */\n    tag_62:\n        /* \"#utility.yul\":8825:8831   */\n      0x00\n        /* \"#utility.yul\":8833:8839   */\n      dup1\n        /* \"#utility.yul\":8882:8884   */\n      0x40\n        /* \"#utility.yul\":8870:8879   */\n      dup4\n        /* \"#utility.yul\":8861:8868   */\n      dup6\n        /* \"#utility.yul\":8857:8880   */\n      sub\n        /* \"#utility.yul\":8853:8885   */\n      slt\n        /* \"#utility.yul\":8850:8969   */\n      iszero\n      tag_267\n      jumpi\n        /* \"#utility.yul\":8888:8967   */\n      tag_268\n      tag_127\n      jump\t// in\n    tag_268:\n        /* \"#utility.yul\":8850:8969   */\n    tag_267:\n        /* \"#utility.yul\":9008:9009   */\n      0x00\n        /* \"#utility.yul\":9033:9086   */\n      tag_269\n        /* \"#utility.yul\":9078:9085   */\n      dup6\n        /* \"#utility.yul\":9069:9075   */\n      dup3\n        /* \"#utility.yul\":9058:9067   */\n      dup7\n        /* \"#utility.yul\":9054:9076   */\n      add\n        /* \"#utility.yul\":9033:9086   */\n      tag_141\n      jump\t// in\n    tag_269:\n        /* \"#utility.yul\":9023:9086   */\n      swap3\n      pop\n        /* \"#utility.yul\":8979:9096   */\n      pop\n        /* \"#utility.yul\":9135:9137   */\n      0x20\n        /* \"#utility.yul\":9161:9214   */\n      tag_270\n        /* \"#utility.yul\":9206:9213   */\n      dup6\n        /* \"#utility.yul\":9197:9203   */\n      dup3\n        /* \"#utility.yul\":9186:9195   */\n      dup7\n        /* \"#utility.yul\":9182:9204   */\n      add\n        /* \"#utility.yul\":9161:9214   */\n      tag_141\n      jump\t// in\n    tag_270:\n        /* \"#utility.yul\":9151:9214   */\n      swap2\n      pop\n        /* \"#utility.yul\":9106:9224   */\n      pop\n        /* \"#utility.yul\":8757:9231   */\n      swap3\n      pop\n      swap3\n      swap1\n      pop\n      jump\t// out\n        /* \"#utility.yul\":9237:9417   */\n    tag_155:\n        /* \"#utility.yul\":9285:9362   */\n      0x4e487b7100000000000000000000000000000000000000000000000000000000\n        /* \"#utility.yul\":9282:9283   */\n      0x00\n        /* \"#utility.yul\":9275:9363   */\n      mstore\n        /* \"#utility.yul\":9382:9386   */\n      0x11\n        /* \"#utility.yul\":9379:9380   */\n      0x04\n        /* \"#utility.yul\":9372:9387   */\n      mstore\n        /* \"#utility.yul\":9406:9410   */\n      0x24\n        /* \"#utility.yul\":9403:9404   */\n      0x00\n        /* \"#utility.yul\":9396:9411   */\n      revert\n        /* \"#utility.yul\":9423:9617   */\n    tag_110:\n        /* \"#utility.yul\":9463:9467   */\n      0x00\n        /* \"#utility.yul\":9483:9503   */\n      tag_273\n        /* \"#utility.yul\":9501:9502   */\n      dup3\n        /* \"#utility.yul\":9483:9503   */\n      tag_134\n      jump\t// in\n    tag_273:\n        /* \"#utility.yul\":9478:9503   */\n      swap2\n      pop\n        /* \"#utility.yul\":9517:9537   */\n      tag_274\n        /* \"#utility.yul\":9535:9536   */\n      dup4\n        /* \"#utility.yul\":9517:9537   */\n      tag_134\n      jump\t// in\n    tag_274:\n        /* \"#utility.yul\":9512:9537   */\n      swap3\n      pop\n        /* \"#utility.yul\":9561:9562   */\n      dup3\n        /* \"#utility.yul\":9558:9559   */\n      dup3\n        /* \"#utility.yul\":9554:9563   */\n      sub\n        /* \"#utility.yul\":9546:9563   */\n      swap1\n      pop\n        /* \"#utility.yul\":9585:9586   */\n      dup2\n        /* \"#utility.yul\":9579:9583   */\n      dup2\n        /* \"#utility.yul\":9576:9587   */\n      gt\n        /* \"#utility.yul\":9573:9610   */\n      iszero\n      tag_275\n      jumpi\n        /* \"#utility.yul\":9590:9608   */\n      tag_276\n      tag_155\n      jump\t// in\n    tag_276:\n        /* \"#utility.yul\":9573:9610   */\n    tag_275:\n        /* \"#utility.yul\":9423:9617   */\n      swap3\n      swap2\n      pop\n      pop\n      jump\t// out\n        /* \"#utility.yul\":9623:9814   */\n    tag_112:\n        /* \"#utility.yul\":9663:9666   */\n      0x00\n        /* \"#utility.yul\":9682:9702   */\n      tag_278\n        /* \"#utility.yul\":9700:9701   */\n      dup3\n        /* \"#utility.yul\":9682:9702   */\n      tag_134\n      jump\t// in\n    tag_278:\n        /* \"#utility.yul\":9677:9702   */\n      swap2\n      pop\n        /* \"#utility.yul\":9716:9736   */\n      tag_279\n        /* \"#utility.yul\":9734:9735   */\n      dup4\n        /* \"#utility.yul\":9716:9736   */\n      tag_134\n      jump\t// in\n    tag_279:\n        /* \"#utility.yul\":9711:9736   */\n      swap3\n      pop\n        /* \"#utility.yul\":9759:9760   */\n      dup3\n        /* \"#utility.yul\":9756:9757   */\n      dup3\n        /* \"#utility.yul\":9752:9761   */\n      add\n        /* \"#utility.yul\":9745:9761   */\n      swap1\n      pop\n        /* \"#utility.yul\":9780:9783   */\n      dup1\n        /* \"#utility.yul\":9777:9778   */\n      dup3\n        /* \"#utility.yul\":9774:9784   */\n      gt\n        /* \"#utility.yul\":9771:9807   */\n      iszero\n      tag_280\n      jumpi\n        /* \"#utility.yul\":9787:9805   */\n      tag_281\n      tag_155\n      jump\t// in\n    tag_281:\n        /* \"#utility.yul\":9771:9807   */\n    tag_280:\n        /* \"#utility.yul\":9623:9814   */\n      swap3\n      swap2\n      pop\n      pop\n      jump\t// out\n        /* \"#utility.yul\":9820:9918   */\n    tag_156:\n        /* \"#utility.yul\":9871:9877   */\n      0x00\n        /* \"#utility.yul\":9905:9910   */\n      dup2\n        /* \"#utility.yul\":9899:9911   */\n      mload\n        /* \"#utility.yul\":9889:9911   */\n      swap1\n      pop\n        /* \"#utility.yul\":9820:9918   */\n      swap2\n      swap1\n      pop\n      jump\t// out\n        /* \"#utility.yul\":9924:10092   */\n    tag_157:\n        /* \"#utility.yul\":10007:10018   */\n      0x00\n        /* \"#utility.yul\":10041:10047   */\n      dup3\n        /* \"#utility.yul\":10036:10039   */\n      dup3\n        /* \"#utility.yul\":10029:10048   */\n      mstore\n        /* \"#utility.yul\":10081:10085   */\n      0x20\n        /* \"#utility.yul\":10076:10079   */\n      dup3\n        /* \"#utility.yul\":10072:10086   */\n      add\n        /* \"#utility.yul\":10057:10086   */\n      swap1\n      pop\n        /* \"#utility.yul\":9924:10092   */\n      swap3\n      swap2\n      pop\n      pop\n      jump\t// out\n        /* \"#utility.yul\":10098:10344   */\n    tag_158:\n        /* \"#utility.yul\":10179:10180   */\n      0x00\n        /* \"#utility.yul\":10189:10302   */\n    tag_285:\n        /* \"#utility.yul\":10203:10209   */\n      dup4\n        /* \"#utility.yul\":10200:10201   */\n      dup2\n        /* \"#utility.yul\":10197:10210   */\n      lt\n        /* \"#utility.yul\":10189:10302   */\n      iszero\n      tag_287\n      jumpi\n        /* \"#utility.yul\":10288:10289   */\n      dup1\n        /* \"#utility.yul\":10283:10286   */\n      dup3\n        /* \"#utility.yul\":10279:10290   */\n      add\n        /* \"#utility.yul\":10273:10291   */\n      mload\n        /* \"#utility.yul\":10269:10270   */\n      dup2\n        /* \"#utility.yul\":10264:10267   */\n      dup5\n        /* \"#utility.yul\":10260:10271   */\n      add\n        /* \"#utility.yul\":10253:10292   */\n      mstore\n        /* \"#utility.yul\":10225:10227   */\n      0x20\n        /* \"#utility.yul\":10222:10223   */\n      dup2\n        /* \"#utility.yul\":10218:10228   */\n      add\n        /* \"#utility.yul\":10213:10228   */\n      swap1\n      pop\n        /* \"#utility.yul\":10189:10302   */\n      jump(tag_285)\n    tag_287:\n        /* \"#utility.yul\":10336:10337   */\n      0x00\n        /* \"#utility.yul\":10327:10333   */\n      dup5\n        /* \"#utility.yul\":10322:10325   */\n      dup5\n        /* \"#utility.yul\":10318:10334   */\n      add\n        /* \"#utility.yul\":10311:10338   */\n      mstore\n        /* \"#utility.yul\":10160:10344   */\n      pop\n        /* \"#utility.yul\":10098:10344   */\n      pop\n      pop\n      pop\n      jump\t// out\n        /* \"#utility.yul\":10350:10723   */\n    tag_159:\n        /* \"#utility.yul\":10436:10439   */\n      0x00\n        /* \"#utility.yul\":10464:10502   */\n      tag_289\n        /* \"#utility.yul\":10496:10501   */\n      dup3\n        /* \"#utility.yul\":10464:10502   */\n      tag_156\n      jump\t// in\n    tag_289:\n        /* \"#utility.yul\":10518:10588   */\n      tag_290\n        /* \"#utility.yul\":10581:10587   */\n      dup2\n        /* \"#utility.yul\":10576:10579   */\n      dup6\n        /* \"#utility.yul\":10518:10588   */\n      tag_157\n      jump\t// in\n    tag_290:\n        /* \"#utility.yul\":10511:10588   */\n      swap4\n      pop\n        /* \"#utility.yul\":10597:10662   */\n      tag_291\n        /* \"#utility.yul\":10655:10661   */\n      dup2\n        /* \"#utility.yul\":10650:10653   */\n      dup6\n        /* \"#utility.yul\":10643:10647   */\n      0x20\n        /* \"#utility.yul\":10636:10641   */\n      dup7\n        /* \"#utility.yul\":10632:10648   */\n      add\n        /* \"#utility.yul\":10597:10662   */\n      tag_158\n      jump\t// in\n    tag_291:\n        /* \"#utility.yul\":10687:10716   */\n      tag_292\n        /* \"#utility.yul\":10709:10715   */\n      dup2\n        /* \"#utility.yul\":10687:10716   */\n      tag_147\n      jump\t// in\n    tag_292:\n        /* \"#utility.yul\":10682:10685   */\n      dup5\n        /* \"#utility.yul\":10678:10717   */\n      add\n        /* \"#utility.yul\":10671:10717   */\n      swap2\n      pop\n        /* \"#utility.yul\":10440:10723   */\n      pop\n        /* \"#utility.yul\":10350:10723   */\n      swap3\n      swap2\n      pop\n      pop\n      jump\t// out\n        /* \"#utility.yul\":10729:11369   */\n    tag_118:\n        /* \"#utility.yul\":10924:10928   */\n      0x00\n        /* \"#utility.yul\":10962:10965   */\n      0x80\n        /* \"#utility.yul\":10951:10960   */\n      dup3\n        /* \"#utility.yul\":10947:10966   */\n      add\n        /* \"#utility.yul\":10939:10966   */\n      swap1\n      pop\n        /* \"#utility.yul\":10976:11047   */\n      tag_294\n        /* \"#utility.yul\":11044:11045   */\n      0x00\n        /* \"#utility.yul\":11033:11042   */\n      dup4\n        /* \"#utility.yul\":11029:11046   */\n      add\n        /* \"#utility.yul\":11020:11026   */\n      dup8\n        /* \"#utility.yul\":10976:11047   */\n      tag_139\n      jump\t// in\n    tag_294:\n        /* \"#utility.yul\":11057:11129   */\n      tag_295\n        /* \"#utility.yul\":11125:11127   */\n      0x20\n        /* \"#utility.yul\":11114:11123   */\n      dup4\n        /* \"#utility.yul\":11110:11128   */\n      add\n        /* \"#utility.yul\":11101:11107   */\n      dup7\n        /* \"#utility.yul\":11057:11129   */\n      tag_139\n      jump\t// in\n    tag_295:\n        /* \"#utility.yul\":11139:11211   */\n      tag_296\n        /* \"#utility.yul\":11207:11209   */\n      0x40\n        /* \"#utility.yul\":11196:11205   */\n      dup4\n        /* \"#utility.yul\":11192:11210   */\n      add\n        /* \"#utility.yul\":11183:11189   */\n      dup6\n        /* \"#utility.yul\":11139:11211   */\n      tag_142\n      jump\t// in\n    tag_296:\n        /* \"#utility.yul\":11258:11267   */\n      dup2\n        /* \"#utility.yul\":11252:11256   */\n      dup2\n        /* \"#utility.yul\":11248:11268   */\n      sub\n        /* \"#utility.yul\":11243:11245   */\n      0x60\n        /* \"#utility.yul\":11232:11241   */\n      dup4\n        /* \"#utility.yul\":11228:11246   */\n      add\n        /* \"#utility.yul\":11221:11269   */\n      mstore\n        /* \"#utility.yul\":11286:11362   */\n      tag_297\n        /* \"#utility.yul\":11357:11361   */\n      dup2\n        /* \"#utility.yul\":11348:11354   */\n      dup5\n        /* \"#utility.yul\":11286:11362   */\n      tag_159\n      jump\t// in\n    tag_297:\n        /* \"#utility.yul\":11278:11362   */\n      swap1\n      pop\n        /* \"#utility.yul\":10729:11369   */\n      swap6\n      swap5\n      pop\n      pop\n      pop\n      pop\n      pop\n      jump\t// out\n        /* \"#utility.yul\":11375:11516   */\n    tag_160:\n        /* \"#utility.yul\":11431:11436   */\n      0x00\n        /* \"#utility.yul\":11462:11468   */\n      dup2\n        /* \"#utility.yul\":11456:11469   */\n      mload\n        /* \"#utility.yul\":11447:11469   */\n      swap1\n      pop\n        /* \"#utility.yul\":11478:11510   */\n      tag_299\n        /* \"#utility.yul\":11504:11509   */\n      dup2\n        /* \"#utility.yul\":11478:11510   */\n      tag_130\n      jump\t// in\n    tag_299:\n        /* \"#utility.yul\":11375:11516   */\n      swap3\n      swap2\n      pop\n      pop\n      jump\t// out\n        /* \"#utility.yul\":11522:11871   */\n    tag_122:\n        /* \"#utility.yul\":11591:11597   */\n      0x00\n        /* \"#utility.yul\":11640:11642   */\n      0x20\n        /* \"#utility.yul\":11628:11637   */\n      dup3\n        /* \"#utility.yul\":11619:11626   */\n      dup5\n        /* \"#utility.yul\":11615:11638   */\n      sub\n        /* \"#utility.yul\":11611:11643   */\n      slt\n        /* \"#utility.yul\":11608:11727   */\n      iszero\n      tag_301\n      jumpi\n        /* \"#utility.yul\":11646:11725   */\n      tag_302\n      tag_127\n      jump\t// in\n    tag_302:\n        /* \"#utility.yul\":11608:11727   */\n    tag_301:\n        /* \"#utility.yul\":11766:11767   */\n      0x00\n        /* \"#utility.yul\":11791:11854   */\n      tag_303\n        /* \"#utility.yul\":11846:11853   */\n      dup5\n        /* \"#utility.yul\":11837:11843   */\n      dup3\n        /* \"#utility.yul\":11826:11835   */\n      dup6\n        /* \"#utility.yul\":11822:11844   */\n      add\n        /* \"#utility.yul\":11791:11854   */\n      tag_160\n      jump\t// in\n    tag_303:\n        /* \"#utility.yul\":11781:11854   */\n      swap2\n      pop\n        /* \"#utility.yul\":11737:11864   */\n      pop\n        /* \"#utility.yul\":11522:11871   */\n      swap3\n      swap2\n      pop\n      pop\n      jump\t// out\n\n    auxdata: 0xa264697066735822122035f7720c5a64503301b2a914fa0b2df3820a45ece22c25298285a3c16938c8bd64736f6c63430008120033\n}\n",
				"bytecode": {
					"linkReferences": {},
					"object": "608060405234801561001057600080fd5b506100276301ffc9a760e01b61004260201b60201c565b61003d6380ac58cd60e01b61004260201b60201c565b6100e0565b63ffffffff60e01b817bffffffffffffffffffffffffffffffffffffffffffffffffffffffff19160361007457600080fd5b6001600080837bffffffffffffffffffffffffffffffffffffffffffffffffffffffff19167bffffffffffffffffffffffffffffffffffffffffffffffffffffffff1916815260200190815260200160002060006101000a81548160ff02191690831515021790555050565b6113b3806100ef6000396000f3fe608060405234801561001057600080fd5b50600436106100a95760003560e01c80634cdc9549116100715780634cdc9549146101625780636352211e1461019257806370a08231146101c2578063a22cb465146101f2578063b88d4fde1461020e578063e985e9c51461022a576100a9565b806301ffc9a7146100ae578063081812fc146100de578063095ea7b31461010e57806323b872dd1461012a57806342842e0e14610146575b600080fd5b6100c860048036038101906100c39190610d2c565b61025a565b6040516100d59190610d74565b60405180910390f35b6100f860048036038101906100f39190610dc5565b6102c1565b6040516101059190610e33565b60405180910390f35b61012860048036038101906101239190610e7a565b610310565b005b610144600480360381019061013f9190610eba565b610450565b005b610160600480360381019061015b9190610eba565b610473565b005b61017c60048036038101906101779190610e7a565b610493565b6040516101899190610d74565b60405180910390f35b6101ac60048036038101906101a79190610dc5565b610528565b6040516101b99190610e33565b60405180910390f35b6101dc60048036038101906101d79190610f0d565b6105a3565b6040516101e99190610f49565b60405180910390f35b61020c60048036038101906102079190610f90565b610624565b005b61022860048036038101906102239190611116565b610759565b005b610244600480360381019061023f9190611199565b61077f565b6040516102519190610d74565b60405180910390f35b6000806000837bffffffffffffffffffffffffffffffffffffffffffffffffffffffff19167bffffffffffffffffffffffffffffffffffffffffffffffffffffffff1916815260200190815260200160002060009054906101000a900460ff169050919050565b60006102cc82610813565b6102d557600080fd5b6003600083815260200190815260200160002060009054906101000a900473ffffffffffffffffffffffffffffffffffffffff169050919050565b600061031b82610528565b90508273ffffffffffffffffffffffffffffffffffffffff168173ffffffffffffffffffffffffffffffffffffffff160361035557600080fd5b8073ffffffffffffffffffffffffffffffffffffffff163373ffffffffffffffffffffffffffffffffffffffff1614806103955750610394813361077f565b5b61039e57600080fd5b826003600084815260200190815260200160002060006101000a81548173ffffffffffffffffffffffffffffffffffffffff021916908373ffffffffffffffffffffffffffffffffffffffff160217905550818373ffffffffffffffffffffffffffffffffffffffff168273ffffffffffffffffffffffffffffffffffffffff167f8c5be1e5ebec7d5bd14f71427d1e84f3dd0314c0f7b2291e5b200ac8c7c3b92560405160405180910390a4505050565b61045a3382610493565b61046357600080fd5b61046e838383610885565b505050565b61048e83838360405180602001604052806000815250610759565b505050565b60008061049f83610528565b90508073ffffffffffffffffffffffffffffffffffffffff168473ffffffffffffffffffffffffffffffffffffffff16148061050e57508373ffffffffffffffffffffffffffffffffffffffff166104f6846102c1565b73ffffffffffffffffffffffffffffffffffffffff16145b8061051f575061051e848261077f565b5b91505092915050565b6000806001600084815260200190815260200160002060009054906101000a900473ffffffffffffffffffffffffffffffffffffffff169050600073ffffffffffffffffffffffffffffffffffffffff168173ffffffffffffffffffffffffffffffffffffffff160361059a57600080fd5b80915050919050565b60008073ffffffffffffffffffffffffffffffffffffffff168273ffffffffffffffffffffffffffffffffffffffff16036105dd57600080fd5b600260008373ffffffffffffffffffffffffffffffffffffffff1673ffffffffffffffffffffffffffffffffffffffff168152602001908152602001600020549050919050565b3373ffffffffffffffffffffffffffffffffffffffff168273ffffffffffffffffffffffffffffffffffffffff160361065c57600080fd5b80600460003373ffffffffffffffffffffffffffffffffffffffff1673ffffffffffffffffffffffffffffffffffffffff16815260200190815260200160002060008473ffffffffffffffffffffffffffffffffffffffff1673ffffffffffffffffffffffffffffffffffffffff16815260200190815260200160002060006101000a81548160ff0219169083151502179055508173ffffffffffffffffffffffffffffffffffffffff163373ffffffffffffffffffffffffffffffffffffffff167f17307eab39ab6107e8899845ad3d59bd9653f200f220920489ca2b5937696c318360405161074d9190610d74565b60405180910390a35050565b610764838584610450565b61077084848484610ad7565b61077957600080fd5b50505050565b6000600460008473ffffffffffffffffffffffffffffffffffffffff1673ffffffffffffffffffffffffffffffffffffffff16815260200190815260200160002060008373ffffffffffffffffffffffffffffffffffffffff1673ffffffffffffffffffffffffffffffffffffffff16815260200190815260200160002060009054906101000a900460ff16905092915050565b6000806001600084815260200190815260200160002060009054906101000a900473ffffffffffffffffffffffffffffffffffffffff169050600073ffffffffffffffffffffffffffffffffffffffff168173ffffffffffffffffffffffffffffffffffffffff161415915050919050565b61088e81610528565b73ffffffffffffffffffffffffffffffffffffffff168373ffffffffffffffffffffffffffffffffffffffff16146108c557600080fd5b600073ffffffffffffffffffffffffffffffffffffffff168273ffffffffffffffffffffffffffffffffffffffff16036108fe57600080fd5b61090781610bdf565b6001600260008573ffffffffffffffffffffffffffffffffffffffff1673ffffffffffffffffffffffffffffffffffffffff168152602001908152602001600020546109539190611208565b600260008573ffffffffffffffffffffffffffffffffffffffff1673ffffffffffffffffffffffffffffffffffffffff168152602001908152602001600020819055506001600260008473ffffffffffffffffffffffffffffffffffffffff1673ffffffffffffffffffffffffffffffffffffffff168152602001908152602001600020546109e2919061123c565b600260008473ffffffffffffffffffffffffffffffffffffffff1673ffffffffffffffffffffffffffffffffffffffff16815260200190815260200160002081905550816001600083815260200190815260200160002060006101000a81548173ffffffffffffffffffffffffffffffffffffffff021916908373ffffffffffffffffffffffffffffffffffffffff160217905550808273ffffffffffffffffffffffffffffffffffffffff168473ffffffffffffffffffffffffffffffffffffffff167fddf252ad1be2c89b69c2b068fc378daa952ba7f163c4a11628f55a4df523b3ef60405160405180910390a4505050565b6000610af88473ffffffffffffffffffffffffffffffffffffffff16610c9d565b610b055760019050610bd7565b60008473ffffffffffffffffffffffffffffffffffffffff1663150b7a02338887876040518563ffffffff1660e01b8152600401610b4694939291906112ef565b6020604051808303816000875af1158015610b65573d6000803e3d6000fd5b505050506040513d601f19601f82011682018060405250810190610b899190611350565b905063150b7a0260e01b7bffffffffffffffffffffffffffffffffffffffffffffffffffffffff1916817bffffffffffffffffffffffffffffffffffffffffffffffffffffffff1916149150505b949350505050565b600073ffffffffffffffffffffffffffffffffffffffff166003600083815260200190815260200160002060009054906101000a900473ffffffffffffffffffffffffffffffffffffffff1673ffffffffffffffffffffffffffffffffffffffff1614610c9a5760006003600083815260200190815260200160002060006101000a81548173ffffffffffffffffffffffffffffffffffffffff021916908373ffffffffffffffffffffffffffffffffffffffff1602179055505b50565b6000808273ffffffffffffffffffffffffffffffffffffffff163b119050919050565b6000604051905090565b600080fd5b600080fd5b60007fffffffff0000000000000000000000000000000000000000000000000000000082169050919050565b610d0981610cd4565b8114610d1457600080fd5b50565b600081359050610d2681610d00565b92915050565b600060208284031215610d4257610d41610cca565b5b6000610d5084828501610d17565b91505092915050565b60008115159050919050565b610d6e81610d59565b82525050565b6000602082019050610d896000830184610d65565b92915050565b6000819050919050565b610da281610d8f565b8114610dad57600080fd5b50565b600081359050610dbf81610d99565b92915050565b600060208284031215610ddb57610dda610cca565b5b6000610de984828501610db0565b91505092915050565b600073ffffffffffffffffffffffffffffffffffffffff82169050919050565b6000610e1d82610df2565b9050919050565b610e2d81610e12565b82525050565b6000602082019050610e486000830184610e24565b92915050565b610e5781610e12565b8114610e6257600080fd5b50565b600081359050610e7481610e4e565b92915050565b60008060408385031215610e9157610e90610cca565b5b6000610e9f85828601610e65565b9250506020610eb085828601610db0565b9150509250929050565b600080600060608486031215610ed357610ed2610cca565b5b6000610ee186828701610e65565b9350506020610ef286828701610e65565b9250506040610f0386828701610db0565b9150509250925092565b600060208284031215610f2357610f22610cca565b5b6000610f3184828501610e65565b91505092915050565b610f4381610d8f565b82525050565b6000602082019050610f5e6000830184610f3a565b92915050565b610f6d81610d59565b8114610f7857600080fd5b50565b600081359050610f8a81610f64565b92915050565b60008060408385031215610fa757610fa6610cca565b5b6000610fb585828601610e65565b9250506020610fc685828601610f7b565b9150509250929050565b600080fd5b600080fd5b6000601f19601f8301169050919050565b7f4e487b7100000000000000000000000000000000000000000000000000000000600052604160045260246000fd5b61102382610fda565b810181811067ffffffffffffffff8211171561104257611041610feb565b5b80604052505050565b6000611055610cc0565b9050611061828261101a565b919050565b600067ffffffffffffffff82111561108157611080610feb565b5b61108a82610fda565b9050602081019050919050565b82818337600083830152505050565b60006110b96110b484611066565b61104b565b9050828152602081018484840111156110d5576110d4610fd5565b5b6110e0848285611097565b509392505050565b600082601f8301126110fd576110fc610fd0565b5b813561110d8482602086016110a6565b91505092915050565b600080600080608085870312156111305761112f610cca565b5b600061113e87828801610e65565b945050602061114f87828801610e65565b935050604061116087828801610db0565b925050606085013567ffffffffffffffff81111561118157611180610ccf565b5b61118d878288016110e8565b91505092959194509250565b600080604083850312156111b0576111af610cca565b5b60006111be85828601610e65565b92505060206111cf85828601610e65565b9150509250929050565b7f4e487b7100000000000000000000000000000000000000000000000000000000600052601160045260246000fd5b600061121382610d8f565b915061121e83610d8f565b9250828203905081811115611236576112356111d9565b5b92915050565b600061124782610d8f565b915061125283610d8f565b925082820190508082111561126a576112696111d9565b5b92915050565b600081519050919050565b600082825260208201905092915050565b60005b838110156112aa57808201518184015260208101905061128f565b60008484015250505050565b60006112c182611270565b6112cb818561127b565b93506112db81856020860161128c565b6112e481610fda565b840191505092915050565b60006080820190506113046000830187610e24565b6113116020830186610e24565b61131e6040830185610f3a565b818103606083015261133081846112b6565b905095945050505050565b60008151905061134a81610d00565b92915050565b60006020828403121561136657611365610cca565b5b60006113748482850161133b565b9150509291505056fea264697066735822122035f7720c5a64503301b2a914fa0b2df3820a45ece22c25298285a3c16938c8bd64736f6c63430008120033",
					"opcodes": "PUSH1 0x80 PUSH1 0x40 MSTORE CALLVALUE DUP1 ISZERO PUSH2 0x10 JUMPI PUSH1 0x0 DUP1 REVERT JUMPDEST POP PUSH2 0x27 PUSH4 0x1FFC9A7 PUSH1 0xE0 SHL PUSH2 0x42 PUSH1 0x20 SHL PUSH1 0x20 SHR JUMP JUMPDEST PUSH2 0x3D PUSH4 0x80AC58CD PUSH1 0xE0 SHL PUSH2 0x42 PUSH1 0x20 SHL PUSH1 0x20 SHR JUMP JUMPDEST PUSH2 0xE0 JUMP JUMPDEST PUSH4 0xFFFFFFFF PUSH1 0xE0 SHL DUP2 PUSH28 0xFFFFFFFFFFFFFFFFFFFFFFFFFFFFFFFFFFFFFFFFFFFFFFFFFFFFFFFF NOT AND SUB PUSH2 0x74 JUMPI PUSH1 0x0 DUP1 REVERT JUMPDEST PUSH1 0x1 PUSH1 0x0 DUP1 DUP4 PUSH28 0xFFFFFFFFFFFFFFFFFFFFFFFFFFFFFFFFFFFFFFFFFFFFFFFFFFFFFFFF NOT AND PUSH28 0xFFFFFFFFFFFFFFFFFFFFFFFFFFFFFFFFFFFFFFFFFFFFFFFFFFFFFFFF NOT AND DUP2 MSTORE PUSH1 0x20 ADD SWAP1 DUP2 MSTORE PUSH1 0x20 ADD PUSH1 0x0 KECCAK256 PUSH1 0x0 PUSH2 0x100 EXP DUP2 SLOAD DUP2 PUSH1 0xFF MUL NOT AND SWAP1 DUP4 ISZERO ISZERO MUL OR SWAP1 SSTORE POP POP JUMP JUMPDEST PUSH2 0x13B3 DUP1 PUSH2 0xEF PUSH1 0x0 CODECOPY PUSH1 0x0 RETURN INVALID PUSH1 0x80 PUSH1 0x40 MSTORE CALLVALUE DUP1 ISZERO PUSH2 0x10 JUMPI PUSH1 0x0 DUP1 REVERT JUMPDEST POP PUSH1 0x4 CALLDATASIZE LT PUSH2 0xA9 JUMPI PUSH1 0x0 CALLDATALOAD PUSH1 0xE0 SHR DUP1 PUSH4 0x4CDC9549 GT PUSH2 0x71 JUMPI DUP1 PUSH4 0x4CDC9549 EQ PUSH2 0x162 JUMPI DUP1 PUSH4 0x6352211E EQ PUSH2 0x192 JUMPI DUP1 PUSH4 0x70A08231 EQ PUSH2 0x1C2 JUMPI DUP1 PUSH4 0xA22CB465 EQ PUSH2 0x1F2 JUMPI DUP1 PUSH4 0xB88D4FDE EQ PUSH2 0x20E JUMPI DUP1 PUSH4 0xE985E9C5 EQ PUSH2 0x22A JUMPI PUSH2 0xA9 JUMP JUMPDEST DUP1 PUSH4 0x1FFC9A7 EQ PUSH2 0xAE JUMPI DUP1 PUSH4 0x81812FC EQ PUSH2 0xDE JUMPI DUP1 PUSH4 0x95EA7B3 EQ PUSH2 0x10E JUMPI DUP1 PUSH4 0x23B872DD EQ PUSH2 0x12A JUMPI DUP1 PUSH4 0x42842E0E EQ PUSH2 0x146 JUMPI JUMPDEST PUSH1 0x0 DUP1 REVERT JUMPDEST PUSH2 0xC8 PUSH1 0x4 DUP1 CALLDATASIZE SUB DUP2 ADD SWAP1 PUSH2 0xC3 SWAP2 SWAP1 PUSH2 0xD2C JUMP JUMPDEST PUSH2 0x25A JUMP JUMPDEST PUSH1 0x40 MLOAD PUSH2 0xD5 SWAP2 SWAP1 PUSH2 0xD74 JUMP JUMPDEST PUSH1 0x40 MLOAD DUP1 SWAP2 SUB SWAP1 RETURN JUMPDEST PUSH2 0xF8 PUSH1 0x4 DUP1 CALLDATASIZE SUB DUP2 ADD SWAP1 PUSH2 0xF3 SWAP2 SWAP1 PUSH2 0xDC5 JUMP JUMPDEST PUSH2 0x2C1 JUMP JUMPDEST PUSH1 0x40 MLOAD PUSH2 0x105 SWAP2 SWAP1 PUSH2 0xE33 JUMP JUMPDEST PUSH1 0x40 MLOAD DUP1 SWAP2 SUB SWAP1 RETURN JUMPDEST PUSH2 0x128 PUSH1 0x4 DUP1 CALLDATASIZE SUB DUP2 ADD SWAP1 PUSH2 0x123 SWAP2 SWAP1 PUSH2 0xE7A JUMP JUMPDEST PUSH2 0x310 JUMP JUMPDEST STOP JUMPDEST PUSH2 0x144 PUSH1 0x4 DUP1 CALLDATASIZE SUB DUP2 ADD SWAP1 PUSH2 0x13F SWAP2 SWAP1 PUSH2 0xEBA JUMP JUMPDEST PUSH2 0x450 JUMP JUMPDEST STOP JUMPDEST PUSH2 0x160 PUSH1 0x4 DUP1 CALLDATASIZE SUB DUP2 ADD SWAP1 PUSH2 0x15B SWAP2 SWAP1 PUSH2 0xEBA JUMP JUMPDEST PUSH2 0x473 JUMP JUMPDEST STOP JUMPDEST PUSH2 0x17C PUSH1 0x4 DUP1 CALLDATASIZE SUB DUP2 ADD SWAP1 PUSH2 0x177 SWAP2 SWAP1 PUSH2 0xE7A JUMP JUMPDEST PUSH2 0x493 JUMP JUMPDEST PUSH1 0x40 MLOAD PUSH2 0x189 SWAP2 SWAP1 PUSH2 0xD74 JUMP JUMPDEST PUSH1 0x40 MLOAD DUP1 SWAP2 SUB SWAP1 RETURN JUMPDEST PUSH2 0x1AC PUSH1 0x4 DUP1 CALLDATASIZE SUB DUP2 ADD SWAP1 PUSH2 0x1A7 SWAP2 SWAP1 PUSH2 0xDC5 JUMP JUMPDEST PUSH2 0x528 JUMP JUMPDEST PUSH1 0x40 MLOAD PUSH2 0x1B9 SWAP2 SWAP1 PUSH2 0xE33 JUMP JUMPDEST PUSH1 0x40 MLOAD DUP1 SWAP2 SUB SWAP1 RETURN JUMPDEST PUSH2 0x1DC PUSH1 0x4 DUP1 CALLDATASIZE SUB DUP2 ADD SWAP1 PUSH2 0x1D7 SWAP2 SWAP1 PUSH2 0xF0D JUMP JUMPDEST PUSH2 0x5A3 JUMP JUMPDEST PUSH1 0x40 MLOAD PUSH2 0x1E9 SWAP2 SWAP1 PUSH2 0xF49 JUMP JUMPDEST PUSH1 0x40 MLOAD DUP1 SWAP2 SUB SWAP1 RETURN JUMPDEST PUSH2 0x20C PUSH1 0x4 DUP1 CALLDATASIZE SUB DUP2 ADD SWAP1 PUSH2 0x207 SWAP2 SWAP1 PUSH2 0xF90 JUMP JUMPDEST PUSH2 0x624 JUMP JUMPDEST STOP JUMPDEST PUSH2 0x228 PUSH1 0x4 DUP1 CALLDATASIZE SUB DUP2 ADD SWAP1 PUSH2 0x223 SWAP2 SWAP1 PUSH2 0x1116 JUMP JUMPDEST PUSH2 0x759 JUMP JUMPDEST STOP JUMPDEST PUSH2 0x244 PUSH1 0x4 DUP1 CALLDATASIZE SUB DUP2 ADD SWAP1 PUSH2 0x23F SWAP2 SWAP1 PUSH2 0x1199 JUMP JUMPDEST PUSH2 0x77F JUMP JUMPDEST PUSH1 0x40 MLOAD PUSH2 0x251 SWAP2 SWAP1 PUSH2 0xD74 JUMP JUMPDEST PUSH1 0x40 MLOAD DUP1 SWAP2 SUB SWAP1 RETURN JUMPDEST PUSH1 0x0 DUP1 PUSH1 0x0 DUP4 PUSH28 0xFFFFFFFFFFFFFFFFFFFFFFFFFFFFFFFFFFFFFFFFFFFFFFFFFFFFFFFF NOT AND PUSH28 0xFFFFFFFFFFFFFFFFFFFFFFFFFFFFFFFFFFFFFFFFFFFFFFFFFFFFFFFF NOT AND DUP2 MSTORE PUSH1 0x20 ADD SWAP1 DUP2 MSTORE PUSH1 0x20 ADD PUSH1 0x0 KECCAK256 PUSH1 0x0 SWAP1 SLOAD SWAP1 PUSH2 0x100 EXP SWAP1 DIV PUSH1 0xFF AND SWAP1 POP SWAP2 SWAP1 POP JUMP JUMPDEST PUSH1 0x0 PUSH2 0x2CC DUP3 PUSH2 0x813 JUMP JUMPDEST PUSH2 0x2D5 JUMPI PUSH1 0x0 DUP1 REVERT JUMPDEST PUSH1 0x3 PUSH1 0x0 DUP4 DUP2 MSTORE PUSH1 0x20 ADD SWAP1 DUP2 MSTORE PUSH1 0x20 ADD PUSH1 0x0 KECCAK256 PUSH1 0x0 SWAP1 SLOAD SWAP1 PUSH2 0x100 EXP SWAP1 DIV PUSH20 0xFFFFFFFFFFFFFFFFFFFFFFFFFFFFFFFFFFFFFFFF AND SWAP1 POP SWAP2 SWAP1 POP JUMP JUMPDEST PUSH1 0x0 PUSH2 0x31B DUP3 PUSH2 0x528 JUMP JUMPDEST SWAP1 POP DUP3 PUSH20 0xFFFFFFFFFFFFFFFFFFFFFFFFFFFFFFFFFFFFFFFF AND DUP2 PUSH20 0xFFFFFFFFFFFFFFFFFFFFFFFFFFFFFFFFFFFFFFFF AND SUB PUSH2 0x355 JUMPI PUSH1 0x0 DUP1 REVERT JUMPDEST DUP1 PUSH20 0xFFFFFFFFFFFFFFFFFFFFFFFFFFFFFFFFFFFFFFFF AND CALLER PUSH20 0xFFFFFFFFFFFFFFFFFFFFFFFFFFFFFFFFFFFFFFFF AND EQ DUP1 PUSH2 0x395 JUMPI POP PUSH2 0x394 DUP2 CALLER PUSH2 0x77F JUMP JUMPDEST JUMPDEST PUSH2 0x39E JUMPI PUSH1 0x0 DUP1 REVERT JUMPDEST DUP3 PUSH1 0x3 PUSH1 0x0 DUP5 DUP2 MSTORE PUSH1 0x20 ADD SWAP1 DUP2 MSTORE PUSH1 0x20 ADD PUSH1 0x0 KECCAK256 PUSH1 0x0 PUSH2 0x100 EXP DUP2 SLOAD DUP2 PUSH20 0xFFFFFFFFFFFFFFFFFFFFFFFFFFFFFFFFFFFFFFFF MUL NOT AND SWAP1 DUP4 PUSH20 0xFFFFFFFFFFFFFFFFFFFFFFFFFFFFFFFFFFFFFFFF AND MUL OR SWAP1 SSTORE POP DUP2 DUP4 PUSH20 0xFFFFFFFFFFFFFFFFFFFFFFFFFFFFFFFFFFFFFFFF AND DUP3 PUSH20 0xFFFFFFFFFFFFFFFFFFFFFFFFFFFFFFFFFFFFFFFF AND PUSH32 0x8C5BE1E5EBEC7D5BD14F71427D1E84F3DD0314C0F7B2291E5B200AC8C7C3B925 PUSH1 0x40 MLOAD PUSH1 0x40 MLOAD DUP1 SWAP2 SUB SWAP1 LOG4 POP POP POP JUMP JUMPDEST PUSH2 0x45A CALLER DUP3 PUSH2 0x493 JUMP JUMPDEST PUSH2 0x463 JUMPI PUSH1 0x0 DUP1 REVERT JUMPDEST PUSH2 0x46E DUP4 DUP4 DUP4 PUSH2 0x885 JUMP JUMPDEST POP POP POP JUMP JUMPDEST PUSH2 0x48E DUP4 DUP4 DUP4 PUSH1 0x40 MLOAD DUP1 PUSH1 0x20 ADD PUSH1 0x40 MSTORE DUP1 PUSH1 0x0 DUP2 MSTORE POP PUSH2 0x759 JUMP JUMPDEST POP POP POP JUMP JUMPDEST PUSH1 0x0 DUP1 PUSH2 0x49F DUP4 PUSH2 0x528 JUMP JUMPDEST SWAP1 POP DUP1 PUSH20 0xFFFFFFFFFFFFFFFFFFFFFFFFFFFFFFFFFFFFFFFF AND DUP5 PUSH20 0xFFFFFFFFFFFFFFFFFFFFFFFFFFFFFFFFFFFFFFFF AND EQ DUP1 PUSH2 0x50E JUMPI POP DUP4 PUSH20 0xFFFFFFFFFFFFFFFFFFFFFFFFFFFFFFFFFFFFFFFF AND PUSH2 0x4F6 DUP5 PUSH2 0x2C1 JUMP JUMPDEST PUSH20 0xFFFFFFFFFFFFFFFFFFFFFFFFFFFFFFFFFFFFFFFF AND EQ JUMPDEST DUP1 PUSH2 0x51F JUMPI POP PUSH2 0x51E DUP5 DUP3 PUSH2 0x77F JUMP JUMPDEST JUMPDEST SWAP2 POP POP SWAP3 SWAP2 POP POP JUMP JUMPDEST PUSH1 0x0 DUP1 PUSH1 0x1 PUSH1 0x0 DUP5 DUP2 MSTORE PUSH1 0x20 ADD SWAP1 DUP2 MSTORE PUSH1 0x20 ADD PUSH1 0x0 KECCAK256 PUSH1 0x0 SWAP1 SLOAD SWAP1 PUSH2 0x100 EXP SWAP1 DIV PUSH20 0xFFFFFFFFFFFFFFFFFFFFFFFFFFFFFFFFFFFFFFFF AND SWAP1 POP PUSH1 0x0 PUSH20 0xFFFFFFFFFFFFFFFFFFFFFFFFFFFFFFFFFFFFFFFF AND DUP2 PUSH20 0xFFFFFFFFFFFFFFFFFFFFFFFFFFFFFFFFFFFFFFFF AND SUB PUSH2 0x59A JUMPI PUSH1 0x0 DUP1 REVERT JUMPDEST DUP1 SWAP2 POP POP SWAP2 SWAP1 POP JUMP JUMPDEST PUSH1 0x0 DUP1 PUSH20 0xFFFFFFFFFFFFFFFFFFFFFFFFFFFFFFFFFFFFFFFF AND DUP3 PUSH20 0xFFFFFFFFFFFFFFFFFFFFFFFFFFFFFFFFFFFFFFFF AND SUB PUSH2 0x5DD JUMPI PUSH1 0x0 DUP1 REVERT JUMPDEST PUSH1 0x2 PUSH1 0x0 DUP4 PUSH20 0xFFFFFFFFFFFFFFFFFFFFFFFFFFFFFFFFFFFFFFFF AND PUSH20 0xFFFFFFFFFFFFFFFFFFFFFFFFFFFFFFFFFFFFFFFF AND DUP2 MSTORE PUSH1 0x20 ADD SWAP1 DUP2 MSTORE PUSH1 0x20 ADD PUSH1 0x0 KECCAK256 SLOAD SWAP1 POP SWAP2 SWAP1 POP JUMP JUMPDEST CALLER PUSH20 0xFFFFFFFFFFFFFFFFFFFFFFFFFFFFFFFFFFFFFFFF AND DUP3 PUSH20 0xFFFFFFFFFFFFFFFFFFFFFFFFFFFFFFFFFFFFFFFF AND SUB PUSH2 0x65C JUMPI PUSH1 0x0 DUP1 REVERT JUMPDEST DUP1 PUSH1 0x4 PUSH1 0x0 CALLER PUSH20 0xFFFFFFFFFFFFFFFFFFFFFFFFFFFFFFFFFFFFFFFF AND PUSH20 0xFFFFFFFFFFFFFFFFFFFFFFFFFFFFFFFFFFFFFFFF AND DUP2 MSTORE PUSH1 0x20 ADD SWAP1 DUP2 MSTORE PUSH1 0x20 ADD PUSH1 0x0 KECCAK256 PUSH1 0x0 DUP5 PUSH20 0xFFFFFFFFFFFFFFFFFFFFFFFFFFFFFFFFFFFFFFFF AND PUSH20 0xFFFFFFFFFFFFFFFFFFFFFFFFFFFFFFFFFFFFFFFF AND DUP2 MSTORE PUSH1 0x20 ADD SWAP1 DUP2 MSTORE PUSH1 0x20 ADD PUSH1 0x0 KECCAK256 PUSH1 0x0 PUSH2 0x100 EXP DUP2 SLOAD DUP2 PUSH1 0xFF MUL NOT AND SWAP1 DUP4 ISZERO ISZERO MUL OR SWAP1 SSTORE POP DUP2 PUSH20 0xFFFFFFFFFFFFFFFFFFFFFFFFFFFFFFFFFFFFFFFF AND CALLER PUSH20 0xFFFFFFFFFFFFFFFFFFFFFFFFFFFFFFFFFFFFFFFF AND PUSH32 0x17307EAB39AB6107E8899845AD3D59BD9653F200F220920489CA2B5937696C31 DUP4 PUSH1 0x40 MLOAD PUSH2 0x74D SWAP2 SWAP1 PUSH2 0xD74 JUMP JUMPDEST PUSH1 0x40 MLOAD DUP1 SWAP2 SUB SWAP1 LOG3 POP POP JUMP JUMPDEST PUSH2 0x764 DUP4 DUP6 DUP5 PUSH2 0x450 JUMP JUMPDEST PUSH2 0x770 DUP5 DUP5 DUP5 DUP5 PUSH2 0xAD7 JUMP JUMPDEST PUSH2 0x779 JUMPI PUSH1 0x0 DUP1 REVERT JUMPDEST POP POP POP POP JUMP JUMPDEST PUSH1 0x0 PUSH1 0x4 PUSH1 0x0 DUP5 PUSH20 0xFFFFFFFFFFFFFFFFFFFFFFFFFFFFFFFFFFFFFFFF AND PUSH20 0xFFFFFFFFFFFFFFFFFFFFFFFFFFFFFFFFFFFFFFFF AND DUP2 MSTORE PUSH1 0x20 ADD SWAP1 DUP2 MSTORE PUSH1 0x20 ADD PUSH1 0x0 KECCAK256 PUSH1 0x0 DUP4 PUSH20 0xFFFFFFFFFFFFFFFFFFFFFFFFFFFFFFFFFFFFFFFF AND PUSH20 0xFFFFFFFFFFFFFFFFFFFFFFFFFFFFFFFFFFFFFFFF AND DUP2 MSTORE PUSH1 0x20 ADD SWAP1 DUP2 MSTORE PUSH1 0x20 ADD PUSH1 0x0 KECCAK256 PUSH1 0x0 SWAP1 SLOAD SWAP1 PUSH2 0x100 EXP SWAP1 DIV PUSH1 0xFF AND SWAP1 POP SWAP3 SWAP2 POP POP JUMP JUMPDEST PUSH1 0x0 DUP1 PUSH1 0x1 PUSH1 0x0 DUP5 DUP2 MSTORE PUSH1 0x20 ADD SWAP1 DUP2 MSTORE PUSH1 0x20 ADD PUSH1 0x0 KECCAK256 PUSH1 0x0 SWAP1 SLOAD SWAP1 PUSH2 0x100 EXP SWAP1 DIV PUSH20 0xFFFFFFFFFFFFFFFFFFFFFFFFFFFFFFFFFFFFFFFF AND SWAP1 POP PUSH1 0x0 PUSH20 0xFFFFFFFFFFFFFFFFFFFFFFFFFFFFFFFFFFFFFFFF AND DUP2 PUSH20 0xFFFFFFFFFFFFFFFFFFFFFFFFFFFFFFFFFFFFFFFF AND EQ ISZERO SWAP2 POP POP SWAP2 SWAP1 POP JUMP JUMPDEST PUSH2 0x88E DUP2 PUSH2 0x528 JUMP JUMPDEST PUSH20 0xFFFFFFFFFFFFFFFFFFFFFFFFFFFFFFFFFFFFFFFF AND DUP4 PUSH20 0xFFFFFFFFFFFFFFFFFFFFFFFFFFFFFFFFFFFFFFFF AND EQ PUSH2 0x8C5 JUMPI PUSH1 0x0 DUP1 REVERT JUMPDEST PUSH1 0x0 PUSH20 0xFFFFFFFFFFFFFFFFFFFFFFFFFFFFFFFFFFFFFFFF AND DUP3 PUSH20 0xFFFFFFFFFFFFFFFFFFFFFFFFFFFFFFFFFFFFFFFF AND SUB PUSH2 0x8FE JUMPI PUSH1 0x0 DUP1 REVERT JUMPDEST PUSH2 0x907 DUP2 PUSH2 0xBDF JUMP JUMPDEST PUSH1 0x1 PUSH1 0x2 PUSH1 0x0 DUP6 PUSH20 0xFFFFFFFFFFFFFFFFFFFFFFFFFFFFFFFFFFFFFFFF AND PUSH20 0xFFFFFFFFFFFFFFFFFFFFFFFFFFFFFFFFFFFFFFFF AND DUP2 MSTORE PUSH1 0x20 ADD SWAP1 DUP2 MSTORE PUSH1 0x20 ADD PUSH1 0x0 KECCAK256 SLOAD PUSH2 0x953 SWAP2 SWAP1 PUSH2 0x1208 JUMP JUMPDEST PUSH1 0x2 PUSH1 0x0 DUP6 PUSH20 0xFFFFFFFFFFFFFFFFFFFFFFFFFFFFFFFFFFFFFFFF AND PUSH20 0xFFFFFFFFFFFFFFFFFFFFFFFFFFFFFFFFFFFFFFFF AND DUP2 MSTORE PUSH1 0x20 ADD SWAP1 DUP2 MSTORE PUSH1 0x20 ADD PUSH1 0x0 KECCAK256 DUP2 SWAP1 SSTORE POP PUSH1 0x1 PUSH1 0x2 PUSH1 0x0 DUP5 PUSH20 0xFFFFFFFFFFFFFFFFFFFFFFFFFFFFFFFFFFFFFFFF AND PUSH20 0xFFFFFFFFFFFFFFFFFFFFFFFFFFFFFFFFFFFFFFFF AND DUP2 MSTORE PUSH1 0x20 ADD SWAP1 DUP2 MSTORE PUSH1 0x20 ADD PUSH1 0x0 KECCAK256 SLOAD PUSH2 0x9E2 SWAP2 SWAP1 PUSH2 0x123C JUMP JUMPDEST PUSH1 0x2 PUSH1 0x0 DUP5 PUSH20 0xFFFFFFFFFFFFFFFFFFFFFFFFFFFFFFFFFFFFFFFF AND PUSH20 0xFFFFFFFFFFFFFFFFFFFFFFFFFFFFFFFFFFFFFFFF AND DUP2 MSTORE PUSH1 0x20 ADD SWAP1 DUP2 MSTORE PUSH1 0x20 ADD PUSH1 0x0 KECCAK256 DUP2 SWAP1 SSTORE POP DUP2 PUSH1 0x1 PUSH1 0x0 DUP4 DUP2 MSTORE PUSH1 0x20 ADD SWAP1 DUP2 MSTORE PUSH1 0x20 ADD PUSH1 0x0 KECCAK256 PUSH1 0x0 PUSH2 0x100 EXP DUP2 SLOAD DUP2 PUSH20 0xFFFFFFFFFFFFFFFFFFFFFFFFFFFFFFFFFFFFFFFF MUL NOT AND SWAP1 DUP4 PUSH20 0xFFFFFFFFFFFFFFFFFFFFFFFFFFFFFFFFFFFFFFFF AND MUL OR SWAP1 SSTORE POP DUP1 DUP3 PUSH20 0xFFFFFFFFFFFFFFFFFFFFFFFFFFFFFFFFFFFFFFFF AND DUP5 PUSH20 0xFFFFFFFFFFFFFFFFFFFFFFFFFFFFFFFFFFFFFFFF AND PUSH32 0xDDF252AD1BE2C89B69C2B068FC378DAA952BA7F163C4A11628F55A4DF523B3EF PUSH1 0x40 MLOAD PUSH1 0x40 MLOAD DUP1 SWAP2 SUB SWAP1 LOG4 POP POP POP JUMP JUMPDEST PUSH1 0x0 PUSH2 0xAF8 DUP5 PUSH20 0xFFFFFFFFFFFFFFFFFFFFFFFFFFFFFFFFFFFFFFFF AND PUSH2 0xC9D JUMP JUMPDEST PUSH2 0xB05 JUMPI PUSH1 0x1 SWAP1 POP PUSH2 0xBD7 JUMP JUMPDEST PUSH1 0x0 DUP5 PUSH20 0xFFFFFFFFFFFFFFFFFFFFFFFFFFFFFFFFFFFFFFFF AND PUSH4 0x150B7A02 CALLER DUP9 DUP8 DUP8 PUSH1 0x40 MLOAD DUP6 PUSH4 0xFFFFFFFF AND PUSH1 0xE0 SHL DUP2 MSTORE PUSH1 0x4 ADD PUSH2 0xB46 SWAP5 SWAP4 SWAP3 SWAP2 SWAP1 PUSH2 0x12EF JUMP JUMPDEST PUSH1 0x20 PUSH1 0x40 MLOAD DUP1 DUP4 SUB DUP2 PUSH1 0x0 DUP8 GAS CALL ISZERO DUP1 ISZERO PUSH2 0xB65 JUMPI RETURNDATASIZE PUSH1 0x0 DUP1 RETURNDATACOPY RETURNDATASIZE PUSH1 0x0 REVERT JUMPDEST POP POP POP POP PUSH1 0x40 MLOAD RETURNDATASIZE PUSH1 0x1F NOT PUSH1 0x1F DUP3 ADD AND DUP3 ADD DUP1 PUSH1 0x40 MSTORE POP DUP2 ADD SWAP1 PUSH2 0xB89 SWAP2 SWAP1 PUSH2 0x1350 JUMP JUMPDEST SWAP1 POP PUSH4 0x150B7A02 PUSH1 0xE0 SHL PUSH28 0xFFFFFFFFFFFFFFFFFFFFFFFFFFFFFFFFFFFFFFFFFFFFFFFFFFFFFFFF NOT AND DUP2 PUSH28 0xFFFFFFFFFFFFFFFFFFFFFFFFFFFFFFFFFFFFFFFFFFFFFFFFFFFFFFFF NOT AND EQ SWAP2 POP POP JUMPDEST SWAP5 SWAP4 POP POP POP POP JUMP JUMPDEST PUSH1 0x0 PUSH20 0xFFFFFFFFFFFFFFFFFFFFFFFFFFFFFFFFFFFFFFFF AND PUSH1 0x3 PUSH1 0x0 DUP4 DUP2 MSTORE PUSH1 0x20 ADD SWAP1 DUP2 MSTORE PUSH1 0x20 ADD PUSH1 0x0 KECCAK256 PUSH1 0x0 SWAP1 SLOAD SWAP1 PUSH2 0x100 EXP SWAP1 DIV PUSH20 0xFFFFFFFFFFFFFFFFFFFFFFFFFFFFFFFFFFFFFFFF AND PUSH20 0xFFFFFFFFFFFFFFFFFFFFFFFFFFFFFFFFFFFFFFFF AND EQ PUSH2 0xC9A JUMPI PUSH1 0x0 PUSH1 0x3 PUSH1 0x0 DUP4 DUP2 MSTORE PUSH1 0x20 ADD SWAP1 DUP2 MSTORE PUSH1 0x20 ADD PUSH1 0x0 KECCAK256 PUSH1 0x0 PUSH2 0x100 EXP DUP2 SLOAD DUP2 PUSH20 0xFFFFFFFFFFFFFFFFFFFFFFFFFFFFFFFFFFFFFFFF MUL NOT AND SWAP1 DUP4 PUSH20 0xFFFFFFFFFFFFFFFFFFFFFFFFFFFFFFFFFFFFFFFF AND MUL OR SWAP1 SSTORE POP JUMPDEST POP JUMP JUMPDEST PUSH1 0x0 DUP1 DUP3 PUSH20 0xFFFFFFFFFFFFFFFFFFFFFFFFFFFFFFFFFFFFFFFF AND EXTCODESIZE GT SWAP1 POP SWAP2 SWAP1 POP JUMP JUMPDEST PUSH1 0x0 PUSH1 0x40 MLOAD SWAP1 POP SWAP1 JUMP JUMPDEST PUSH1 0x0 DUP1 REVERT JUMPDEST PUSH1 0x0 DUP1 REVERT JUMPDEST PUSH1 0x0 PUSH32 0xFFFFFFFF00000000000000000000000000000000000000000000000000000000 DUP3 AND SWAP1 POP SWAP2 SWAP1 POP JUMP JUMPDEST PUSH2 0xD09 DUP2 PUSH2 0xCD4 JUMP JUMPDEST DUP2 EQ PUSH2 0xD14 JUMPI PUSH1 0x0 DUP1 REVERT JUMPDEST POP JUMP JUMPDEST PUSH1 0x0 DUP2 CALLDATALOAD SWAP1 POP PUSH2 0xD26 DUP2 PUSH2 0xD00 JUMP JUMPDEST SWAP3 SWAP2 POP POP JUMP JUMPDEST PUSH1 0x0 PUSH1 0x20 DUP3 DUP5 SUB SLT ISZERO PUSH2 0xD42 JUMPI PUSH2 0xD41 PUSH2 0xCCA JUMP JUMPDEST JUMPDEST PUSH1 0x0 PUSH2 0xD50 DUP5 DUP3 DUP6 ADD PUSH2 0xD17 JUMP JUMPDEST SWAP2 POP POP SWAP3 SWAP2 POP POP JUMP JUMPDEST PUSH1 0x0 DUP2 ISZERO ISZERO SWAP1 POP SWAP2 SWAP1 POP JUMP JUMPDEST PUSH2 0xD6E DUP2 PUSH2 0xD59 JUMP JUMPDEST DUP3 MSTORE POP POP JUMP JUMPDEST PUSH1 0x0 PUSH1 0x20 DUP3 ADD SWAP1 POP PUSH2 0xD89 PUSH1 0x0 DUP4 ADD DUP5 PUSH2 0xD65 JUMP JUMPDEST SWAP3 SWAP2 POP POP JUMP JUMPDEST PUSH1 0x0 DUP2 SWAP1 POP SWAP2 SWAP1 POP JUMP JUMPDEST PUSH2 0xDA2 DUP2 PUSH2 0xD8F JUMP JUMPDEST DUP2 EQ PUSH2 0xDAD JUMPI PUSH1 0x0 DUP1 REVERT JUMPDEST POP JUMP JUMPDEST PUSH1 0x0 DUP2 CALLDATALOAD SWAP1 POP PUSH2 0xDBF DUP2 PUSH2 0xD99 JUMP JUMPDEST SWAP3 SWAP2 POP POP JUMP JUMPDEST PUSH1 0x0 PUSH1 0x20 DUP3 DUP5 SUB SLT ISZERO PUSH2 0xDDB JUMPI PUSH2 0xDDA PUSH2 0xCCA JUMP JUMPDEST JUMPDEST PUSH1 0x0 PUSH2 0xDE9 DUP5 DUP3 DUP6 ADD PUSH2 0xDB0 JUMP JUMPDEST SWAP2 POP POP SWAP3 SWAP2 POP POP JUMP JUMPDEST PUSH1 0x0 PUSH20 0xFFFFFFFFFFFFFFFFFFFFFFFFFFFFFFFFFFFFFFFF DUP3 AND SWAP1 POP SWAP2 SWAP1 POP JUMP JUMPDEST PUSH1 0x0 PUSH2 0xE1D DUP3 PUSH2 0xDF2 JUMP JUMPDEST SWAP1 POP SWAP2 SWAP1 POP JUMP JUMPDEST PUSH2 0xE2D DUP2 PUSH2 0xE12 JUMP JUMPDEST DUP3 MSTORE POP POP JUMP JUMPDEST PUSH1 0x0 PUSH1 0x20 DUP3 ADD SWAP1 POP PUSH2 0xE48 PUSH1 0x0 DUP4 ADD DUP5 PUSH2 0xE24 JUMP JUMPDEST SWAP3 SWAP2 POP POP JUMP JUMPDEST PUSH2 0xE57 DUP2 PUSH2 0xE12 JUMP JUMPDEST DUP2 EQ PUSH2 0xE62 JUMPI PUSH1 0x0 DUP1 REVERT JUMPDEST POP JUMP JUMPDEST PUSH1 0x0 DUP2 CALLDATALOAD SWAP1 POP PUSH2 0xE74 DUP2 PUSH2 0xE4E JUMP JUMPDEST SWAP3 SWAP2 POP POP JUMP JUMPDEST PUSH1 0x0 DUP1 PUSH1 0x40 DUP4 DUP6 SUB SLT ISZERO PUSH2 0xE91 JUMPI PUSH2 0xE90 PUSH2 0xCCA JUMP JUMPDEST JUMPDEST PUSH1 0x0 PUSH2 0xE9F DUP6 DUP3 DUP7 ADD PUSH2 0xE65 JUMP JUMPDEST SWAP3 POP POP PUSH1 0x20 PUSH2 0xEB0 DUP6 DUP3 DUP7 ADD PUSH2 0xDB0 JUMP JUMPDEST SWAP2 POP POP SWAP3 POP SWAP3 SWAP1 POP JUMP JUMPDEST PUSH1 0x0 DUP1 PUSH1 0x0 PUSH1 0x60 DUP5 DUP7 SUB SLT ISZERO PUSH2 0xED3 JUMPI PUSH2 0xED2 PUSH2 0xCCA JUMP JUMPDEST JUMPDEST PUSH1 0x0 PUSH2 0xEE1 DUP7 DUP3 DUP8 ADD PUSH2 0xE65 JUMP JUMPDEST SWAP4 POP POP PUSH1 0x20 PUSH2 0xEF2 DUP7 DUP3 DUP8 ADD PUSH2 0xE65 JUMP JUMPDEST SWAP3 POP POP PUSH1 0x40 PUSH2 0xF03 DUP7 DUP3 DUP8 ADD PUSH2 0xDB0 JUMP JUMPDEST SWAP2 POP POP SWAP3 POP SWAP3 POP SWAP3 JUMP JUMPDEST PUSH1 0x0 PUSH1 0x20 DUP3 DUP5 SUB SLT ISZERO PUSH2 0xF23 JUMPI PUSH2 0xF22 PUSH2 0xCCA JUMP JUMPDEST JUMPDEST PUSH1 0x0 PUSH2 0xF31 DUP5 DUP3 DUP6 ADD PUSH2 0xE65 JUMP JUMPDEST SWAP2 POP POP SWAP3 SWAP2 POP POP JUMP JUMPDEST PUSH2 0xF43 DUP2 PUSH2 0xD8F JUMP JUMPDEST DUP3 MSTORE POP POP JUMP JUMPDEST PUSH1 0x0 PUSH1 0x20 DUP3 ADD SWAP1 POP PUSH2 0xF5E PUSH1 0x0 DUP4 ADD DUP5 PUSH2 0xF3A JUMP JUMPDEST SWAP3 SWAP2 POP POP JUMP JUMPDEST PUSH2 0xF6D DUP2 PUSH2 0xD59 JUMP JUMPDEST DUP2 EQ PUSH2 0xF78 JUMPI PUSH1 0x0 DUP1 REVERT JUMPDEST POP JUMP JUMPDEST PUSH1 0x0 DUP2 CALLDATALOAD SWAP1 POP PUSH2 0xF8A DUP2 PUSH2 0xF64 JUMP JUMPDEST SWAP3 SWAP2 POP POP JUMP JUMPDEST PUSH1 0x0 DUP1 PUSH1 0x40 DUP4 DUP6 SUB SLT ISZERO PUSH2 0xFA7 JUMPI PUSH2 0xFA6 PUSH2 0xCCA JUMP JUMPDEST JUMPDEST PUSH1 0x0 PUSH2 0xFB5 DUP6 DUP3 DUP7 ADD PUSH2 0xE65 JUMP JUMPDEST SWAP3 POP POP PUSH1 0x20 PUSH2 0xFC6 DUP6 DUP3 DUP7 ADD PUSH2 0xF7B JUMP JUMPDEST SWAP2 POP POP SWAP3 POP SWAP3 SWAP1 POP JUMP JUMPDEST PUSH1 0x0 DUP1 REVERT JUMPDEST PUSH1 0x0 DUP1 REVERT JUMPDEST PUSH1 0x0 PUSH1 0x1F NOT PUSH1 0x1F DUP4 ADD AND SWAP1 POP SWAP2 SWAP1 POP JUMP JUMPDEST PUSH32 0x4E487B7100000000000000000000000000000000000000000000000000000000 PUSH1 0x0 MSTORE PUSH1 0x41 PUSH1 0x4 MSTORE PUSH1 0x24 PUSH1 0x0 REVERT JUMPDEST PUSH2 0x1023 DUP3 PUSH2 0xFDA JUMP JUMPDEST DUP2 ADD DUP2 DUP2 LT PUSH8 0xFFFFFFFFFFFFFFFF DUP3 GT OR ISZERO PUSH2 0x1042 JUMPI PUSH2 0x1041 PUSH2 0xFEB JUMP JUMPDEST JUMPDEST DUP1 PUSH1 0x40 MSTORE POP POP POP JUMP JUMPDEST PUSH1 0x0 PUSH2 0x1055 PUSH2 0xCC0 JUMP JUMPDEST SWAP1 POP PUSH2 0x1061 DUP3 DUP3 PUSH2 0x101A JUMP JUMPDEST SWAP2 SWAP1 POP JUMP JUMPDEST PUSH1 0x0 PUSH8 0xFFFFFFFFFFFFFFFF DUP3 GT ISZERO PUSH2 0x1081 JUMPI PUSH2 0x1080 PUSH2 0xFEB JUMP JUMPDEST JUMPDEST PUSH2 0x108A DUP3 PUSH2 0xFDA JUMP JUMPDEST SWAP1 POP PUSH1 0x20 DUP2 ADD SWAP1 POP SWAP2 SWAP1 POP JUMP JUMPDEST DUP3 DUP2 DUP4 CALLDATACOPY PUSH1 0x0 DUP4 DUP4 ADD MSTORE POP POP POP JUMP JUMPDEST PUSH1 0x0 PUSH2 0x10B9 PUSH2 0x10B4 DUP5 PUSH2 0x1066 JUMP JUMPDEST PUSH2 0x104B JUMP JUMPDEST SWAP1 POP DUP3 DUP2 MSTORE PUSH1 0x20 DUP2 ADD DUP5 DUP5 DUP5 ADD GT ISZERO PUSH2 0x10D5 JUMPI PUSH2 0x10D4 PUSH2 0xFD5 JUMP JUMPDEST JUMPDEST PUSH2 0x10E0 DUP5 DUP3 DUP6 PUSH2 0x1097 JUMP JUMPDEST POP SWAP4 SWAP3 POP POP POP JUMP JUMPDEST PUSH1 0x0 DUP3 PUSH1 0x1F DUP4 ADD SLT PUSH2 0x10FD JUMPI PUSH2 0x10FC PUSH2 0xFD0 JUMP JUMPDEST JUMPDEST DUP2 CALLDATALOAD PUSH2 0x110D DUP5 DUP3 PUSH1 0x20 DUP7 ADD PUSH2 0x10A6 JUMP JUMPDEST SWAP2 POP POP SWAP3 SWAP2 POP POP JUMP JUMPDEST PUSH1 0x0 DUP1 PUSH1 0x0 DUP1 PUSH1 0x80 DUP6 DUP8 SUB SLT ISZERO PUSH2 0x1130 JUMPI PUSH2 0x112F PUSH2 0xCCA JUMP JUMPDEST JUMPDEST PUSH1 0x0 PUSH2 0x113E DUP8 DUP3 DUP9 ADD PUSH2 0xE65 JUMP JUMPDEST SWAP5 POP POP PUSH1 0x20 PUSH2 0x114F DUP8 DUP3 DUP9 ADD PUSH2 0xE65 JUMP JUMPDEST SWAP4 POP POP PUSH1 0x40 PUSH2 0x1160 DUP8 DUP3 DUP9 ADD PUSH2 0xDB0 JUMP JUMPDEST SWAP3 POP POP PUSH1 0x60 DUP6 ADD CALLDATALOAD PUSH8 0xFFFFFFFFFFFFFFFF DUP2 GT ISZERO PUSH2 0x1181 JUMPI PUSH2 0x1180 PUSH2 0xCCF JUMP JUMPDEST JUMPDEST PUSH2 0x118D DUP8 DUP3 DUP9 ADD PUSH2 0x10E8 JUMP JUMPDEST SWAP2 POP POP SWAP3 SWAP6 SWAP2 SWAP5 POP SWAP3 POP JUMP JUMPDEST PUSH1 0x0 DUP1 PUSH1 0x40 DUP4 DUP6 SUB SLT ISZERO PUSH2 0x11B0 JUMPI PUSH2 0x11AF PUSH2 0xCCA JUMP JUMPDEST JUMPDEST PUSH1 0x0 PUSH2 0x11BE DUP6 DUP3 DUP7 ADD PUSH2 0xE65 JUMP JUMPDEST SWAP3 POP POP PUSH1 0x20 PUSH2 0x11CF DUP6 DUP3 DUP7 ADD PUSH2 0xE65 JUMP JUMPDEST SWAP2 POP POP SWAP3 POP SWAP3 SWAP1 POP JUMP JUMPDEST PUSH32 0x4E487B7100000000000000000000000000000000000000000000000000000000 PUSH1 0x0 MSTORE PUSH1 0x11 PUSH1 0x4 MSTORE PUSH1 0x24 PUSH1 0x0 REVERT JUMPDEST PUSH1 0x0 PUSH2 0x1213 DUP3 PUSH2 0xD8F JUMP JUMPDEST SWAP2 POP PUSH2 0x121E DUP4 PUSH2 0xD8F JUMP JUMPDEST SWAP3 POP DUP3 DUP3 SUB SWAP1 POP DUP2 DUP2 GT ISZERO PUSH2 0x1236 JUMPI PUSH2 0x1235 PUSH2 0x11D9 JUMP JUMPDEST JUMPDEST SWAP3 SWAP2 POP POP JUMP JUMPDEST PUSH1 0x0 PUSH2 0x1247 DUP3 PUSH2 0xD8F JUMP JUMPDEST SWAP2 POP PUSH2 0x1252 DUP4 PUSH2 0xD8F JUMP JUMPDEST SWAP3 POP DUP3 DUP3 ADD SWAP1 POP DUP1 DUP3 GT ISZERO PUSH2 0x126A JUMPI PUSH2 0x1269 PUSH2 0x11D9 JUMP JUMPDEST JUMPDEST SWAP3 SWAP2 POP POP JUMP JUMPDEST PUSH1 0x0 DUP2 MLOAD SWAP1 POP SWAP2 SWAP1 POP JUMP JUMPDEST PUSH1 0x0 DUP3 DUP3 MSTORE PUSH1 0x20 DUP3 ADD SWAP1 POP SWAP3 SWAP2 POP POP JUMP JUMPDEST PUSH1 0x0 JUMPDEST DUP4 DUP2 LT ISZERO PUSH2 0x12AA JUMPI DUP1 DUP3 ADD MLOAD DUP2 DUP5 ADD MSTORE PUSH1 0x20 DUP2 ADD SWAP1 POP PUSH2 0x128F JUMP JUMPDEST PUSH1 0x0 DUP5 DUP5 ADD MSTORE POP POP POP POP JUMP JUMPDEST PUSH1 0x0 PUSH2 0x12C1 DUP3 PUSH2 0x1270 JUMP JUMPDEST PUSH2 0x12CB DUP2 DUP6 PUSH2 0x127B JUMP JUMPDEST SWAP4 POP PUSH2 0x12DB DUP2 DUP6 PUSH1 0x20 DUP7 ADD PUSH2 0x128C JUMP JUMPDEST PUSH2 0x12E4 DUP2 PUSH2 0xFDA JUMP JUMPDEST DUP5 ADD SWAP2 POP POP SWAP3 SWAP2 POP POP JUMP JUMPDEST PUSH1 0x0 PUSH1 0x80 DUP3 ADD SWAP1 POP PUSH2 0x1304 PUSH1 0x0 DUP4 ADD DUP8 PUSH2 0xE24 JUMP JUMPDEST PUSH2 0x1311 PUSH1 0x20 DUP4 ADD DUP7 PUSH2 0xE24 JUMP JUMPDEST PUSH2 0x131E PUSH1 0x40 DUP4 ADD DUP6 PUSH2 0xF3A JUMP JUMPDEST DUP2 DUP2 SUB PUSH1 0x60 DUP4 ADD MSTORE PUSH2 0x1330 DUP2 DUP5 PUSH2 0x12B6 JUMP JUMPDEST SWAP1 POP SWAP6 SWAP5 POP POP POP POP POP JUMP JUMPDEST PUSH1 0x0 DUP2 MLOAD SWAP1 POP PUSH2 0x134A DUP2 PUSH2 0xD00 JUMP JUMPDEST SWAP3 SWAP2 POP POP JUMP JUMPDEST PUSH1 0x0 PUSH1 0x20 DUP3 DUP5 SUB SLT ISZERO PUSH2 0x1366 JUMPI PUSH2 0x1365 PUSH2 0xCCA JUMP JUMPDEST JUMPDEST PUSH1 0x0 PUSH2 0x1374 DUP5 DUP3 DUP6 ADD PUSH2 0x133B JUMP JUMPDEST SWAP2 POP POP SWAP3 SWAP2 POP POP JUMP INVALID LOG2 PUSH5 0x6970667358 0x22 SLT KECCAK256 CALLDATALOAD 0xF7 PUSH19 0xC5A64503301B2A914FA0B2DF3820A45ECE22C 0x25 0x29 DUP3 DUP6 LOG3 0xC1 PUSH10 0x38C8BD64736F6C634300 ADDMOD SLT STOP CALLER "
				},
				"gasEstimates": {
					"creation": {
						"codeDepositCost": "1008600",
						"executionCost": "infinite",
						"totalCost": "infinite"
					},
					"external": {
						"_isApprovedOrOwner(address,uint256)": "10157",
						"approve(address,uint256)": "31713",
						"balanceOf(address)": "2920",
						"getApproved(uint256)": "5196",
						"isApprovedForAll(address,address)": "infinite",
						"ownerOf(uint256)": "2935",
						"safeTransferFrom(address,address,uint256)": "infinite",
						"safeTransferFrom(address,address,uint256,bytes)": "infinite",
						"setApprovalForAll(address,bool)": "infinite",
						"supportsInterface(bytes4)": "2847",
						"transferFrom(address,address,uint256)": "infinite"
					},
					"internal": {
						"_checkOnERC721Recieved(address,address,uint256,bytes memory)": "infinite",
						"_clearApproval(uint256)": "26611",
						"_exists(uint256)": "2282",
						"_transferFrom(address,address,uint256)": "infinite",
						"burn(address,uint256)": "infinite",
						"burn(uint256)": "infinite",
						"mint(address,uint256)": "infinite"
					}
				},
				"methodIdentifiers": {
					"_isApprovedOrOwner(address,uint256)": "4cdc9549",
					"approve(address,uint256)": "095ea7b3",
					"balanceOf(address)": "70a08231",
					"getApproved(uint256)": "081812fc",
					"isApprovedForAll(address,address)": "e985e9c5",
					"ownerOf(uint256)": "6352211e",
					"safeTransferFrom(address,address,uint256)": "42842e0e",
					"safeTransferFrom(address,address,uint256,bytes)": "b88d4fde",
					"setApprovalForAll(address,bool)": "a22cb465",
					"supportsInterface(bytes4)": "01ffc9a7",
					"transferFrom(address,address,uint256)": "23b872dd"
				}
			},
			"storageLayout": {
				"storage": [
					{
						"astId": 823,
						"contract": "ERC721.sol:ERC721",
						"label": "_supportedInterfaces",
						"offset": 0,
						"slot": "0",
						"type": "t_mapping(t_bytes4,t_bool)"
					},
					{
						"astId": 22,
						"contract": "ERC721.sol:ERC721",
						"label": "_tokenowners",
						"offset": 0,
						"slot": "1",
						"type": "t_mapping(t_uint256,t_address)"
					},
					{
						"astId": 26,
						"contract": "ERC721.sol:ERC721",
						"label": "_ownedTokensCount",
						"offset": 0,
						"slot": "2",
						"type": "t_mapping(t_address,t_uint256)"
					},
					{
						"astId": 30,
						"contract": "ERC721.sol:ERC721",
						"label": "_tokenApprovals",
						"offset": 0,
						"slot": "3",
						"type": "t_mapping(t_uint256,t_address)"
					},
					{
						"astId": 36,
						"contract": "ERC721.sol:ERC721",
						"label": "_operatorApprovals",
						"offset": 0,
						"slot": "4",
						"type": "t_mapping(t_address,t_mapping(t_address,t_bool))"
					}
				],
				"types": {
					"t_address": {
						"encoding": "inplace",
						"label": "address",
						"numberOfBytes": "20"
					},
					"t_bool": {
						"encoding": "inplace",
						"label": "bool",
						"numberOfBytes": "1"
					},
					"t_bytes4": {
						"encoding": "inplace",
						"label": "bytes4",
						"numberOfBytes": "4"
					},
					"t_mapping(t_address,t_bool)": {
						"encoding": "mapping",
						"key": "t_address",
						"label": "mapping(address => bool)",
						"numberOfBytes": "32",
						"value": "t_bool"
					},
					"t_mapping(t_address,t_mapping(t_address,t_bool))": {
						"encoding": "mapping",
						"key": "t_address",
						"label": "mapping(address => mapping(address => bool))",
						"numberOfBytes": "32",
						"value": "t_mapping(t_address,t_bool)"
					},
					"t_mapping(t_address,t_uint256)": {
						"encoding": "mapping",
						"key": "t_address",
						"label": "mapping(address => uint256)",
						"numberOfBytes": "32",
						"value": "t_uint256"
					},
					"t_mapping(t_bytes4,t_bool)": {
						"encoding": "mapping",
						"key": "t_bytes4",
						"label": "mapping(bytes4 => bool)",
						"numberOfBytes": "32",
						"value": "t_bool"
					},
					"t_mapping(t_uint256,t_address)": {
						"encoding": "mapping",
						"key": "t_uint256",
						"label": "mapping(uint256 => address)",
						"numberOfBytes": "32",
						"value": "t_address"
					},
					"t_uint256": {
						"encoding": "inplace",
						"label": "uint256",
						"numberOfBytes": "32"
					}
				}
			},
			"userdoc": {
				"kind": "user",
				"methods": {},
				"version": 1
			}
		}
	}
}