{
	"ERC721Metadata.sol": {
		"ERC721Metadata": {
			"abi": [
				{
					"inputs": [
						{
							"internalType": "string",
							"name": "name",
							"type": "string"
						},
						{
							"internalType": "string",
							"name": "symbol",
							"type": "string"
						}
					],
					"stateMutability": "nonpayable",
					"type": "constructor"
				},
				{
					"anonymous": false,
					"inputs": [
						{
							"indexed": true,
							"internalType": "address",
							"name": "owner",
							"type": "address"
						},
						{
							"indexed": true,
							"internalType": "address",
							"name": "approved",
							"type": "address"
						},
						{
							"indexed": true,
							"internalType": "uint256",
							"name": "tokenId",
							"type": "uint256"
						}
					],
					"name": "Approval",
					"type": "event"
				},
				{
					"anonymous": false,
					"inputs": [
						{
							"indexed": true,
							"internalType": "address",
							"name": "owner",
							"type": "address"
						},
						{
							"indexed": true,
							"internalType": "address",
							"name": "operator",
							"type": "address"
						},
						{
							"indexed": false,
							"internalType": "bool",
							"name": "approved",
							"type": "bool"
						}
					],
					"name": "ApprovalForAll",
					"type": "event"
				},
				{
					"anonymous": false,
					"inputs": [
						{
							"indexed": true,
							"internalType": "address",
							"name": "from",
							"type": "address"
						},
						{
							"indexed": true,
							"internalType": "address",
							"name": "to",
							"type": "address"
						},
						{
							"indexed": true,
							"internalType": "uint256",
							"name": "tokenId",
							"type": "uint256"
						}
					],
					"name": "Transfer",
					"type": "event"
				},
				{
					"inputs": [
						{
							"internalType": "address",
							"name": "spender",
							"type": "address"
						},
						{
							"internalType": "uint256",
							"name": "tokenId",
							"type": "uint256"
						}
					],
					"name": "_isApprovedOrOwner",
					"outputs": [
						{
							"internalType": "bool",
							"name": "",
							"type": "bool"
						}
					],
					"stateMutability": "view",
					"type": "function"
				},
				{
					"inputs": [
						{
							"internalType": "address",
							"name": "to",
							"type": "address"
						},
						{
							"internalType": "uint256",
							"name": "tokenId",
							"type": "uint256"
						}
					],
					"name": "approve",
					"outputs": [],
					"stateMutability": "nonpayable",
					"type": "function"
				},
				{
					"inputs": [
						{
							"internalType": "address",
							"name": "owner",
							"type": "address"
						}
					],
					"name": "balanceOf",
					"outputs": [
						{
							"internalType": "uint256",
							"name": "",
							"type": "uint256"
						}
					],
					"stateMutability": "view",
					"type": "function"
				},
				{
					"inputs": [
						{
							"internalType": "uint256",
							"name": "tokenId",
							"type": "uint256"
						}
					],
					"name": "getApproved",
					"outputs": [
						{
							"internalType": "address",
							"name": "",
							"type": "address"
						}
					],
					"stateMutability": "view",
					"type": "function"
				},
				{
					"inputs": [
						{
							"internalType": "address",
							"name": "spender",
							"type": "address"
						},
						{
							"internalType": "address",
							"name": "operator",
							"type": "address"
						}
					],
					"name": "isApprovedForAll",
					"outputs": [
						{
							"internalType": "bool",
							"name": "",
							"type": "bool"
						}
					],
					"stateMutability": "view",
					"type": "function"
				},
				{
					"inputs": [],
					"name": "name",
					"outputs": [
						{
							"internalType": "string",
							"name": "",
							"type": "string"
						}
					],
					"stateMutability": "view",
					"type": "function"
				},
				{
					"inputs": [
						{
							"internalType": "uint256",
							"name": "tokenId",
							"type": "uint256"
						}
					],
					"name": "ownerOf",
					"outputs": [
						{
							"internalType": "address",
							"name": "",
							"type": "address"
						}
					],
					"stateMutability": "view",
					"type": "function"
				},
				{
					"inputs": [
						{
							"internalType": "address",
							"name": "from",
							"type": "address"
						},
						{
							"internalType": "address",
							"name": "to",
							"type": "address"
						},
						{
							"internalType": "uint256",
							"name": "tokenId",
							"type": "uint256"
						}
					],
					"name": "safeTransferFrom",
					"outputs": [],
					"stateMutability": "nonpayable",
					"type": "function"
				},
				{
					"inputs": [
						{
							"internalType": "address",
							"name": "from",
							"type": "address"
						},
						{
							"internalType": "address",
							"name": "to",
							"type": "address"
						},
						{
							"internalType": "uint256",
							"name": "tokenId",
							"type": "uint256"
						},
						{
							"internalType": "bytes",
							"name": "_data",
							"type": "bytes"
						}
					],
					"name": "safeTransferFrom",
					"outputs": [],
					"stateMutability": "nonpayable",
					"type": "function"
				},
				{
					"inputs": [
						{
							"internalType": "address",
							"name": "to",
							"type": "address"
						},
						{
							"internalType": "bool",
							"name": "approved",
							"type": "bool"
						}
					],
					"name": "setApprovalForAll",
					"outputs": [],
					"stateMutability": "nonpayable",
					"type": "function"
				},
				{
					"inputs": [
						{
							"internalType": "uint256",
							"name": "tokenId",
							"type": "uint256"
						},
						{
							"internalType": "string",
							"name": "uri",
							"type": "string"
						}
					],
					"name": "setTokenURI",
					"outputs": [],
					"stateMutability": "nonpayable",
					"type": "function"
				},
				{
					"inputs": [
						{
							"internalType": "bytes4",
							"name": "interfaceId",
							"type": "bytes4"
						}
					],
					"name": "supportsInterface",
					"outputs": [
						{
							"internalType": "bool",
							"name": "",
							"type": "bool"
						}
					],
					"stateMutability": "view",
					"type": "function"
				},
				{
					"inputs": [],
					"name": "symbol",
					"outputs": [
						{
							"internalType": "string",
							"name": "",
							"type": "string"
						}
					],
					"stateMutability": "view",
					"type": "function"
				},
				{
					"inputs": [
						{
							"internalType": "uint256",
							"name": "tokenId",
							"type": "uint256"
						}
					],
					"name": "tokenURI",
					"outputs": [
						{
							"internalType": "string",
							"name": "",
							"type": "string"
						}
					],
					"stateMutability": "view",
					"type": "function"
				},
				{
					"inputs": [
						{
							"internalType": "address",
							"name": "from",
							"type": "address"
						},
						{
							"internalType": "address",
							"name": "to",
							"type": "address"
						},
						{
							"internalType": "uint256",
							"name": "tokenId",
							"type": "uint256"
						}
					],
					"name": "transferFrom",
					"outputs": [],
					"stateMutability": "nonpayable",
					"type": "function"
				}
			],
			"devdoc": {
				"kind": "dev",
				"methods": {},
				"version": 1
			},
			"evm": {
				"assembly": "    /* \"ERC721Metadata.sol\":153:1063  contract ERC721Metadata is ERC165,ERC721,IERC721Metadata{... */\n  mstore(0x40, 0x80)\n    /* \"ERC721Metadata.sol\":388:550  constructor(string memory name,string memory symbol){... */\n  callvalue\n  dup1\n  iszero\n  tag_1\n  jumpi\n  0x00\n  dup1\n  revert\ntag_1:\n  pop\n  mload(0x40)\n  sub(codesize, bytecodeSize)\n  dup1\n  bytecodeSize\n  dup4\n  codecopy\n  dup2\n  dup2\n  add\n  0x40\n  mstore\n  dup2\n  add\n  swap1\n  tag_2\n  swap2\n  swap1\n  tag_3\n  jump\t// in\ntag_2:\n    /* \"introsecption/ERC165.sol\":290:330  _registerInterface(_INTERFACE_ID_ERC165) */\n  tag_8\n    /* \"introsecption/ERC165.sol\":178:188  0x01ffc9a7 */\n  0x01ffc9a7\n    /* \"introsecption/ERC165.sol\":309:329  _INTERFACE_ID_ERC165 */\n  0xe0\n  shl\n    /* \"introsecption/ERC165.sol\":290:308  _registerInterface */\n  shl(0x20, tag_9)\n    /* \"introsecption/ERC165.sol\":290:330  _registerInterface(_INTERFACE_ID_ERC165) */\n  0x20\n  shr\n  jump\t// in\ntag_8:\n    /* \"ERC721.sol\":671:711  _registerInterface(_INTERFACE_ID_ERC721) */\n  tag_11\n    /* \"ERC721.sol\":375:385  0x80ac58cd */\n  0x80ac58cd\n    /* \"ERC721.sol\":690:710  _INTERFACE_ID_ERC721 */\n  0xe0\n  shl\n    /* \"ERC721.sol\":671:689  _registerInterface */\n  shl(0x20, tag_9)\n    /* \"ERC721.sol\":671:711  _registerInterface(_INTERFACE_ID_ERC721) */\n  0x20\n  shr\n  jump\t// in\ntag_11:\n    /* \"ERC721Metadata.sol\":456:460  name */\n  dup2\n    /* \"ERC721Metadata.sol\":450:455  _name */\n  0x05\n    /* \"ERC721Metadata.sol\":450:460  _name=name */\n  swap1\n  dup2\n  tag_13\n  swap2\n  swap1\n  tag_14\n  jump\t// in\ntag_13:\n  pop\n    /* \"ERC721Metadata.sol\":478:484  symbol */\n  dup1\n    /* \"ERC721Metadata.sol\":470:477  _symbol */\n  0x06\n    /* \"ERC721Metadata.sol\":470:484  _symbol=symbol */\n  swap1\n  dup2\n  tag_15\n  swap2\n  swap1\n  tag_14\n  jump\t// in\ntag_15:\n  pop\n    /* \"ERC721Metadata.sol\":494:542  _registerInterface(_INTERFACE_ID_ERC721METADATA) */\n  tag_16\n    /* \"ERC721Metadata.sol\":371:381  0x5b5e139f */\n  0x5b5e139f\n    /* \"ERC721Metadata.sol\":513:541  _INTERFACE_ID_ERC721METADATA */\n  0xe0\n  shl\n    /* \"ERC721Metadata.sol\":494:512  _registerInterface */\n  shl(0x20, tag_9)\n    /* \"ERC721Metadata.sol\":494:542  _registerInterface(_INTERFACE_ID_ERC721METADATA) */\n  0x20\n  shr\n  jump\t// in\ntag_16:\n    /* \"ERC721Metadata.sol\":388:550  constructor(string memory name,string memory symbol){... */\n  pop\n  pop\n    /* \"ERC721Metadata.sol\":153:1063  contract ERC721Metadata is ERC165,ERC721,IERC721Metadata{... */\n  jump(tag_17)\n    /* \"introsecption/ERC165.sol\":352:521  function _registerInterface( bytes4 interfaceId) internal{... */\ntag_9:\n    /* \"introsecption/ERC165.sol\":445:455  0xffffffff */\n  0xffffffff\n    /* \"introsecption/ERC165.sol\":432:455  interfaceId!=0xffffffff */\n  0xe0\n  shl\n    /* \"introsecption/ERC165.sol\":432:443  interfaceId */\n  dup2\n    /* \"introsecption/ERC165.sol\":432:455  interfaceId!=0xffffffff */\n  not(0xffffffffffffffffffffffffffffffffffffffffffffffffffffffff)\n  and\n  sub\n    /* \"introsecption/ERC165.sol\":424:456  require(interfaceId!=0xffffffff) */\n  tag_19\n  jumpi\n  0x00\n  dup1\n  revert\ntag_19:\n    /* \"introsecption/ERC165.sol\":505:509  true */\n  0x01\n    /* \"introsecption/ERC165.sol\":471:491  _supportedInterfaces */\n  0x00\n    /* \"introsecption/ERC165.sol\":471:504  _supportedInterfaces[interfaceId] */\n  dup1\n    /* \"introsecption/ERC165.sol\":492:503  interfaceId */\n  dup4\n    /* \"introsecption/ERC165.sol\":471:504  _supportedInterfaces[interfaceId] */\n  not(0xffffffffffffffffffffffffffffffffffffffffffffffffffffffff)\n  and\n  not(0xffffffffffffffffffffffffffffffffffffffffffffffffffffffff)\n  and\n  dup2\n  mstore\n  0x20\n  add\n  swap1\n  dup2\n  mstore\n  0x20\n  add\n  0x00\n  keccak256\n  0x00\n    /* \"introsecption/ERC165.sol\":471:509  _supportedInterfaces[interfaceId]=true */\n  0x0100\n  exp\n  dup2\n  sload\n  dup2\n  0xff\n  mul\n  not\n  and\n  swap1\n  dup4\n  iszero\n  iszero\n  mul\n  or\n  swap1\n  sstore\n  pop\n    /* \"introsecption/ERC165.sol\":352:521  function _registerInterface( bytes4 interfaceId) internal{... */\n  pop\n  jump\t// out\n    /* \"#utility.yul\":7:82   */\ntag_20:\n    /* \"#utility.yul\":40:46   */\n  0x00\n    /* \"#utility.yul\":73:75   */\n  0x40\n    /* \"#utility.yul\":67:76   */\n  mload\n    /* \"#utility.yul\":57:76   */\n  swap1\n  pop\n    /* \"#utility.yul\":7:82   */\n  swap1\n  jump\t// out\n    /* \"#utility.yul\":88:205   */\ntag_21:\n    /* \"#utility.yul\":197:198   */\n  0x00\n    /* \"#utility.yul\":194:195   */\n  dup1\n    /* \"#utility.yul\":187:199   */\n  revert\n    /* \"#utility.yul\":211:328   */\ntag_22:\n    /* \"#utility.yul\":320:321   */\n  0x00\n    /* \"#utility.yul\":317:318   */\n  dup1\n    /* \"#utility.yul\":310:322   */\n  revert\n    /* \"#utility.yul\":334:451   */\ntag_23:\n    /* \"#utility.yul\":443:444   */\n  0x00\n    /* \"#utility.yul\":440:441   */\n  dup1\n    /* \"#utility.yul\":433:445   */\n  revert\n    /* \"#utility.yul\":457:574   */\ntag_24:\n    /* \"#utility.yul\":566:567   */\n  0x00\n    /* \"#utility.yul\":563:564   */\n  dup1\n    /* \"#utility.yul\":556:568   */\n  revert\n    /* \"#utility.yul\":580:682   */\ntag_25:\n    /* \"#utility.yul\":621:627   */\n  0x00\n    /* \"#utility.yul\":672:674   */\n  0x1f\n    /* \"#utility.yul\":668:675   */\n  not\n    /* \"#utility.yul\":663:665   */\n  0x1f\n    /* \"#utility.yul\":656:661   */\n  dup4\n    /* \"#utility.yul\":652:666   */\n  add\n    /* \"#utility.yul\":648:676   */\n  and\n    /* \"#utility.yul\":638:676   */\n  swap1\n  pop\n    /* \"#utility.yul\":580:682   */\n  swap2\n  swap1\n  pop\n  jump\t// out\n    /* \"#utility.yul\":688:868   */\ntag_26:\n    /* \"#utility.yul\":736:813   */\n  0x4e487b7100000000000000000000000000000000000000000000000000000000\n    /* \"#utility.yul\":733:734   */\n  0x00\n    /* \"#utility.yul\":726:814   */\n  mstore\n    /* \"#utility.yul\":833:837   */\n  0x41\n    /* \"#utility.yul\":830:831   */\n  0x04\n    /* \"#utility.yul\":823:838   */\n  mstore\n    /* \"#utility.yul\":857:861   */\n  0x24\n    /* \"#utility.yul\":854:855   */\n  0x00\n    /* \"#utility.yul\":847:862   */\n  revert\n    /* \"#utility.yul\":874:1155   */\ntag_27:\n    /* \"#utility.yul\":957:984   */\n  tag_61\n    /* \"#utility.yul\":979:983   */\n  dup3\n    /* \"#utility.yul\":957:984   */\n  tag_25\n  jump\t// in\ntag_61:\n    /* \"#utility.yul\":949:955   */\n  dup2\n    /* \"#utility.yul\":945:985   */\n  add\n    /* \"#utility.yul\":1087:1093   */\n  dup2\n    /* \"#utility.yul\":1075:1085   */\n  dup2\n    /* \"#utility.yul\":1072:1094   */\n  lt\n    /* \"#utility.yul\":1051:1069   */\n  0xffffffffffffffff\n    /* \"#utility.yul\":1039:1049   */\n  dup3\n    /* \"#utility.yul\":1036:1070   */\n  gt\n    /* \"#utility.yul\":1033:1095   */\n  or\n    /* \"#utility.yul\":1030:1118   */\n  iszero\n  tag_62\n  jumpi\n    /* \"#utility.yul\":1098:1116   */\n  tag_63\n  tag_26\n  jump\t// in\ntag_63:\n    /* \"#utility.yul\":1030:1118   */\ntag_62:\n    /* \"#utility.yul\":1138:1148   */\n  dup1\n    /* \"#utility.yul\":1134:1136   */\n  0x40\n    /* \"#utility.yul\":1127:1149   */\n  mstore\n    /* \"#utility.yul\":917:1155   */\n  pop\n    /* \"#utility.yul\":874:1155   */\n  pop\n  pop\n  jump\t// out\n    /* \"#utility.yul\":1161:1290   */\ntag_28:\n    /* \"#utility.yul\":1195:1201   */\n  0x00\n    /* \"#utility.yul\":1222:1242   */\n  tag_65\n  tag_20\n  jump\t// in\ntag_65:\n    /* \"#utility.yul\":1212:1242   */\n  swap1\n  pop\n    /* \"#utility.yul\":1251:1284   */\n  tag_66\n    /* \"#utility.yul\":1279:1283   */\n  dup3\n    /* \"#utility.yul\":1271:1277   */\n  dup3\n    /* \"#utility.yul\":1251:1284   */\n  tag_27\n  jump\t// in\ntag_66:\n    /* \"#utility.yul\":1161:1290   */\n  swap2\n  swap1\n  pop\n  jump\t// out\n    /* \"#utility.yul\":1296:1604   */\ntag_29:\n    /* \"#utility.yul\":1358:1362   */\n  0x00\n    /* \"#utility.yul\":1448:1466   */\n  0xffffffffffffffff\n    /* \"#utility.yul\":1440:1446   */\n  dup3\n    /* \"#utility.yul\":1437:1467   */\n  gt\n    /* \"#utility.yul\":1434:1490   */\n  iszero\n  tag_68\n  jumpi\n    /* \"#utility.yul\":1470:1488   */\n  tag_69\n  tag_26\n  jump\t// in\ntag_69:\n    /* \"#utility.yul\":1434:1490   */\ntag_68:\n    /* \"#utility.yul\":1508:1537   */\n  tag_70\n    /* \"#utility.yul\":1530:1536   */\n  dup3\n    /* \"#utility.yul\":1508:1537   */\n  tag_25\n  jump\t// in\ntag_70:\n    /* \"#utility.yul\":1500:1537   */\n  swap1\n  pop\n    /* \"#utility.yul\":1592:1596   */\n  0x20\n    /* \"#utility.yul\":1586:1590   */\n  dup2\n    /* \"#utility.yul\":1582:1597   */\n  add\n    /* \"#utility.yul\":1574:1597   */\n  swap1\n  pop\n    /* \"#utility.yul\":1296:1604   */\n  swap2\n  swap1\n  pop\n  jump\t// out\n    /* \"#utility.yul\":1610:1856   */\ntag_30:\n    /* \"#utility.yul\":1691:1692   */\n  0x00\n    /* \"#utility.yul\":1701:1814   */\ntag_72:\n    /* \"#utility.yul\":1715:1721   */\n  dup4\n    /* \"#utility.yul\":1712:1713   */\n  dup2\n    /* \"#utility.yul\":1709:1722   */\n  lt\n    /* \"#utility.yul\":1701:1814   */\n  iszero\n  tag_74\n  jumpi\n    /* \"#utility.yul\":1800:1801   */\n  dup1\n    /* \"#utility.yul\":1795:1798   */\n  dup3\n    /* \"#utility.yul\":1791:1802   */\n  add\n    /* \"#utility.yul\":1785:1803   */\n  mload\n    /* \"#utility.yul\":1781:1782   */\n  dup2\n    /* \"#utility.yul\":1776:1779   */\n  dup5\n    /* \"#utility.yul\":1772:1783   */\n  add\n    /* \"#utility.yul\":1765:1804   */\n  mstore\n    /* \"#utility.yul\":1737:1739   */\n  0x20\n    /* \"#utility.yul\":1734:1735   */\n  dup2\n    /* \"#utility.yul\":1730:1740   */\n  add\n    /* \"#utility.yul\":1725:1740   */\n  swap1\n  pop\n    /* \"#utility.yul\":1701:1814   */\n  jump(tag_72)\ntag_74:\n    /* \"#utility.yul\":1848:1849   */\n  0x00\n    /* \"#utility.yul\":1839:1845   */\n  dup5\n    /* \"#utility.yul\":1834:1837   */\n  dup5\n    /* \"#utility.yul\":1830:1846   */\n  add\n    /* \"#utility.yul\":1823:1850   */\n  mstore\n    /* \"#utility.yul\":1672:1856   */\n  pop\n    /* \"#utility.yul\":1610:1856   */\n  pop\n  pop\n  pop\n  jump\t// out\n    /* \"#utility.yul\":1862:2296   */\ntag_31:\n    /* \"#utility.yul\":1951:1956   */\n  0x00\n    /* \"#utility.yul\":1976:2042   */\n  tag_76\n    /* \"#utility.yul\":1992:2041   */\n  tag_77\n    /* \"#utility.yul\":2034:2040   */\n  dup5\n    /* \"#utility.yul\":1992:2041   */\n  tag_29\n  jump\t// in\ntag_77:\n    /* \"#utility.yul\":1976:2042   */\n  tag_28\n  jump\t// in\ntag_76:\n    /* \"#utility.yul\":1967:2042   */\n  swap1\n  pop\n    /* \"#utility.yul\":2065:2071   */\n  dup3\n    /* \"#utility.yul\":2058:2063   */\n  dup2\n    /* \"#utility.yul\":2051:2072   */\n  mstore\n    /* \"#utility.yul\":2103:2107   */\n  0x20\n    /* \"#utility.yul\":2096:2101   */\n  dup2\n    /* \"#utility.yul\":2092:2108   */\n  add\n    /* \"#utility.yul\":2141:2144   */\n  dup5\n    /* \"#utility.yul\":2132:2138   */\n  dup5\n    /* \"#utility.yul\":2127:2130   */\n  dup5\n    /* \"#utility.yul\":2123:2139   */\n  add\n    /* \"#utility.yul\":2120:2145   */\n  gt\n    /* \"#utility.yul\":2117:2229   */\n  iszero\n  tag_78\n  jumpi\n    /* \"#utility.yul\":2148:2227   */\n  tag_79\n  tag_24\n  jump\t// in\ntag_79:\n    /* \"#utility.yul\":2117:2229   */\ntag_78:\n    /* \"#utility.yul\":2238:2290   */\n  tag_80\n    /* \"#utility.yul\":2283:2289   */\n  dup5\n    /* \"#utility.yul\":2278:2281   */\n  dup3\n    /* \"#utility.yul\":2273:2276   */\n  dup6\n    /* \"#utility.yul\":2238:2290   */\n  tag_30\n  jump\t// in\ntag_80:\n    /* \"#utility.yul\":1957:2296   */\n  pop\n    /* \"#utility.yul\":1862:2296   */\n  swap4\n  swap3\n  pop\n  pop\n  pop\n  jump\t// out\n    /* \"#utility.yul\":2316:2671   */\ntag_32:\n    /* \"#utility.yul\":2383:2388   */\n  0x00\n    /* \"#utility.yul\":2432:2435   */\n  dup3\n    /* \"#utility.yul\":2425:2429   */\n  0x1f\n    /* \"#utility.yul\":2417:2423   */\n  dup4\n    /* \"#utility.yul\":2413:2430   */\n  add\n    /* \"#utility.yul\":2409:2436   */\n  slt\n    /* \"#utility.yul\":2399:2521   */\n  tag_82\n  jumpi\n    /* \"#utility.yul\":2440:2519   */\n  tag_83\n  tag_23\n  jump\t// in\ntag_83:\n    /* \"#utility.yul\":2399:2521   */\ntag_82:\n    /* \"#utility.yul\":2550:2556   */\n  dup2\n    /* \"#utility.yul\":2544:2557   */\n  mload\n    /* \"#utility.yul\":2575:2665   */\n  tag_84\n    /* \"#utility.yul\":2661:2664   */\n  dup5\n    /* \"#utility.yul\":2653:2659   */\n  dup3\n    /* \"#utility.yul\":2646:2650   */\n  0x20\n    /* \"#utility.yul\":2638:2644   */\n  dup7\n    /* \"#utility.yul\":2634:2651   */\n  add\n    /* \"#utility.yul\":2575:2665   */\n  tag_31\n  jump\t// in\ntag_84:\n    /* \"#utility.yul\":2566:2665   */\n  swap2\n  pop\n    /* \"#utility.yul\":2389:2671   */\n  pop\n    /* \"#utility.yul\":2316:2671   */\n  swap3\n  swap2\n  pop\n  pop\n  jump\t// out\n    /* \"#utility.yul\":2677:3530   */\ntag_3:\n    /* \"#utility.yul\":2776:2782   */\n  0x00\n    /* \"#utility.yul\":2784:2790   */\n  dup1\n    /* \"#utility.yul\":2833:2835   */\n  0x40\n    /* \"#utility.yul\":2821:2830   */\n  dup4\n    /* \"#utility.yul\":2812:2819   */\n  dup6\n    /* \"#utility.yul\":2808:2831   */\n  sub\n    /* \"#utility.yul\":2804:2836   */\n  slt\n    /* \"#utility.yul\":2801:2920   */\n  iszero\n  tag_86\n  jumpi\n    /* \"#utility.yul\":2839:2918   */\n  tag_87\n  tag_21\n  jump\t// in\ntag_87:\n    /* \"#utility.yul\":2801:2920   */\ntag_86:\n    /* \"#utility.yul\":2980:2981   */\n  0x00\n    /* \"#utility.yul\":2969:2978   */\n  dup4\n    /* \"#utility.yul\":2965:2982   */\n  add\n    /* \"#utility.yul\":2959:2983   */\n  mload\n    /* \"#utility.yul\":3010:3028   */\n  0xffffffffffffffff\n    /* \"#utility.yul\":3002:3008   */\n  dup2\n    /* \"#utility.yul\":2999:3029   */\n  gt\n    /* \"#utility.yul\":2996:3113   */\n  iszero\n  tag_88\n  jumpi\n    /* \"#utility.yul\":3032:3111   */\n  tag_89\n  tag_22\n  jump\t// in\ntag_89:\n    /* \"#utility.yul\":2996:3113   */\ntag_88:\n    /* \"#utility.yul\":3137:3211   */\n  tag_90\n    /* \"#utility.yul\":3203:3210   */\n  dup6\n    /* \"#utility.yul\":3194:3200   */\n  dup3\n    /* \"#utility.yul\":3183:3192   */\n  dup7\n    /* \"#utility.yul\":3179:3201   */\n  add\n    /* \"#utility.yul\":3137:3211   */\n  tag_32\n  jump\t// in\ntag_90:\n    /* \"#utility.yul\":3127:3211   */\n  swap3\n  pop\n    /* \"#utility.yul\":2930:3221   */\n  pop\n    /* \"#utility.yul\":3281:3283   */\n  0x20\n    /* \"#utility.yul\":3270:3279   */\n  dup4\n    /* \"#utility.yul\":3266:3284   */\n  add\n    /* \"#utility.yul\":3260:3285   */\n  mload\n    /* \"#utility.yul\":3312:3330   */\n  0xffffffffffffffff\n    /* \"#utility.yul\":3304:3310   */\n  dup2\n    /* \"#utility.yul\":3301:3331   */\n  gt\n    /* \"#utility.yul\":3298:3415   */\n  iszero\n  tag_91\n  jumpi\n    /* \"#utility.yul\":3334:3413   */\n  tag_92\n  tag_22\n  jump\t// in\ntag_92:\n    /* \"#utility.yul\":3298:3415   */\ntag_91:\n    /* \"#utility.yul\":3439:3513   */\n  tag_93\n    /* \"#utility.yul\":3505:3512   */\n  dup6\n    /* \"#utility.yul\":3496:3502   */\n  dup3\n    /* \"#utility.yul\":3485:3494   */\n  dup7\n    /* \"#utility.yul\":3481:3503   */\n  add\n    /* \"#utility.yul\":3439:3513   */\n  tag_32\n  jump\t// in\ntag_93:\n    /* \"#utility.yul\":3429:3513   */\n  swap2\n  pop\n    /* \"#utility.yul\":3231:3523   */\n  pop\n    /* \"#utility.yul\":2677:3530   */\n  swap3\n  pop\n  swap3\n  swap1\n  pop\n  jump\t// out\n    /* \"#utility.yul\":3536:3635   */\ntag_33:\n    /* \"#utility.yul\":3588:3594   */\n  0x00\n    /* \"#utility.yul\":3622:3627   */\n  dup2\n    /* \"#utility.yul\":3616:3628   */\n  mload\n    /* \"#utility.yul\":3606:3628   */\n  swap1\n  pop\n    /* \"#utility.yul\":3536:3635   */\n  swap2\n  swap1\n  pop\n  jump\t// out\n    /* \"#utility.yul\":3641:3821   */\ntag_34:\n    /* \"#utility.yul\":3689:3766   */\n  0x4e487b7100000000000000000000000000000000000000000000000000000000\n    /* \"#utility.yul\":3686:3687   */\n  0x00\n    /* \"#utility.yul\":3679:3767   */\n  mstore\n    /* \"#utility.yul\":3786:3790   */\n  0x22\n    /* \"#utility.yul\":3783:3784   */\n  0x04\n    /* \"#utility.yul\":3776:3791   */\n  mstore\n    /* \"#utility.yul\":3810:3814   */\n  0x24\n    /* \"#utility.yul\":3807:3808   */\n  0x00\n    /* \"#utility.yul\":3800:3815   */\n  revert\n    /* \"#utility.yul\":3827:4147   */\ntag_35:\n    /* \"#utility.yul\":3871:3877   */\n  0x00\n    /* \"#utility.yul\":3908:3909   */\n  0x02\n    /* \"#utility.yul\":3902:3906   */\n  dup3\n    /* \"#utility.yul\":3898:3910   */\n  div\n    /* \"#utility.yul\":3888:3910   */\n  swap1\n  pop\n    /* \"#utility.yul\":3955:3956   */\n  0x01\n    /* \"#utility.yul\":3949:3953   */\n  dup3\n    /* \"#utility.yul\":3945:3957   */\n  and\n    /* \"#utility.yul\":3976:3994   */\n  dup1\n    /* \"#utility.yul\":3966:4047   */\n  tag_97\n  jumpi\n    /* \"#utility.yul\":4032:4036   */\n  0x7f\n    /* \"#utility.yul\":4024:4030   */\n  dup3\n    /* \"#utility.yul\":4020:4037   */\n  and\n    /* \"#utility.yul\":4010:4037   */\n  swap2\n  pop\n    /* \"#utility.yul\":3966:4047   */\ntag_97:\n    /* \"#utility.yul\":4094:4096   */\n  0x20\n    /* \"#utility.yul\":4086:4092   */\n  dup3\n    /* \"#utility.yul\":4083:4097   */\n  lt\n    /* \"#utility.yul\":4063:4081   */\n  dup2\n    /* \"#utility.yul\":4060:4098   */\n  sub\n    /* \"#utility.yul\":4057:4141   */\n  tag_98\n  jumpi\n    /* \"#utility.yul\":4113:4131   */\n  tag_99\n  tag_34\n  jump\t// in\ntag_99:\n    /* \"#utility.yul\":4057:4141   */\ntag_98:\n    /* \"#utility.yul\":3878:4147   */\n  pop\n    /* \"#utility.yul\":3827:4147   */\n  swap2\n  swap1\n  pop\n  jump\t// out\n    /* \"#utility.yul\":4153:4294   */\ntag_36:\n    /* \"#utility.yul\":4202:4206   */\n  0x00\n    /* \"#utility.yul\":4225:4228   */\n  dup2\n    /* \"#utility.yul\":4217:4228   */\n  swap1\n  pop\n    /* \"#utility.yul\":4248:4251   */\n  dup2\n    /* \"#utility.yul\":4245:4246   */\n  0x00\n    /* \"#utility.yul\":4238:4252   */\n  mstore\n    /* \"#utility.yul\":4282:4286   */\n  0x20\n    /* \"#utility.yul\":4279:4280   */\n  0x00\n    /* \"#utility.yul\":4269:4287   */\n  keccak256\n    /* \"#utility.yul\":4261:4287   */\n  swap1\n  pop\n    /* \"#utility.yul\":4153:4294   */\n  swap2\n  swap1\n  pop\n  jump\t// out\n    /* \"#utility.yul\":4300:4393   */\ntag_37:\n    /* \"#utility.yul\":4337:4343   */\n  0x00\n    /* \"#utility.yul\":4384:4386   */\n  0x20\n    /* \"#utility.yul\":4379:4381   */\n  0x1f\n    /* \"#utility.yul\":4372:4377   */\n  dup4\n    /* \"#utility.yul\":4368:4382   */\n  add\n    /* \"#utility.yul\":4364:4387   */\n  div\n    /* \"#utility.yul\":4354:4387   */\n  swap1\n  pop\n    /* \"#utility.yul\":4300:4393   */\n  swap2\n  swap1\n  pop\n  jump\t// out\n    /* \"#utility.yul\":4399:4506   */\ntag_38:\n    /* \"#utility.yul\":4443:4451   */\n  0x00\n    /* \"#utility.yul\":4493:4498   */\n  dup3\n    /* \"#utility.yul\":4487:4491   */\n  dup3\n    /* \"#utility.yul\":4483:4499   */\n  shl\n    /* \"#utility.yul\":4462:4499   */\n  swap1\n  pop\n    /* \"#utility.yul\":4399:4506   */\n  swap3\n  swap2\n  pop\n  pop\n  jump\t// out\n    /* \"#utility.yul\":4512:4905   */\ntag_39:\n    /* \"#utility.yul\":4581:4587   */\n  0x00\n    /* \"#utility.yul\":4631:4632   */\n  0x08\n    /* \"#utility.yul\":4619:4629   */\n  dup4\n    /* \"#utility.yul\":4615:4633   */\n  mul\n    /* \"#utility.yul\":4654:4751   */\n  tag_104\n    /* \"#utility.yul\":4684:4750   */\n  0xffffffffffffffffffffffffffffffffffffffffffffffffffffffffffffffff\n    /* \"#utility.yul\":4673:4682   */\n  dup3\n    /* \"#utility.yul\":4654:4751   */\n  tag_38\n  jump\t// in\ntag_104:\n    /* \"#utility.yul\":4772:4811   */\n  tag_105\n    /* \"#utility.yul\":4802:4810   */\n  dup7\n    /* \"#utility.yul\":4791:4800   */\n  dup4\n    /* \"#utility.yul\":4772:4811   */\n  tag_38\n  jump\t// in\ntag_105:\n    /* \"#utility.yul\":4760:4811   */\n  swap6\n  pop\n    /* \"#utility.yul\":4844:4848   */\n  dup1\n    /* \"#utility.yul\":4840:4849   */\n  not\n    /* \"#utility.yul\":4833:4838   */\n  dup5\n    /* \"#utility.yul\":4829:4850   */\n  and\n    /* \"#utility.yul\":4820:4850   */\n  swap4\n  pop\n    /* \"#utility.yul\":4893:4897   */\n  dup1\n    /* \"#utility.yul\":4883:4891   */\n  dup7\n    /* \"#utility.yul\":4879:4898   */\n  and\n    /* \"#utility.yul\":4872:4877   */\n  dup5\n    /* \"#utility.yul\":4869:4899   */\n  or\n    /* \"#utility.yul\":4859:4899   */\n  swap3\n  pop\n    /* \"#utility.yul\":4588:4905   */\n  pop\n  pop\n    /* \"#utility.yul\":4512:4905   */\n  swap4\n  swap3\n  pop\n  pop\n  pop\n  jump\t// out\n    /* \"#utility.yul\":4911:4988   */\ntag_40:\n    /* \"#utility.yul\":4948:4955   */\n  0x00\n    /* \"#utility.yul\":4977:4982   */\n  dup2\n    /* \"#utility.yul\":4966:4982   */\n  swap1\n  pop\n    /* \"#utility.yul\":4911:4988   */\n  swap2\n  swap1\n  pop\n  jump\t// out\n    /* \"#utility.yul\":4994:5054   */\ntag_41:\n    /* \"#utility.yul\":5022:5025   */\n  0x00\n    /* \"#utility.yul\":5043:5048   */\n  dup2\n    /* \"#utility.yul\":5036:5048   */\n  swap1\n  pop\n    /* \"#utility.yul\":4994:5054   */\n  swap2\n  swap1\n  pop\n  jump\t// out\n    /* \"#utility.yul\":5060:5202   */\ntag_42:\n    /* \"#utility.yul\":5110:5119   */\n  0x00\n    /* \"#utility.yul\":5143:5196   */\n  tag_109\n    /* \"#utility.yul\":5161:5195   */\n  tag_110\n    /* \"#utility.yul\":5170:5194   */\n  tag_111\n    /* \"#utility.yul\":5188:5193   */\n  dup5\n    /* \"#utility.yul\":5170:5194   */\n  tag_40\n  jump\t// in\ntag_111:\n    /* \"#utility.yul\":5161:5195   */\n  tag_41\n  jump\t// in\ntag_110:\n    /* \"#utility.yul\":5143:5196   */\n  tag_40\n  jump\t// in\ntag_109:\n    /* \"#utility.yul\":5130:5196   */\n  swap1\n  pop\n    /* \"#utility.yul\":5060:5202   */\n  swap2\n  swap1\n  pop\n  jump\t// out\n    /* \"#utility.yul\":5208:5283   */\ntag_43:\n    /* \"#utility.yul\":5251:5254   */\n  0x00\n    /* \"#utility.yul\":5272:5277   */\n  dup2\n    /* \"#utility.yul\":5265:5277   */\n  swap1\n  pop\n    /* \"#utility.yul\":5208:5283   */\n  swap2\n  swap1\n  pop\n  jump\t// out\n    /* \"#utility.yul\":5289:5558   */\ntag_44:\n    /* \"#utility.yul\":5399:5438   */\n  tag_114\n    /* \"#utility.yul\":5430:5437   */\n  dup4\n    /* \"#utility.yul\":5399:5438   */\n  tag_42\n  jump\t// in\ntag_114:\n    /* \"#utility.yul\":5460:5551   */\n  tag_115\n    /* \"#utility.yul\":5509:5550   */\n  tag_116\n    /* \"#utility.yul\":5533:5549   */\n  dup3\n    /* \"#utility.yul\":5509:5550   */\n  tag_43\n  jump\t// in\ntag_116:\n    /* \"#utility.yul\":5501:5507   */\n  dup5\n    /* \"#utility.yul\":5494:5498   */\n  dup5\n    /* \"#utility.yul\":5488:5499   */\n  sload\n    /* \"#utility.yul\":5460:5551   */\n  tag_39\n  jump\t// in\ntag_115:\n    /* \"#utility.yul\":5454:5458   */\n  dup3\n    /* \"#utility.yul\":5447:5552   */\n  sstore\n    /* \"#utility.yul\":5365:5558   */\n  pop\n    /* \"#utility.yul\":5289:5558   */\n  pop\n  pop\n  pop\n  jump\t// out\n    /* \"#utility.yul\":5564:5637   */\ntag_45:\n    /* \"#utility.yul\":5609:5612   */\n  0x00\n    /* \"#utility.yul\":5564:5637   */\n  swap1\n  jump\t// out\n    /* \"#utility.yul\":5643:5832   */\ntag_46:\n    /* \"#utility.yul\":5720:5752   */\n  tag_119\n  tag_45\n  jump\t// in\ntag_119:\n    /* \"#utility.yul\":5761:5826   */\n  tag_120\n    /* \"#utility.yul\":5819:5825   */\n  dup2\n    /* \"#utility.yul\":5811:5817   */\n  dup5\n    /* \"#utility.yul\":5805:5809   */\n  dup5\n    /* \"#utility.yul\":5761:5826   */\n  tag_44\n  jump\t// in\ntag_120:\n    /* \"#utility.yul\":5696:5832   */\n  pop\n    /* \"#utility.yul\":5643:5832   */\n  pop\n  pop\n  jump\t// out\n    /* \"#utility.yul\":5838:6024   */\ntag_47:\n    /* \"#utility.yul\":5898:6018   */\ntag_122:\n    /* \"#utility.yul\":5915:5918   */\n  dup2\n    /* \"#utility.yul\":5908:5913   */\n  dup2\n    /* \"#utility.yul\":5905:5919   */\n  lt\n    /* \"#utility.yul\":5898:6018   */\n  iszero\n  tag_124\n  jumpi\n    /* \"#utility.yul\":5969:6008   */\n  tag_125\n    /* \"#utility.yul\":6006:6007   */\n  0x00\n    /* \"#utility.yul\":5999:6004   */\n  dup3\n    /* \"#utility.yul\":5969:6008   */\n  tag_46\n  jump\t// in\ntag_125:\n    /* \"#utility.yul\":5942:5943   */\n  0x01\n    /* \"#utility.yul\":5935:5940   */\n  dup2\n    /* \"#utility.yul\":5931:5944   */\n  add\n    /* \"#utility.yul\":5922:5944   */\n  swap1\n  pop\n    /* \"#utility.yul\":5898:6018   */\n  jump(tag_122)\ntag_124:\n    /* \"#utility.yul\":5838:6024   */\n  pop\n  pop\n  jump\t// out\n    /* \"#utility.yul\":6030:6573   */\ntag_48:\n    /* \"#utility.yul\":6131:6133   */\n  0x1f\n    /* \"#utility.yul\":6126:6129   */\n  dup3\n    /* \"#utility.yul\":6123:6134   */\n  gt\n    /* \"#utility.yul\":6120:6566   */\n  iszero\n  tag_127\n  jumpi\n    /* \"#utility.yul\":6165:6203   */\n  tag_128\n    /* \"#utility.yul\":6197:6202   */\n  dup2\n    /* \"#utility.yul\":6165:6203   */\n  tag_36\n  jump\t// in\ntag_128:\n    /* \"#utility.yul\":6249:6278   */\n  tag_129\n    /* \"#utility.yul\":6267:6277   */\n  dup5\n    /* \"#utility.yul\":6249:6278   */\n  tag_37\n  jump\t// in\ntag_129:\n    /* \"#utility.yul\":6239:6247   */\n  dup2\n    /* \"#utility.yul\":6235:6279   */\n  add\n    /* \"#utility.yul\":6432:6434   */\n  0x20\n    /* \"#utility.yul\":6420:6430   */\n  dup6\n    /* \"#utility.yul\":6417:6435   */\n  lt\n    /* \"#utility.yul\":6414:6463   */\n  iszero\n  tag_130\n  jumpi\n    /* \"#utility.yul\":6453:6461   */\n  dup2\n    /* \"#utility.yul\":6438:6461   */\n  swap1\n  pop\n    /* \"#utility.yul\":6414:6463   */\ntag_130:\n    /* \"#utility.yul\":6476:6556   */\n  tag_131\n    /* \"#utility.yul\":6532:6554   */\n  tag_132\n    /* \"#utility.yul\":6550:6553   */\n  dup6\n    /* \"#utility.yul\":6532:6554   */\n  tag_37\n  jump\t// in\ntag_132:\n    /* \"#utility.yul\":6522:6530   */\n  dup4\n    /* \"#utility.yul\":6518:6555   */\n  add\n    /* \"#utility.yul\":6505:6516   */\n  dup3\n    /* \"#utility.yul\":6476:6556   */\n  tag_47\n  jump\t// in\ntag_131:\n    /* \"#utility.yul\":6135:6566   */\n  pop\n  pop\n    /* \"#utility.yul\":6120:6566   */\ntag_127:\n    /* \"#utility.yul\":6030:6573   */\n  pop\n  pop\n  pop\n  jump\t// out\n    /* \"#utility.yul\":6579:6696   */\ntag_49:\n    /* \"#utility.yul\":6633:6641   */\n  0x00\n    /* \"#utility.yul\":6683:6688   */\n  dup3\n    /* \"#utility.yul\":6677:6681   */\n  dup3\n    /* \"#utility.yul\":6673:6689   */\n  shr\n    /* \"#utility.yul\":6652:6689   */\n  swap1\n  pop\n    /* \"#utility.yul\":6579:6696   */\n  swap3\n  swap2\n  pop\n  pop\n  jump\t// out\n    /* \"#utility.yul\":6702:6871   */\ntag_50:\n    /* \"#utility.yul\":6746:6752   */\n  0x00\n    /* \"#utility.yul\":6779:6830   */\n  tag_135\n    /* \"#utility.yul\":6827:6828   */\n  0x00\n    /* \"#utility.yul\":6823:6829   */\n  not\n    /* \"#utility.yul\":6815:6820   */\n  dup5\n    /* \"#utility.yul\":6812:6813   */\n  0x08\n    /* \"#utility.yul\":6808:6821   */\n  mul\n    /* \"#utility.yul\":6779:6830   */\n  tag_49\n  jump\t// in\ntag_135:\n    /* \"#utility.yul\":6775:6831   */\n  not\n    /* \"#utility.yul\":6860:6864   */\n  dup1\n    /* \"#utility.yul\":6854:6858   */\n  dup4\n    /* \"#utility.yul\":6850:6865   */\n  and\n    /* \"#utility.yul\":6840:6865   */\n  swap2\n  pop\n    /* \"#utility.yul\":6753:6871   */\n  pop\n    /* \"#utility.yul\":6702:6871   */\n  swap3\n  swap2\n  pop\n  pop\n  jump\t// out\n    /* \"#utility.yul\":6876:7171   */\ntag_51:\n    /* \"#utility.yul\":6952:6956   */\n  0x00\n    /* \"#utility.yul\":7098:7127   */\n  tag_137\n    /* \"#utility.yul\":7123:7126   */\n  dup4\n    /* \"#utility.yul\":7117:7121   */\n  dup4\n    /* \"#utility.yul\":7098:7127   */\n  tag_50\n  jump\t// in\ntag_137:\n    /* \"#utility.yul\":7090:7127   */\n  swap2\n  pop\n    /* \"#utility.yul\":7160:7163   */\n  dup3\n    /* \"#utility.yul\":7157:7158   */\n  0x02\n    /* \"#utility.yul\":7153:7164   */\n  mul\n    /* \"#utility.yul\":7147:7151   */\n  dup3\n    /* \"#utility.yul\":7144:7165   */\n  or\n    /* \"#utility.yul\":7136:7165   */\n  swap1\n  pop\n    /* \"#utility.yul\":6876:7171   */\n  swap3\n  swap2\n  pop\n  pop\n  jump\t// out\n    /* \"#utility.yul\":7176:8571   */\ntag_14:\n    /* \"#utility.yul\":7293:7330   */\n  tag_139\n    /* \"#utility.yul\":7326:7329   */\n  dup3\n    /* \"#utility.yul\":7293:7330   */\n  tag_33\n  jump\t// in\ntag_139:\n    /* \"#utility.yul\":7395:7413   */\n  0xffffffffffffffff\n    /* \"#utility.yul\":7387:7393   */\n  dup2\n    /* \"#utility.yul\":7384:7414   */\n  gt\n    /* \"#utility.yul\":7381:7437   */\n  iszero\n  tag_140\n  jumpi\n    /* \"#utility.yul\":7417:7435   */\n  tag_141\n  tag_26\n  jump\t// in\ntag_141:\n    /* \"#utility.yul\":7381:7437   */\ntag_140:\n    /* \"#utility.yul\":7461:7499   */\n  tag_142\n    /* \"#utility.yul\":7493:7497   */\n  dup3\n    /* \"#utility.yul\":7487:7498   */\n  sload\n    /* \"#utility.yul\":7461:7499   */\n  tag_35\n  jump\t// in\ntag_142:\n    /* \"#utility.yul\":7546:7613   */\n  tag_143\n    /* \"#utility.yul\":7606:7612   */\n  dup3\n    /* \"#utility.yul\":7598:7604   */\n  dup3\n    /* \"#utility.yul\":7592:7596   */\n  dup6\n    /* \"#utility.yul\":7546:7613   */\n  tag_48\n  jump\t// in\ntag_143:\n    /* \"#utility.yul\":7640:7641   */\n  0x00\n    /* \"#utility.yul\":7664:7668   */\n  0x20\n    /* \"#utility.yul\":7651:7668   */\n  swap1\n  pop\n    /* \"#utility.yul\":7696:7698   */\n  0x1f\n    /* \"#utility.yul\":7688:7694   */\n  dup4\n    /* \"#utility.yul\":7685:7699   */\n  gt\n    /* \"#utility.yul\":7713:7714   */\n  0x01\n    /* \"#utility.yul\":7708:8326   */\n  dup2\n  eq\n  tag_145\n  jumpi\n    /* \"#utility.yul\":8370:8371   */\n  0x00\n    /* \"#utility.yul\":8387:8393   */\n  dup5\n    /* \"#utility.yul\":8384:8461   */\n  iszero\n  tag_146\n  jumpi\n    /* \"#utility.yul\":8436:8445   */\n  dup3\n    /* \"#utility.yul\":8431:8434   */\n  dup8\n    /* \"#utility.yul\":8427:8446   */\n  add\n    /* \"#utility.yul\":8421:8447   */\n  mload\n    /* \"#utility.yul\":8412:8447   */\n  swap1\n  pop\n    /* \"#utility.yul\":8384:8461   */\ntag_146:\n    /* \"#utility.yul\":8487:8554   */\n  tag_147\n    /* \"#utility.yul\":8547:8553   */\n  dup6\n    /* \"#utility.yul\":8540:8545   */\n  dup3\n    /* \"#utility.yul\":8487:8554   */\n  tag_51\n  jump\t// in\ntag_147:\n    /* \"#utility.yul\":8481:8485   */\n  dup7\n    /* \"#utility.yul\":8474:8555   */\n  sstore\n    /* \"#utility.yul\":8343:8565   */\n  pop\n    /* \"#utility.yul\":7678:8565   */\n  jump(tag_144)\n    /* \"#utility.yul\":7708:8326   */\ntag_145:\n    /* \"#utility.yul\":7760:7764   */\n  0x1f\n    /* \"#utility.yul\":7756:7765   */\n  not\n    /* \"#utility.yul\":7748:7754   */\n  dup5\n    /* \"#utility.yul\":7744:7766   */\n  and\n    /* \"#utility.yul\":7794:7831   */\n  tag_148\n    /* \"#utility.yul\":7826:7830   */\n  dup7\n    /* \"#utility.yul\":7794:7831   */\n  tag_36\n  jump\t// in\ntag_148:\n    /* \"#utility.yul\":7853:7854   */\n  0x00\n    /* \"#utility.yul\":7867:8075   */\ntag_149:\n    /* \"#utility.yul\":7881:7888   */\n  dup3\n    /* \"#utility.yul\":7878:7879   */\n  dup2\n    /* \"#utility.yul\":7875:7889   */\n  lt\n    /* \"#utility.yul\":7867:8075   */\n  iszero\n  tag_151\n  jumpi\n    /* \"#utility.yul\":7960:7969   */\n  dup5\n    /* \"#utility.yul\":7955:7958   */\n  dup10\n    /* \"#utility.yul\":7951:7970   */\n  add\n    /* \"#utility.yul\":7945:7971   */\n  mload\n    /* \"#utility.yul\":7937:7943   */\n  dup3\n    /* \"#utility.yul\":7930:7972   */\n  sstore\n    /* \"#utility.yul\":8011:8012   */\n  0x01\n    /* \"#utility.yul\":8003:8009   */\n  dup3\n    /* \"#utility.yul\":7999:8013   */\n  add\n    /* \"#utility.yul\":7989:8013   */\n  swap2\n  pop\n    /* \"#utility.yul\":8058:8060   */\n  0x20\n    /* \"#utility.yul\":8047:8056   */\n  dup6\n    /* \"#utility.yul\":8043:8061   */\n  add\n    /* \"#utility.yul\":8030:8061   */\n  swap5\n  pop\n    /* \"#utility.yul\":7904:7908   */\n  0x20\n    /* \"#utility.yul\":7901:7902   */\n  dup2\n    /* \"#utility.yul\":7897:7909   */\n  add\n    /* \"#utility.yul\":7892:7909   */\n  swap1\n  pop\n    /* \"#utility.yul\":7867:8075   */\n  jump(tag_149)\ntag_151:\n    /* \"#utility.yul\":8103:8109   */\n  dup7\n    /* \"#utility.yul\":8094:8101   */\n  dup4\n    /* \"#utility.yul\":8091:8110   */\n  lt\n    /* \"#utility.yul\":8088:8267   */\n  iszero\n  tag_152\n  jumpi\n    /* \"#utility.yul\":8161:8170   */\n  dup5\n    /* \"#utility.yul\":8156:8159   */\n  dup10\n    /* \"#utility.yul\":8152:8171   */\n  add\n    /* \"#utility.yul\":8146:8172   */\n  mload\n    /* \"#utility.yul\":8204:8252   */\n  tag_153\n    /* \"#utility.yul\":8246:8250   */\n  0x1f\n    /* \"#utility.yul\":8238:8244   */\n  dup10\n    /* \"#utility.yul\":8234:8251   */\n  and\n    /* \"#utility.yul\":8223:8232   */\n  dup3\n    /* \"#utility.yul\":8204:8252   */\n  tag_50\n  jump\t// in\ntag_153:\n    /* \"#utility.yul\":8196:8202   */\n  dup4\n    /* \"#utility.yul\":8189:8253   */\n  sstore\n    /* \"#utility.yul\":8111:8267   */\n  pop\n    /* \"#utility.yul\":8088:8267   */\ntag_152:\n    /* \"#utility.yul\":8313:8314   */\n  0x01\n    /* \"#utility.yul\":8309:8310   */\n  0x02\n    /* \"#utility.yul\":8301:8307   */\n  dup9\n    /* \"#utility.yul\":8297:8311   */\n  mul\n    /* \"#utility.yul\":8293:8315   */\n  add\n    /* \"#utility.yul\":8287:8291   */\n  dup9\n    /* \"#utility.yul\":8280:8316   */\n  sstore\n    /* \"#utility.yul\":7715:8326   */\n  pop\n  pop\n  pop\n    /* \"#utility.yul\":7678:8565   */\ntag_144:\n  pop\n    /* \"#utility.yul\":7268:8571   */\n  pop\n  pop\n  pop\n    /* \"#utility.yul\":7176:8571   */\n  pop\n  pop\n  jump\t// out\n    /* \"ERC721Metadata.sol\":153:1063  contract ERC721Metadata is ERC165,ERC721,IERC721Metadata{... */\ntag_17:\n  dataSize(sub_0)\n  dup1\n  dataOffset(sub_0)\n  0x00\n  codecopy\n  0x00\n  return\nstop\n\nsub_0: assembly {\n        /* \"ERC721Metadata.sol\":153:1063  contract ERC721Metadata is ERC165,ERC721,IERC721Metadata{... */\n      mstore(0x40, 0x80)\n      callvalue\n      dup1\n      iszero\n      tag_1\n      jumpi\n      0x00\n      dup1\n      revert\n    tag_1:\n      pop\n      jumpi(tag_2, lt(calldatasize, 0x04))\n      shr(0xe0, calldataload(0x00))\n      dup1\n      0x4cdc9549\n      gt\n      tag_18\n      jumpi\n      dup1\n      0xa22cb465\n      gt\n      tag_19\n      jumpi\n      dup1\n      0xa22cb465\n      eq\n      tag_14\n      jumpi\n      dup1\n      0xb88d4fde\n      eq\n      tag_15\n      jumpi\n      dup1\n      0xc87b56dd\n      eq\n      tag_16\n      jumpi\n      dup1\n      0xe985e9c5\n      eq\n      tag_17\n      jumpi\n      jump(tag_2)\n    tag_19:\n      dup1\n      0x4cdc9549\n      eq\n      tag_10\n      jumpi\n      dup1\n      0x6352211e\n      eq\n      tag_11\n      jumpi\n      dup1\n      0x70a08231\n      eq\n      tag_12\n      jumpi\n      dup1\n      0x95d89b41\n      eq\n      tag_13\n      jumpi\n      jump(tag_2)\n    tag_18:\n      dup1\n      0x095ea7b3\n      gt\n      tag_20\n      jumpi\n      dup1\n      0x095ea7b3\n      eq\n      tag_6\n      jumpi\n      dup1\n      0x162094c4\n      eq\n      tag_7\n      jumpi\n      dup1\n      0x23b872dd\n      eq\n      tag_8\n      jumpi\n      dup1\n      0x42842e0e\n      eq\n      tag_9\n      jumpi\n      jump(tag_2)\n    tag_20:\n      dup1\n      0x01ffc9a7\n      eq\n      tag_3\n      jumpi\n      dup1\n      0x06fdde03\n      eq\n      tag_4\n      jumpi\n      dup1\n      0x081812fc\n      eq\n      tag_5\n      jumpi\n    tag_2:\n      0x00\n      dup1\n      revert\n        /* \"introsecption/ERC165.sol\":531:682  function supportsInterface(bytes4 interfaceId) external  override view returns(bool){... */\n    tag_3:\n      tag_21\n      0x04\n      dup1\n      calldatasize\n      sub\n      dup2\n      add\n      swap1\n      tag_22\n      swap2\n      swap1\n      tag_23\n      jump\t// in\n    tag_22:\n      tag_24\n      jump\t// in\n    tag_21:\n      mload(0x40)\n      tag_25\n      swap2\n      swap1\n      tag_26\n      jump\t// in\n    tag_25:\n      mload(0x40)\n      dup1\n      swap2\n      sub\n      swap1\n      return\n        /* \"ERC721Metadata.sol\":556:648  function name() external view override returns(string memory){... */\n    tag_4:\n      tag_27\n      tag_28\n      jump\t// in\n    tag_27:\n      mload(0x40)\n      tag_29\n      swap2\n      swap1\n      tag_30\n      jump\t// in\n    tag_29:\n      mload(0x40)\n      dup1\n      swap2\n      sub\n      swap1\n      return\n        /* \"ERC721.sol\":1390:1548  function getApproved(uint tokenId) public override view returns(address){... */\n    tag_5:\n      tag_31\n      0x04\n      dup1\n      calldatasize\n      sub\n      dup2\n      add\n      swap1\n      tag_32\n      swap2\n      swap1\n      tag_33\n      jump\t// in\n    tag_32:\n      tag_34\n      jump\t// in\n    tag_31:\n      mload(0x40)\n      tag_35\n      swap2\n      swap1\n      tag_36\n      jump\t// in\n    tag_35:\n      mload(0x40)\n      dup1\n      swap2\n      sub\n      swap1\n      return\n        /* \"ERC721.sol\":1082:1384  function approve(address to,uint tokenId ) public override {... */\n    tag_6:\n      tag_37\n      0x04\n      dup1\n      calldatasize\n      sub\n      dup2\n      add\n      swap1\n      tag_38\n      swap2\n      swap1\n      tag_39\n      jump\t// in\n    tag_38:\n      tag_40\n      jump\t// in\n    tag_37:\n      stop\n        /* \"ERC721Metadata.sol\":912:1051  function setTokenURI(uint tokenId,string memory uri) external {... */\n    tag_7:\n      tag_41\n      0x04\n      dup1\n      calldatasize\n      sub\n      dup2\n      add\n      swap1\n      tag_42\n      swap2\n      swap1\n      tag_43\n      jump\t// in\n    tag_42:\n      tag_44\n      jump\t// in\n    tag_41:\n      stop\n        /* \"ERC721.sol\":1779:1964  function transferFrom(address from ,address to,uint tokenId) public override{... */\n    tag_8:\n      tag_45\n      0x04\n      dup1\n      calldatasize\n      sub\n      dup2\n      add\n      swap1\n      tag_46\n      swap2\n      swap1\n      tag_47\n      jump\t// in\n    tag_46:\n      tag_48\n      jump\t// in\n    tag_45:\n      stop\n        /* \"ERC721.sol\":2189:2322  function safeTransferFrom(address from,address to,uint tokenId )public override{... */\n    tag_9:\n      tag_49\n      0x04\n      dup1\n      calldatasize\n      sub\n      dup2\n      add\n      swap1\n      tag_50\n      swap2\n      swap1\n      tag_47\n      jump\t// in\n    tag_50:\n      tag_51\n      jump\t// in\n    tag_49:\n      stop\n        /* \"ERC721.sol\":2481:2713  function _isApprovedOrOwner(address spender,uint tokenId) public view returns(bool){... */\n    tag_10:\n      tag_52\n      0x04\n      dup1\n      calldatasize\n      sub\n      dup2\n      add\n      swap1\n      tag_53\n      swap2\n      swap1\n      tag_39\n      jump\t// in\n    tag_53:\n      tag_54\n      jump\t// in\n    tag_52:\n      mload(0x40)\n      tag_55\n      swap2\n      swap1\n      tag_26\n      jump\t// in\n    tag_55:\n      mload(0x40)\n      dup1\n      swap2\n      sub\n      swap1\n      return\n        /* \"ERC721.sol\":886:1076  function ownerOf(uint256 tokenId)public override view returns(address){... */\n    tag_11:\n      tag_56\n      0x04\n      dup1\n      calldatasize\n      sub\n      dup2\n      add\n      swap1\n      tag_57\n      swap2\n      swap1\n      tag_33\n      jump\t// in\n    tag_57:\n      tag_58\n      jump\t// in\n    tag_56:\n      mload(0x40)\n      tag_59\n      swap2\n      swap1\n      tag_36\n      jump\t// in\n    tag_59:\n      mload(0x40)\n      dup1\n      swap2\n      sub\n      swap1\n      return\n        /* \"ERC721.sol\":725:880  function balanceOf(address owner) public override view returns(uint){... */\n    tag_12:\n      tag_60\n      0x04\n      dup1\n      calldatasize\n      sub\n      dup2\n      add\n      swap1\n      tag_61\n      swap2\n      swap1\n      tag_62\n      jump\t// in\n    tag_61:\n      tag_63\n      jump\t// in\n    tag_60:\n      mload(0x40)\n      tag_64\n      swap2\n      swap1\n      tag_65\n      jump\t// in\n    tag_64:\n      mload(0x40)\n      dup1\n      swap2\n      sub\n      swap1\n      return\n        /* \"ERC721Metadata.sol\":655:751  function symbol() external view override returns(string memory){... */\n    tag_13:\n      tag_66\n      tag_67\n      jump\t// in\n    tag_66:\n      mload(0x40)\n      tag_68\n      swap2\n      swap1\n      tag_30\n      jump\t// in\n    tag_68:\n      mload(0x40)\n      dup1\n      swap2\n      sub\n      swap1\n      return\n        /* \"ERC721.sol\":1554:1773  function setApprovalForAll(address to, bool approved) public override{... */\n    tag_14:\n      tag_69\n      0x04\n      dup1\n      calldatasize\n      sub\n      dup2\n      add\n      swap1\n      tag_70\n      swap2\n      swap1\n      tag_71\n      jump\t// in\n    tag_70:\n      tag_72\n      jump\t// in\n    tag_69:\n      stop\n        /* \"ERC721.sol\":1970:2183  function safeTransferFrom(address from ,address to,uint tokenId, bytes memory _data) public override{... */\n    tag_15:\n      tag_73\n      0x04\n      dup1\n      calldatasize\n      sub\n      dup2\n      add\n      swap1\n      tag_74\n      swap2\n      swap1\n      tag_75\n      jump\t// in\n    tag_74:\n      tag_76\n      jump\t// in\n    tag_73:\n      stop\n        /* \"ERC721Metadata.sol\":757:906  function tokenURI(uint tokenId) external view override returns(string memory){... */\n    tag_16:\n      tag_77\n      0x04\n      dup1\n      calldatasize\n      sub\n      dup2\n      add\n      swap1\n      tag_78\n      swap2\n      swap1\n      tag_33\n      jump\t// in\n    tag_78:\n      tag_79\n      jump\t// in\n    tag_77:\n      mload(0x40)\n      tag_80\n      swap2\n      swap1\n      tag_30\n      jump\t// in\n    tag_80:\n      mload(0x40)\n      dup1\n      swap2\n      sub\n      swap1\n      return\n        /* \"ERC721.sol\":4254:4415  function isApprovedForAll(address spender,address operator) public override view returns(bool){... */\n    tag_17:\n      tag_81\n      0x04\n      dup1\n      calldatasize\n      sub\n      dup2\n      add\n      swap1\n      tag_82\n      swap2\n      swap1\n      tag_83\n      jump\t// in\n    tag_82:\n      tag_84\n      jump\t// in\n    tag_81:\n      mload(0x40)\n      tag_85\n      swap2\n      swap1\n      tag_26\n      jump\t// in\n    tag_85:\n      mload(0x40)\n      dup1\n      swap2\n      sub\n      swap1\n      return\n        /* \"introsecption/ERC165.sol\":531:682  function supportsInterface(bytes4 interfaceId) external  override view returns(bool){... */\n    tag_24:\n        /* \"introsecption/ERC165.sol\":610:614  bool */\n      0x00\n        /* \"introsecption/ERC165.sol\":637:657  _supportedInterfaces */\n      dup1\n        /* \"introsecption/ERC165.sol\":637:670  _supportedInterfaces[interfaceId] */\n      0x00\n        /* \"introsecption/ERC165.sol\":658:669  interfaceId */\n      dup4\n        /* \"introsecption/ERC165.sol\":637:670  _supportedInterfaces[interfaceId] */\n      not(0xffffffffffffffffffffffffffffffffffffffffffffffffffffffff)\n      and\n      not(0xffffffffffffffffffffffffffffffffffffffffffffffffffffffff)\n      and\n      dup2\n      mstore\n      0x20\n      add\n      swap1\n      dup2\n      mstore\n      0x20\n      add\n      0x00\n      keccak256\n      0x00\n      swap1\n      sload\n      swap1\n      0x0100\n      exp\n      swap1\n      div\n      0xff\n      and\n        /* \"introsecption/ERC165.sol\":630:670  return _supportedInterfaces[interfaceId] */\n      swap1\n      pop\n        /* \"introsecption/ERC165.sol\":531:682  function supportsInterface(bytes4 interfaceId) external  override view returns(bool){... */\n      swap2\n      swap1\n      pop\n      jump\t// out\n        /* \"ERC721Metadata.sol\":556:648  function name() external view override returns(string memory){... */\n    tag_28:\n        /* \"ERC721Metadata.sol\":603:616  string memory */\n      0x60\n        /* \"ERC721Metadata.sol\":635:640  _name */\n      0x05\n        /* \"ERC721Metadata.sol\":628:640  return _name */\n      dup1\n      sload\n      tag_88\n      swap1\n      tag_89\n      jump\t// in\n    tag_88:\n      dup1\n      0x1f\n      add\n      0x20\n      dup1\n      swap2\n      div\n      mul\n      0x20\n      add\n      mload(0x40)\n      swap1\n      dup2\n      add\n      0x40\n      mstore\n      dup1\n      swap3\n      swap2\n      swap1\n      dup2\n      dup2\n      mstore\n      0x20\n      add\n      dup3\n      dup1\n      sload\n      tag_90\n      swap1\n      tag_89\n      jump\t// in\n    tag_90:\n      dup1\n      iszero\n      tag_91\n      jumpi\n      dup1\n      0x1f\n      lt\n      tag_92\n      jumpi\n      0x0100\n      dup1\n      dup4\n      sload\n      div\n      mul\n      dup4\n      mstore\n      swap2\n      0x20\n      add\n      swap2\n      jump(tag_91)\n    tag_92:\n      dup3\n      add\n      swap2\n      swap1\n      0x00\n      mstore\n      keccak256(0x00, 0x20)\n      swap1\n    tag_93:\n      dup2\n      sload\n      dup2\n      mstore\n      swap1\n      0x01\n      add\n      swap1\n      0x20\n      add\n      dup1\n      dup4\n      gt\n      tag_93\n      jumpi\n      dup3\n      swap1\n      sub\n      0x1f\n      and\n      dup3\n      add\n      swap2\n    tag_91:\n      pop\n      pop\n      pop\n      pop\n      pop\n      swap1\n      pop\n        /* \"ERC721Metadata.sol\":556:648  function name() external view override returns(string memory){... */\n      swap1\n      jump\t// out\n        /* \"ERC721.sol\":1390:1548  function getApproved(uint tokenId) public override view returns(address){... */\n    tag_34:\n        /* \"ERC721.sol\":1454:1461  address */\n      0x00\n        /* \"ERC721.sol\":1481:1497  _exists(tokenId) */\n      tag_95\n        /* \"ERC721.sol\":1489:1496  tokenId */\n      dup3\n        /* \"ERC721.sol\":1481:1488  _exists */\n      tag_96\n        /* \"ERC721.sol\":1481:1497  _exists(tokenId) */\n      jump\t// in\n    tag_95:\n        /* \"ERC721.sol\":1473:1498  require(_exists(tokenId)) */\n      tag_97\n      jumpi\n      0x00\n      dup1\n      revert\n    tag_97:\n        /* \"ERC721.sol\":1516:1531  _tokenApprovals */\n      0x03\n        /* \"ERC721.sol\":1516:1540  _tokenApprovals[tokenId] */\n      0x00\n        /* \"ERC721.sol\":1532:1539  tokenId */\n      dup4\n        /* \"ERC721.sol\":1516:1540  _tokenApprovals[tokenId] */\n      dup2\n      mstore\n      0x20\n      add\n      swap1\n      dup2\n      mstore\n      0x20\n      add\n      0x00\n      keccak256\n      0x00\n      swap1\n      sload\n      swap1\n      0x0100\n      exp\n      swap1\n      div\n      0xffffffffffffffffffffffffffffffffffffffff\n      and\n        /* \"ERC721.sol\":1509:1540  return _tokenApprovals[tokenId] */\n      swap1\n      pop\n        /* \"ERC721.sol\":1390:1548  function getApproved(uint tokenId) public override view returns(address){... */\n      swap2\n      swap1\n      pop\n      jump\t// out\n        /* \"ERC721.sol\":1082:1384  function approve(address to,uint tokenId ) public override {... */\n    tag_40:\n        /* \"ERC721.sol\":1154:1167  address owner */\n      0x00\n        /* \"ERC721.sol\":1168:1184  ownerOf(tokenId) */\n      tag_99\n        /* \"ERC721.sol\":1176:1183  tokenId */\n      dup3\n        /* \"ERC721.sol\":1168:1175  ownerOf */\n      tag_58\n        /* \"ERC721.sol\":1168:1184  ownerOf(tokenId) */\n      jump\t// in\n    tag_99:\n        /* \"ERC721.sol\":1154:1184  address owner=ownerOf(tokenId) */\n      swap1\n      pop\n        /* \"ERC721.sol\":1212:1214  to */\n      dup3\n        /* \"ERC721.sol\":1205:1214  owner!=to */\n      0xffffffffffffffffffffffffffffffffffffffff\n      and\n        /* \"ERC721.sol\":1205:1210  owner */\n      dup2\n        /* \"ERC721.sol\":1205:1214  owner!=to */\n      0xffffffffffffffffffffffffffffffffffffffff\n      and\n      sub\n        /* \"ERC721.sol\":1197:1215  require(owner!=to) */\n      tag_100\n      jumpi\n      0x00\n      dup1\n      revert\n    tag_100:\n        /* \"ERC721.sol\":1248:1253  owner */\n      dup1\n        /* \"ERC721.sol\":1236:1253  msg.sender==owner */\n      0xffffffffffffffffffffffffffffffffffffffff\n      and\n        /* \"ERC721.sol\":1236:1246  msg.sender */\n      caller\n        /* \"ERC721.sol\":1236:1253  msg.sender==owner */\n      0xffffffffffffffffffffffffffffffffffffffff\n      and\n      eq\n        /* \"ERC721.sol\":1236:1291  msg.sender==owner || isApprovedForAll(owner,msg.sender) */\n      dup1\n      tag_101\n      jumpi\n      pop\n        /* \"ERC721.sol\":1257:1291  isApprovedForAll(owner,msg.sender) */\n      tag_102\n        /* \"ERC721.sol\":1274:1279  owner */\n      dup2\n        /* \"ERC721.sol\":1280:1290  msg.sender */\n      caller\n        /* \"ERC721.sol\":1257:1273  isApprovedForAll */\n      tag_84\n        /* \"ERC721.sol\":1257:1291  isApprovedForAll(owner,msg.sender) */\n      jump\t// in\n    tag_102:\n        /* \"ERC721.sol\":1236:1291  msg.sender==owner || isApprovedForAll(owner,msg.sender) */\n    tag_101:\n        /* \"ERC721.sol\":1228:1292  require(msg.sender==owner || isApprovedForAll(owner,msg.sender)) */\n      tag_103\n      jumpi\n      0x00\n      dup1\n      revert\n    tag_103:\n        /* \"ERC721.sol\":1330:1332  to */\n      dup3\n        /* \"ERC721.sol\":1305:1320  _tokenApprovals */\n      0x03\n        /* \"ERC721.sol\":1305:1329  _tokenApprovals[tokenId] */\n      0x00\n        /* \"ERC721.sol\":1321:1328  tokenId */\n      dup5\n        /* \"ERC721.sol\":1305:1329  _tokenApprovals[tokenId] */\n      dup2\n      mstore\n      0x20\n      add\n      swap1\n      dup2\n      mstore\n      0x20\n      add\n      0x00\n      keccak256\n      0x00\n        /* \"ERC721.sol\":1305:1332  _tokenApprovals[tokenId]=to */\n      0x0100\n      exp\n      dup2\n      sload\n      dup2\n      0xffffffffffffffffffffffffffffffffffffffff\n      mul\n      not\n      and\n      swap1\n      dup4\n      0xffffffffffffffffffffffffffffffffffffffff\n      and\n      mul\n      or\n      swap1\n      sstore\n      pop\n        /* \"ERC721.sol\":1368:1375  tokenId */\n      dup2\n        /* \"ERC721.sol\":1365:1367  to */\n      dup4\n        /* \"ERC721.sol\":1350:1376  Approval(owner,to,tokenId) */\n      0xffffffffffffffffffffffffffffffffffffffff\n      and\n        /* \"ERC721.sol\":1359:1364  owner */\n      dup3\n        /* \"ERC721.sol\":1350:1376  Approval(owner,to,tokenId) */\n      0xffffffffffffffffffffffffffffffffffffffff\n      and\n      0x8c5be1e5ebec7d5bd14f71427d1e84f3dd0314c0f7b2291e5b200ac8c7c3b925\n      mload(0x40)\n      mload(0x40)\n      dup1\n      swap2\n      sub\n      swap1\n      log4\n        /* \"ERC721.sol\":1141:1384  {... */\n      pop\n        /* \"ERC721.sol\":1082:1384  function approve(address to,uint tokenId ) public override {... */\n      pop\n      pop\n      jump\t// out\n        /* \"ERC721Metadata.sol\":912:1051  function setTokenURI(uint tokenId,string memory uri) external {... */\n    tag_44:\n        /* \"ERC721Metadata.sol\":993:1009  _exists(tokenId) */\n      tag_105\n        /* \"ERC721Metadata.sol\":1001:1008  tokenId */\n      dup3\n        /* \"ERC721Metadata.sol\":993:1000  _exists */\n      tag_96\n        /* \"ERC721Metadata.sol\":993:1009  _exists(tokenId) */\n      jump\t// in\n    tag_105:\n        /* \"ERC721Metadata.sol\":985:1010  require(_exists(tokenId)) */\n      tag_106\n      jumpi\n      0x00\n      dup1\n      revert\n    tag_106:\n        /* \"ERC721Metadata.sol\":1040:1043  uri */\n      dup1\n        /* \"ERC721Metadata.sol\":1021:1030  _tokenURI */\n      0x07\n        /* \"ERC721Metadata.sol\":1021:1039  _tokenURI[tokenId] */\n      0x00\n        /* \"ERC721Metadata.sol\":1031:1038  tokenId */\n      dup5\n        /* \"ERC721Metadata.sol\":1021:1039  _tokenURI[tokenId] */\n      dup2\n      mstore\n      0x20\n      add\n      swap1\n      dup2\n      mstore\n      0x20\n      add\n      0x00\n      keccak256\n        /* \"ERC721Metadata.sol\":1021:1043  _tokenURI[tokenId]=uri */\n      swap1\n      dup2\n      tag_107\n      swap2\n      swap1\n      tag_108\n      jump\t// in\n    tag_107:\n      pop\n        /* \"ERC721Metadata.sol\":912:1051  function setTokenURI(uint tokenId,string memory uri) external {... */\n      pop\n      pop\n      jump\t// out\n        /* \"ERC721.sol\":1779:1964  function transferFrom(address from ,address to,uint tokenId) public override{... */\n    tag_48:\n        /* \"ERC721.sol\":1874:1912  _isApprovedOrOwner(msg.sender,tokenId) */\n      tag_110\n        /* \"ERC721.sol\":1893:1903  msg.sender */\n      caller\n        /* \"ERC721.sol\":1904:1911  tokenId */\n      dup3\n        /* \"ERC721.sol\":1874:1892  _isApprovedOrOwner */\n      tag_54\n        /* \"ERC721.sol\":1874:1912  _isApprovedOrOwner(msg.sender,tokenId) */\n      jump\t// in\n    tag_110:\n        /* \"ERC721.sol\":1866:1913  require(_isApprovedOrOwner(msg.sender,tokenId)) */\n      tag_111\n      jumpi\n      0x00\n      dup1\n      revert\n    tag_111:\n        /* \"ERC721.sol\":1924:1954  _transferFrom(from,to,tokenId) */\n      tag_112\n        /* \"ERC721.sol\":1938:1942  from */\n      dup4\n        /* \"ERC721.sol\":1943:1945  to */\n      dup4\n        /* \"ERC721.sol\":1946:1953  tokenId */\n      dup4\n        /* \"ERC721.sol\":1924:1937  _transferFrom */\n      tag_113\n        /* \"ERC721.sol\":1924:1954  _transferFrom(from,to,tokenId) */\n      jump\t// in\n    tag_112:\n        /* \"ERC721.sol\":1779:1964  function transferFrom(address from ,address to,uint tokenId) public override{... */\n      pop\n      pop\n      pop\n      jump\t// out\n        /* \"ERC721.sol\":2189:2322  function safeTransferFrom(address from,address to,uint tokenId )public override{... */\n    tag_51:\n        /* \"ERC721.sol\":2278:2314  safeTransferFrom(from,to,tokenId,\"\") */\n      tag_115\n        /* \"ERC721.sol\":2295:2299  from */\n      dup4\n        /* \"ERC721.sol\":2300:2302  to */\n      dup4\n        /* \"ERC721.sol\":2303:2310  tokenId */\n      dup4\n        /* \"ERC721.sol\":2278:2314  safeTransferFrom(from,to,tokenId,\"\") */\n      mload(0x40)\n      dup1\n      0x20\n      add\n      0x40\n      mstore\n      dup1\n      0x00\n      dup2\n      mstore\n      pop\n        /* \"ERC721.sol\":2278:2294  safeTransferFrom */\n      tag_76\n        /* \"ERC721.sol\":2278:2314  safeTransferFrom(from,to,tokenId,\"\") */\n      jump\t// in\n    tag_115:\n        /* \"ERC721.sol\":2189:2322  function safeTransferFrom(address from,address to,uint tokenId )public override{... */\n      pop\n      pop\n      pop\n      jump\t// out\n        /* \"ERC721.sol\":2481:2713  function _isApprovedOrOwner(address spender,uint tokenId) public view returns(bool){... */\n    tag_54:\n        /* \"ERC721.sol\":2559:2563  bool */\n      0x00\n        /* \"ERC721.sol\":2575:2588  address owner */\n      dup1\n        /* \"ERC721.sol\":2589:2605  ownerOf(tokenId) */\n      tag_117\n        /* \"ERC721.sol\":2597:2604  tokenId */\n      dup4\n        /* \"ERC721.sol\":2589:2596  ownerOf */\n      tag_58\n        /* \"ERC721.sol\":2589:2605  ownerOf(tokenId) */\n      jump\t// in\n    tag_117:\n        /* \"ERC721.sol\":2575:2605  address owner=ownerOf(tokenId) */\n      swap1\n      pop\n        /* \"ERC721.sol\":2632:2637  owner */\n      dup1\n        /* \"ERC721.sol\":2623:2637  spender==owner */\n      0xffffffffffffffffffffffffffffffffffffffff\n      and\n        /* \"ERC721.sol\":2623:2630  spender */\n      dup5\n        /* \"ERC721.sol\":2623:2637  spender==owner */\n      0xffffffffffffffffffffffffffffffffffffffff\n      and\n      eq\n        /* \"ERC721.sol\":2623:2670  spender==owner || getApproved(tokenId)==spender */\n      dup1\n      tag_118\n      jumpi\n      pop\n        /* \"ERC721.sol\":2663:2670  spender */\n      dup4\n        /* \"ERC721.sol\":2641:2670  getApproved(tokenId)==spender */\n      0xffffffffffffffffffffffffffffffffffffffff\n      and\n        /* \"ERC721.sol\":2641:2661  getApproved(tokenId) */\n      tag_119\n        /* \"ERC721.sol\":2653:2660  tokenId */\n      dup5\n        /* \"ERC721.sol\":2641:2652  getApproved */\n      tag_34\n        /* \"ERC721.sol\":2641:2661  getApproved(tokenId) */\n      jump\t// in\n    tag_119:\n        /* \"ERC721.sol\":2641:2670  getApproved(tokenId)==spender */\n      0xffffffffffffffffffffffffffffffffffffffff\n      and\n      eq\n        /* \"ERC721.sol\":2623:2670  spender==owner || getApproved(tokenId)==spender */\n    tag_118:\n        /* \"ERC721.sol\":2623:2704  spender==owner || getApproved(tokenId)==spender|| isApprovedForAll(spender,owner) */\n      dup1\n      tag_120\n      jumpi\n      pop\n        /* \"ERC721.sol\":2673:2704  isApprovedForAll(spender,owner) */\n      tag_121\n        /* \"ERC721.sol\":2690:2697  spender */\n      dup5\n        /* \"ERC721.sol\":2698:2703  owner */\n      dup3\n        /* \"ERC721.sol\":2673:2689  isApprovedForAll */\n      tag_84\n        /* \"ERC721.sol\":2673:2704  isApprovedForAll(spender,owner) */\n      jump\t// in\n    tag_121:\n        /* \"ERC721.sol\":2623:2704  spender==owner || getApproved(tokenId)==spender|| isApprovedForAll(spender,owner) */\n    tag_120:\n        /* \"ERC721.sol\":2616:2705  return(spender==owner || getApproved(tokenId)==spender|| isApprovedForAll(spender,owner)) */\n      swap2\n      pop\n      pop\n        /* \"ERC721.sol\":2481:2713  function _isApprovedOrOwner(address spender,uint tokenId) public view returns(bool){... */\n      swap3\n      swap2\n      pop\n      pop\n      jump\t// out\n        /* \"ERC721.sol\":886:1076  function ownerOf(uint256 tokenId)public override view returns(address){... */\n    tag_58:\n        /* \"ERC721.sol\":948:955  address */\n      0x00\n        /* \"ERC721.sol\":967:980  address owner */\n      dup1\n        /* \"ERC721.sol\":981:993  _tokenowners */\n      0x01\n        /* \"ERC721.sol\":981:1002  _tokenowners[tokenId] */\n      0x00\n        /* \"ERC721.sol\":994:1001  tokenId */\n      dup5\n        /* \"ERC721.sol\":981:1002  _tokenowners[tokenId] */\n      dup2\n      mstore\n      0x20\n      add\n      swap1\n      dup2\n      mstore\n      0x20\n      add\n      0x00\n      keccak256\n      0x00\n      swap1\n      sload\n      swap1\n      0x0100\n      exp\n      swap1\n      div\n      0xffffffffffffffffffffffffffffffffffffffff\n      and\n        /* \"ERC721.sol\":967:1002  address owner=_tokenowners[tokenId] */\n      swap1\n      pop\n        /* \"ERC721.sol\":1040:1041  0 */\n      0x00\n        /* \"ERC721.sol\":1025:1042  owner!=address(0) */\n      0xffffffffffffffffffffffffffffffffffffffff\n      and\n        /* \"ERC721.sol\":1025:1030  owner */\n      dup2\n        /* \"ERC721.sol\":1025:1042  owner!=address(0) */\n      0xffffffffffffffffffffffffffffffffffffffff\n      and\n      sub\n        /* \"ERC721.sol\":1017:1043  require(owner!=address(0)) */\n      tag_123\n      jumpi\n      0x00\n      dup1\n      revert\n    tag_123:\n        /* \"ERC721.sol\":1061:1066  owner */\n      dup1\n        /* \"ERC721.sol\":1054:1066  return owner */\n      swap2\n      pop\n      pop\n        /* \"ERC721.sol\":886:1076  function ownerOf(uint256 tokenId)public override view returns(address){... */\n      swap2\n      swap1\n      pop\n      jump\t// out\n        /* \"ERC721.sol\":725:880  function balanceOf(address owner) public override view returns(uint){... */\n    tag_63:\n        /* \"ERC721.sol\":788:792  uint */\n      0x00\n        /* \"ERC721.sol\":827:828  0 */\n      dup1\n        /* \"ERC721.sol\":812:829  owner!=address(0) */\n      0xffffffffffffffffffffffffffffffffffffffff\n      and\n        /* \"ERC721.sol\":812:817  owner */\n      dup3\n        /* \"ERC721.sol\":812:829  owner!=address(0) */\n      0xffffffffffffffffffffffffffffffffffffffff\n      and\n      sub\n        /* \"ERC721.sol\":804:830  require(owner!=address(0)) */\n      tag_125\n      jumpi\n      0x00\n      dup1\n      revert\n    tag_125:\n        /* \"ERC721.sol\":848:865  _ownedTokensCount */\n      0x02\n        /* \"ERC721.sol\":848:872  _ownedTokensCount[owner] */\n      0x00\n        /* \"ERC721.sol\":866:871  owner */\n      dup4\n        /* \"ERC721.sol\":848:872  _ownedTokensCount[owner] */\n      0xffffffffffffffffffffffffffffffffffffffff\n      and\n      0xffffffffffffffffffffffffffffffffffffffff\n      and\n      dup2\n      mstore\n      0x20\n      add\n      swap1\n      dup2\n      mstore\n      0x20\n      add\n      0x00\n      keccak256\n      sload\n        /* \"ERC721.sol\":841:872  return _ownedTokensCount[owner] */\n      swap1\n      pop\n        /* \"ERC721.sol\":725:880  function balanceOf(address owner) public override view returns(uint){... */\n      swap2\n      swap1\n      pop\n      jump\t// out\n        /* \"ERC721Metadata.sol\":655:751  function symbol() external view override returns(string memory){... */\n    tag_67:\n        /* \"ERC721Metadata.sol\":704:717  string memory */\n      0x60\n        /* \"ERC721Metadata.sol\":736:743  _symbol */\n      0x06\n        /* \"ERC721Metadata.sol\":729:743  return _symbol */\n      dup1\n      sload\n      tag_127\n      swap1\n      tag_89\n      jump\t// in\n    tag_127:\n      dup1\n      0x1f\n      add\n      0x20\n      dup1\n      swap2\n      div\n      mul\n      0x20\n      add\n      mload(0x40)\n      swap1\n      dup2\n      add\n      0x40\n      mstore\n      dup1\n      swap3\n      swap2\n      swap1\n      dup2\n      dup2\n      mstore\n      0x20\n      add\n      dup3\n      dup1\n      sload\n      tag_128\n      swap1\n      tag_89\n      jump\t// in\n    tag_128:\n      dup1\n      iszero\n      tag_129\n      jumpi\n      dup1\n      0x1f\n      lt\n      tag_130\n      jumpi\n      0x0100\n      dup1\n      dup4\n      sload\n      div\n      mul\n      dup4\n      mstore\n      swap2\n      0x20\n      add\n      swap2\n      jump(tag_129)\n    tag_130:\n      dup3\n      add\n      swap2\n      swap1\n      0x00\n      mstore\n      keccak256(0x00, 0x20)\n      swap1\n    tag_131:\n      dup2\n      sload\n      dup2\n      mstore\n      swap1\n      0x01\n      add\n      swap1\n      0x20\n      add\n      dup1\n      dup4\n      gt\n      tag_131\n      jumpi\n      dup3\n      swap1\n      sub\n      0x1f\n      and\n      dup3\n      add\n      swap2\n    tag_129:\n      pop\n      pop\n      pop\n      pop\n      pop\n      swap1\n      pop\n        /* \"ERC721Metadata.sol\":655:751  function symbol() external view override returns(string memory){... */\n      swap1\n      jump\t// out\n        /* \"ERC721.sol\":1554:1773  function setApprovalForAll(address to, bool approved) public override{... */\n    tag_72:\n        /* \"ERC721.sol\":1646:1656  msg.sender */\n      caller\n        /* \"ERC721.sol\":1642:1656  to!=msg.sender */\n      0xffffffffffffffffffffffffffffffffffffffff\n      and\n        /* \"ERC721.sol\":1642:1644  to */\n      dup3\n        /* \"ERC721.sol\":1642:1656  to!=msg.sender */\n      0xffffffffffffffffffffffffffffffffffffffff\n      and\n      sub\n        /* \"ERC721.sol\":1634:1657  require(to!=msg.sender) */\n      tag_133\n      jumpi\n      0x00\n      dup1\n      revert\n    tag_133:\n        /* \"ERC721.sol\":1703:1711  approved */\n      dup1\n        /* \"ERC721.sol\":1668:1686  _operatorApprovals */\n      0x04\n        /* \"ERC721.sol\":1668:1698  _operatorApprovals[msg.sender] */\n      0x00\n        /* \"ERC721.sol\":1687:1697  msg.sender */\n      caller\n        /* \"ERC721.sol\":1668:1698  _operatorApprovals[msg.sender] */\n      0xffffffffffffffffffffffffffffffffffffffff\n      and\n      0xffffffffffffffffffffffffffffffffffffffff\n      and\n      dup2\n      mstore\n      0x20\n      add\n      swap1\n      dup2\n      mstore\n      0x20\n      add\n      0x00\n      keccak256\n        /* \"ERC721.sol\":1668:1702  _operatorApprovals[msg.sender][to] */\n      0x00\n        /* \"ERC721.sol\":1699:1701  to */\n      dup5\n        /* \"ERC721.sol\":1668:1702  _operatorApprovals[msg.sender][to] */\n      0xffffffffffffffffffffffffffffffffffffffff\n      and\n      0xffffffffffffffffffffffffffffffffffffffff\n      and\n      dup2\n      mstore\n      0x20\n      add\n      swap1\n      dup2\n      mstore\n      0x20\n      add\n      0x00\n      keccak256\n      0x00\n        /* \"ERC721.sol\":1668:1711  _operatorApprovals[msg.sender][to]=approved */\n      0x0100\n      exp\n      dup2\n      sload\n      dup2\n      0xff\n      mul\n      not\n      and\n      swap1\n      dup4\n      iszero\n      iszero\n      mul\n      or\n      swap1\n      sstore\n      pop\n        /* \"ERC721.sol\":1753:1755  to */\n      dup2\n        /* \"ERC721.sol\":1727:1765  ApprovalForAll(msg.sender,to,approved) */\n      0xffffffffffffffffffffffffffffffffffffffff\n      and\n        /* \"ERC721.sol\":1742:1752  msg.sender */\n      caller\n        /* \"ERC721.sol\":1727:1765  ApprovalForAll(msg.sender,to,approved) */\n      0xffffffffffffffffffffffffffffffffffffffff\n      and\n      0x17307eab39ab6107e8899845ad3d59bd9653f200f220920489ca2b5937696c31\n        /* \"ERC721.sol\":1756:1764  approved */\n      dup4\n        /* \"ERC721.sol\":1727:1765  ApprovalForAll(msg.sender,to,approved) */\n      mload(0x40)\n      tag_134\n      swap2\n      swap1\n      tag_26\n      jump\t// in\n    tag_134:\n      mload(0x40)\n      dup1\n      swap2\n      sub\n      swap1\n      log3\n        /* \"ERC721.sol\":1554:1773  function setApprovalForAll(address to, bool approved) public override{... */\n      pop\n      pop\n      jump\t// out\n        /* \"ERC721.sol\":1970:2183  function safeTransferFrom(address from ,address to,uint tokenId, bytes memory _data) public override{... */\n    tag_76:\n        /* \"ERC721.sol\":2081:2110  transferFrom(to,from,tokenId) */\n      tag_136\n        /* \"ERC721.sol\":2094:2096  to */\n      dup4\n        /* \"ERC721.sol\":2097:2101  from */\n      dup6\n        /* \"ERC721.sol\":2102:2109  tokenId */\n      dup5\n        /* \"ERC721.sol\":2081:2093  transferFrom */\n      tag_48\n        /* \"ERC721.sol\":2081:2110  transferFrom(to,from,tokenId) */\n      jump\t// in\n    tag_136:\n        /* \"ERC721.sol\":2129:2174  _checkOnERC721Recieved(from,to,tokenId,_data) */\n      tag_137\n        /* \"ERC721.sol\":2152:2156  from */\n      dup5\n        /* \"ERC721.sol\":2157:2159  to */\n      dup5\n        /* \"ERC721.sol\":2160:2167  tokenId */\n      dup5\n        /* \"ERC721.sol\":2168:2173  _data */\n      dup5\n        /* \"ERC721.sol\":2129:2151  _checkOnERC721Recieved */\n      tag_138\n        /* \"ERC721.sol\":2129:2174  _checkOnERC721Recieved(from,to,tokenId,_data) */\n      jump\t// in\n    tag_137:\n        /* \"ERC721.sol\":2121:2175  require(_checkOnERC721Recieved(from,to,tokenId,_data)) */\n      tag_139\n      jumpi\n      0x00\n      dup1\n      revert\n    tag_139:\n        /* \"ERC721.sol\":1970:2183  function safeTransferFrom(address from ,address to,uint tokenId, bytes memory _data) public override{... */\n      pop\n      pop\n      pop\n      pop\n      jump\t// out\n        /* \"ERC721Metadata.sol\":757:906  function tokenURI(uint tokenId) external view override returns(string memory){... */\n    tag_79:\n        /* \"ERC721Metadata.sol\":820:833  string memory */\n      0x60\n        /* \"ERC721Metadata.sol\":849:865  _exists(tokenId) */\n      tag_141\n        /* \"ERC721Metadata.sol\":857:864  tokenId */\n      dup3\n        /* \"ERC721Metadata.sol\":849:856  _exists */\n      tag_96\n        /* \"ERC721Metadata.sol\":849:865  _exists(tokenId) */\n      jump\t// in\n    tag_141:\n        /* \"ERC721Metadata.sol\":841:866  require(_exists(tokenId)) */\n      tag_142\n      jumpi\n      0x00\n      dup1\n      revert\n    tag_142:\n        /* \"ERC721Metadata.sol\":880:889  _tokenURI */\n      0x07\n        /* \"ERC721Metadata.sol\":880:898  _tokenURI[tokenId] */\n      0x00\n        /* \"ERC721Metadata.sol\":890:897  tokenId */\n      dup4\n        /* \"ERC721Metadata.sol\":880:898  _tokenURI[tokenId] */\n      dup2\n      mstore\n      0x20\n      add\n      swap1\n      dup2\n      mstore\n      0x20\n      add\n      0x00\n      keccak256\n        /* \"ERC721Metadata.sol\":873:898  return _tokenURI[tokenId] */\n      dup1\n      sload\n      tag_143\n      swap1\n      tag_89\n      jump\t// in\n    tag_143:\n      dup1\n      0x1f\n      add\n      0x20\n      dup1\n      swap2\n      div\n      mul\n      0x20\n      add\n      mload(0x40)\n      swap1\n      dup2\n      add\n      0x40\n      mstore\n      dup1\n      swap3\n      swap2\n      swap1\n      dup2\n      dup2\n      mstore\n      0x20\n      add\n      dup3\n      dup1\n      sload\n      tag_144\n      swap1\n      tag_89\n      jump\t// in\n    tag_144:\n      dup1\n      iszero\n      tag_145\n      jumpi\n      dup1\n      0x1f\n      lt\n      tag_146\n      jumpi\n      0x0100\n      dup1\n      dup4\n      sload\n      div\n      mul\n      dup4\n      mstore\n      swap2\n      0x20\n      add\n      swap2\n      jump(tag_145)\n    tag_146:\n      dup3\n      add\n      swap2\n      swap1\n      0x00\n      mstore\n      keccak256(0x00, 0x20)\n      swap1\n    tag_147:\n      dup2\n      sload\n      dup2\n      mstore\n      swap1\n      0x01\n      add\n      swap1\n      0x20\n      add\n      dup1\n      dup4\n      gt\n      tag_147\n      jumpi\n      dup3\n      swap1\n      sub\n      0x1f\n      and\n      dup3\n      add\n      swap2\n    tag_145:\n      pop\n      pop\n      pop\n      pop\n      pop\n      swap1\n      pop\n        /* \"ERC721Metadata.sol\":757:906  function tokenURI(uint tokenId) external view override returns(string memory){... */\n      swap2\n      swap1\n      pop\n      jump\t// out\n        /* \"ERC721.sol\":4254:4415  function isApprovedForAll(address spender,address operator) public override view returns(bool){... */\n    tag_84:\n        /* \"ERC721.sol\":4343:4347  bool */\n      0x00\n        /* \"ERC721.sol\":4370:4388  _operatorApprovals */\n      0x04\n        /* \"ERC721.sol\":4370:4397  _operatorApprovals[spender] */\n      0x00\n        /* \"ERC721.sol\":4389:4396  spender */\n      dup5\n        /* \"ERC721.sol\":4370:4397  _operatorApprovals[spender] */\n      0xffffffffffffffffffffffffffffffffffffffff\n      and\n      0xffffffffffffffffffffffffffffffffffffffff\n      and\n      dup2\n      mstore\n      0x20\n      add\n      swap1\n      dup2\n      mstore\n      0x20\n      add\n      0x00\n      keccak256\n        /* \"ERC721.sol\":4370:4407  _operatorApprovals[spender][operator] */\n      0x00\n        /* \"ERC721.sol\":4398:4406  operator */\n      dup4\n        /* \"ERC721.sol\":4370:4407  _operatorApprovals[spender][operator] */\n      0xffffffffffffffffffffffffffffffffffffffff\n      and\n      0xffffffffffffffffffffffffffffffffffffffff\n      and\n      dup2\n      mstore\n      0x20\n      add\n      swap1\n      dup2\n      mstore\n      0x20\n      add\n      0x00\n      keccak256\n      0x00\n      swap1\n      sload\n      swap1\n      0x0100\n      exp\n      swap1\n      div\n      0xff\n      and\n        /* \"ERC721.sol\":4363:4407  return _operatorApprovals[spender][operator] */\n      swap1\n      pop\n        /* \"ERC721.sol\":4254:4415  function isApprovedForAll(address spender,address operator) public override view returns(bool){... */\n      swap3\n      swap2\n      pop\n      pop\n      jump\t// out\n        /* \"ERC721.sol\":2328:2475  function _exists(uint tokenId)internal view returns(bool){... */\n    tag_96:\n        /* \"ERC721.sol\":2380:2384  bool */\n      0x00\n        /* \"ERC721.sol\":2396:2409  address owner */\n      dup1\n        /* \"ERC721.sol\":2411:2423  _tokenowners */\n      0x01\n        /* \"ERC721.sol\":2411:2432  _tokenowners[tokenId] */\n      0x00\n        /* \"ERC721.sol\":2424:2431  tokenId */\n      dup5\n        /* \"ERC721.sol\":2411:2432  _tokenowners[tokenId] */\n      dup2\n      mstore\n      0x20\n      add\n      swap1\n      dup2\n      mstore\n      0x20\n      add\n      0x00\n      keccak256\n      0x00\n      swap1\n      sload\n      swap1\n      0x0100\n      exp\n      swap1\n      div\n      0xffffffffffffffffffffffffffffffffffffffff\n      and\n        /* \"ERC721.sol\":2396:2432  address owner= _tokenowners[tokenId] */\n      swap1\n      pop\n        /* \"ERC721.sol\":2465:2466  0 */\n      0x00\n        /* \"ERC721.sol\":2450:2467  owner!=address(0) */\n      0xffffffffffffffffffffffffffffffffffffffff\n      and\n        /* \"ERC721.sol\":2450:2455  owner */\n      dup2\n        /* \"ERC721.sol\":2450:2467  owner!=address(0) */\n      0xffffffffffffffffffffffffffffffffffffffff\n      and\n      eq\n      iszero\n        /* \"ERC721.sol\":2443:2467  return owner!=address(0) */\n      swap2\n      pop\n      pop\n        /* \"ERC721.sol\":2328:2475  function _exists(uint tokenId)internal view returns(bool){... */\n      swap2\n      swap1\n      pop\n      jump\t// out\n        /* \"ERC721.sol\":3377:3750  function _transferFrom(address from, address to,uint tokenId) internal{... */\n    tag_113:\n        /* \"ERC721.sol\":3471:3487  ownerOf(tokenId) */\n      tag_151\n        /* \"ERC721.sol\":3479:3486  tokenId */\n      dup2\n        /* \"ERC721.sol\":3471:3478  ownerOf */\n      tag_58\n        /* \"ERC721.sol\":3471:3487  ownerOf(tokenId) */\n      jump\t// in\n    tag_151:\n        /* \"ERC721.sol\":3465:3487  from==ownerOf(tokenId) */\n      0xffffffffffffffffffffffffffffffffffffffff\n      and\n        /* \"ERC721.sol\":3465:3469  from */\n      dup4\n        /* \"ERC721.sol\":3465:3487  from==ownerOf(tokenId) */\n      0xffffffffffffffffffffffffffffffffffffffff\n      and\n      eq\n        /* \"ERC721.sol\":3457:3488  require(from==ownerOf(tokenId)) */\n      tag_152\n      jumpi\n      0x00\n      dup1\n      revert\n    tag_152:\n        /* \"ERC721.sol\":3518:3519  0 */\n      0x00\n        /* \"ERC721.sol\":3506:3520  to!=address(0) */\n      0xffffffffffffffffffffffffffffffffffffffff\n      and\n        /* \"ERC721.sol\":3506:3508  to */\n      dup3\n        /* \"ERC721.sol\":3506:3520  to!=address(0) */\n      0xffffffffffffffffffffffffffffffffffffffff\n      and\n      sub\n        /* \"ERC721.sol\":3498:3521  require(to!=address(0)) */\n      tag_153\n      jumpi\n      0x00\n      dup1\n      revert\n    tag_153:\n        /* \"ERC721.sol\":3531:3554  _clearApproval(tokenId) */\n      tag_154\n        /* \"ERC721.sol\":3546:3553  tokenId */\n      dup2\n        /* \"ERC721.sol\":3531:3545  _clearApproval */\n      tag_155\n        /* \"ERC721.sol\":3531:3554  _clearApproval(tokenId) */\n      jump\t// in\n    tag_154:\n        /* \"ERC721.sol\":3612:3613  1 */\n      0x01\n        /* \"ERC721.sol\":3588:3605  _ownedTokensCount */\n      0x02\n        /* \"ERC721.sol\":3588:3611  _ownedTokensCount[from] */\n      0x00\n        /* \"ERC721.sol\":3606:3610  from */\n      dup6\n        /* \"ERC721.sol\":3588:3611  _ownedTokensCount[from] */\n      0xffffffffffffffffffffffffffffffffffffffff\n      and\n      0xffffffffffffffffffffffffffffffffffffffff\n      and\n      dup2\n      mstore\n      0x20\n      add\n      swap1\n      dup2\n      mstore\n      0x20\n      add\n      0x00\n      keccak256\n      sload\n        /* \"ERC721.sol\":3588:3613  _ownedTokensCount[from]-1 */\n      tag_156\n      swap2\n      swap1\n      tag_157\n      jump\t// in\n    tag_156:\n        /* \"ERC721.sol\":3564:3581  _ownedTokensCount */\n      0x02\n        /* \"ERC721.sol\":3564:3587  _ownedTokensCount[from] */\n      0x00\n        /* \"ERC721.sol\":3582:3586  from */\n      dup6\n        /* \"ERC721.sol\":3564:3587  _ownedTokensCount[from] */\n      0xffffffffffffffffffffffffffffffffffffffff\n      and\n      0xffffffffffffffffffffffffffffffffffffffff\n      and\n      dup2\n      mstore\n      0x20\n      add\n      swap1\n      dup2\n      mstore\n      0x20\n      add\n      0x00\n      keccak256\n        /* \"ERC721.sol\":3564:3613  _ownedTokensCount[from]=_ownedTokensCount[from]-1 */\n      dup2\n      swap1\n      sstore\n      pop\n        /* \"ERC721.sol\":3667:3668  1 */\n      0x01\n        /* \"ERC721.sol\":3645:3662  _ownedTokensCount */\n      0x02\n        /* \"ERC721.sol\":3645:3666  _ownedTokensCount[to] */\n      0x00\n        /* \"ERC721.sol\":3663:3665  to */\n      dup5\n        /* \"ERC721.sol\":3645:3666  _ownedTokensCount[to] */\n      0xffffffffffffffffffffffffffffffffffffffff\n      and\n      0xffffffffffffffffffffffffffffffffffffffff\n      and\n      dup2\n      mstore\n      0x20\n      add\n      swap1\n      dup2\n      mstore\n      0x20\n      add\n      0x00\n      keccak256\n      sload\n        /* \"ERC721.sol\":3645:3668  _ownedTokensCount[to]+1 */\n      tag_158\n      swap2\n      swap1\n      tag_159\n      jump\t// in\n    tag_158:\n        /* \"ERC721.sol\":3623:3640  _ownedTokensCount */\n      0x02\n        /* \"ERC721.sol\":3623:3644  _ownedTokensCount[to] */\n      0x00\n        /* \"ERC721.sol\":3641:3643  to */\n      dup5\n        /* \"ERC721.sol\":3623:3644  _ownedTokensCount[to] */\n      0xffffffffffffffffffffffffffffffffffffffff\n      and\n      0xffffffffffffffffffffffffffffffffffffffff\n      and\n      dup2\n      mstore\n      0x20\n      add\n      swap1\n      dup2\n      mstore\n      0x20\n      add\n      0x00\n      keccak256\n        /* \"ERC721.sol\":3623:3668  _ownedTokensCount[to]=_ownedTokensCount[to]+1 */\n      dup2\n      swap1\n      sstore\n      pop\n        /* \"ERC721.sol\":3700:3702  to */\n      dup2\n        /* \"ERC721.sol\":3678:3690  _tokenowners */\n      0x01\n        /* \"ERC721.sol\":3678:3699  _tokenowners[tokenId] */\n      0x00\n        /* \"ERC721.sol\":3691:3698  tokenId */\n      dup4\n        /* \"ERC721.sol\":3678:3699  _tokenowners[tokenId] */\n      dup2\n      mstore\n      0x20\n      add\n      swap1\n      dup2\n      mstore\n      0x20\n      add\n      0x00\n      keccak256\n      0x00\n        /* \"ERC721.sol\":3678:3702  _tokenowners[tokenId]=to */\n      0x0100\n      exp\n      dup2\n      sload\n      dup2\n      0xffffffffffffffffffffffffffffffffffffffff\n      mul\n      not\n      and\n      swap1\n      dup4\n      0xffffffffffffffffffffffffffffffffffffffff\n      and\n      mul\n      or\n      swap1\n      sstore\n      pop\n        /* \"ERC721.sol\":3734:3741  tokenId */\n      dup1\n        /* \"ERC721.sol\":3731:3733  to */\n      dup3\n        /* \"ERC721.sol\":3717:3742  Transfer(from,to,tokenId) */\n      0xffffffffffffffffffffffffffffffffffffffff\n      and\n        /* \"ERC721.sol\":3726:3730  from */\n      dup5\n        /* \"ERC721.sol\":3717:3742  Transfer(from,to,tokenId) */\n      0xffffffffffffffffffffffffffffffffffffffff\n      and\n      0xddf252ad1be2c89b69c2b068fc378daa952ba7f163c4a11628f55a4df523b3ef\n      mload(0x40)\n      mload(0x40)\n      dup1\n      swap2\n      sub\n      swap1\n      log4\n        /* \"ERC721.sol\":3377:3750  function _transferFrom(address from, address to,uint tokenId) internal{... */\n      pop\n      pop\n      pop\n      jump\t// out\n        /* \"ERC721.sol\":3756:4076  function _checkOnERC721Recieved(address from ,address to,uint tokenId,bytes memory _data) internal returns(bool){... */\n    tag_138:\n        /* \"ERC721.sol\":3863:3867  bool */\n      0x00\n        /* \"ERC721.sol\":3882:3897  to.isContract() */\n      tag_161\n        /* \"ERC721.sol\":3882:3884  to */\n      dup5\n        /* \"ERC721.sol\":3882:3895  to.isContract */\n      0xffffffffffffffffffffffffffffffffffffffff\n      and\n      tag_162\n        /* \"ERC721.sol\":3882:3897  to.isContract() */\n      jump\t// in\n    tag_161:\n        /* \"ERC721.sol\":3878:3934  if(!to.isContract()){... */\n      tag_163\n      jumpi\n        /* \"ERC721.sol\":3919:3923  true */\n      0x01\n        /* \"ERC721.sol\":3912:3923  return true */\n      swap1\n      pop\n      jump(tag_160)\n        /* \"ERC721.sol\":3878:3934  if(!to.isContract()){... */\n    tag_163:\n        /* \"ERC721.sol\":3943:3956  bytes4 retval */\n      0x00\n        /* \"ERC721.sol\":3973:3975  to */\n      dup5\n        /* \"ERC721.sol\":3957:3993  IERC721Receiver(to).onERC721Received */\n      0xffffffffffffffffffffffffffffffffffffffff\n      and\n      0x150b7a02\n        /* \"ERC721.sol\":3995:4005  msg.sender */\n      caller\n        /* \"ERC721.sol\":4006:4010  from */\n      dup9\n        /* \"ERC721.sol\":4011:4018  tokenId */\n      dup8\n        /* \"ERC721.sol\":4019:4024  _data */\n      dup8\n        /* \"ERC721.sol\":3957:4025  IERC721Receiver(to).onERC721Received (msg.sender,from,tokenId,_data) */\n      mload(0x40)\n      dup6\n      0xffffffff\n      and\n      0xe0\n      shl\n      dup2\n      mstore\n      0x04\n      add\n      tag_164\n      swap5\n      swap4\n      swap3\n      swap2\n      swap1\n      tag_165\n      jump\t// in\n    tag_164:\n      0x20\n      mload(0x40)\n      dup1\n      dup4\n      sub\n      dup2\n      0x00\n      dup8\n      gas\n      call\n      iszero\n      dup1\n      iszero\n      tag_167\n      jumpi\n      returndatasize\n      0x00\n      dup1\n      returndatacopy\n      revert(0x00, returndatasize)\n    tag_167:\n      pop\n      pop\n      pop\n      pop\n      mload(0x40)\n      returndatasize\n      not(0x1f)\n      0x1f\n      dup3\n      add\n      and\n      dup3\n      add\n      dup1\n      0x40\n      mstore\n      pop\n      dup2\n      add\n      swap1\n      tag_168\n      swap2\n      swap1\n      tag_169\n      jump\t// in\n    tag_168:\n        /* \"ERC721.sol\":3943:4025  bytes4 retval=IERC721Receiver(to).onERC721Received (msg.sender,from,tokenId,_data) */\n      swap1\n      pop\n        /* \"ERC721.sol\":312:322  0x150b7a02 */\n      0x150b7a02\n        /* \"ERC721.sol\":4051:4067  _ERC721_RECEIVED */\n      0xe0\n      shl\n        /* \"ERC721.sol\":4043:4067  retval==_ERC721_RECEIVED */\n      not(0xffffffffffffffffffffffffffffffffffffffffffffffffffffffff)\n      and\n        /* \"ERC721.sol\":4043:4049  retval */\n      dup2\n        /* \"ERC721.sol\":4043:4067  retval==_ERC721_RECEIVED */\n      not(0xffffffffffffffffffffffffffffffffffffffffffffffffffffffff)\n      and\n      eq\n        /* \"ERC721.sol\":4035:4068  return (retval==_ERC721_RECEIVED) */\n      swap2\n      pop\n      pop\n        /* \"ERC721.sol\":3756:4076  function _checkOnERC721Recieved(address from ,address to,uint tokenId,bytes memory _data) internal returns(bool){... */\n    tag_160:\n      swap5\n      swap4\n      pop\n      pop\n      pop\n      pop\n      jump\t// out\n        /* \"ERC721.sol\":4082:4248  function _clearApproval(uint tokenId) private {... */\n    tag_155:\n        /* \"ERC721.sol\":4176:4177  0 */\n      0x00\n        /* \"ERC721.sol\":4142:4178  _tokenApprovals[tokenId]!=address(0) */\n      0xffffffffffffffffffffffffffffffffffffffff\n      and\n        /* \"ERC721.sol\":4142:4157  _tokenApprovals */\n      0x03\n        /* \"ERC721.sol\":4142:4166  _tokenApprovals[tokenId] */\n      0x00\n        /* \"ERC721.sol\":4158:4165  tokenId */\n      dup4\n        /* \"ERC721.sol\":4142:4166  _tokenApprovals[tokenId] */\n      dup2\n      mstore\n      0x20\n      add\n      swap1\n      dup2\n      mstore\n      0x20\n      add\n      0x00\n      keccak256\n      0x00\n      swap1\n      sload\n      swap1\n      0x0100\n      exp\n      swap1\n      div\n      0xffffffffffffffffffffffffffffffffffffffff\n      and\n        /* \"ERC721.sol\":4142:4178  _tokenApprovals[tokenId]!=address(0) */\n      0xffffffffffffffffffffffffffffffffffffffff\n      and\n      eq\n        /* \"ERC721.sol\":4139:4241  if(_tokenApprovals[tokenId]!=address(0)){... */\n      tag_171\n      jumpi\n        /* \"ERC721.sol\":4227:4228  0 */\n      0x00\n        /* \"ERC721.sol\":4194:4209  _tokenApprovals */\n      0x03\n        /* \"ERC721.sol\":4194:4218  _tokenApprovals[tokenId] */\n      0x00\n        /* \"ERC721.sol\":4210:4217  tokenId */\n      dup4\n        /* \"ERC721.sol\":4194:4218  _tokenApprovals[tokenId] */\n      dup2\n      mstore\n      0x20\n      add\n      swap1\n      dup2\n      mstore\n      0x20\n      add\n      0x00\n      keccak256\n      0x00\n        /* \"ERC721.sol\":4194:4229  _tokenApprovals[tokenId]=address(0) */\n      0x0100\n      exp\n      dup2\n      sload\n      dup2\n      0xffffffffffffffffffffffffffffffffffffffff\n      mul\n      not\n      and\n      swap1\n      dup4\n      0xffffffffffffffffffffffffffffffffffffffff\n      and\n      mul\n      or\n      swap1\n      sstore\n      pop\n        /* \"ERC721.sol\":4139:4241  if(_tokenApprovals[tokenId]!=address(0)){... */\n    tag_171:\n        /* \"ERC721.sol\":4082:4248  function _clearApproval(uint tokenId) private {... */\n      pop\n      jump\t// out\n        /* \"utils/Address.sol\":1451:1777  function isContract(address account) internal view returns (bool) {... */\n    tag_162:\n        /* \"utils/Address.sol\":1511:1515  bool */\n      0x00\n        /* \"utils/Address.sol\":1768:1769  0 */\n      dup1\n        /* \"utils/Address.sol\":1746:1753  account */\n      dup3\n        /* \"utils/Address.sol\":1746:1765  account.code.length */\n      0xffffffffffffffffffffffffffffffffffffffff\n      and\n      extcodesize\n        /* \"utils/Address.sol\":1746:1769  account.code.length > 0 */\n      gt\n        /* \"utils/Address.sol\":1739:1769  return account.code.length > 0 */\n      swap1\n      pop\n        /* \"utils/Address.sol\":1451:1777  function isContract(address account) internal view returns (bool) {... */\n      swap2\n      swap1\n      pop\n      jump\t// out\n        /* \"#utility.yul\":7:82   */\n    tag_173:\n        /* \"#utility.yul\":40:46   */\n      0x00\n        /* \"#utility.yul\":73:75   */\n      0x40\n        /* \"#utility.yul\":67:76   */\n      mload\n        /* \"#utility.yul\":57:76   */\n      swap1\n      pop\n        /* \"#utility.yul\":7:82   */\n      swap1\n      jump\t// out\n        /* \"#utility.yul\":88:205   */\n    tag_174:\n        /* \"#utility.yul\":197:198   */\n      0x00\n        /* \"#utility.yul\":194:195   */\n      dup1\n        /* \"#utility.yul\":187:199   */\n      revert\n        /* \"#utility.yul\":211:328   */\n    tag_175:\n        /* \"#utility.yul\":320:321   */\n      0x00\n        /* \"#utility.yul\":317:318   */\n      dup1\n        /* \"#utility.yul\":310:322   */\n      revert\n        /* \"#utility.yul\":334:483   */\n    tag_176:\n        /* \"#utility.yul\":370:377   */\n      0x00\n        /* \"#utility.yul\":410:476   */\n      0xffffffff00000000000000000000000000000000000000000000000000000000\n        /* \"#utility.yul\":403:408   */\n      dup3\n        /* \"#utility.yul\":399:477   */\n      and\n        /* \"#utility.yul\":388:477   */\n      swap1\n      pop\n        /* \"#utility.yul\":334:483   */\n      swap2\n      swap1\n      pop\n      jump\t// out\n        /* \"#utility.yul\":489:609   */\n    tag_177:\n        /* \"#utility.yul\":561:584   */\n      tag_236\n        /* \"#utility.yul\":578:583   */\n      dup2\n        /* \"#utility.yul\":561:584   */\n      tag_176\n      jump\t// in\n    tag_236:\n        /* \"#utility.yul\":554:559   */\n      dup2\n        /* \"#utility.yul\":551:585   */\n      eq\n        /* \"#utility.yul\":541:603   */\n      tag_237\n      jumpi\n        /* \"#utility.yul\":599:600   */\n      0x00\n        /* \"#utility.yul\":596:597   */\n      dup1\n        /* \"#utility.yul\":589:601   */\n      revert\n        /* \"#utility.yul\":541:603   */\n    tag_237:\n        /* \"#utility.yul\":489:609   */\n      pop\n      jump\t// out\n        /* \"#utility.yul\":615:752   */\n    tag_178:\n        /* \"#utility.yul\":660:665   */\n      0x00\n        /* \"#utility.yul\":698:704   */\n      dup2\n        /* \"#utility.yul\":685:705   */\n      calldataload\n        /* \"#utility.yul\":676:705   */\n      swap1\n      pop\n        /* \"#utility.yul\":714:746   */\n      tag_239\n        /* \"#utility.yul\":740:745   */\n      dup2\n        /* \"#utility.yul\":714:746   */\n      tag_177\n      jump\t// in\n    tag_239:\n        /* \"#utility.yul\":615:752   */\n      swap3\n      swap2\n      pop\n      pop\n      jump\t// out\n        /* \"#utility.yul\":758:1085   */\n    tag_23:\n        /* \"#utility.yul\":816:822   */\n      0x00\n        /* \"#utility.yul\":865:867   */\n      0x20\n        /* \"#utility.yul\":853:862   */\n      dup3\n        /* \"#utility.yul\":844:851   */\n      dup5\n        /* \"#utility.yul\":840:863   */\n      sub\n        /* \"#utility.yul\":836:868   */\n      slt\n        /* \"#utility.yul\":833:952   */\n      iszero\n      tag_241\n      jumpi\n        /* \"#utility.yul\":871:950   */\n      tag_242\n      tag_174\n      jump\t// in\n    tag_242:\n        /* \"#utility.yul\":833:952   */\n    tag_241:\n        /* \"#utility.yul\":991:992   */\n      0x00\n        /* \"#utility.yul\":1016:1068   */\n      tag_243\n        /* \"#utility.yul\":1060:1067   */\n      dup5\n        /* \"#utility.yul\":1051:1057   */\n      dup3\n        /* \"#utility.yul\":1040:1049   */\n      dup6\n        /* \"#utility.yul\":1036:1058   */\n      add\n        /* \"#utility.yul\":1016:1068   */\n      tag_178\n      jump\t// in\n    tag_243:\n        /* \"#utility.yul\":1006:1068   */\n      swap2\n      pop\n        /* \"#utility.yul\":962:1078   */\n      pop\n        /* \"#utility.yul\":758:1085   */\n      swap3\n      swap2\n      pop\n      pop\n      jump\t// out\n        /* \"#utility.yul\":1091:1181   */\n    tag_179:\n        /* \"#utility.yul\":1125:1132   */\n      0x00\n        /* \"#utility.yul\":1168:1173   */\n      dup2\n        /* \"#utility.yul\":1161:1174   */\n      iszero\n        /* \"#utility.yul\":1154:1175   */\n      iszero\n        /* \"#utility.yul\":1143:1175   */\n      swap1\n      pop\n        /* \"#utility.yul\":1091:1181   */\n      swap2\n      swap1\n      pop\n      jump\t// out\n        /* \"#utility.yul\":1187:1296   */\n    tag_180:\n        /* \"#utility.yul\":1268:1289   */\n      tag_246\n        /* \"#utility.yul\":1283:1288   */\n      dup2\n        /* \"#utility.yul\":1268:1289   */\n      tag_179\n      jump\t// in\n    tag_246:\n        /* \"#utility.yul\":1263:1266   */\n      dup3\n        /* \"#utility.yul\":1256:1290   */\n      mstore\n        /* \"#utility.yul\":1187:1296   */\n      pop\n      pop\n      jump\t// out\n        /* \"#utility.yul\":1302:1512   */\n    tag_26:\n        /* \"#utility.yul\":1389:1393   */\n      0x00\n        /* \"#utility.yul\":1427:1429   */\n      0x20\n        /* \"#utility.yul\":1416:1425   */\n      dup3\n        /* \"#utility.yul\":1412:1430   */\n      add\n        /* \"#utility.yul\":1404:1430   */\n      swap1\n      pop\n        /* \"#utility.yul\":1440:1505   */\n      tag_248\n        /* \"#utility.yul\":1502:1503   */\n      0x00\n        /* \"#utility.yul\":1491:1500   */\n      dup4\n        /* \"#utility.yul\":1487:1504   */\n      add\n        /* \"#utility.yul\":1478:1484   */\n      dup5\n        /* \"#utility.yul\":1440:1505   */\n      tag_180\n      jump\t// in\n    tag_248:\n        /* \"#utility.yul\":1302:1512   */\n      swap3\n      swap2\n      pop\n      pop\n      jump\t// out\n        /* \"#utility.yul\":1518:1617   */\n    tag_181:\n        /* \"#utility.yul\":1570:1576   */\n      0x00\n        /* \"#utility.yul\":1604:1609   */\n      dup2\n        /* \"#utility.yul\":1598:1610   */\n      mload\n        /* \"#utility.yul\":1588:1610   */\n      swap1\n      pop\n        /* \"#utility.yul\":1518:1617   */\n      swap2\n      swap1\n      pop\n      jump\t// out\n        /* \"#utility.yul\":1623:1792   */\n    tag_182:\n        /* \"#utility.yul\":1707:1718   */\n      0x00\n        /* \"#utility.yul\":1741:1747   */\n      dup3\n        /* \"#utility.yul\":1736:1739   */\n      dup3\n        /* \"#utility.yul\":1729:1748   */\n      mstore\n        /* \"#utility.yul\":1781:1785   */\n      0x20\n        /* \"#utility.yul\":1776:1779   */\n      dup3\n        /* \"#utility.yul\":1772:1786   */\n      add\n        /* \"#utility.yul\":1757:1786   */\n      swap1\n      pop\n        /* \"#utility.yul\":1623:1792   */\n      swap3\n      swap2\n      pop\n      pop\n      jump\t// out\n        /* \"#utility.yul\":1798:2044   */\n    tag_183:\n        /* \"#utility.yul\":1879:1880   */\n      0x00\n        /* \"#utility.yul\":1889:2002   */\n    tag_252:\n        /* \"#utility.yul\":1903:1909   */\n      dup4\n        /* \"#utility.yul\":1900:1901   */\n      dup2\n        /* \"#utility.yul\":1897:1910   */\n      lt\n        /* \"#utility.yul\":1889:2002   */\n      iszero\n      tag_254\n      jumpi\n        /* \"#utility.yul\":1988:1989   */\n      dup1\n        /* \"#utility.yul\":1983:1986   */\n      dup3\n        /* \"#utility.yul\":1979:1990   */\n      add\n        /* \"#utility.yul\":1973:1991   */\n      mload\n        /* \"#utility.yul\":1969:1970   */\n      dup2\n        /* \"#utility.yul\":1964:1967   */\n      dup5\n        /* \"#utility.yul\":1960:1971   */\n      add\n        /* \"#utility.yul\":1953:1992   */\n      mstore\n        /* \"#utility.yul\":1925:1927   */\n      0x20\n        /* \"#utility.yul\":1922:1923   */\n      dup2\n        /* \"#utility.yul\":1918:1928   */\n      add\n        /* \"#utility.yul\":1913:1928   */\n      swap1\n      pop\n        /* \"#utility.yul\":1889:2002   */\n      jump(tag_252)\n    tag_254:\n        /* \"#utility.yul\":2036:2037   */\n      0x00\n        /* \"#utility.yul\":2027:2033   */\n      dup5\n        /* \"#utility.yul\":2022:2025   */\n      dup5\n        /* \"#utility.yul\":2018:2034   */\n      add\n        /* \"#utility.yul\":2011:2038   */\n      mstore\n        /* \"#utility.yul\":1860:2044   */\n      pop\n        /* \"#utility.yul\":1798:2044   */\n      pop\n      pop\n      pop\n      jump\t// out\n        /* \"#utility.yul\":2050:2152   */\n    tag_184:\n        /* \"#utility.yul\":2091:2097   */\n      0x00\n        /* \"#utility.yul\":2142:2144   */\n      0x1f\n        /* \"#utility.yul\":2138:2145   */\n      not\n        /* \"#utility.yul\":2133:2135   */\n      0x1f\n        /* \"#utility.yul\":2126:2131   */\n      dup4\n        /* \"#utility.yul\":2122:2136   */\n      add\n        /* \"#utility.yul\":2118:2146   */\n      and\n        /* \"#utility.yul\":2108:2146   */\n      swap1\n      pop\n        /* \"#utility.yul\":2050:2152   */\n      swap2\n      swap1\n      pop\n      jump\t// out\n        /* \"#utility.yul\":2158:2535   */\n    tag_185:\n        /* \"#utility.yul\":2246:2249   */\n      0x00\n        /* \"#utility.yul\":2274:2313   */\n      tag_257\n        /* \"#utility.yul\":2307:2312   */\n      dup3\n        /* \"#utility.yul\":2274:2313   */\n      tag_181\n      jump\t// in\n    tag_257:\n        /* \"#utility.yul\":2329:2400   */\n      tag_258\n        /* \"#utility.yul\":2393:2399   */\n      dup2\n        /* \"#utility.yul\":2388:2391   */\n      dup6\n        /* \"#utility.yul\":2329:2400   */\n      tag_182\n      jump\t// in\n    tag_258:\n        /* \"#utility.yul\":2322:2400   */\n      swap4\n      pop\n        /* \"#utility.yul\":2409:2474   */\n      tag_259\n        /* \"#utility.yul\":2467:2473   */\n      dup2\n        /* \"#utility.yul\":2462:2465   */\n      dup6\n        /* \"#utility.yul\":2455:2459   */\n      0x20\n        /* \"#utility.yul\":2448:2453   */\n      dup7\n        /* \"#utility.yul\":2444:2460   */\n      add\n        /* \"#utility.yul\":2409:2474   */\n      tag_183\n      jump\t// in\n    tag_259:\n        /* \"#utility.yul\":2499:2528   */\n      tag_260\n        /* \"#utility.yul\":2521:2527   */\n      dup2\n        /* \"#utility.yul\":2499:2528   */\n      tag_184\n      jump\t// in\n    tag_260:\n        /* \"#utility.yul\":2494:2497   */\n      dup5\n        /* \"#utility.yul\":2490:2529   */\n      add\n        /* \"#utility.yul\":2483:2529   */\n      swap2\n      pop\n        /* \"#utility.yul\":2250:2535   */\n      pop\n        /* \"#utility.yul\":2158:2535   */\n      swap3\n      swap2\n      pop\n      pop\n      jump\t// out\n        /* \"#utility.yul\":2541:2854   */\n    tag_30:\n        /* \"#utility.yul\":2654:2658   */\n      0x00\n        /* \"#utility.yul\":2692:2694   */\n      0x20\n        /* \"#utility.yul\":2681:2690   */\n      dup3\n        /* \"#utility.yul\":2677:2695   */\n      add\n        /* \"#utility.yul\":2669:2695   */\n      swap1\n      pop\n        /* \"#utility.yul\":2741:2750   */\n      dup2\n        /* \"#utility.yul\":2735:2739   */\n      dup2\n        /* \"#utility.yul\":2731:2751   */\n      sub\n        /* \"#utility.yul\":2727:2728   */\n      0x00\n        /* \"#utility.yul\":2716:2725   */\n      dup4\n        /* \"#utility.yul\":2712:2729   */\n      add\n        /* \"#utility.yul\":2705:2752   */\n      mstore\n        /* \"#utility.yul\":2769:2847   */\n      tag_262\n        /* \"#utility.yul\":2842:2846   */\n      dup2\n        /* \"#utility.yul\":2833:2839   */\n      dup5\n        /* \"#utility.yul\":2769:2847   */\n      tag_185\n      jump\t// in\n    tag_262:\n        /* \"#utility.yul\":2761:2847   */\n      swap1\n      pop\n        /* \"#utility.yul\":2541:2854   */\n      swap3\n      swap2\n      pop\n      pop\n      jump\t// out\n        /* \"#utility.yul\":2860:2937   */\n    tag_186:\n        /* \"#utility.yul\":2897:2904   */\n      0x00\n        /* \"#utility.yul\":2926:2931   */\n      dup2\n        /* \"#utility.yul\":2915:2931   */\n      swap1\n      pop\n        /* \"#utility.yul\":2860:2937   */\n      swap2\n      swap1\n      pop\n      jump\t// out\n        /* \"#utility.yul\":2943:3065   */\n    tag_187:\n        /* \"#utility.yul\":3016:3040   */\n      tag_265\n        /* \"#utility.yul\":3034:3039   */\n      dup2\n        /* \"#utility.yul\":3016:3040   */\n      tag_186\n      jump\t// in\n    tag_265:\n        /* \"#utility.yul\":3009:3014   */\n      dup2\n        /* \"#utility.yul\":3006:3041   */\n      eq\n        /* \"#utility.yul\":2996:3059   */\n      tag_266\n      jumpi\n        /* \"#utility.yul\":3055:3056   */\n      0x00\n        /* \"#utility.yul\":3052:3053   */\n      dup1\n        /* \"#utility.yul\":3045:3057   */\n      revert\n        /* \"#utility.yul\":2996:3059   */\n    tag_266:\n        /* \"#utility.yul\":2943:3065   */\n      pop\n      jump\t// out\n        /* \"#utility.yul\":3071:3210   */\n    tag_188:\n        /* \"#utility.yul\":3117:3122   */\n      0x00\n        /* \"#utility.yul\":3155:3161   */\n      dup2\n        /* \"#utility.yul\":3142:3162   */\n      calldataload\n        /* \"#utility.yul\":3133:3162   */\n      swap1\n      pop\n        /* \"#utility.yul\":3171:3204   */\n      tag_268\n        /* \"#utility.yul\":3198:3203   */\n      dup2\n        /* \"#utility.yul\":3171:3204   */\n      tag_187\n      jump\t// in\n    tag_268:\n        /* \"#utility.yul\":3071:3210   */\n      swap3\n      swap2\n      pop\n      pop\n      jump\t// out\n        /* \"#utility.yul\":3216:3545   */\n    tag_33:\n        /* \"#utility.yul\":3275:3281   */\n      0x00\n        /* \"#utility.yul\":3324:3326   */\n      0x20\n        /* \"#utility.yul\":3312:3321   */\n      dup3\n        /* \"#utility.yul\":3303:3310   */\n      dup5\n        /* \"#utility.yul\":3299:3322   */\n      sub\n        /* \"#utility.yul\":3295:3327   */\n      slt\n        /* \"#utility.yul\":3292:3411   */\n      iszero\n      tag_270\n      jumpi\n        /* \"#utility.yul\":3330:3409   */\n      tag_271\n      tag_174\n      jump\t// in\n    tag_271:\n        /* \"#utility.yul\":3292:3411   */\n    tag_270:\n        /* \"#utility.yul\":3450:3451   */\n      0x00\n        /* \"#utility.yul\":3475:3528   */\n      tag_272\n        /* \"#utility.yul\":3520:3527   */\n      dup5\n        /* \"#utility.yul\":3511:3517   */\n      dup3\n        /* \"#utility.yul\":3500:3509   */\n      dup6\n        /* \"#utility.yul\":3496:3518   */\n      add\n        /* \"#utility.yul\":3475:3528   */\n      tag_188\n      jump\t// in\n    tag_272:\n        /* \"#utility.yul\":3465:3528   */\n      swap2\n      pop\n        /* \"#utility.yul\":3421:3538   */\n      pop\n        /* \"#utility.yul\":3216:3545   */\n      swap3\n      swap2\n      pop\n      pop\n      jump\t// out\n        /* \"#utility.yul\":3551:3677   */\n    tag_189:\n        /* \"#utility.yul\":3588:3595   */\n      0x00\n        /* \"#utility.yul\":3628:3670   */\n      0xffffffffffffffffffffffffffffffffffffffff\n        /* \"#utility.yul\":3621:3626   */\n      dup3\n        /* \"#utility.yul\":3617:3671   */\n      and\n        /* \"#utility.yul\":3606:3671   */\n      swap1\n      pop\n        /* \"#utility.yul\":3551:3677   */\n      swap2\n      swap1\n      pop\n      jump\t// out\n        /* \"#utility.yul\":3683:3779   */\n    tag_190:\n        /* \"#utility.yul\":3720:3727   */\n      0x00\n        /* \"#utility.yul\":3749:3773   */\n      tag_275\n        /* \"#utility.yul\":3767:3772   */\n      dup3\n        /* \"#utility.yul\":3749:3773   */\n      tag_189\n      jump\t// in\n    tag_275:\n        /* \"#utility.yul\":3738:3773   */\n      swap1\n      pop\n        /* \"#utility.yul\":3683:3779   */\n      swap2\n      swap1\n      pop\n      jump\t// out\n        /* \"#utility.yul\":3785:3903   */\n    tag_191:\n        /* \"#utility.yul\":3872:3896   */\n      tag_277\n        /* \"#utility.yul\":3890:3895   */\n      dup2\n        /* \"#utility.yul\":3872:3896   */\n      tag_190\n      jump\t// in\n    tag_277:\n        /* \"#utility.yul\":3867:3870   */\n      dup3\n        /* \"#utility.yul\":3860:3897   */\n      mstore\n        /* \"#utility.yul\":3785:3903   */\n      pop\n      pop\n      jump\t// out\n        /* \"#utility.yul\":3909:4131   */\n    tag_36:\n        /* \"#utility.yul\":4002:4006   */\n      0x00\n        /* \"#utility.yul\":4040:4042   */\n      0x20\n        /* \"#utility.yul\":4029:4038   */\n      dup3\n        /* \"#utility.yul\":4025:4043   */\n      add\n        /* \"#utility.yul\":4017:4043   */\n      swap1\n      pop\n        /* \"#utility.yul\":4053:4124   */\n      tag_279\n        /* \"#utility.yul\":4121:4122   */\n      0x00\n        /* \"#utility.yul\":4110:4119   */\n      dup4\n        /* \"#utility.yul\":4106:4123   */\n      add\n        /* \"#utility.yul\":4097:4103   */\n      dup5\n        /* \"#utility.yul\":4053:4124   */\n      tag_191\n      jump\t// in\n    tag_279:\n        /* \"#utility.yul\":3909:4131   */\n      swap3\n      swap2\n      pop\n      pop\n      jump\t// out\n        /* \"#utility.yul\":4137:4259   */\n    tag_192:\n        /* \"#utility.yul\":4210:4234   */\n      tag_281\n        /* \"#utility.yul\":4228:4233   */\n      dup2\n        /* \"#utility.yul\":4210:4234   */\n      tag_190\n      jump\t// in\n    tag_281:\n        /* \"#utility.yul\":4203:4208   */\n      dup2\n        /* \"#utility.yul\":4200:4235   */\n      eq\n        /* \"#utility.yul\":4190:4253   */\n      tag_282\n      jumpi\n        /* \"#utility.yul\":4249:4250   */\n      0x00\n        /* \"#utility.yul\":4246:4247   */\n      dup1\n        /* \"#utility.yul\":4239:4251   */\n      revert\n        /* \"#utility.yul\":4190:4253   */\n    tag_282:\n        /* \"#utility.yul\":4137:4259   */\n      pop\n      jump\t// out\n        /* \"#utility.yul\":4265:4404   */\n    tag_193:\n        /* \"#utility.yul\":4311:4316   */\n      0x00\n        /* \"#utility.yul\":4349:4355   */\n      dup2\n        /* \"#utility.yul\":4336:4356   */\n      calldataload\n        /* \"#utility.yul\":4327:4356   */\n      swap1\n      pop\n        /* \"#utility.yul\":4365:4398   */\n      tag_284\n        /* \"#utility.yul\":4392:4397   */\n      dup2\n        /* \"#utility.yul\":4365:4398   */\n      tag_192\n      jump\t// in\n    tag_284:\n        /* \"#utility.yul\":4265:4404   */\n      swap3\n      swap2\n      pop\n      pop\n      jump\t// out\n        /* \"#utility.yul\":4410:4884   */\n    tag_39:\n        /* \"#utility.yul\":4478:4484   */\n      0x00\n        /* \"#utility.yul\":4486:4492   */\n      dup1\n        /* \"#utility.yul\":4535:4537   */\n      0x40\n        /* \"#utility.yul\":4523:4532   */\n      dup4\n        /* \"#utility.yul\":4514:4521   */\n      dup6\n        /* \"#utility.yul\":4510:4533   */\n      sub\n        /* \"#utility.yul\":4506:4538   */\n      slt\n        /* \"#utility.yul\":4503:4622   */\n      iszero\n      tag_286\n      jumpi\n        /* \"#utility.yul\":4541:4620   */\n      tag_287\n      tag_174\n      jump\t// in\n    tag_287:\n        /* \"#utility.yul\":4503:4622   */\n    tag_286:\n        /* \"#utility.yul\":4661:4662   */\n      0x00\n        /* \"#utility.yul\":4686:4739   */\n      tag_288\n        /* \"#utility.yul\":4731:4738   */\n      dup6\n        /* \"#utility.yul\":4722:4728   */\n      dup3\n        /* \"#utility.yul\":4711:4720   */\n      dup7\n        /* \"#utility.yul\":4707:4729   */\n      add\n        /* \"#utility.yul\":4686:4739   */\n      tag_193\n      jump\t// in\n    tag_288:\n        /* \"#utility.yul\":4676:4739   */\n      swap3\n      pop\n        /* \"#utility.yul\":4632:4749   */\n      pop\n        /* \"#utility.yul\":4788:4790   */\n      0x20\n        /* \"#utility.yul\":4814:4867   */\n      tag_289\n        /* \"#utility.yul\":4859:4866   */\n      dup6\n        /* \"#utility.yul\":4850:4856   */\n      dup3\n        /* \"#utility.yul\":4839:4848   */\n      dup7\n        /* \"#utility.yul\":4835:4857   */\n      add\n        /* \"#utility.yul\":4814:4867   */\n      tag_188\n      jump\t// in\n    tag_289:\n        /* \"#utility.yul\":4804:4867   */\n      swap2\n      pop\n        /* \"#utility.yul\":4759:4877   */\n      pop\n        /* \"#utility.yul\":4410:4884   */\n      swap3\n      pop\n      swap3\n      swap1\n      pop\n      jump\t// out\n        /* \"#utility.yul\":4890:5007   */\n    tag_194:\n        /* \"#utility.yul\":4999:5000   */\n      0x00\n        /* \"#utility.yul\":4996:4997   */\n      dup1\n        /* \"#utility.yul\":4989:5001   */\n      revert\n        /* \"#utility.yul\":5013:5130   */\n    tag_195:\n        /* \"#utility.yul\":5122:5123   */\n      0x00\n        /* \"#utility.yul\":5119:5120   */\n      dup1\n        /* \"#utility.yul\":5112:5124   */\n      revert\n        /* \"#utility.yul\":5136:5316   */\n    tag_196:\n        /* \"#utility.yul\":5184:5261   */\n      0x4e487b7100000000000000000000000000000000000000000000000000000000\n        /* \"#utility.yul\":5181:5182   */\n      0x00\n        /* \"#utility.yul\":5174:5262   */\n      mstore\n        /* \"#utility.yul\":5281:5285   */\n      0x41\n        /* \"#utility.yul\":5278:5279   */\n      0x04\n        /* \"#utility.yul\":5271:5286   */\n      mstore\n        /* \"#utility.yul\":5305:5309   */\n      0x24\n        /* \"#utility.yul\":5302:5303   */\n      0x00\n        /* \"#utility.yul\":5295:5310   */\n      revert\n        /* \"#utility.yul\":5322:5603   */\n    tag_197:\n        /* \"#utility.yul\":5405:5432   */\n      tag_294\n        /* \"#utility.yul\":5427:5431   */\n      dup3\n        /* \"#utility.yul\":5405:5432   */\n      tag_184\n      jump\t// in\n    tag_294:\n        /* \"#utility.yul\":5397:5403   */\n      dup2\n        /* \"#utility.yul\":5393:5433   */\n      add\n        /* \"#utility.yul\":5535:5541   */\n      dup2\n        /* \"#utility.yul\":5523:5533   */\n      dup2\n        /* \"#utility.yul\":5520:5542   */\n      lt\n        /* \"#utility.yul\":5499:5517   */\n      0xffffffffffffffff\n        /* \"#utility.yul\":5487:5497   */\n      dup3\n        /* \"#utility.yul\":5484:5518   */\n      gt\n        /* \"#utility.yul\":5481:5543   */\n      or\n        /* \"#utility.yul\":5478:5566   */\n      iszero\n      tag_295\n      jumpi\n        /* \"#utility.yul\":5546:5564   */\n      tag_296\n      tag_196\n      jump\t// in\n    tag_296:\n        /* \"#utility.yul\":5478:5566   */\n    tag_295:\n        /* \"#utility.yul\":5586:5596   */\n      dup1\n        /* \"#utility.yul\":5582:5584   */\n      0x40\n        /* \"#utility.yul\":5575:5597   */\n      mstore\n        /* \"#utility.yul\":5365:5603   */\n      pop\n        /* \"#utility.yul\":5322:5603   */\n      pop\n      pop\n      jump\t// out\n        /* \"#utility.yul\":5609:5738   */\n    tag_198:\n        /* \"#utility.yul\":5643:5649   */\n      0x00\n        /* \"#utility.yul\":5670:5690   */\n      tag_298\n      tag_173\n      jump\t// in\n    tag_298:\n        /* \"#utility.yul\":5660:5690   */\n      swap1\n      pop\n        /* \"#utility.yul\":5699:5732   */\n      tag_299\n        /* \"#utility.yul\":5727:5731   */\n      dup3\n        /* \"#utility.yul\":5719:5725   */\n      dup3\n        /* \"#utility.yul\":5699:5732   */\n      tag_197\n      jump\t// in\n    tag_299:\n        /* \"#utility.yul\":5609:5738   */\n      swap2\n      swap1\n      pop\n      jump\t// out\n        /* \"#utility.yul\":5744:6052   */\n    tag_199:\n        /* \"#utility.yul\":5806:5810   */\n      0x00\n        /* \"#utility.yul\":5896:5914   */\n      0xffffffffffffffff\n        /* \"#utility.yul\":5888:5894   */\n      dup3\n        /* \"#utility.yul\":5885:5915   */\n      gt\n        /* \"#utility.yul\":5882:5938   */\n      iszero\n      tag_301\n      jumpi\n        /* \"#utility.yul\":5918:5936   */\n      tag_302\n      tag_196\n      jump\t// in\n    tag_302:\n        /* \"#utility.yul\":5882:5938   */\n    tag_301:\n        /* \"#utility.yul\":5956:5985   */\n      tag_303\n        /* \"#utility.yul\":5978:5984   */\n      dup3\n        /* \"#utility.yul\":5956:5985   */\n      tag_184\n      jump\t// in\n    tag_303:\n        /* \"#utility.yul\":5948:5985   */\n      swap1\n      pop\n        /* \"#utility.yul\":6040:6044   */\n      0x20\n        /* \"#utility.yul\":6034:6038   */\n      dup2\n        /* \"#utility.yul\":6030:6045   */\n      add\n        /* \"#utility.yul\":6022:6045   */\n      swap1\n      pop\n        /* \"#utility.yul\":5744:6052   */\n      swap2\n      swap1\n      pop\n      jump\t// out\n        /* \"#utility.yul\":6058:6204   */\n    tag_200:\n        /* \"#utility.yul\":6155:6161   */\n      dup3\n        /* \"#utility.yul\":6150:6153   */\n      dup2\n        /* \"#utility.yul\":6145:6148   */\n      dup4\n        /* \"#utility.yul\":6132:6162   */\n      calldatacopy\n        /* \"#utility.yul\":6196:6197   */\n      0x00\n        /* \"#utility.yul\":6187:6193   */\n      dup4\n        /* \"#utility.yul\":6182:6185   */\n      dup4\n        /* \"#utility.yul\":6178:6194   */\n      add\n        /* \"#utility.yul\":6171:6198   */\n      mstore\n        /* \"#utility.yul\":6058:6204   */\n      pop\n      pop\n      pop\n      jump\t// out\n        /* \"#utility.yul\":6210:6635   */\n    tag_201:\n        /* \"#utility.yul\":6288:6293   */\n      0x00\n        /* \"#utility.yul\":6313:6379   */\n      tag_306\n        /* \"#utility.yul\":6329:6378   */\n      tag_307\n        /* \"#utility.yul\":6371:6377   */\n      dup5\n        /* \"#utility.yul\":6329:6378   */\n      tag_199\n      jump\t// in\n    tag_307:\n        /* \"#utility.yul\":6313:6379   */\n      tag_198\n      jump\t// in\n    tag_306:\n        /* \"#utility.yul\":6304:6379   */\n      swap1\n      pop\n        /* \"#utility.yul\":6402:6408   */\n      dup3\n        /* \"#utility.yul\":6395:6400   */\n      dup2\n        /* \"#utility.yul\":6388:6409   */\n      mstore\n        /* \"#utility.yul\":6440:6444   */\n      0x20\n        /* \"#utility.yul\":6433:6438   */\n      dup2\n        /* \"#utility.yul\":6429:6445   */\n      add\n        /* \"#utility.yul\":6478:6481   */\n      dup5\n        /* \"#utility.yul\":6469:6475   */\n      dup5\n        /* \"#utility.yul\":6464:6467   */\n      dup5\n        /* \"#utility.yul\":6460:6476   */\n      add\n        /* \"#utility.yul\":6457:6482   */\n      gt\n        /* \"#utility.yul\":6454:6566   */\n      iszero\n      tag_308\n      jumpi\n        /* \"#utility.yul\":6485:6564   */\n      tag_309\n      tag_195\n      jump\t// in\n    tag_309:\n        /* \"#utility.yul\":6454:6566   */\n    tag_308:\n        /* \"#utility.yul\":6575:6629   */\n      tag_310\n        /* \"#utility.yul\":6622:6628   */\n      dup5\n        /* \"#utility.yul\":6617:6620   */\n      dup3\n        /* \"#utility.yul\":6612:6615   */\n      dup6\n        /* \"#utility.yul\":6575:6629   */\n      tag_200\n      jump\t// in\n    tag_310:\n        /* \"#utility.yul\":6294:6635   */\n      pop\n        /* \"#utility.yul\":6210:6635   */\n      swap4\n      swap3\n      pop\n      pop\n      pop\n      jump\t// out\n        /* \"#utility.yul\":6655:6995   */\n    tag_202:\n        /* \"#utility.yul\":6711:6716   */\n      0x00\n        /* \"#utility.yul\":6760:6763   */\n      dup3\n        /* \"#utility.yul\":6753:6757   */\n      0x1f\n        /* \"#utility.yul\":6745:6751   */\n      dup4\n        /* \"#utility.yul\":6741:6758   */\n      add\n        /* \"#utility.yul\":6737:6764   */\n      slt\n        /* \"#utility.yul\":6727:6849   */\n      tag_312\n      jumpi\n        /* \"#utility.yul\":6768:6847   */\n      tag_313\n      tag_194\n      jump\t// in\n    tag_313:\n        /* \"#utility.yul\":6727:6849   */\n    tag_312:\n        /* \"#utility.yul\":6885:6891   */\n      dup2\n        /* \"#utility.yul\":6872:6892   */\n      calldataload\n        /* \"#utility.yul\":6910:6989   */\n      tag_314\n        /* \"#utility.yul\":6985:6988   */\n      dup5\n        /* \"#utility.yul\":6977:6983   */\n      dup3\n        /* \"#utility.yul\":6970:6974   */\n      0x20\n        /* \"#utility.yul\":6962:6968   */\n      dup7\n        /* \"#utility.yul\":6958:6975   */\n      add\n        /* \"#utility.yul\":6910:6989   */\n      tag_201\n      jump\t// in\n    tag_314:\n        /* \"#utility.yul\":6901:6989   */\n      swap2\n      pop\n        /* \"#utility.yul\":6717:6995   */\n      pop\n        /* \"#utility.yul\":6655:6995   */\n      swap3\n      swap2\n      pop\n      pop\n      jump\t// out\n        /* \"#utility.yul\":7001:7655   */\n    tag_43:\n        /* \"#utility.yul\":7079:7085   */\n      0x00\n        /* \"#utility.yul\":7087:7093   */\n      dup1\n        /* \"#utility.yul\":7136:7138   */\n      0x40\n        /* \"#utility.yul\":7124:7133   */\n      dup4\n        /* \"#utility.yul\":7115:7122   */\n      dup6\n        /* \"#utility.yul\":7111:7134   */\n      sub\n        /* \"#utility.yul\":7107:7139   */\n      slt\n        /* \"#utility.yul\":7104:7223   */\n      iszero\n      tag_316\n      jumpi\n        /* \"#utility.yul\":7142:7221   */\n      tag_317\n      tag_174\n      jump\t// in\n    tag_317:\n        /* \"#utility.yul\":7104:7223   */\n    tag_316:\n        /* \"#utility.yul\":7262:7263   */\n      0x00\n        /* \"#utility.yul\":7287:7340   */\n      tag_318\n        /* \"#utility.yul\":7332:7339   */\n      dup6\n        /* \"#utility.yul\":7323:7329   */\n      dup3\n        /* \"#utility.yul\":7312:7321   */\n      dup7\n        /* \"#utility.yul\":7308:7330   */\n      add\n        /* \"#utility.yul\":7287:7340   */\n      tag_188\n      jump\t// in\n    tag_318:\n        /* \"#utility.yul\":7277:7340   */\n      swap3\n      pop\n        /* \"#utility.yul\":7233:7350   */\n      pop\n        /* \"#utility.yul\":7417:7419   */\n      0x20\n        /* \"#utility.yul\":7406:7415   */\n      dup4\n        /* \"#utility.yul\":7402:7420   */\n      add\n        /* \"#utility.yul\":7389:7421   */\n      calldataload\n        /* \"#utility.yul\":7448:7466   */\n      0xffffffffffffffff\n        /* \"#utility.yul\":7440:7446   */\n      dup2\n        /* \"#utility.yul\":7437:7467   */\n      gt\n        /* \"#utility.yul\":7434:7551   */\n      iszero\n      tag_319\n      jumpi\n        /* \"#utility.yul\":7470:7549   */\n      tag_320\n      tag_175\n      jump\t// in\n    tag_320:\n        /* \"#utility.yul\":7434:7551   */\n    tag_319:\n        /* \"#utility.yul\":7575:7638   */\n      tag_321\n        /* \"#utility.yul\":7630:7637   */\n      dup6\n        /* \"#utility.yul\":7621:7627   */\n      dup3\n        /* \"#utility.yul\":7610:7619   */\n      dup7\n        /* \"#utility.yul\":7606:7628   */\n      add\n        /* \"#utility.yul\":7575:7638   */\n      tag_202\n      jump\t// in\n    tag_321:\n        /* \"#utility.yul\":7565:7638   */\n      swap2\n      pop\n        /* \"#utility.yul\":7360:7648   */\n      pop\n        /* \"#utility.yul\":7001:7655   */\n      swap3\n      pop\n      swap3\n      swap1\n      pop\n      jump\t// out\n        /* \"#utility.yul\":7661:8280   */\n    tag_47:\n        /* \"#utility.yul\":7738:7744   */\n      0x00\n        /* \"#utility.yul\":7746:7752   */\n      dup1\n        /* \"#utility.yul\":7754:7760   */\n      0x00\n        /* \"#utility.yul\":7803:7805   */\n      0x60\n        /* \"#utility.yul\":7791:7800   */\n      dup5\n        /* \"#utility.yul\":7782:7789   */\n      dup7\n        /* \"#utility.yul\":7778:7801   */\n      sub\n        /* \"#utility.yul\":7774:7806   */\n      slt\n        /* \"#utility.yul\":7771:7890   */\n      iszero\n      tag_323\n      jumpi\n        /* \"#utility.yul\":7809:7888   */\n      tag_324\n      tag_174\n      jump\t// in\n    tag_324:\n        /* \"#utility.yul\":7771:7890   */\n    tag_323:\n        /* \"#utility.yul\":7929:7930   */\n      0x00\n        /* \"#utility.yul\":7954:8007   */\n      tag_325\n        /* \"#utility.yul\":7999:8006   */\n      dup7\n        /* \"#utility.yul\":7990:7996   */\n      dup3\n        /* \"#utility.yul\":7979:7988   */\n      dup8\n        /* \"#utility.yul\":7975:7997   */\n      add\n        /* \"#utility.yul\":7954:8007   */\n      tag_193\n      jump\t// in\n    tag_325:\n        /* \"#utility.yul\":7944:8007   */\n      swap4\n      pop\n        /* \"#utility.yul\":7900:8017   */\n      pop\n        /* \"#utility.yul\":8056:8058   */\n      0x20\n        /* \"#utility.yul\":8082:8135   */\n      tag_326\n        /* \"#utility.yul\":8127:8134   */\n      dup7\n        /* \"#utility.yul\":8118:8124   */\n      dup3\n        /* \"#utility.yul\":8107:8116   */\n      dup8\n        /* \"#utility.yul\":8103:8125   */\n      add\n        /* \"#utility.yul\":8082:8135   */\n      tag_193\n      jump\t// in\n    tag_326:\n        /* \"#utility.yul\":8072:8135   */\n      swap3\n      pop\n        /* \"#utility.yul\":8027:8145   */\n      pop\n        /* \"#utility.yul\":8184:8186   */\n      0x40\n        /* \"#utility.yul\":8210:8263   */\n      tag_327\n        /* \"#utility.yul\":8255:8262   */\n      dup7\n        /* \"#utility.yul\":8246:8252   */\n      dup3\n        /* \"#utility.yul\":8235:8244   */\n      dup8\n        /* \"#utility.yul\":8231:8253   */\n      add\n        /* \"#utility.yul\":8210:8263   */\n      tag_188\n      jump\t// in\n    tag_327:\n        /* \"#utility.yul\":8200:8263   */\n      swap2\n      pop\n        /* \"#utility.yul\":8155:8273   */\n      pop\n        /* \"#utility.yul\":7661:8280   */\n      swap3\n      pop\n      swap3\n      pop\n      swap3\n      jump\t// out\n        /* \"#utility.yul\":8286:8615   */\n    tag_62:\n        /* \"#utility.yul\":8345:8351   */\n      0x00\n        /* \"#utility.yul\":8394:8396   */\n      0x20\n        /* \"#utility.yul\":8382:8391   */\n      dup3\n        /* \"#utility.yul\":8373:8380   */\n      dup5\n        /* \"#utility.yul\":8369:8392   */\n      sub\n        /* \"#utility.yul\":8365:8397   */\n      slt\n        /* \"#utility.yul\":8362:8481   */\n      iszero\n      tag_329\n      jumpi\n        /* \"#utility.yul\":8400:8479   */\n      tag_330\n      tag_174\n      jump\t// in\n    tag_330:\n        /* \"#utility.yul\":8362:8481   */\n    tag_329:\n        /* \"#utility.yul\":8520:8521   */\n      0x00\n        /* \"#utility.yul\":8545:8598   */\n      tag_331\n        /* \"#utility.yul\":8590:8597   */\n      dup5\n        /* \"#utility.yul\":8581:8587   */\n      dup3\n        /* \"#utility.yul\":8570:8579   */\n      dup6\n        /* \"#utility.yul\":8566:8588   */\n      add\n        /* \"#utility.yul\":8545:8598   */\n      tag_193\n      jump\t// in\n    tag_331:\n        /* \"#utility.yul\":8535:8598   */\n      swap2\n      pop\n        /* \"#utility.yul\":8491:8608   */\n      pop\n        /* \"#utility.yul\":8286:8615   */\n      swap3\n      swap2\n      pop\n      pop\n      jump\t// out\n        /* \"#utility.yul\":8621:8739   */\n    tag_203:\n        /* \"#utility.yul\":8708:8732   */\n      tag_333\n        /* \"#utility.yul\":8726:8731   */\n      dup2\n        /* \"#utility.yul\":8708:8732   */\n      tag_186\n      jump\t// in\n    tag_333:\n        /* \"#utility.yul\":8703:8706   */\n      dup3\n        /* \"#utility.yul\":8696:8733   */\n      mstore\n        /* \"#utility.yul\":8621:8739   */\n      pop\n      pop\n      jump\t// out\n        /* \"#utility.yul\":8745:8967   */\n    tag_65:\n        /* \"#utility.yul\":8838:8842   */\n      0x00\n        /* \"#utility.yul\":8876:8878   */\n      0x20\n        /* \"#utility.yul\":8865:8874   */\n      dup3\n        /* \"#utility.yul\":8861:8879   */\n      add\n        /* \"#utility.yul\":8853:8879   */\n      swap1\n      pop\n        /* \"#utility.yul\":8889:8960   */\n      tag_335\n        /* \"#utility.yul\":8957:8958   */\n      0x00\n        /* \"#utility.yul\":8946:8955   */\n      dup4\n        /* \"#utility.yul\":8942:8959   */\n      add\n        /* \"#utility.yul\":8933:8939   */\n      dup5\n        /* \"#utility.yul\":8889:8960   */\n      tag_203\n      jump\t// in\n    tag_335:\n        /* \"#utility.yul\":8745:8967   */\n      swap3\n      swap2\n      pop\n      pop\n      jump\t// out\n        /* \"#utility.yul\":8973:9089   */\n    tag_204:\n        /* \"#utility.yul\":9043:9064   */\n      tag_337\n        /* \"#utility.yul\":9058:9063   */\n      dup2\n        /* \"#utility.yul\":9043:9064   */\n      tag_179\n      jump\t// in\n    tag_337:\n        /* \"#utility.yul\":9036:9041   */\n      dup2\n        /* \"#utility.yul\":9033:9065   */\n      eq\n        /* \"#utility.yul\":9023:9083   */\n      tag_338\n      jumpi\n        /* \"#utility.yul\":9079:9080   */\n      0x00\n        /* \"#utility.yul\":9076:9077   */\n      dup1\n        /* \"#utility.yul\":9069:9081   */\n      revert\n        /* \"#utility.yul\":9023:9083   */\n    tag_338:\n        /* \"#utility.yul\":8973:9089   */\n      pop\n      jump\t// out\n        /* \"#utility.yul\":9095:9228   */\n    tag_205:\n        /* \"#utility.yul\":9138:9143   */\n      0x00\n        /* \"#utility.yul\":9176:9182   */\n      dup2\n        /* \"#utility.yul\":9163:9183   */\n      calldataload\n        /* \"#utility.yul\":9154:9183   */\n      swap1\n      pop\n        /* \"#utility.yul\":9192:9222   */\n      tag_340\n        /* \"#utility.yul\":9216:9221   */\n      dup2\n        /* \"#utility.yul\":9192:9222   */\n      tag_204\n      jump\t// in\n    tag_340:\n        /* \"#utility.yul\":9095:9228   */\n      swap3\n      swap2\n      pop\n      pop\n      jump\t// out\n        /* \"#utility.yul\":9234:9702   */\n    tag_71:\n        /* \"#utility.yul\":9299:9305   */\n      0x00\n        /* \"#utility.yul\":9307:9313   */\n      dup1\n        /* \"#utility.yul\":9356:9358   */\n      0x40\n        /* \"#utility.yul\":9344:9353   */\n      dup4\n        /* \"#utility.yul\":9335:9342   */\n      dup6\n        /* \"#utility.yul\":9331:9354   */\n      sub\n        /* \"#utility.yul\":9327:9359   */\n      slt\n        /* \"#utility.yul\":9324:9443   */\n      iszero\n      tag_342\n      jumpi\n        /* \"#utility.yul\":9362:9441   */\n      tag_343\n      tag_174\n      jump\t// in\n    tag_343:\n        /* \"#utility.yul\":9324:9443   */\n    tag_342:\n        /* \"#utility.yul\":9482:9483   */\n      0x00\n        /* \"#utility.yul\":9507:9560   */\n      tag_344\n        /* \"#utility.yul\":9552:9559   */\n      dup6\n        /* \"#utility.yul\":9543:9549   */\n      dup3\n        /* \"#utility.yul\":9532:9541   */\n      dup7\n        /* \"#utility.yul\":9528:9550   */\n      add\n        /* \"#utility.yul\":9507:9560   */\n      tag_193\n      jump\t// in\n    tag_344:\n        /* \"#utility.yul\":9497:9560   */\n      swap3\n      pop\n        /* \"#utility.yul\":9453:9570   */\n      pop\n        /* \"#utility.yul\":9609:9611   */\n      0x20\n        /* \"#utility.yul\":9635:9685   */\n      tag_345\n        /* \"#utility.yul\":9677:9684   */\n      dup6\n        /* \"#utility.yul\":9668:9674   */\n      dup3\n        /* \"#utility.yul\":9657:9666   */\n      dup7\n        /* \"#utility.yul\":9653:9675   */\n      add\n        /* \"#utility.yul\":9635:9685   */\n      tag_205\n      jump\t// in\n    tag_345:\n        /* \"#utility.yul\":9625:9685   */\n      swap2\n      pop\n        /* \"#utility.yul\":9580:9695   */\n      pop\n        /* \"#utility.yul\":9234:9702   */\n      swap3\n      pop\n      swap3\n      swap1\n      pop\n      jump\t// out\n        /* \"#utility.yul\":9708:10015   */\n    tag_206:\n        /* \"#utility.yul\":9769:9773   */\n      0x00\n        /* \"#utility.yul\":9859:9877   */\n      0xffffffffffffffff\n        /* \"#utility.yul\":9851:9857   */\n      dup3\n        /* \"#utility.yul\":9848:9878   */\n      gt\n        /* \"#utility.yul\":9845:9901   */\n      iszero\n      tag_347\n      jumpi\n        /* \"#utility.yul\":9881:9899   */\n      tag_348\n      tag_196\n      jump\t// in\n    tag_348:\n        /* \"#utility.yul\":9845:9901   */\n    tag_347:\n        /* \"#utility.yul\":9919:9948   */\n      tag_349\n        /* \"#utility.yul\":9941:9947   */\n      dup3\n        /* \"#utility.yul\":9919:9948   */\n      tag_184\n      jump\t// in\n    tag_349:\n        /* \"#utility.yul\":9911:9948   */\n      swap1\n      pop\n        /* \"#utility.yul\":10003:10007   */\n      0x20\n        /* \"#utility.yul\":9997:10001   */\n      dup2\n        /* \"#utility.yul\":9993:10008   */\n      add\n        /* \"#utility.yul\":9985:10008   */\n      swap1\n      pop\n        /* \"#utility.yul\":9708:10015   */\n      swap2\n      swap1\n      pop\n      jump\t// out\n        /* \"#utility.yul\":10021:10444   */\n    tag_207:\n        /* \"#utility.yul\":10098:10103   */\n      0x00\n        /* \"#utility.yul\":10123:10188   */\n      tag_351\n        /* \"#utility.yul\":10139:10187   */\n      tag_352\n        /* \"#utility.yul\":10180:10186   */\n      dup5\n        /* \"#utility.yul\":10139:10187   */\n      tag_206\n      jump\t// in\n    tag_352:\n        /* \"#utility.yul\":10123:10188   */\n      tag_198\n      jump\t// in\n    tag_351:\n        /* \"#utility.yul\":10114:10188   */\n      swap1\n      pop\n        /* \"#utility.yul\":10211:10217   */\n      dup3\n        /* \"#utility.yul\":10204:10209   */\n      dup2\n        /* \"#utility.yul\":10197:10218   */\n      mstore\n        /* \"#utility.yul\":10249:10253   */\n      0x20\n        /* \"#utility.yul\":10242:10247   */\n      dup2\n        /* \"#utility.yul\":10238:10254   */\n      add\n        /* \"#utility.yul\":10287:10290   */\n      dup5\n        /* \"#utility.yul\":10278:10284   */\n      dup5\n        /* \"#utility.yul\":10273:10276   */\n      dup5\n        /* \"#utility.yul\":10269:10285   */\n      add\n        /* \"#utility.yul\":10266:10291   */\n      gt\n        /* \"#utility.yul\":10263:10375   */\n      iszero\n      tag_353\n      jumpi\n        /* \"#utility.yul\":10294:10373   */\n      tag_354\n      tag_195\n      jump\t// in\n    tag_354:\n        /* \"#utility.yul\":10263:10375   */\n    tag_353:\n        /* \"#utility.yul\":10384:10438   */\n      tag_355\n        /* \"#utility.yul\":10431:10437   */\n      dup5\n        /* \"#utility.yul\":10426:10429   */\n      dup3\n        /* \"#utility.yul\":10421:10424   */\n      dup6\n        /* \"#utility.yul\":10384:10438   */\n      tag_200\n      jump\t// in\n    tag_355:\n        /* \"#utility.yul\":10104:10444   */\n      pop\n        /* \"#utility.yul\":10021:10444   */\n      swap4\n      swap3\n      pop\n      pop\n      pop\n      jump\t// out\n        /* \"#utility.yul\":10463:10801   */\n    tag_208:\n        /* \"#utility.yul\":10518:10523   */\n      0x00\n        /* \"#utility.yul\":10567:10570   */\n      dup3\n        /* \"#utility.yul\":10560:10564   */\n      0x1f\n        /* \"#utility.yul\":10552:10558   */\n      dup4\n        /* \"#utility.yul\":10548:10565   */\n      add\n        /* \"#utility.yul\":10544:10571   */\n      slt\n        /* \"#utility.yul\":10534:10656   */\n      tag_357\n      jumpi\n        /* \"#utility.yul\":10575:10654   */\n      tag_358\n      tag_194\n      jump\t// in\n    tag_358:\n        /* \"#utility.yul\":10534:10656   */\n    tag_357:\n        /* \"#utility.yul\":10692:10698   */\n      dup2\n        /* \"#utility.yul\":10679:10699   */\n      calldataload\n        /* \"#utility.yul\":10717:10795   */\n      tag_359\n        /* \"#utility.yul\":10791:10794   */\n      dup5\n        /* \"#utility.yul\":10783:10789   */\n      dup3\n        /* \"#utility.yul\":10776:10780   */\n      0x20\n        /* \"#utility.yul\":10768:10774   */\n      dup7\n        /* \"#utility.yul\":10764:10781   */\n      add\n        /* \"#utility.yul\":10717:10795   */\n      tag_207\n      jump\t// in\n    tag_359:\n        /* \"#utility.yul\":10708:10795   */\n      swap2\n      pop\n        /* \"#utility.yul\":10524:10801   */\n      pop\n        /* \"#utility.yul\":10463:10801   */\n      swap3\n      swap2\n      pop\n      pop\n      jump\t// out\n        /* \"#utility.yul\":10807:11750   */\n    tag_75:\n        /* \"#utility.yul\":10902:10908   */\n      0x00\n        /* \"#utility.yul\":10910:10916   */\n      dup1\n        /* \"#utility.yul\":10918:10924   */\n      0x00\n        /* \"#utility.yul\":10926:10932   */\n      dup1\n        /* \"#utility.yul\":10975:10978   */\n      0x80\n        /* \"#utility.yul\":10963:10972   */\n      dup6\n        /* \"#utility.yul\":10954:10961   */\n      dup8\n        /* \"#utility.yul\":10950:10973   */\n      sub\n        /* \"#utility.yul\":10946:10979   */\n      slt\n        /* \"#utility.yul\":10943:11063   */\n      iszero\n      tag_361\n      jumpi\n        /* \"#utility.yul\":10982:11061   */\n      tag_362\n      tag_174\n      jump\t// in\n    tag_362:\n        /* \"#utility.yul\":10943:11063   */\n    tag_361:\n        /* \"#utility.yul\":11102:11103   */\n      0x00\n        /* \"#utility.yul\":11127:11180   */\n      tag_363\n        /* \"#utility.yul\":11172:11179   */\n      dup8\n        /* \"#utility.yul\":11163:11169   */\n      dup3\n        /* \"#utility.yul\":11152:11161   */\n      dup9\n        /* \"#utility.yul\":11148:11170   */\n      add\n        /* \"#utility.yul\":11127:11180   */\n      tag_193\n      jump\t// in\n    tag_363:\n        /* \"#utility.yul\":11117:11180   */\n      swap5\n      pop\n        /* \"#utility.yul\":11073:11190   */\n      pop\n        /* \"#utility.yul\":11229:11231   */\n      0x20\n        /* \"#utility.yul\":11255:11308   */\n      tag_364\n        /* \"#utility.yul\":11300:11307   */\n      dup8\n        /* \"#utility.yul\":11291:11297   */\n      dup3\n        /* \"#utility.yul\":11280:11289   */\n      dup9\n        /* \"#utility.yul\":11276:11298   */\n      add\n        /* \"#utility.yul\":11255:11308   */\n      tag_193\n      jump\t// in\n    tag_364:\n        /* \"#utility.yul\":11245:11308   */\n      swap4\n      pop\n        /* \"#utility.yul\":11200:11318   */\n      pop\n        /* \"#utility.yul\":11357:11359   */\n      0x40\n        /* \"#utility.yul\":11383:11436   */\n      tag_365\n        /* \"#utility.yul\":11428:11435   */\n      dup8\n        /* \"#utility.yul\":11419:11425   */\n      dup3\n        /* \"#utility.yul\":11408:11417   */\n      dup9\n        /* \"#utility.yul\":11404:11426   */\n      add\n        /* \"#utility.yul\":11383:11436   */\n      tag_188\n      jump\t// in\n    tag_365:\n        /* \"#utility.yul\":11373:11436   */\n      swap3\n      pop\n        /* \"#utility.yul\":11328:11446   */\n      pop\n        /* \"#utility.yul\":11513:11515   */\n      0x60\n        /* \"#utility.yul\":11502:11511   */\n      dup6\n        /* \"#utility.yul\":11498:11516   */\n      add\n        /* \"#utility.yul\":11485:11517   */\n      calldataload\n        /* \"#utility.yul\":11544:11562   */\n      0xffffffffffffffff\n        /* \"#utility.yul\":11536:11542   */\n      dup2\n        /* \"#utility.yul\":11533:11563   */\n      gt\n        /* \"#utility.yul\":11530:11647   */\n      iszero\n      tag_366\n      jumpi\n        /* \"#utility.yul\":11566:11645   */\n      tag_367\n      tag_175\n      jump\t// in\n    tag_367:\n        /* \"#utility.yul\":11530:11647   */\n    tag_366:\n        /* \"#utility.yul\":11671:11733   */\n      tag_368\n        /* \"#utility.yul\":11725:11732   */\n      dup8\n        /* \"#utility.yul\":11716:11722   */\n      dup3\n        /* \"#utility.yul\":11705:11714   */\n      dup9\n        /* \"#utility.yul\":11701:11723   */\n      add\n        /* \"#utility.yul\":11671:11733   */\n      tag_208\n      jump\t// in\n    tag_368:\n        /* \"#utility.yul\":11661:11733   */\n      swap2\n      pop\n        /* \"#utility.yul\":11456:11743   */\n      pop\n        /* \"#utility.yul\":10807:11750   */\n      swap3\n      swap6\n      swap2\n      swap5\n      pop\n      swap3\n      pop\n      jump\t// out\n        /* \"#utility.yul\":11756:12230   */\n    tag_83:\n        /* \"#utility.yul\":11824:11830   */\n      0x00\n        /* \"#utility.yul\":11832:11838   */\n      dup1\n        /* \"#utility.yul\":11881:11883   */\n      0x40\n        /* \"#utility.yul\":11869:11878   */\n      dup4\n        /* \"#utility.yul\":11860:11867   */\n      dup6\n        /* \"#utility.yul\":11856:11879   */\n      sub\n        /* \"#utility.yul\":11852:11884   */\n      slt\n        /* \"#utility.yul\":11849:11968   */\n      iszero\n      tag_370\n      jumpi\n        /* \"#utility.yul\":11887:11966   */\n      tag_371\n      tag_174\n      jump\t// in\n    tag_371:\n        /* \"#utility.yul\":11849:11968   */\n    tag_370:\n        /* \"#utility.yul\":12007:12008   */\n      0x00\n        /* \"#utility.yul\":12032:12085   */\n      tag_372\n        /* \"#utility.yul\":12077:12084   */\n      dup6\n        /* \"#utility.yul\":12068:12074   */\n      dup3\n        /* \"#utility.yul\":12057:12066   */\n      dup7\n        /* \"#utility.yul\":12053:12075   */\n      add\n        /* \"#utility.yul\":12032:12085   */\n      tag_193\n      jump\t// in\n    tag_372:\n        /* \"#utility.yul\":12022:12085   */\n      swap3\n      pop\n        /* \"#utility.yul\":11978:12095   */\n      pop\n        /* \"#utility.yul\":12134:12136   */\n      0x20\n        /* \"#utility.yul\":12160:12213   */\n      tag_373\n        /* \"#utility.yul\":12205:12212   */\n      dup6\n        /* \"#utility.yul\":12196:12202   */\n      dup3\n        /* \"#utility.yul\":12185:12194   */\n      dup7\n        /* \"#utility.yul\":12181:12203   */\n      add\n        /* \"#utility.yul\":12160:12213   */\n      tag_193\n      jump\t// in\n    tag_373:\n        /* \"#utility.yul\":12150:12213   */\n      swap2\n      pop\n        /* \"#utility.yul\":12105:12223   */\n      pop\n        /* \"#utility.yul\":11756:12230   */\n      swap3\n      pop\n      swap3\n      swap1\n      pop\n      jump\t// out\n        /* \"#utility.yul\":12236:12416   */\n    tag_209:\n        /* \"#utility.yul\":12284:12361   */\n      0x4e487b7100000000000000000000000000000000000000000000000000000000\n        /* \"#utility.yul\":12281:12282   */\n      0x00\n        /* \"#utility.yul\":12274:12362   */\n      mstore\n        /* \"#utility.yul\":12381:12385   */\n      0x22\n        /* \"#utility.yul\":12378:12379   */\n      0x04\n        /* \"#utility.yul\":12371:12386   */\n      mstore\n        /* \"#utility.yul\":12405:12409   */\n      0x24\n        /* \"#utility.yul\":12402:12403   */\n      0x00\n        /* \"#utility.yul\":12395:12410   */\n      revert\n        /* \"#utility.yul\":12422:12742   */\n    tag_89:\n        /* \"#utility.yul\":12466:12472   */\n      0x00\n        /* \"#utility.yul\":12503:12504   */\n      0x02\n        /* \"#utility.yul\":12497:12501   */\n      dup3\n        /* \"#utility.yul\":12493:12505   */\n      div\n        /* \"#utility.yul\":12483:12505   */\n      swap1\n      pop\n        /* \"#utility.yul\":12550:12551   */\n      0x01\n        /* \"#utility.yul\":12544:12548   */\n      dup3\n        /* \"#utility.yul\":12540:12552   */\n      and\n        /* \"#utility.yul\":12571:12589   */\n      dup1\n        /* \"#utility.yul\":12561:12642   */\n      tag_376\n      jumpi\n        /* \"#utility.yul\":12627:12631   */\n      0x7f\n        /* \"#utility.yul\":12619:12625   */\n      dup3\n        /* \"#utility.yul\":12615:12632   */\n      and\n        /* \"#utility.yul\":12605:12632   */\n      swap2\n      pop\n        /* \"#utility.yul\":12561:12642   */\n    tag_376:\n        /* \"#utility.yul\":12689:12691   */\n      0x20\n        /* \"#utility.yul\":12681:12687   */\n      dup3\n        /* \"#utility.yul\":12678:12692   */\n      lt\n        /* \"#utility.yul\":12658:12676   */\n      dup2\n        /* \"#utility.yul\":12655:12693   */\n      sub\n        /* \"#utility.yul\":12652:12736   */\n      tag_377\n      jumpi\n        /* \"#utility.yul\":12708:12726   */\n      tag_378\n      tag_209\n      jump\t// in\n    tag_378:\n        /* \"#utility.yul\":12652:12736   */\n    tag_377:\n        /* \"#utility.yul\":12473:12742   */\n      pop\n        /* \"#utility.yul\":12422:12742   */\n      swap2\n      swap1\n      pop\n      jump\t// out\n        /* \"#utility.yul\":12748:12889   */\n    tag_210:\n        /* \"#utility.yul\":12797:12801   */\n      0x00\n        /* \"#utility.yul\":12820:12823   */\n      dup2\n        /* \"#utility.yul\":12812:12823   */\n      swap1\n      pop\n        /* \"#utility.yul\":12843:12846   */\n      dup2\n        /* \"#utility.yul\":12840:12841   */\n      0x00\n        /* \"#utility.yul\":12833:12847   */\n      mstore\n        /* \"#utility.yul\":12877:12881   */\n      0x20\n        /* \"#utility.yul\":12874:12875   */\n      0x00\n        /* \"#utility.yul\":12864:12882   */\n      keccak256\n        /* \"#utility.yul\":12856:12882   */\n      swap1\n      pop\n        /* \"#utility.yul\":12748:12889   */\n      swap2\n      swap1\n      pop\n      jump\t// out\n        /* \"#utility.yul\":12895:12988   */\n    tag_211:\n        /* \"#utility.yul\":12932:12938   */\n      0x00\n        /* \"#utility.yul\":12979:12981   */\n      0x20\n        /* \"#utility.yul\":12974:12976   */\n      0x1f\n        /* \"#utility.yul\":12967:12972   */\n      dup4\n        /* \"#utility.yul\":12963:12977   */\n      add\n        /* \"#utility.yul\":12959:12982   */\n      div\n        /* \"#utility.yul\":12949:12982   */\n      swap1\n      pop\n        /* \"#utility.yul\":12895:12988   */\n      swap2\n      swap1\n      pop\n      jump\t// out\n        /* \"#utility.yul\":12994:13101   */\n    tag_212:\n        /* \"#utility.yul\":13038:13046   */\n      0x00\n        /* \"#utility.yul\":13088:13093   */\n      dup3\n        /* \"#utility.yul\":13082:13086   */\n      dup3\n        /* \"#utility.yul\":13078:13094   */\n      shl\n        /* \"#utility.yul\":13057:13094   */\n      swap1\n      pop\n        /* \"#utility.yul\":12994:13101   */\n      swap3\n      swap2\n      pop\n      pop\n      jump\t// out\n        /* \"#utility.yul\":13107:13500   */\n    tag_213:\n        /* \"#utility.yul\":13176:13182   */\n      0x00\n        /* \"#utility.yul\":13226:13227   */\n      0x08\n        /* \"#utility.yul\":13214:13224   */\n      dup4\n        /* \"#utility.yul\":13210:13228   */\n      mul\n        /* \"#utility.yul\":13249:13346   */\n      tag_383\n        /* \"#utility.yul\":13279:13345   */\n      0xffffffffffffffffffffffffffffffffffffffffffffffffffffffffffffffff\n        /* \"#utility.yul\":13268:13277   */\n      dup3\n        /* \"#utility.yul\":13249:13346   */\n      tag_212\n      jump\t// in\n    tag_383:\n        /* \"#utility.yul\":13367:13406   */\n      tag_384\n        /* \"#utility.yul\":13397:13405   */\n      dup7\n        /* \"#utility.yul\":13386:13395   */\n      dup4\n        /* \"#utility.yul\":13367:13406   */\n      tag_212\n      jump\t// in\n    tag_384:\n        /* \"#utility.yul\":13355:13406   */\n      swap6\n      pop\n        /* \"#utility.yul\":13439:13443   */\n      dup1\n        /* \"#utility.yul\":13435:13444   */\n      not\n        /* \"#utility.yul\":13428:13433   */\n      dup5\n        /* \"#utility.yul\":13424:13445   */\n      and\n        /* \"#utility.yul\":13415:13445   */\n      swap4\n      pop\n        /* \"#utility.yul\":13488:13492   */\n      dup1\n        /* \"#utility.yul\":13478:13486   */\n      dup7\n        /* \"#utility.yul\":13474:13493   */\n      and\n        /* \"#utility.yul\":13467:13472   */\n      dup5\n        /* \"#utility.yul\":13464:13494   */\n      or\n        /* \"#utility.yul\":13454:13494   */\n      swap3\n      pop\n        /* \"#utility.yul\":13183:13500   */\n      pop\n      pop\n        /* \"#utility.yul\":13107:13500   */\n      swap4\n      swap3\n      pop\n      pop\n      pop\n      jump\t// out\n        /* \"#utility.yul\":13506:13566   */\n    tag_214:\n        /* \"#utility.yul\":13534:13537   */\n      0x00\n        /* \"#utility.yul\":13555:13560   */\n      dup2\n        /* \"#utility.yul\":13548:13560   */\n      swap1\n      pop\n        /* \"#utility.yul\":13506:13566   */\n      swap2\n      swap1\n      pop\n      jump\t// out\n        /* \"#utility.yul\":13572:13714   */\n    tag_215:\n        /* \"#utility.yul\":13622:13631   */\n      0x00\n        /* \"#utility.yul\":13655:13708   */\n      tag_387\n        /* \"#utility.yul\":13673:13707   */\n      tag_388\n        /* \"#utility.yul\":13682:13706   */\n      tag_389\n        /* \"#utility.yul\":13700:13705   */\n      dup5\n        /* \"#utility.yul\":13682:13706   */\n      tag_186\n      jump\t// in\n    tag_389:\n        /* \"#utility.yul\":13673:13707   */\n      tag_214\n      jump\t// in\n    tag_388:\n        /* \"#utility.yul\":13655:13708   */\n      tag_186\n      jump\t// in\n    tag_387:\n        /* \"#utility.yul\":13642:13708   */\n      swap1\n      pop\n        /* \"#utility.yul\":13572:13714   */\n      swap2\n      swap1\n      pop\n      jump\t// out\n        /* \"#utility.yul\":13720:13795   */\n    tag_216:\n        /* \"#utility.yul\":13763:13766   */\n      0x00\n        /* \"#utility.yul\":13784:13789   */\n      dup2\n        /* \"#utility.yul\":13777:13789   */\n      swap1\n      pop\n        /* \"#utility.yul\":13720:13795   */\n      swap2\n      swap1\n      pop\n      jump\t// out\n        /* \"#utility.yul\":13801:14070   */\n    tag_217:\n        /* \"#utility.yul\":13911:13950   */\n      tag_392\n        /* \"#utility.yul\":13942:13949   */\n      dup4\n        /* \"#utility.yul\":13911:13950   */\n      tag_215\n      jump\t// in\n    tag_392:\n        /* \"#utility.yul\":13972:14063   */\n      tag_393\n        /* \"#utility.yul\":14021:14062   */\n      tag_394\n        /* \"#utility.yul\":14045:14061   */\n      dup3\n        /* \"#utility.yul\":14021:14062   */\n      tag_216\n      jump\t// in\n    tag_394:\n        /* \"#utility.yul\":14013:14019   */\n      dup5\n        /* \"#utility.yul\":14006:14010   */\n      dup5\n        /* \"#utility.yul\":14000:14011   */\n      sload\n        /* \"#utility.yul\":13972:14063   */\n      tag_213\n      jump\t// in\n    tag_393:\n        /* \"#utility.yul\":13966:13970   */\n      dup3\n        /* \"#utility.yul\":13959:14064   */\n      sstore\n        /* \"#utility.yul\":13877:14070   */\n      pop\n        /* \"#utility.yul\":13801:14070   */\n      pop\n      pop\n      pop\n      jump\t// out\n        /* \"#utility.yul\":14076:14149   */\n    tag_218:\n        /* \"#utility.yul\":14121:14124   */\n      0x00\n        /* \"#utility.yul\":14076:14149   */\n      swap1\n      jump\t// out\n        /* \"#utility.yul\":14155:14344   */\n    tag_219:\n        /* \"#utility.yul\":14232:14264   */\n      tag_397\n      tag_218\n      jump\t// in\n    tag_397:\n        /* \"#utility.yul\":14273:14338   */\n      tag_398\n        /* \"#utility.yul\":14331:14337   */\n      dup2\n        /* \"#utility.yul\":14323:14329   */\n      dup5\n        /* \"#utility.yul\":14317:14321   */\n      dup5\n        /* \"#utility.yul\":14273:14338   */\n      tag_217\n      jump\t// in\n    tag_398:\n        /* \"#utility.yul\":14208:14344   */\n      pop\n        /* \"#utility.yul\":14155:14344   */\n      pop\n      pop\n      jump\t// out\n        /* \"#utility.yul\":14350:14536   */\n    tag_220:\n        /* \"#utility.yul\":14410:14530   */\n    tag_400:\n        /* \"#utility.yul\":14427:14430   */\n      dup2\n        /* \"#utility.yul\":14420:14425   */\n      dup2\n        /* \"#utility.yul\":14417:14431   */\n      lt\n        /* \"#utility.yul\":14410:14530   */\n      iszero\n      tag_402\n      jumpi\n        /* \"#utility.yul\":14481:14520   */\n      tag_403\n        /* \"#utility.yul\":14518:14519   */\n      0x00\n        /* \"#utility.yul\":14511:14516   */\n      dup3\n        /* \"#utility.yul\":14481:14520   */\n      tag_219\n      jump\t// in\n    tag_403:\n        /* \"#utility.yul\":14454:14455   */\n      0x01\n        /* \"#utility.yul\":14447:14452   */\n      dup2\n        /* \"#utility.yul\":14443:14456   */\n      add\n        /* \"#utility.yul\":14434:14456   */\n      swap1\n      pop\n        /* \"#utility.yul\":14410:14530   */\n      jump(tag_400)\n    tag_402:\n        /* \"#utility.yul\":14350:14536   */\n      pop\n      pop\n      jump\t// out\n        /* \"#utility.yul\":14542:15085   */\n    tag_221:\n        /* \"#utility.yul\":14643:14645   */\n      0x1f\n        /* \"#utility.yul\":14638:14641   */\n      dup3\n        /* \"#utility.yul\":14635:14646   */\n      gt\n        /* \"#utility.yul\":14632:15078   */\n      iszero\n      tag_405\n      jumpi\n        /* \"#utility.yul\":14677:14715   */\n      tag_406\n        /* \"#utility.yul\":14709:14714   */\n      dup2\n        /* \"#utility.yul\":14677:14715   */\n      tag_210\n      jump\t// in\n    tag_406:\n        /* \"#utility.yul\":14761:14790   */\n      tag_407\n        /* \"#utility.yul\":14779:14789   */\n      dup5\n        /* \"#utility.yul\":14761:14790   */\n      tag_211\n      jump\t// in\n    tag_407:\n        /* \"#utility.yul\":14751:14759   */\n      dup2\n        /* \"#utility.yul\":14747:14791   */\n      add\n        /* \"#utility.yul\":14944:14946   */\n      0x20\n        /* \"#utility.yul\":14932:14942   */\n      dup6\n        /* \"#utility.yul\":14929:14947   */\n      lt\n        /* \"#utility.yul\":14926:14975   */\n      iszero\n      tag_408\n      jumpi\n        /* \"#utility.yul\":14965:14973   */\n      dup2\n        /* \"#utility.yul\":14950:14973   */\n      swap1\n      pop\n        /* \"#utility.yul\":14926:14975   */\n    tag_408:\n        /* \"#utility.yul\":14988:15068   */\n      tag_409\n        /* \"#utility.yul\":15044:15066   */\n      tag_410\n        /* \"#utility.yul\":15062:15065   */\n      dup6\n        /* \"#utility.yul\":15044:15066   */\n      tag_211\n      jump\t// in\n    tag_410:\n        /* \"#utility.yul\":15034:15042   */\n      dup4\n        /* \"#utility.yul\":15030:15067   */\n      add\n        /* \"#utility.yul\":15017:15028   */\n      dup3\n        /* \"#utility.yul\":14988:15068   */\n      tag_220\n      jump\t// in\n    tag_409:\n        /* \"#utility.yul\":14647:15078   */\n      pop\n      pop\n        /* \"#utility.yul\":14632:15078   */\n    tag_405:\n        /* \"#utility.yul\":14542:15085   */\n      pop\n      pop\n      pop\n      jump\t// out\n        /* \"#utility.yul\":15091:15208   */\n    tag_222:\n        /* \"#utility.yul\":15145:15153   */\n      0x00\n        /* \"#utility.yul\":15195:15200   */\n      dup3\n        /* \"#utility.yul\":15189:15193   */\n      dup3\n        /* \"#utility.yul\":15185:15201   */\n      shr\n        /* \"#utility.yul\":15164:15201   */\n      swap1\n      pop\n        /* \"#utility.yul\":15091:15208   */\n      swap3\n      swap2\n      pop\n      pop\n      jump\t// out\n        /* \"#utility.yul\":15214:15383   */\n    tag_223:\n        /* \"#utility.yul\":15258:15264   */\n      0x00\n        /* \"#utility.yul\":15291:15342   */\n      tag_413\n        /* \"#utility.yul\":15339:15340   */\n      0x00\n        /* \"#utility.yul\":15335:15341   */\n      not\n        /* \"#utility.yul\":15327:15332   */\n      dup5\n        /* \"#utility.yul\":15324:15325   */\n      0x08\n        /* \"#utility.yul\":15320:15333   */\n      mul\n        /* \"#utility.yul\":15291:15342   */\n      tag_222\n      jump\t// in\n    tag_413:\n        /* \"#utility.yul\":15287:15343   */\n      not\n        /* \"#utility.yul\":15372:15376   */\n      dup1\n        /* \"#utility.yul\":15366:15370   */\n      dup4\n        /* \"#utility.yul\":15362:15377   */\n      and\n        /* \"#utility.yul\":15352:15377   */\n      swap2\n      pop\n        /* \"#utility.yul\":15265:15383   */\n      pop\n        /* \"#utility.yul\":15214:15383   */\n      swap3\n      swap2\n      pop\n      pop\n      jump\t// out\n        /* \"#utility.yul\":15388:15683   */\n    tag_224:\n        /* \"#utility.yul\":15464:15468   */\n      0x00\n        /* \"#utility.yul\":15610:15639   */\n      tag_415\n        /* \"#utility.yul\":15635:15638   */\n      dup4\n        /* \"#utility.yul\":15629:15633   */\n      dup4\n        /* \"#utility.yul\":15610:15639   */\n      tag_223\n      jump\t// in\n    tag_415:\n        /* \"#utility.yul\":15602:15639   */\n      swap2\n      pop\n        /* \"#utility.yul\":15672:15675   */\n      dup3\n        /* \"#utility.yul\":15669:15670   */\n      0x02\n        /* \"#utility.yul\":15665:15676   */\n      mul\n        /* \"#utility.yul\":15659:15663   */\n      dup3\n        /* \"#utility.yul\":15656:15677   */\n      or\n        /* \"#utility.yul\":15648:15677   */\n      swap1\n      pop\n        /* \"#utility.yul\":15388:15683   */\n      swap3\n      swap2\n      pop\n      pop\n      jump\t// out\n        /* \"#utility.yul\":15688:17083   */\n    tag_108:\n        /* \"#utility.yul\":15805:15842   */\n      tag_417\n        /* \"#utility.yul\":15838:15841   */\n      dup3\n        /* \"#utility.yul\":15805:15842   */\n      tag_181\n      jump\t// in\n    tag_417:\n        /* \"#utility.yul\":15907:15925   */\n      0xffffffffffffffff\n        /* \"#utility.yul\":15899:15905   */\n      dup2\n        /* \"#utility.yul\":15896:15926   */\n      gt\n        /* \"#utility.yul\":15893:15949   */\n      iszero\n      tag_418\n      jumpi\n        /* \"#utility.yul\":15929:15947   */\n      tag_419\n      tag_196\n      jump\t// in\n    tag_419:\n        /* \"#utility.yul\":15893:15949   */\n    tag_418:\n        /* \"#utility.yul\":15973:16011   */\n      tag_420\n        /* \"#utility.yul\":16005:16009   */\n      dup3\n        /* \"#utility.yul\":15999:16010   */\n      sload\n        /* \"#utility.yul\":15973:16011   */\n      tag_89\n      jump\t// in\n    tag_420:\n        /* \"#utility.yul\":16058:16125   */\n      tag_421\n        /* \"#utility.yul\":16118:16124   */\n      dup3\n        /* \"#utility.yul\":16110:16116   */\n      dup3\n        /* \"#utility.yul\":16104:16108   */\n      dup6\n        /* \"#utility.yul\":16058:16125   */\n      tag_221\n      jump\t// in\n    tag_421:\n        /* \"#utility.yul\":16152:16153   */\n      0x00\n        /* \"#utility.yul\":16176:16180   */\n      0x20\n        /* \"#utility.yul\":16163:16180   */\n      swap1\n      pop\n        /* \"#utility.yul\":16208:16210   */\n      0x1f\n        /* \"#utility.yul\":16200:16206   */\n      dup4\n        /* \"#utility.yul\":16197:16211   */\n      gt\n        /* \"#utility.yul\":16225:16226   */\n      0x01\n        /* \"#utility.yul\":16220:16838   */\n      dup2\n      eq\n      tag_423\n      jumpi\n        /* \"#utility.yul\":16882:16883   */\n      0x00\n        /* \"#utility.yul\":16899:16905   */\n      dup5\n        /* \"#utility.yul\":16896:16973   */\n      iszero\n      tag_424\n      jumpi\n        /* \"#utility.yul\":16948:16957   */\n      dup3\n        /* \"#utility.yul\":16943:16946   */\n      dup8\n        /* \"#utility.yul\":16939:16958   */\n      add\n        /* \"#utility.yul\":16933:16959   */\n      mload\n        /* \"#utility.yul\":16924:16959   */\n      swap1\n      pop\n        /* \"#utility.yul\":16896:16973   */\n    tag_424:\n        /* \"#utility.yul\":16999:17066   */\n      tag_425\n        /* \"#utility.yul\":17059:17065   */\n      dup6\n        /* \"#utility.yul\":17052:17057   */\n      dup3\n        /* \"#utility.yul\":16999:17066   */\n      tag_224\n      jump\t// in\n    tag_425:\n        /* \"#utility.yul\":16993:16997   */\n      dup7\n        /* \"#utility.yul\":16986:17067   */\n      sstore\n        /* \"#utility.yul\":16855:17077   */\n      pop\n        /* \"#utility.yul\":16190:17077   */\n      jump(tag_422)\n        /* \"#utility.yul\":16220:16838   */\n    tag_423:\n        /* \"#utility.yul\":16272:16276   */\n      0x1f\n        /* \"#utility.yul\":16268:16277   */\n      not\n        /* \"#utility.yul\":16260:16266   */\n      dup5\n        /* \"#utility.yul\":16256:16278   */\n      and\n        /* \"#utility.yul\":16306:16343   */\n      tag_426\n        /* \"#utility.yul\":16338:16342   */\n      dup7\n        /* \"#utility.yul\":16306:16343   */\n      tag_210\n      jump\t// in\n    tag_426:\n        /* \"#utility.yul\":16365:16366   */\n      0x00\n        /* \"#utility.yul\":16379:16587   */\n    tag_427:\n        /* \"#utility.yul\":16393:16400   */\n      dup3\n        /* \"#utility.yul\":16390:16391   */\n      dup2\n        /* \"#utility.yul\":16387:16401   */\n      lt\n        /* \"#utility.yul\":16379:16587   */\n      iszero\n      tag_429\n      jumpi\n        /* \"#utility.yul\":16472:16481   */\n      dup5\n        /* \"#utility.yul\":16467:16470   */\n      dup10\n        /* \"#utility.yul\":16463:16482   */\n      add\n        /* \"#utility.yul\":16457:16483   */\n      mload\n        /* \"#utility.yul\":16449:16455   */\n      dup3\n        /* \"#utility.yul\":16442:16484   */\n      sstore\n        /* \"#utility.yul\":16523:16524   */\n      0x01\n        /* \"#utility.yul\":16515:16521   */\n      dup3\n        /* \"#utility.yul\":16511:16525   */\n      add\n        /* \"#utility.yul\":16501:16525   */\n      swap2\n      pop\n        /* \"#utility.yul\":16570:16572   */\n      0x20\n        /* \"#utility.yul\":16559:16568   */\n      dup6\n        /* \"#utility.yul\":16555:16573   */\n      add\n        /* \"#utility.yul\":16542:16573   */\n      swap5\n      pop\n        /* \"#utility.yul\":16416:16420   */\n      0x20\n        /* \"#utility.yul\":16413:16414   */\n      dup2\n        /* \"#utility.yul\":16409:16421   */\n      add\n        /* \"#utility.yul\":16404:16421   */\n      swap1\n      pop\n        /* \"#utility.yul\":16379:16587   */\n      jump(tag_427)\n    tag_429:\n        /* \"#utility.yul\":16615:16621   */\n      dup7\n        /* \"#utility.yul\":16606:16613   */\n      dup4\n        /* \"#utility.yul\":16603:16622   */\n      lt\n        /* \"#utility.yul\":16600:16779   */\n      iszero\n      tag_430\n      jumpi\n        /* \"#utility.yul\":16673:16682   */\n      dup5\n        /* \"#utility.yul\":16668:16671   */\n      dup10\n        /* \"#utility.yul\":16664:16683   */\n      add\n        /* \"#utility.yul\":16658:16684   */\n      mload\n        /* \"#utility.yul\":16716:16764   */\n      tag_431\n        /* \"#utility.yul\":16758:16762   */\n      0x1f\n        /* \"#utility.yul\":16750:16756   */\n      dup10\n        /* \"#utility.yul\":16746:16763   */\n      and\n        /* \"#utility.yul\":16735:16744   */\n      dup3\n        /* \"#utility.yul\":16716:16764   */\n      tag_223\n      jump\t// in\n    tag_431:\n        /* \"#utility.yul\":16708:16714   */\n      dup4\n        /* \"#utility.yul\":16701:16765   */\n      sstore\n        /* \"#utility.yul\":16623:16779   */\n      pop\n        /* \"#utility.yul\":16600:16779   */\n    tag_430:\n        /* \"#utility.yul\":16825:16826   */\n      0x01\n        /* \"#utility.yul\":16821:16822   */\n      0x02\n        /* \"#utility.yul\":16813:16819   */\n      dup9\n        /* \"#utility.yul\":16809:16823   */\n      mul\n        /* \"#utility.yul\":16805:16827   */\n      add\n        /* \"#utility.yul\":16799:16803   */\n      dup9\n        /* \"#utility.yul\":16792:16828   */\n      sstore\n        /* \"#utility.yul\":16227:16838   */\n      pop\n      pop\n      pop\n        /* \"#utility.yul\":16190:17077   */\n    tag_422:\n      pop\n        /* \"#utility.yul\":15780:17083   */\n      pop\n      pop\n      pop\n        /* \"#utility.yul\":15688:17083   */\n      pop\n      pop\n      jump\t// out\n        /* \"#utility.yul\":17089:17269   */\n    tag_225:\n        /* \"#utility.yul\":17137:17214   */\n      0x4e487b7100000000000000000000000000000000000000000000000000000000\n        /* \"#utility.yul\":17134:17135   */\n      0x00\n        /* \"#utility.yul\":17127:17215   */\n      mstore\n        /* \"#utility.yul\":17234:17238   */\n      0x11\n        /* \"#utility.yul\":17231:17232   */\n      0x04\n        /* \"#utility.yul\":17224:17239   */\n      mstore\n        /* \"#utility.yul\":17258:17262   */\n      0x24\n        /* \"#utility.yul\":17255:17256   */\n      0x00\n        /* \"#utility.yul\":17248:17263   */\n      revert\n        /* \"#utility.yul\":17275:17469   */\n    tag_157:\n        /* \"#utility.yul\":17315:17319   */\n      0x00\n        /* \"#utility.yul\":17335:17355   */\n      tag_434\n        /* \"#utility.yul\":17353:17354   */\n      dup3\n        /* \"#utility.yul\":17335:17355   */\n      tag_186\n      jump\t// in\n    tag_434:\n        /* \"#utility.yul\":17330:17355   */\n      swap2\n      pop\n        /* \"#utility.yul\":17369:17389   */\n      tag_435\n        /* \"#utility.yul\":17387:17388   */\n      dup4\n        /* \"#utility.yul\":17369:17389   */\n      tag_186\n      jump\t// in\n    tag_435:\n        /* \"#utility.yul\":17364:17389   */\n      swap3\n      pop\n        /* \"#utility.yul\":17413:17414   */\n      dup3\n        /* \"#utility.yul\":17410:17411   */\n      dup3\n        /* \"#utility.yul\":17406:17415   */\n      sub\n        /* \"#utility.yul\":17398:17415   */\n      swap1\n      pop\n        /* \"#utility.yul\":17437:17438   */\n      dup2\n        /* \"#utility.yul\":17431:17435   */\n      dup2\n        /* \"#utility.yul\":17428:17439   */\n      gt\n        /* \"#utility.yul\":17425:17462   */\n      iszero\n      tag_436\n      jumpi\n        /* \"#utility.yul\":17442:17460   */\n      tag_437\n      tag_225\n      jump\t// in\n    tag_437:\n        /* \"#utility.yul\":17425:17462   */\n    tag_436:\n        /* \"#utility.yul\":17275:17469   */\n      swap3\n      swap2\n      pop\n      pop\n      jump\t// out\n        /* \"#utility.yul\":17475:17666   */\n    tag_159:\n        /* \"#utility.yul\":17515:17518   */\n      0x00\n        /* \"#utility.yul\":17534:17554   */\n      tag_439\n        /* \"#utility.yul\":17552:17553   */\n      dup3\n        /* \"#utility.yul\":17534:17554   */\n      tag_186\n      jump\t// in\n    tag_439:\n        /* \"#utility.yul\":17529:17554   */\n      swap2\n      pop\n        /* \"#utility.yul\":17568:17588   */\n      tag_440\n        /* \"#utility.yul\":17586:17587   */\n      dup4\n        /* \"#utility.yul\":17568:17588   */\n      tag_186\n      jump\t// in\n    tag_440:\n        /* \"#utility.yul\":17563:17588   */\n      swap3\n      pop\n        /* \"#utility.yul\":17611:17612   */\n      dup3\n        /* \"#utility.yul\":17608:17609   */\n      dup3\n        /* \"#utility.yul\":17604:17613   */\n      add\n        /* \"#utility.yul\":17597:17613   */\n      swap1\n      pop\n        /* \"#utility.yul\":17632:17635   */\n      dup1\n        /* \"#utility.yul\":17629:17630   */\n      dup3\n        /* \"#utility.yul\":17626:17636   */\n      gt\n        /* \"#utility.yul\":17623:17659   */\n      iszero\n      tag_441\n      jumpi\n        /* \"#utility.yul\":17639:17657   */\n      tag_442\n      tag_225\n      jump\t// in\n    tag_442:\n        /* \"#utility.yul\":17623:17659   */\n    tag_441:\n        /* \"#utility.yul\":17475:17666   */\n      swap3\n      swap2\n      pop\n      pop\n      jump\t// out\n        /* \"#utility.yul\":17672:17770   */\n    tag_226:\n        /* \"#utility.yul\":17723:17729   */\n      0x00\n        /* \"#utility.yul\":17757:17762   */\n      dup2\n        /* \"#utility.yul\":17751:17763   */\n      mload\n        /* \"#utility.yul\":17741:17763   */\n      swap1\n      pop\n        /* \"#utility.yul\":17672:17770   */\n      swap2\n      swap1\n      pop\n      jump\t// out\n        /* \"#utility.yul\":17776:17944   */\n    tag_227:\n        /* \"#utility.yul\":17859:17870   */\n      0x00\n        /* \"#utility.yul\":17893:17899   */\n      dup3\n        /* \"#utility.yul\":17888:17891   */\n      dup3\n        /* \"#utility.yul\":17881:17900   */\n      mstore\n        /* \"#utility.yul\":17933:17937   */\n      0x20\n        /* \"#utility.yul\":17928:17931   */\n      dup3\n        /* \"#utility.yul\":17924:17938   */\n      add\n        /* \"#utility.yul\":17909:17938   */\n      swap1\n      pop\n        /* \"#utility.yul\":17776:17944   */\n      swap3\n      swap2\n      pop\n      pop\n      jump\t// out\n        /* \"#utility.yul\":17950:18323   */\n    tag_228:\n        /* \"#utility.yul\":18036:18039   */\n      0x00\n        /* \"#utility.yul\":18064:18102   */\n      tag_446\n        /* \"#utility.yul\":18096:18101   */\n      dup3\n        /* \"#utility.yul\":18064:18102   */\n      tag_226\n      jump\t// in\n    tag_446:\n        /* \"#utility.yul\":18118:18188   */\n      tag_447\n        /* \"#utility.yul\":18181:18187   */\n      dup2\n        /* \"#utility.yul\":18176:18179   */\n      dup6\n        /* \"#utility.yul\":18118:18188   */\n      tag_227\n      jump\t// in\n    tag_447:\n        /* \"#utility.yul\":18111:18188   */\n      swap4\n      pop\n        /* \"#utility.yul\":18197:18262   */\n      tag_448\n        /* \"#utility.yul\":18255:18261   */\n      dup2\n        /* \"#utility.yul\":18250:18253   */\n      dup6\n        /* \"#utility.yul\":18243:18247   */\n      0x20\n        /* \"#utility.yul\":18236:18241   */\n      dup7\n        /* \"#utility.yul\":18232:18248   */\n      add\n        /* \"#utility.yul\":18197:18262   */\n      tag_183\n      jump\t// in\n    tag_448:\n        /* \"#utility.yul\":18287:18316   */\n      tag_449\n        /* \"#utility.yul\":18309:18315   */\n      dup2\n        /* \"#utility.yul\":18287:18316   */\n      tag_184\n      jump\t// in\n    tag_449:\n        /* \"#utility.yul\":18282:18285   */\n      dup5\n        /* \"#utility.yul\":18278:18317   */\n      add\n        /* \"#utility.yul\":18271:18317   */\n      swap2\n      pop\n        /* \"#utility.yul\":18040:18323   */\n      pop\n        /* \"#utility.yul\":17950:18323   */\n      swap3\n      swap2\n      pop\n      pop\n      jump\t// out\n        /* \"#utility.yul\":18329:18969   */\n    tag_165:\n        /* \"#utility.yul\":18524:18528   */\n      0x00\n        /* \"#utility.yul\":18562:18565   */\n      0x80\n        /* \"#utility.yul\":18551:18560   */\n      dup3\n        /* \"#utility.yul\":18547:18566   */\n      add\n        /* \"#utility.yul\":18539:18566   */\n      swap1\n      pop\n        /* \"#utility.yul\":18576:18647   */\n      tag_451\n        /* \"#utility.yul\":18644:18645   */\n      0x00\n        /* \"#utility.yul\":18633:18642   */\n      dup4\n        /* \"#utility.yul\":18629:18646   */\n      add\n        /* \"#utility.yul\":18620:18626   */\n      dup8\n        /* \"#utility.yul\":18576:18647   */\n      tag_191\n      jump\t// in\n    tag_451:\n        /* \"#utility.yul\":18657:18729   */\n      tag_452\n        /* \"#utility.yul\":18725:18727   */\n      0x20\n        /* \"#utility.yul\":18714:18723   */\n      dup4\n        /* \"#utility.yul\":18710:18728   */\n      add\n        /* \"#utility.yul\":18701:18707   */\n      dup7\n        /* \"#utility.yul\":18657:18729   */\n      tag_191\n      jump\t// in\n    tag_452:\n        /* \"#utility.yul\":18739:18811   */\n      tag_453\n        /* \"#utility.yul\":18807:18809   */\n      0x40\n        /* \"#utility.yul\":18796:18805   */\n      dup4\n        /* \"#utility.yul\":18792:18810   */\n      add\n        /* \"#utility.yul\":18783:18789   */\n      dup6\n        /* \"#utility.yul\":18739:18811   */\n      tag_203\n      jump\t// in\n    tag_453:\n        /* \"#utility.yul\":18858:18867   */\n      dup2\n        /* \"#utility.yul\":18852:18856   */\n      dup2\n        /* \"#utility.yul\":18848:18868   */\n      sub\n        /* \"#utility.yul\":18843:18845   */\n      0x60\n        /* \"#utility.yul\":18832:18841   */\n      dup4\n        /* \"#utility.yul\":18828:18846   */\n      add\n        /* \"#utility.yul\":18821:18869   */\n      mstore\n        /* \"#utility.yul\":18886:18962   */\n      tag_454\n        /* \"#utility.yul\":18957:18961   */\n      dup2\n        /* \"#utility.yul\":18948:18954   */\n      dup5\n        /* \"#utility.yul\":18886:18962   */\n      tag_228\n      jump\t// in\n    tag_454:\n        /* \"#utility.yul\":18878:18962   */\n      swap1\n      pop\n        /* \"#utility.yul\":18329:18969   */\n      swap6\n      swap5\n      pop\n      pop\n      pop\n      pop\n      pop\n      jump\t// out\n        /* \"#utility.yul\":18975:19116   */\n    tag_229:\n        /* \"#utility.yul\":19031:19036   */\n      0x00\n        /* \"#utility.yul\":19062:19068   */\n      dup2\n        /* \"#utility.yul\":19056:19069   */\n      mload\n        /* \"#utility.yul\":19047:19069   */\n      swap1\n      pop\n        /* \"#utility.yul\":19078:19110   */\n      tag_456\n        /* \"#utility.yul\":19104:19109   */\n      dup2\n        /* \"#utility.yul\":19078:19110   */\n      tag_177\n      jump\t// in\n    tag_456:\n        /* \"#utility.yul\":18975:19116   */\n      swap3\n      swap2\n      pop\n      pop\n      jump\t// out\n        /* \"#utility.yul\":19122:19471   */\n    tag_169:\n        /* \"#utility.yul\":19191:19197   */\n      0x00\n        /* \"#utility.yul\":19240:19242   */\n      0x20\n        /* \"#utility.yul\":19228:19237   */\n      dup3\n        /* \"#utility.yul\":19219:19226   */\n      dup5\n        /* \"#utility.yul\":19215:19238   */\n      sub\n        /* \"#utility.yul\":19211:19243   */\n      slt\n        /* \"#utility.yul\":19208:19327   */\n      iszero\n      tag_458\n      jumpi\n        /* \"#utility.yul\":19246:19325   */\n      tag_459\n      tag_174\n      jump\t// in\n    tag_459:\n        /* \"#utility.yul\":19208:19327   */\n    tag_458:\n        /* \"#utility.yul\":19366:19367   */\n      0x00\n        /* \"#utility.yul\":19391:19454   */\n      tag_460\n        /* \"#utility.yul\":19446:19453   */\n      dup5\n        /* \"#utility.yul\":19437:19443   */\n      dup3\n        /* \"#utility.yul\":19426:19435   */\n      dup6\n        /* \"#utility.yul\":19422:19444   */\n      add\n        /* \"#utility.yul\":19391:19454   */\n      tag_229\n      jump\t// in\n    tag_460:\n        /* \"#utility.yul\":19381:19454   */\n      swap2\n      pop\n        /* \"#utility.yul\":19337:19464   */\n      pop\n        /* \"#utility.yul\":19122:19471   */\n      swap3\n      swap2\n      pop\n      pop\n      jump\t// out\n\n    auxdata: 0xa26469706673582212205c680167e5c48694eb77e4512bdb652d9e66e4a9a38225bf67ecf33a20a462a564736f6c63430008120033\n}\n",
				"bytecode": {
					"linkReferences": {},
					"object": "60806040523480156200001157600080fd5b506040516200218f3803806200218f8339818101604052810190620000379190620002dd565b6200004f6301ffc9a760e01b620000ab60201b60201c565b620000676380ac58cd60e01b620000ab60201b60201c565b8160059081620000789190620005ad565b5080600690816200008a9190620005ad565b50620000a3635b5e139f60e01b620000ab60201b60201c565b505062000694565b63ffffffff60e01b817bffffffffffffffffffffffffffffffffffffffffffffffffffffffff191603620000de57600080fd5b6001600080837bffffffffffffffffffffffffffffffffffffffffffffffffffffffff19167bffffffffffffffffffffffffffffffffffffffffffffffffffffffff1916815260200190815260200160002060006101000a81548160ff02191690831515021790555050565b6000604051905090565b600080fd5b600080fd5b600080fd5b600080fd5b6000601f19601f8301169050919050565b7f4e487b7100000000000000000000000000000000000000000000000000000000600052604160045260246000fd5b620001b38262000168565b810181811067ffffffffffffffff82111715620001d557620001d462000179565b5b80604052505050565b6000620001ea6200014a565b9050620001f88282620001a8565b919050565b600067ffffffffffffffff8211156200021b576200021a62000179565b5b620002268262000168565b9050602081019050919050565b60005b838110156200025357808201518184015260208101905062000236565b60008484015250505050565b6000620002766200027084620001fd565b620001de565b90508281526020810184848401111562000295576200029462000163565b5b620002a284828562000233565b509392505050565b600082601f830112620002c257620002c16200015e565b5b8151620002d48482602086016200025f565b91505092915050565b60008060408385031215620002f757620002f662000154565b5b600083015167ffffffffffffffff81111562000318576200031762000159565b5b6200032685828601620002aa565b925050602083015167ffffffffffffffff8111156200034a576200034962000159565b5b6200035885828601620002aa565b9150509250929050565b600081519050919050565b7f4e487b7100000000000000000000000000000000000000000000000000000000600052602260045260246000fd5b60006002820490506001821680620003b557607f821691505b602082108103620003cb57620003ca6200036d565b5b50919050565b60008190508160005260206000209050919050565b60006020601f8301049050919050565b600082821b905092915050565b600060088302620004357fffffffffffffffffffffffffffffffffffffffffffffffffffffffffffffffff82620003f6565b620004418683620003f6565b95508019841693508086168417925050509392505050565b6000819050919050565b6000819050919050565b60006200048e62000488620004828462000459565b62000463565b62000459565b9050919050565b6000819050919050565b620004aa836200046d565b620004c2620004b98262000495565b84845462000403565b825550505050565b600090565b620004d9620004ca565b620004e68184846200049f565b505050565b5b818110156200050e5762000502600082620004cf565b600181019050620004ec565b5050565b601f8211156200055d576200052781620003d1565b6200053284620003e6565b8101602085101562000542578190505b6200055a6200055185620003e6565b830182620004eb565b50505b505050565b600082821c905092915050565b6000620005826000198460080262000562565b1980831691505092915050565b60006200059d83836200056f565b9150826002028217905092915050565b620005b88262000362565b67ffffffffffffffff811115620005d457620005d362000179565b5b620005e082546200039c565b620005ed82828562000512565b600060209050601f83116001811462000625576000841562000610578287015190505b6200061c85826200058f565b8655506200068c565b601f1984166200063586620003d1565b60005b828110156200065f5784890151825560018201915060208501945060208101905062000638565b868310156200067f57848901516200067b601f8916826200056f565b8355505b6001600288020188555050505b505050505050565b611aeb80620006a46000396000f3fe608060405234801561001057600080fd5b50600436106100f55760003560e01c80634cdc954911610097578063a22cb46511610066578063a22cb46514610296578063b88d4fde146102b2578063c87b56dd146102ce578063e985e9c5146102fe576100f5565b80634cdc9549146101e85780636352211e1461021857806370a082311461024857806395d89b4114610278576100f5565b8063095ea7b3116100d3578063095ea7b314610178578063162094c41461019457806323b872dd146101b057806342842e0e146101cc576100f5565b806301ffc9a7146100fa57806306fdde031461012a578063081812fc14610148575b600080fd5b610114600480360381019061010f9190611012565b61032e565b604051610121919061105a565b60405180910390f35b610132610395565b60405161013f9190611105565b60405180910390f35b610162600480360381019061015d919061115d565b610427565b60405161016f91906111cb565b60405180910390f35b610192600480360381019061018d9190611212565b610476565b005b6101ae60048036038101906101a99190611387565b6105b6565b005b6101ca60048036038101906101c591906113e3565b6105ed565b005b6101e660048036038101906101e191906113e3565b610610565b005b61020260048036038101906101fd9190611212565b610630565b60405161020f919061105a565b60405180910390f35b610232600480360381019061022d919061115d565b6106c5565b60405161023f91906111cb565b60405180910390f35b610262600480360381019061025d9190611436565b610740565b60405161026f9190611472565b60405180910390f35b6102806107c1565b60405161028d9190611105565b60405180910390f35b6102b060048036038101906102ab91906114b9565b610853565b005b6102cc60048036038101906102c7919061159a565b610988565b005b6102e860048036038101906102e3919061115d565b6109ae565b6040516102f59190611105565b60405180910390f35b6103186004803603810190610313919061161d565b610a65565b604051610325919061105a565b60405180910390f35b6000806000837bffffffffffffffffffffffffffffffffffffffffffffffffffffffff19167bffffffffffffffffffffffffffffffffffffffffffffffffffffffff1916815260200190815260200160002060009054906101000a900460ff169050919050565b6060600580546103a49061168c565b80601f01602080910402602001604051908101604052809291908181526020018280546103d09061168c565b801561041d5780601f106103f25761010080835404028352916020019161041d565b820191906000526020600020905b81548152906001019060200180831161040057829003601f168201915b5050505050905090565b600061043282610af9565b61043b57600080fd5b6003600083815260200190815260200160002060009054906101000a900473ffffffffffffffffffffffffffffffffffffffff169050919050565b6000610481826106c5565b90508273ffffffffffffffffffffffffffffffffffffffff168173ffffffffffffffffffffffffffffffffffffffff16036104bb57600080fd5b8073ffffffffffffffffffffffffffffffffffffffff163373ffffffffffffffffffffffffffffffffffffffff1614806104fb57506104fa8133610a65565b5b61050457600080fd5b826003600084815260200190815260200160002060006101000a81548173ffffffffffffffffffffffffffffffffffffffff021916908373ffffffffffffffffffffffffffffffffffffffff160217905550818373ffffffffffffffffffffffffffffffffffffffff168273ffffffffffffffffffffffffffffffffffffffff167f8c5be1e5ebec7d5bd14f71427d1e84f3dd0314c0f7b2291e5b200ac8c7c3b92560405160405180910390a4505050565b6105bf82610af9565b6105c857600080fd5b806007600084815260200190815260200160002090816105e89190611869565b505050565b6105f73382610630565b61060057600080fd5b61060b838383610b6b565b505050565b61062b83838360405180602001604052806000815250610988565b505050565b60008061063c836106c5565b90508073ffffffffffffffffffffffffffffffffffffffff168473ffffffffffffffffffffffffffffffffffffffff1614806106ab57508373ffffffffffffffffffffffffffffffffffffffff1661069384610427565b73ffffffffffffffffffffffffffffffffffffffff16145b806106bc57506106bb8482610a65565b5b91505092915050565b6000806001600084815260200190815260200160002060009054906101000a900473ffffffffffffffffffffffffffffffffffffffff169050600073ffffffffffffffffffffffffffffffffffffffff168173ffffffffffffffffffffffffffffffffffffffff160361073757600080fd5b80915050919050565b60008073ffffffffffffffffffffffffffffffffffffffff168273ffffffffffffffffffffffffffffffffffffffff160361077a57600080fd5b600260008373ffffffffffffffffffffffffffffffffffffffff1673ffffffffffffffffffffffffffffffffffffffff168152602001908152602001600020549050919050565b6060600680546107d09061168c565b80601f01602080910402602001604051908101604052809291908181526020018280546107fc9061168c565b80156108495780601f1061081e57610100808354040283529160200191610849565b820191906000526020600020905b81548152906001019060200180831161082c57829003601f168201915b5050505050905090565b3373ffffffffffffffffffffffffffffffffffffffff168273ffffffffffffffffffffffffffffffffffffffff160361088b57600080fd5b80600460003373ffffffffffffffffffffffffffffffffffffffff1673ffffffffffffffffffffffffffffffffffffffff16815260200190815260200160002060008473ffffffffffffffffffffffffffffffffffffffff1673ffffffffffffffffffffffffffffffffffffffff16815260200190815260200160002060006101000a81548160ff0219169083151502179055508173ffffffffffffffffffffffffffffffffffffffff163373ffffffffffffffffffffffffffffffffffffffff167f17307eab39ab6107e8899845ad3d59bd9653f200f220920489ca2b5937696c318360405161097c919061105a565b60405180910390a35050565b6109938385846105ed565b61099f84848484610dbd565b6109a857600080fd5b50505050565b60606109b982610af9565b6109c257600080fd5b6007600083815260200190815260200160002080546109e09061168c565b80601f0160208091040260200160405190810160405280929190818152602001828054610a0c9061168c565b8015610a595780601f10610a2e57610100808354040283529160200191610a59565b820191906000526020600020905b815481529060010190602001808311610a3c57829003601f168201915b50505050509050919050565b6000600460008473ffffffffffffffffffffffffffffffffffffffff1673ffffffffffffffffffffffffffffffffffffffff16815260200190815260200160002060008373ffffffffffffffffffffffffffffffffffffffff1673ffffffffffffffffffffffffffffffffffffffff16815260200190815260200160002060009054906101000a900460ff16905092915050565b6000806001600084815260200190815260200160002060009054906101000a900473ffffffffffffffffffffffffffffffffffffffff169050600073ffffffffffffffffffffffffffffffffffffffff168173ffffffffffffffffffffffffffffffffffffffff161415915050919050565b610b74816106c5565b73ffffffffffffffffffffffffffffffffffffffff168373ffffffffffffffffffffffffffffffffffffffff1614610bab57600080fd5b600073ffffffffffffffffffffffffffffffffffffffff168273ffffffffffffffffffffffffffffffffffffffff1603610be457600080fd5b610bed81610ec5565b6001600260008573ffffffffffffffffffffffffffffffffffffffff1673ffffffffffffffffffffffffffffffffffffffff16815260200190815260200160002054610c39919061196a565b600260008573ffffffffffffffffffffffffffffffffffffffff1673ffffffffffffffffffffffffffffffffffffffff168152602001908152602001600020819055506001600260008473ffffffffffffffffffffffffffffffffffffffff1673ffffffffffffffffffffffffffffffffffffffff16815260200190815260200160002054610cc8919061199e565b600260008473ffffffffffffffffffffffffffffffffffffffff1673ffffffffffffffffffffffffffffffffffffffff16815260200190815260200160002081905550816001600083815260200190815260200160002060006101000a81548173ffffffffffffffffffffffffffffffffffffffff021916908373ffffffffffffffffffffffffffffffffffffffff160217905550808273ffffffffffffffffffffffffffffffffffffffff168473ffffffffffffffffffffffffffffffffffffffff167fddf252ad1be2c89b69c2b068fc378daa952ba7f163c4a11628f55a4df523b3ef60405160405180910390a4505050565b6000610dde8473ffffffffffffffffffffffffffffffffffffffff16610f83565b610deb5760019050610ebd565b60008473ffffffffffffffffffffffffffffffffffffffff1663150b7a02338887876040518563ffffffff1660e01b8152600401610e2c9493929190611a27565b6020604051808303816000875af1158015610e4b573d6000803e3d6000fd5b505050506040513d601f19601f82011682018060405250810190610e6f9190611a88565b905063150b7a0260e01b7bffffffffffffffffffffffffffffffffffffffffffffffffffffffff1916817bffffffffffffffffffffffffffffffffffffffffffffffffffffffff1916149150505b949350505050565b600073ffffffffffffffffffffffffffffffffffffffff166003600083815260200190815260200160002060009054906101000a900473ffffffffffffffffffffffffffffffffffffffff1673ffffffffffffffffffffffffffffffffffffffff1614610f805760006003600083815260200190815260200160002060006101000a81548173ffffffffffffffffffffffffffffffffffffffff021916908373ffffffffffffffffffffffffffffffffffffffff1602179055505b50565b6000808273ffffffffffffffffffffffffffffffffffffffff163b119050919050565b6000604051905090565b600080fd5b600080fd5b60007fffffffff0000000000000000000000000000000000000000000000000000000082169050919050565b610fef81610fba565b8114610ffa57600080fd5b50565b60008135905061100c81610fe6565b92915050565b60006020828403121561102857611027610fb0565b5b600061103684828501610ffd565b91505092915050565b60008115159050919050565b6110548161103f565b82525050565b600060208201905061106f600083018461104b565b92915050565b600081519050919050565b600082825260208201905092915050565b60005b838110156110af578082015181840152602081019050611094565b60008484015250505050565b6000601f19601f8301169050919050565b60006110d782611075565b6110e18185611080565b93506110f1818560208601611091565b6110fa816110bb565b840191505092915050565b6000602082019050818103600083015261111f81846110cc565b905092915050565b6000819050919050565b61113a81611127565b811461114557600080fd5b50565b60008135905061115781611131565b92915050565b60006020828403121561117357611172610fb0565b5b600061118184828501611148565b91505092915050565b600073ffffffffffffffffffffffffffffffffffffffff82169050919050565b60006111b58261118a565b9050919050565b6111c5816111aa565b82525050565b60006020820190506111e060008301846111bc565b92915050565b6111ef816111aa565b81146111fa57600080fd5b50565b60008135905061120c816111e6565b92915050565b6000806040838503121561122957611228610fb0565b5b6000611237858286016111fd565b925050602061124885828601611148565b9150509250929050565b600080fd5b600080fd5b7f4e487b7100000000000000000000000000000000000000000000000000000000600052604160045260246000fd5b611294826110bb565b810181811067ffffffffffffffff821117156112b3576112b261125c565b5b80604052505050565b60006112c6610fa6565b90506112d2828261128b565b919050565b600067ffffffffffffffff8211156112f2576112f161125c565b5b6112fb826110bb565b9050602081019050919050565b82818337600083830152505050565b600061132a611325846112d7565b6112bc565b90508281526020810184848401111561134657611345611257565b5b611351848285611308565b509392505050565b600082601f83011261136e5761136d611252565b5b813561137e848260208601611317565b91505092915050565b6000806040838503121561139e5761139d610fb0565b5b60006113ac85828601611148565b925050602083013567ffffffffffffffff8111156113cd576113cc610fb5565b5b6113d985828601611359565b9150509250929050565b6000806000606084860312156113fc576113fb610fb0565b5b600061140a868287016111fd565b935050602061141b868287016111fd565b925050604061142c86828701611148565b9150509250925092565b60006020828403121561144c5761144b610fb0565b5b600061145a848285016111fd565b91505092915050565b61146c81611127565b82525050565b60006020820190506114876000830184611463565b92915050565b6114968161103f565b81146114a157600080fd5b50565b6000813590506114b38161148d565b92915050565b600080604083850312156114d0576114cf610fb0565b5b60006114de858286016111fd565b92505060206114ef858286016114a4565b9150509250929050565b600067ffffffffffffffff8211156115145761151361125c565b5b61151d826110bb565b9050602081019050919050565b600061153d611538846114f9565b6112bc565b90508281526020810184848401111561155957611558611257565b5b611564848285611308565b509392505050565b600082601f83011261158157611580611252565b5b813561159184826020860161152a565b91505092915050565b600080600080608085870312156115b4576115b3610fb0565b5b60006115c2878288016111fd565b94505060206115d3878288016111fd565b93505060406115e487828801611148565b925050606085013567ffffffffffffffff81111561160557611604610fb5565b5b6116118782880161156c565b91505092959194509250565b6000806040838503121561163457611633610fb0565b5b6000611642858286016111fd565b9250506020611653858286016111fd565b9150509250929050565b7f4e487b7100000000000000000000000000000000000000000000000000000000600052602260045260246000fd5b600060028204905060018216806116a457607f821691505b6020821081036116b7576116b661165d565b5b50919050565b60008190508160005260206000209050919050565b60006020601f8301049050919050565b600082821b905092915050565b60006008830261171f7fffffffffffffffffffffffffffffffffffffffffffffffffffffffffffffffff826116e2565b61172986836116e2565b95508019841693508086168417925050509392505050565b6000819050919050565b600061176661176161175c84611127565b611741565b611127565b9050919050565b6000819050919050565b6117808361174b565b61179461178c8261176d565b8484546116ef565b825550505050565b600090565b6117a961179c565b6117b4818484611777565b505050565b5b818110156117d8576117cd6000826117a1565b6001810190506117ba565b5050565b601f82111561181d576117ee816116bd565b6117f7846116d2565b81016020851015611806578190505b61181a611812856116d2565b8301826117b9565b50505b505050565b600082821c905092915050565b600061184060001984600802611822565b1980831691505092915050565b6000611859838361182f565b9150826002028217905092915050565b61187282611075565b67ffffffffffffffff81111561188b5761188a61125c565b5b611895825461168c565b6118a08282856117dc565b600060209050601f8311600181146118d357600084156118c1578287015190505b6118cb858261184d565b865550611933565b601f1984166118e1866116bd565b60005b82811015611909578489015182556001820191506020850194506020810190506118e4565b868310156119265784890151611922601f89168261182f565b8355505b6001600288020188555050505b505050505050565b7f4e487b7100000000000000000000000000000000000000000000000000000000600052601160045260246000fd5b600061197582611127565b915061198083611127565b92508282039050818111156119985761199761193b565b5b92915050565b60006119a982611127565b91506119b483611127565b92508282019050808211156119cc576119cb61193b565b5b92915050565b600081519050919050565b600082825260208201905092915050565b60006119f9826119d2565b611a0381856119dd565b9350611a13818560208601611091565b611a1c816110bb565b840191505092915050565b6000608082019050611a3c60008301876111bc565b611a4960208301866111bc565b611a566040830185611463565b8181036060830152611a6881846119ee565b905095945050505050565b600081519050611a8281610fe6565b92915050565b600060208284031215611a9e57611a9d610fb0565b5b6000611aac84828501611a73565b9150509291505056fea26469706673582212205c680167e5c48694eb77e4512bdb652d9e66e4a9a38225bf67ecf33a20a462a564736f6c63430008120033",
					"opcodes": "PUSH1 0x80 PUSH1 0x40 MSTORE CALLVALUE DUP1 ISZERO PUSH3 0x11 JUMPI PUSH1 0x0 DUP1 REVERT JUMPDEST POP PUSH1 0x40 MLOAD PUSH3 0x218F CODESIZE SUB DUP1 PUSH3 0x218F DUP4 CODECOPY DUP2 DUP2 ADD PUSH1 0x40 MSTORE DUP2 ADD SWAP1 PUSH3 0x37 SWAP2 SWAP1 PUSH3 0x2DD JUMP JUMPDEST PUSH3 0x4F PUSH4 0x1FFC9A7 PUSH1 0xE0 SHL PUSH3 0xAB PUSH1 0x20 SHL PUSH1 0x20 SHR JUMP JUMPDEST PUSH3 0x67 PUSH4 0x80AC58CD PUSH1 0xE0 SHL PUSH3 0xAB PUSH1 0x20 SHL PUSH1 0x20 SHR JUMP JUMPDEST DUP2 PUSH1 0x5 SWAP1 DUP2 PUSH3 0x78 SWAP2 SWAP1 PUSH3 0x5AD JUMP JUMPDEST POP DUP1 PUSH1 0x6 SWAP1 DUP2 PUSH3 0x8A SWAP2 SWAP1 PUSH3 0x5AD JUMP JUMPDEST POP PUSH3 0xA3 PUSH4 0x5B5E139F PUSH1 0xE0 SHL PUSH3 0xAB PUSH1 0x20 SHL PUSH1 0x20 SHR JUMP JUMPDEST POP POP PUSH3 0x694 JUMP JUMPDEST PUSH4 0xFFFFFFFF PUSH1 0xE0 SHL DUP2 PUSH28 0xFFFFFFFFFFFFFFFFFFFFFFFFFFFFFFFFFFFFFFFFFFFFFFFFFFFFFFFF NOT AND SUB PUSH3 0xDE JUMPI PUSH1 0x0 DUP1 REVERT JUMPDEST PUSH1 0x1 PUSH1 0x0 DUP1 DUP4 PUSH28 0xFFFFFFFFFFFFFFFFFFFFFFFFFFFFFFFFFFFFFFFFFFFFFFFFFFFFFFFF NOT AND PUSH28 0xFFFFFFFFFFFFFFFFFFFFFFFFFFFFFFFFFFFFFFFFFFFFFFFFFFFFFFFF NOT AND DUP2 MSTORE PUSH1 0x20 ADD SWAP1 DUP2 MSTORE PUSH1 0x20 ADD PUSH1 0x0 KECCAK256 PUSH1 0x0 PUSH2 0x100 EXP DUP2 SLOAD DUP2 PUSH1 0xFF MUL NOT AND SWAP1 DUP4 ISZERO ISZERO MUL OR SWAP1 SSTORE POP POP JUMP JUMPDEST PUSH1 0x0 PUSH1 0x40 MLOAD SWAP1 POP SWAP1 JUMP JUMPDEST PUSH1 0x0 DUP1 REVERT JUMPDEST PUSH1 0x0 DUP1 REVERT JUMPDEST PUSH1 0x0 DUP1 REVERT JUMPDEST PUSH1 0x0 DUP1 REVERT JUMPDEST PUSH1 0x0 PUSH1 0x1F NOT PUSH1 0x1F DUP4 ADD AND SWAP1 POP SWAP2 SWAP1 POP JUMP JUMPDEST PUSH32 0x4E487B7100000000000000000000000000000000000000000000000000000000 PUSH1 0x0 MSTORE PUSH1 0x41 PUSH1 0x4 MSTORE PUSH1 0x24 PUSH1 0x0 REVERT JUMPDEST PUSH3 0x1B3 DUP3 PUSH3 0x168 JUMP JUMPDEST DUP2 ADD DUP2 DUP2 LT PUSH8 0xFFFFFFFFFFFFFFFF DUP3 GT OR ISZERO PUSH3 0x1D5 JUMPI PUSH3 0x1D4 PUSH3 0x179 JUMP JUMPDEST JUMPDEST DUP1 PUSH1 0x40 MSTORE POP POP POP JUMP JUMPDEST PUSH1 0x0 PUSH3 0x1EA PUSH3 0x14A JUMP JUMPDEST SWAP1 POP PUSH3 0x1F8 DUP3 DUP3 PUSH3 0x1A8 JUMP JUMPDEST SWAP2 SWAP1 POP JUMP JUMPDEST PUSH1 0x0 PUSH8 0xFFFFFFFFFFFFFFFF DUP3 GT ISZERO PUSH3 0x21B JUMPI PUSH3 0x21A PUSH3 0x179 JUMP JUMPDEST JUMPDEST PUSH3 0x226 DUP3 PUSH3 0x168 JUMP JUMPDEST SWAP1 POP PUSH1 0x20 DUP2 ADD SWAP1 POP SWAP2 SWAP1 POP JUMP JUMPDEST PUSH1 0x0 JUMPDEST DUP4 DUP2 LT ISZERO PUSH3 0x253 JUMPI DUP1 DUP3 ADD MLOAD DUP2 DUP5 ADD MSTORE PUSH1 0x20 DUP2 ADD SWAP1 POP PUSH3 0x236 JUMP JUMPDEST PUSH1 0x0 DUP5 DUP5 ADD MSTORE POP POP POP POP JUMP JUMPDEST PUSH1 0x0 PUSH3 0x276 PUSH3 0x270 DUP5 PUSH3 0x1FD JUMP JUMPDEST PUSH3 0x1DE JUMP JUMPDEST SWAP1 POP DUP3 DUP2 MSTORE PUSH1 0x20 DUP2 ADD DUP5 DUP5 DUP5 ADD GT ISZERO PUSH3 0x295 JUMPI PUSH3 0x294 PUSH3 0x163 JUMP JUMPDEST JUMPDEST PUSH3 0x2A2 DUP5 DUP3 DUP6 PUSH3 0x233 JUMP JUMPDEST POP SWAP4 SWAP3 POP POP POP JUMP JUMPDEST PUSH1 0x0 DUP3 PUSH1 0x1F DUP4 ADD SLT PUSH3 0x2C2 JUMPI PUSH3 0x2C1 PUSH3 0x15E JUMP JUMPDEST JUMPDEST DUP2 MLOAD PUSH3 0x2D4 DUP5 DUP3 PUSH1 0x20 DUP7 ADD PUSH3 0x25F JUMP JUMPDEST SWAP2 POP POP SWAP3 SWAP2 POP POP JUMP JUMPDEST PUSH1 0x0 DUP1 PUSH1 0x40 DUP4 DUP6 SUB SLT ISZERO PUSH3 0x2F7 JUMPI PUSH3 0x2F6 PUSH3 0x154 JUMP JUMPDEST JUMPDEST PUSH1 0x0 DUP4 ADD MLOAD PUSH8 0xFFFFFFFFFFFFFFFF DUP2 GT ISZERO PUSH3 0x318 JUMPI PUSH3 0x317 PUSH3 0x159 JUMP JUMPDEST JUMPDEST PUSH3 0x326 DUP6 DUP3 DUP7 ADD PUSH3 0x2AA JUMP JUMPDEST SWAP3 POP POP PUSH1 0x20 DUP4 ADD MLOAD PUSH8 0xFFFFFFFFFFFFFFFF DUP2 GT ISZERO PUSH3 0x34A JUMPI PUSH3 0x349 PUSH3 0x159 JUMP JUMPDEST JUMPDEST PUSH3 0x358 DUP6 DUP3 DUP7 ADD PUSH3 0x2AA JUMP JUMPDEST SWAP2 POP POP SWAP3 POP SWAP3 SWAP1 POP JUMP JUMPDEST PUSH1 0x0 DUP2 MLOAD SWAP1 POP SWAP2 SWAP1 POP JUMP JUMPDEST PUSH32 0x4E487B7100000000000000000000000000000000000000000000000000000000 PUSH1 0x0 MSTORE PUSH1 0x22 PUSH1 0x4 MSTORE PUSH1 0x24 PUSH1 0x0 REVERT JUMPDEST PUSH1 0x0 PUSH1 0x2 DUP3 DIV SWAP1 POP PUSH1 0x1 DUP3 AND DUP1 PUSH3 0x3B5 JUMPI PUSH1 0x7F DUP3 AND SWAP2 POP JUMPDEST PUSH1 0x20 DUP3 LT DUP2 SUB PUSH3 0x3CB JUMPI PUSH3 0x3CA PUSH3 0x36D JUMP JUMPDEST JUMPDEST POP SWAP2 SWAP1 POP JUMP JUMPDEST PUSH1 0x0 DUP2 SWAP1 POP DUP2 PUSH1 0x0 MSTORE PUSH1 0x20 PUSH1 0x0 KECCAK256 SWAP1 POP SWAP2 SWAP1 POP JUMP JUMPDEST PUSH1 0x0 PUSH1 0x20 PUSH1 0x1F DUP4 ADD DIV SWAP1 POP SWAP2 SWAP1 POP JUMP JUMPDEST PUSH1 0x0 DUP3 DUP3 SHL SWAP1 POP SWAP3 SWAP2 POP POP JUMP JUMPDEST PUSH1 0x0 PUSH1 0x8 DUP4 MUL PUSH3 0x435 PUSH32 0xFFFFFFFFFFFFFFFFFFFFFFFFFFFFFFFFFFFFFFFFFFFFFFFFFFFFFFFFFFFFFFFF DUP3 PUSH3 0x3F6 JUMP JUMPDEST PUSH3 0x441 DUP7 DUP4 PUSH3 0x3F6 JUMP JUMPDEST SWAP6 POP DUP1 NOT DUP5 AND SWAP4 POP DUP1 DUP7 AND DUP5 OR SWAP3 POP POP POP SWAP4 SWAP3 POP POP POP JUMP JUMPDEST PUSH1 0x0 DUP2 SWAP1 POP SWAP2 SWAP1 POP JUMP JUMPDEST PUSH1 0x0 DUP2 SWAP1 POP SWAP2 SWAP1 POP JUMP JUMPDEST PUSH1 0x0 PUSH3 0x48E PUSH3 0x488 PUSH3 0x482 DUP5 PUSH3 0x459 JUMP JUMPDEST PUSH3 0x463 JUMP JUMPDEST PUSH3 0x459 JUMP JUMPDEST SWAP1 POP SWAP2 SWAP1 POP JUMP JUMPDEST PUSH1 0x0 DUP2 SWAP1 POP SWAP2 SWAP1 POP JUMP JUMPDEST PUSH3 0x4AA DUP4 PUSH3 0x46D JUMP JUMPDEST PUSH3 0x4C2 PUSH3 0x4B9 DUP3 PUSH3 0x495 JUMP JUMPDEST DUP5 DUP5 SLOAD PUSH3 0x403 JUMP JUMPDEST DUP3 SSTORE POP POP POP POP JUMP JUMPDEST PUSH1 0x0 SWAP1 JUMP JUMPDEST PUSH3 0x4D9 PUSH3 0x4CA JUMP JUMPDEST PUSH3 0x4E6 DUP2 DUP5 DUP5 PUSH3 0x49F JUMP JUMPDEST POP POP POP JUMP JUMPDEST JUMPDEST DUP2 DUP2 LT ISZERO PUSH3 0x50E JUMPI PUSH3 0x502 PUSH1 0x0 DUP3 PUSH3 0x4CF JUMP JUMPDEST PUSH1 0x1 DUP2 ADD SWAP1 POP PUSH3 0x4EC JUMP JUMPDEST POP POP JUMP JUMPDEST PUSH1 0x1F DUP3 GT ISZERO PUSH3 0x55D JUMPI PUSH3 0x527 DUP2 PUSH3 0x3D1 JUMP JUMPDEST PUSH3 0x532 DUP5 PUSH3 0x3E6 JUMP JUMPDEST DUP2 ADD PUSH1 0x20 DUP6 LT ISZERO PUSH3 0x542 JUMPI DUP2 SWAP1 POP JUMPDEST PUSH3 0x55A PUSH3 0x551 DUP6 PUSH3 0x3E6 JUMP JUMPDEST DUP4 ADD DUP3 PUSH3 0x4EB JUMP JUMPDEST POP POP JUMPDEST POP POP POP JUMP JUMPDEST PUSH1 0x0 DUP3 DUP3 SHR SWAP1 POP SWAP3 SWAP2 POP POP JUMP JUMPDEST PUSH1 0x0 PUSH3 0x582 PUSH1 0x0 NOT DUP5 PUSH1 0x8 MUL PUSH3 0x562 JUMP JUMPDEST NOT DUP1 DUP4 AND SWAP2 POP POP SWAP3 SWAP2 POP POP JUMP JUMPDEST PUSH1 0x0 PUSH3 0x59D DUP4 DUP4 PUSH3 0x56F JUMP JUMPDEST SWAP2 POP DUP3 PUSH1 0x2 MUL DUP3 OR SWAP1 POP SWAP3 SWAP2 POP POP JUMP JUMPDEST PUSH3 0x5B8 DUP3 PUSH3 0x362 JUMP JUMPDEST PUSH8 0xFFFFFFFFFFFFFFFF DUP2 GT ISZERO PUSH3 0x5D4 JUMPI PUSH3 0x5D3 PUSH3 0x179 JUMP JUMPDEST JUMPDEST PUSH3 0x5E0 DUP3 SLOAD PUSH3 0x39C JUMP JUMPDEST PUSH3 0x5ED DUP3 DUP3 DUP6 PUSH3 0x512 JUMP JUMPDEST PUSH1 0x0 PUSH1 0x20 SWAP1 POP PUSH1 0x1F DUP4 GT PUSH1 0x1 DUP2 EQ PUSH3 0x625 JUMPI PUSH1 0x0 DUP5 ISZERO PUSH3 0x610 JUMPI DUP3 DUP8 ADD MLOAD SWAP1 POP JUMPDEST PUSH3 0x61C DUP6 DUP3 PUSH3 0x58F JUMP JUMPDEST DUP7 SSTORE POP PUSH3 0x68C JUMP JUMPDEST PUSH1 0x1F NOT DUP5 AND PUSH3 0x635 DUP7 PUSH3 0x3D1 JUMP JUMPDEST PUSH1 0x0 JUMPDEST DUP3 DUP2 LT ISZERO PUSH3 0x65F JUMPI DUP5 DUP10 ADD MLOAD DUP3 SSTORE PUSH1 0x1 DUP3 ADD SWAP2 POP PUSH1 0x20 DUP6 ADD SWAP5 POP PUSH1 0x20 DUP2 ADD SWAP1 POP PUSH3 0x638 JUMP JUMPDEST DUP7 DUP4 LT ISZERO PUSH3 0x67F JUMPI DUP5 DUP10 ADD MLOAD PUSH3 0x67B PUSH1 0x1F DUP10 AND DUP3 PUSH3 0x56F JUMP JUMPDEST DUP4 SSTORE POP JUMPDEST PUSH1 0x1 PUSH1 0x2 DUP9 MUL ADD DUP9 SSTORE POP POP POP JUMPDEST POP POP POP POP POP POP JUMP JUMPDEST PUSH2 0x1AEB DUP1 PUSH3 0x6A4 PUSH1 0x0 CODECOPY PUSH1 0x0 RETURN INVALID PUSH1 0x80 PUSH1 0x40 MSTORE CALLVALUE DUP1 ISZERO PUSH2 0x10 JUMPI PUSH1 0x0 DUP1 REVERT JUMPDEST POP PUSH1 0x4 CALLDATASIZE LT PUSH2 0xF5 JUMPI PUSH1 0x0 CALLDATALOAD PUSH1 0xE0 SHR DUP1 PUSH4 0x4CDC9549 GT PUSH2 0x97 JUMPI DUP1 PUSH4 0xA22CB465 GT PUSH2 0x66 JUMPI DUP1 PUSH4 0xA22CB465 EQ PUSH2 0x296 JUMPI DUP1 PUSH4 0xB88D4FDE EQ PUSH2 0x2B2 JUMPI DUP1 PUSH4 0xC87B56DD EQ PUSH2 0x2CE JUMPI DUP1 PUSH4 0xE985E9C5 EQ PUSH2 0x2FE JUMPI PUSH2 0xF5 JUMP JUMPDEST DUP1 PUSH4 0x4CDC9549 EQ PUSH2 0x1E8 JUMPI DUP1 PUSH4 0x6352211E EQ PUSH2 0x218 JUMPI DUP1 PUSH4 0x70A08231 EQ PUSH2 0x248 JUMPI DUP1 PUSH4 0x95D89B41 EQ PUSH2 0x278 JUMPI PUSH2 0xF5 JUMP JUMPDEST DUP1 PUSH4 0x95EA7B3 GT PUSH2 0xD3 JUMPI DUP1 PUSH4 0x95EA7B3 EQ PUSH2 0x178 JUMPI DUP1 PUSH4 0x162094C4 EQ PUSH2 0x194 JUMPI DUP1 PUSH4 0x23B872DD EQ PUSH2 0x1B0 JUMPI DUP1 PUSH4 0x42842E0E EQ PUSH2 0x1CC JUMPI PUSH2 0xF5 JUMP JUMPDEST DUP1 PUSH4 0x1FFC9A7 EQ PUSH2 0xFA JUMPI DUP1 PUSH4 0x6FDDE03 EQ PUSH2 0x12A JUMPI DUP1 PUSH4 0x81812FC EQ PUSH2 0x148 JUMPI JUMPDEST PUSH1 0x0 DUP1 REVERT JUMPDEST PUSH2 0x114 PUSH1 0x4 DUP1 CALLDATASIZE SUB DUP2 ADD SWAP1 PUSH2 0x10F SWAP2 SWAP1 PUSH2 0x1012 JUMP JUMPDEST PUSH2 0x32E JUMP JUMPDEST PUSH1 0x40 MLOAD PUSH2 0x121 SWAP2 SWAP1 PUSH2 0x105A JUMP JUMPDEST PUSH1 0x40 MLOAD DUP1 SWAP2 SUB SWAP1 RETURN JUMPDEST PUSH2 0x132 PUSH2 0x395 JUMP JUMPDEST PUSH1 0x40 MLOAD PUSH2 0x13F SWAP2 SWAP1 PUSH2 0x1105 JUMP JUMPDEST PUSH1 0x40 MLOAD DUP1 SWAP2 SUB SWAP1 RETURN JUMPDEST PUSH2 0x162 PUSH1 0x4 DUP1 CALLDATASIZE SUB DUP2 ADD SWAP1 PUSH2 0x15D SWAP2 SWAP1 PUSH2 0x115D JUMP JUMPDEST PUSH2 0x427 JUMP JUMPDEST PUSH1 0x40 MLOAD PUSH2 0x16F SWAP2 SWAP1 PUSH2 0x11CB JUMP JUMPDEST PUSH1 0x40 MLOAD DUP1 SWAP2 SUB SWAP1 RETURN JUMPDEST PUSH2 0x192 PUSH1 0x4 DUP1 CALLDATASIZE SUB DUP2 ADD SWAP1 PUSH2 0x18D SWAP2 SWAP1 PUSH2 0x1212 JUMP JUMPDEST PUSH2 0x476 JUMP JUMPDEST STOP JUMPDEST PUSH2 0x1AE PUSH1 0x4 DUP1 CALLDATASIZE SUB DUP2 ADD SWAP1 PUSH2 0x1A9 SWAP2 SWAP1 PUSH2 0x1387 JUMP JUMPDEST PUSH2 0x5B6 JUMP JUMPDEST STOP JUMPDEST PUSH2 0x1CA PUSH1 0x4 DUP1 CALLDATASIZE SUB DUP2 ADD SWAP1 PUSH2 0x1C5 SWAP2 SWAP1 PUSH2 0x13E3 JUMP JUMPDEST PUSH2 0x5ED JUMP JUMPDEST STOP JUMPDEST PUSH2 0x1E6 PUSH1 0x4 DUP1 CALLDATASIZE SUB DUP2 ADD SWAP1 PUSH2 0x1E1 SWAP2 SWAP1 PUSH2 0x13E3 JUMP JUMPDEST PUSH2 0x610 JUMP JUMPDEST STOP JUMPDEST PUSH2 0x202 PUSH1 0x4 DUP1 CALLDATASIZE SUB DUP2 ADD SWAP1 PUSH2 0x1FD SWAP2 SWAP1 PUSH2 0x1212 JUMP JUMPDEST PUSH2 0x630 JUMP JUMPDEST PUSH1 0x40 MLOAD PUSH2 0x20F SWAP2 SWAP1 PUSH2 0x105A JUMP JUMPDEST PUSH1 0x40 MLOAD DUP1 SWAP2 SUB SWAP1 RETURN JUMPDEST PUSH2 0x232 PUSH1 0x4 DUP1 CALLDATASIZE SUB DUP2 ADD SWAP1 PUSH2 0x22D SWAP2 SWAP1 PUSH2 0x115D JUMP JUMPDEST PUSH2 0x6C5 JUMP JUMPDEST PUSH1 0x40 MLOAD PUSH2 0x23F SWAP2 SWAP1 PUSH2 0x11CB JUMP JUMPDEST PUSH1 0x40 MLOAD DUP1 SWAP2 SUB SWAP1 RETURN JUMPDEST PUSH2 0x262 PUSH1 0x4 DUP1 CALLDATASIZE SUB DUP2 ADD SWAP1 PUSH2 0x25D SWAP2 SWAP1 PUSH2 0x1436 JUMP JUMPDEST PUSH2 0x740 JUMP JUMPDEST PUSH1 0x40 MLOAD PUSH2 0x26F SWAP2 SWAP1 PUSH2 0x1472 JUMP JUMPDEST PUSH1 0x40 MLOAD DUP1 SWAP2 SUB SWAP1 RETURN JUMPDEST PUSH2 0x280 PUSH2 0x7C1 JUMP JUMPDEST PUSH1 0x40 MLOAD PUSH2 0x28D SWAP2 SWAP1 PUSH2 0x1105 JUMP JUMPDEST PUSH1 0x40 MLOAD DUP1 SWAP2 SUB SWAP1 RETURN JUMPDEST PUSH2 0x2B0 PUSH1 0x4 DUP1 CALLDATASIZE SUB DUP2 ADD SWAP1 PUSH2 0x2AB SWAP2 SWAP1 PUSH2 0x14B9 JUMP JUMPDEST PUSH2 0x853 JUMP JUMPDEST STOP JUMPDEST PUSH2 0x2CC PUSH1 0x4 DUP1 CALLDATASIZE SUB DUP2 ADD SWAP1 PUSH2 0x2C7 SWAP2 SWAP1 PUSH2 0x159A JUMP JUMPDEST PUSH2 0x988 JUMP JUMPDEST STOP JUMPDEST PUSH2 0x2E8 PUSH1 0x4 DUP1 CALLDATASIZE SUB DUP2 ADD SWAP1 PUSH2 0x2E3 SWAP2 SWAP1 PUSH2 0x115D JUMP JUMPDEST PUSH2 0x9AE JUMP JUMPDEST PUSH1 0x40 MLOAD PUSH2 0x2F5 SWAP2 SWAP1 PUSH2 0x1105 JUMP JUMPDEST PUSH1 0x40 MLOAD DUP1 SWAP2 SUB SWAP1 RETURN JUMPDEST PUSH2 0x318 PUSH1 0x4 DUP1 CALLDATASIZE SUB DUP2 ADD SWAP1 PUSH2 0x313 SWAP2 SWAP1 PUSH2 0x161D JUMP JUMPDEST PUSH2 0xA65 JUMP JUMPDEST PUSH1 0x40 MLOAD PUSH2 0x325 SWAP2 SWAP1 PUSH2 0x105A JUMP JUMPDEST PUSH1 0x40 MLOAD DUP1 SWAP2 SUB SWAP1 RETURN JUMPDEST PUSH1 0x0 DUP1 PUSH1 0x0 DUP4 PUSH28 0xFFFFFFFFFFFFFFFFFFFFFFFFFFFFFFFFFFFFFFFFFFFFFFFFFFFFFFFF NOT AND PUSH28 0xFFFFFFFFFFFFFFFFFFFFFFFFFFFFFFFFFFFFFFFFFFFFFFFFFFFFFFFF NOT AND DUP2 MSTORE PUSH1 0x20 ADD SWAP1 DUP2 MSTORE PUSH1 0x20 ADD PUSH1 0x0 KECCAK256 PUSH1 0x0 SWAP1 SLOAD SWAP1 PUSH2 0x100 EXP SWAP1 DIV PUSH1 0xFF AND SWAP1 POP SWAP2 SWAP1 POP JUMP JUMPDEST PUSH1 0x60 PUSH1 0x5 DUP1 SLOAD PUSH2 0x3A4 SWAP1 PUSH2 0x168C JUMP JUMPDEST DUP1 PUSH1 0x1F ADD PUSH1 0x20 DUP1 SWAP2 DIV MUL PUSH1 0x20 ADD PUSH1 0x40 MLOAD SWAP1 DUP2 ADD PUSH1 0x40 MSTORE DUP1 SWAP3 SWAP2 SWAP1 DUP2 DUP2 MSTORE PUSH1 0x20 ADD DUP3 DUP1 SLOAD PUSH2 0x3D0 SWAP1 PUSH2 0x168C JUMP JUMPDEST DUP1 ISZERO PUSH2 0x41D JUMPI DUP1 PUSH1 0x1F LT PUSH2 0x3F2 JUMPI PUSH2 0x100 DUP1 DUP4 SLOAD DIV MUL DUP4 MSTORE SWAP2 PUSH1 0x20 ADD SWAP2 PUSH2 0x41D JUMP JUMPDEST DUP3 ADD SWAP2 SWAP1 PUSH1 0x0 MSTORE PUSH1 0x20 PUSH1 0x0 KECCAK256 SWAP1 JUMPDEST DUP2 SLOAD DUP2 MSTORE SWAP1 PUSH1 0x1 ADD SWAP1 PUSH1 0x20 ADD DUP1 DUP4 GT PUSH2 0x400 JUMPI DUP3 SWAP1 SUB PUSH1 0x1F AND DUP3 ADD SWAP2 JUMPDEST POP POP POP POP POP SWAP1 POP SWAP1 JUMP JUMPDEST PUSH1 0x0 PUSH2 0x432 DUP3 PUSH2 0xAF9 JUMP JUMPDEST PUSH2 0x43B JUMPI PUSH1 0x0 DUP1 REVERT JUMPDEST PUSH1 0x3 PUSH1 0x0 DUP4 DUP2 MSTORE PUSH1 0x20 ADD SWAP1 DUP2 MSTORE PUSH1 0x20 ADD PUSH1 0x0 KECCAK256 PUSH1 0x0 SWAP1 SLOAD SWAP1 PUSH2 0x100 EXP SWAP1 DIV PUSH20 0xFFFFFFFFFFFFFFFFFFFFFFFFFFFFFFFFFFFFFFFF AND SWAP1 POP SWAP2 SWAP1 POP JUMP JUMPDEST PUSH1 0x0 PUSH2 0x481 DUP3 PUSH2 0x6C5 JUMP JUMPDEST SWAP1 POP DUP3 PUSH20 0xFFFFFFFFFFFFFFFFFFFFFFFFFFFFFFFFFFFFFFFF AND DUP2 PUSH20 0xFFFFFFFFFFFFFFFFFFFFFFFFFFFFFFFFFFFFFFFF AND SUB PUSH2 0x4BB JUMPI PUSH1 0x0 DUP1 REVERT JUMPDEST DUP1 PUSH20 0xFFFFFFFFFFFFFFFFFFFFFFFFFFFFFFFFFFFFFFFF AND CALLER PUSH20 0xFFFFFFFFFFFFFFFFFFFFFFFFFFFFFFFFFFFFFFFF AND EQ DUP1 PUSH2 0x4FB JUMPI POP PUSH2 0x4FA DUP2 CALLER PUSH2 0xA65 JUMP JUMPDEST JUMPDEST PUSH2 0x504 JUMPI PUSH1 0x0 DUP1 REVERT JUMPDEST DUP3 PUSH1 0x3 PUSH1 0x0 DUP5 DUP2 MSTORE PUSH1 0x20 ADD SWAP1 DUP2 MSTORE PUSH1 0x20 ADD PUSH1 0x0 KECCAK256 PUSH1 0x0 PUSH2 0x100 EXP DUP2 SLOAD DUP2 PUSH20 0xFFFFFFFFFFFFFFFFFFFFFFFFFFFFFFFFFFFFFFFF MUL NOT AND SWAP1 DUP4 PUSH20 0xFFFFFFFFFFFFFFFFFFFFFFFFFFFFFFFFFFFFFFFF AND MUL OR SWAP1 SSTORE POP DUP2 DUP4 PUSH20 0xFFFFFFFFFFFFFFFFFFFFFFFFFFFFFFFFFFFFFFFF AND DUP3 PUSH20 0xFFFFFFFFFFFFFFFFFFFFFFFFFFFFFFFFFFFFFFFF AND PUSH32 0x8C5BE1E5EBEC7D5BD14F71427D1E84F3DD0314C0F7B2291E5B200AC8C7C3B925 PUSH1 0x40 MLOAD PUSH1 0x40 MLOAD DUP1 SWAP2 SUB SWAP1 LOG4 POP POP POP JUMP JUMPDEST PUSH2 0x5BF DUP3 PUSH2 0xAF9 JUMP JUMPDEST PUSH2 0x5C8 JUMPI PUSH1 0x0 DUP1 REVERT JUMPDEST DUP1 PUSH1 0x7 PUSH1 0x0 DUP5 DUP2 MSTORE PUSH1 0x20 ADD SWAP1 DUP2 MSTORE PUSH1 0x20 ADD PUSH1 0x0 KECCAK256 SWAP1 DUP2 PUSH2 0x5E8 SWAP2 SWAP1 PUSH2 0x1869 JUMP JUMPDEST POP POP POP JUMP JUMPDEST PUSH2 0x5F7 CALLER DUP3 PUSH2 0x630 JUMP JUMPDEST PUSH2 0x600 JUMPI PUSH1 0x0 DUP1 REVERT JUMPDEST PUSH2 0x60B DUP4 DUP4 DUP4 PUSH2 0xB6B JUMP JUMPDEST POP POP POP JUMP JUMPDEST PUSH2 0x62B DUP4 DUP4 DUP4 PUSH1 0x40 MLOAD DUP1 PUSH1 0x20 ADD PUSH1 0x40 MSTORE DUP1 PUSH1 0x0 DUP2 MSTORE POP PUSH2 0x988 JUMP JUMPDEST POP POP POP JUMP JUMPDEST PUSH1 0x0 DUP1 PUSH2 0x63C DUP4 PUSH2 0x6C5 JUMP JUMPDEST SWAP1 POP DUP1 PUSH20 0xFFFFFFFFFFFFFFFFFFFFFFFFFFFFFFFFFFFFFFFF AND DUP5 PUSH20 0xFFFFFFFFFFFFFFFFFFFFFFFFFFFFFFFFFFFFFFFF AND EQ DUP1 PUSH2 0x6AB JUMPI POP DUP4 PUSH20 0xFFFFFFFFFFFFFFFFFFFFFFFFFFFFFFFFFFFFFFFF AND PUSH2 0x693 DUP5 PUSH2 0x427 JUMP JUMPDEST PUSH20 0xFFFFFFFFFFFFFFFFFFFFFFFFFFFFFFFFFFFFFFFF AND EQ JUMPDEST DUP1 PUSH2 0x6BC JUMPI POP PUSH2 0x6BB DUP5 DUP3 PUSH2 0xA65 JUMP JUMPDEST JUMPDEST SWAP2 POP POP SWAP3 SWAP2 POP POP JUMP JUMPDEST PUSH1 0x0 DUP1 PUSH1 0x1 PUSH1 0x0 DUP5 DUP2 MSTORE PUSH1 0x20 ADD SWAP1 DUP2 MSTORE PUSH1 0x20 ADD PUSH1 0x0 KECCAK256 PUSH1 0x0 SWAP1 SLOAD SWAP1 PUSH2 0x100 EXP SWAP1 DIV PUSH20 0xFFFFFFFFFFFFFFFFFFFFFFFFFFFFFFFFFFFFFFFF AND SWAP1 POP PUSH1 0x0 PUSH20 0xFFFFFFFFFFFFFFFFFFFFFFFFFFFFFFFFFFFFFFFF AND DUP2 PUSH20 0xFFFFFFFFFFFFFFFFFFFFFFFFFFFFFFFFFFFFFFFF AND SUB PUSH2 0x737 JUMPI PUSH1 0x0 DUP1 REVERT JUMPDEST DUP1 SWAP2 POP POP SWAP2 SWAP1 POP JUMP JUMPDEST PUSH1 0x0 DUP1 PUSH20 0xFFFFFFFFFFFFFFFFFFFFFFFFFFFFFFFFFFFFFFFF AND DUP3 PUSH20 0xFFFFFFFFFFFFFFFFFFFFFFFFFFFFFFFFFFFFFFFF AND SUB PUSH2 0x77A JUMPI PUSH1 0x0 DUP1 REVERT JUMPDEST PUSH1 0x2 PUSH1 0x0 DUP4 PUSH20 0xFFFFFFFFFFFFFFFFFFFFFFFFFFFFFFFFFFFFFFFF AND PUSH20 0xFFFFFFFFFFFFFFFFFFFFFFFFFFFFFFFFFFFFFFFF AND DUP2 MSTORE PUSH1 0x20 ADD SWAP1 DUP2 MSTORE PUSH1 0x20 ADD PUSH1 0x0 KECCAK256 SLOAD SWAP1 POP SWAP2 SWAP1 POP JUMP JUMPDEST PUSH1 0x60 PUSH1 0x6 DUP1 SLOAD PUSH2 0x7D0 SWAP1 PUSH2 0x168C JUMP JUMPDEST DUP1 PUSH1 0x1F ADD PUSH1 0x20 DUP1 SWAP2 DIV MUL PUSH1 0x20 ADD PUSH1 0x40 MLOAD SWAP1 DUP2 ADD PUSH1 0x40 MSTORE DUP1 SWAP3 SWAP2 SWAP1 DUP2 DUP2 MSTORE PUSH1 0x20 ADD DUP3 DUP1 SLOAD PUSH2 0x7FC SWAP1 PUSH2 0x168C JUMP JUMPDEST DUP1 ISZERO PUSH2 0x849 JUMPI DUP1 PUSH1 0x1F LT PUSH2 0x81E JUMPI PUSH2 0x100 DUP1 DUP4 SLOAD DIV MUL DUP4 MSTORE SWAP2 PUSH1 0x20 ADD SWAP2 PUSH2 0x849 JUMP JUMPDEST DUP3 ADD SWAP2 SWAP1 PUSH1 0x0 MSTORE PUSH1 0x20 PUSH1 0x0 KECCAK256 SWAP1 JUMPDEST DUP2 SLOAD DUP2 MSTORE SWAP1 PUSH1 0x1 ADD SWAP1 PUSH1 0x20 ADD DUP1 DUP4 GT PUSH2 0x82C JUMPI DUP3 SWAP1 SUB PUSH1 0x1F AND DUP3 ADD SWAP2 JUMPDEST POP POP POP POP POP SWAP1 POP SWAP1 JUMP JUMPDEST CALLER PUSH20 0xFFFFFFFFFFFFFFFFFFFFFFFFFFFFFFFFFFFFFFFF AND DUP3 PUSH20 0xFFFFFFFFFFFFFFFFFFFFFFFFFFFFFFFFFFFFFFFF AND SUB PUSH2 0x88B JUMPI PUSH1 0x0 DUP1 REVERT JUMPDEST DUP1 PUSH1 0x4 PUSH1 0x0 CALLER PUSH20 0xFFFFFFFFFFFFFFFFFFFFFFFFFFFFFFFFFFFFFFFF AND PUSH20 0xFFFFFFFFFFFFFFFFFFFFFFFFFFFFFFFFFFFFFFFF AND DUP2 MSTORE PUSH1 0x20 ADD SWAP1 DUP2 MSTORE PUSH1 0x20 ADD PUSH1 0x0 KECCAK256 PUSH1 0x0 DUP5 PUSH20 0xFFFFFFFFFFFFFFFFFFFFFFFFFFFFFFFFFFFFFFFF AND PUSH20 0xFFFFFFFFFFFFFFFFFFFFFFFFFFFFFFFFFFFFFFFF AND DUP2 MSTORE PUSH1 0x20 ADD SWAP1 DUP2 MSTORE PUSH1 0x20 ADD PUSH1 0x0 KECCAK256 PUSH1 0x0 PUSH2 0x100 EXP DUP2 SLOAD DUP2 PUSH1 0xFF MUL NOT AND SWAP1 DUP4 ISZERO ISZERO MUL OR SWAP1 SSTORE POP DUP2 PUSH20 0xFFFFFFFFFFFFFFFFFFFFFFFFFFFFFFFFFFFFFFFF AND CALLER PUSH20 0xFFFFFFFFFFFFFFFFFFFFFFFFFFFFFFFFFFFFFFFF AND PUSH32 0x17307EAB39AB6107E8899845AD3D59BD9653F200F220920489CA2B5937696C31 DUP4 PUSH1 0x40 MLOAD PUSH2 0x97C SWAP2 SWAP1 PUSH2 0x105A JUMP JUMPDEST PUSH1 0x40 MLOAD DUP1 SWAP2 SUB SWAP1 LOG3 POP POP JUMP JUMPDEST PUSH2 0x993 DUP4 DUP6 DUP5 PUSH2 0x5ED JUMP JUMPDEST PUSH2 0x99F DUP5 DUP5 DUP5 DUP5 PUSH2 0xDBD JUMP JUMPDEST PUSH2 0x9A8 JUMPI PUSH1 0x0 DUP1 REVERT JUMPDEST POP POP POP POP JUMP JUMPDEST PUSH1 0x60 PUSH2 0x9B9 DUP3 PUSH2 0xAF9 JUMP JUMPDEST PUSH2 0x9C2 JUMPI PUSH1 0x0 DUP1 REVERT JUMPDEST PUSH1 0x7 PUSH1 0x0 DUP4 DUP2 MSTORE PUSH1 0x20 ADD SWAP1 DUP2 MSTORE PUSH1 0x20 ADD PUSH1 0x0 KECCAK256 DUP1 SLOAD PUSH2 0x9E0 SWAP1 PUSH2 0x168C JUMP JUMPDEST DUP1 PUSH1 0x1F ADD PUSH1 0x20 DUP1 SWAP2 DIV MUL PUSH1 0x20 ADD PUSH1 0x40 MLOAD SWAP1 DUP2 ADD PUSH1 0x40 MSTORE DUP1 SWAP3 SWAP2 SWAP1 DUP2 DUP2 MSTORE PUSH1 0x20 ADD DUP3 DUP1 SLOAD PUSH2 0xA0C SWAP1 PUSH2 0x168C JUMP JUMPDEST DUP1 ISZERO PUSH2 0xA59 JUMPI DUP1 PUSH1 0x1F LT PUSH2 0xA2E JUMPI PUSH2 0x100 DUP1 DUP4 SLOAD DIV MUL DUP4 MSTORE SWAP2 PUSH1 0x20 ADD SWAP2 PUSH2 0xA59 JUMP JUMPDEST DUP3 ADD SWAP2 SWAP1 PUSH1 0x0 MSTORE PUSH1 0x20 PUSH1 0x0 KECCAK256 SWAP1 JUMPDEST DUP2 SLOAD DUP2 MSTORE SWAP1 PUSH1 0x1 ADD SWAP1 PUSH1 0x20 ADD DUP1 DUP4 GT PUSH2 0xA3C JUMPI DUP3 SWAP1 SUB PUSH1 0x1F AND DUP3 ADD SWAP2 JUMPDEST POP POP POP POP POP SWAP1 POP SWAP2 SWAP1 POP JUMP JUMPDEST PUSH1 0x0 PUSH1 0x4 PUSH1 0x0 DUP5 PUSH20 0xFFFFFFFFFFFFFFFFFFFFFFFFFFFFFFFFFFFFFFFF AND PUSH20 0xFFFFFFFFFFFFFFFFFFFFFFFFFFFFFFFFFFFFFFFF AND DUP2 MSTORE PUSH1 0x20 ADD SWAP1 DUP2 MSTORE PUSH1 0x20 ADD PUSH1 0x0 KECCAK256 PUSH1 0x0 DUP4 PUSH20 0xFFFFFFFFFFFFFFFFFFFFFFFFFFFFFFFFFFFFFFFF AND PUSH20 0xFFFFFFFFFFFFFFFFFFFFFFFFFFFFFFFFFFFFFFFF AND DUP2 MSTORE PUSH1 0x20 ADD SWAP1 DUP2 MSTORE PUSH1 0x20 ADD PUSH1 0x0 KECCAK256 PUSH1 0x0 SWAP1 SLOAD SWAP1 PUSH2 0x100 EXP SWAP1 DIV PUSH1 0xFF AND SWAP1 POP SWAP3 SWAP2 POP POP JUMP JUMPDEST PUSH1 0x0 DUP1 PUSH1 0x1 PUSH1 0x0 DUP5 DUP2 MSTORE PUSH1 0x20 ADD SWAP1 DUP2 MSTORE PUSH1 0x20 ADD PUSH1 0x0 KECCAK256 PUSH1 0x0 SWAP1 SLOAD SWAP1 PUSH2 0x100 EXP SWAP1 DIV PUSH20 0xFFFFFFFFFFFFFFFFFFFFFFFFFFFFFFFFFFFFFFFF AND SWAP1 POP PUSH1 0x0 PUSH20 0xFFFFFFFFFFFFFFFFFFFFFFFFFFFFFFFFFFFFFFFF AND DUP2 PUSH20 0xFFFFFFFFFFFFFFFFFFFFFFFFFFFFFFFFFFFFFFFF AND EQ ISZERO SWAP2 POP POP SWAP2 SWAP1 POP JUMP JUMPDEST PUSH2 0xB74 DUP2 PUSH2 0x6C5 JUMP JUMPDEST PUSH20 0xFFFFFFFFFFFFFFFFFFFFFFFFFFFFFFFFFFFFFFFF AND DUP4 PUSH20 0xFFFFFFFFFFFFFFFFFFFFFFFFFFFFFFFFFFFFFFFF AND EQ PUSH2 0xBAB JUMPI PUSH1 0x0 DUP1 REVERT JUMPDEST PUSH1 0x0 PUSH20 0xFFFFFFFFFFFFFFFFFFFFFFFFFFFFFFFFFFFFFFFF AND DUP3 PUSH20 0xFFFFFFFFFFFFFFFFFFFFFFFFFFFFFFFFFFFFFFFF AND SUB PUSH2 0xBE4 JUMPI PUSH1 0x0 DUP1 REVERT JUMPDEST PUSH2 0xBED DUP2 PUSH2 0xEC5 JUMP JUMPDEST PUSH1 0x1 PUSH1 0x2 PUSH1 0x0 DUP6 PUSH20 0xFFFFFFFFFFFFFFFFFFFFFFFFFFFFFFFFFFFFFFFF AND PUSH20 0xFFFFFFFFFFFFFFFFFFFFFFFFFFFFFFFFFFFFFFFF AND DUP2 MSTORE PUSH1 0x20 ADD SWAP1 DUP2 MSTORE PUSH1 0x20 ADD PUSH1 0x0 KECCAK256 SLOAD PUSH2 0xC39 SWAP2 SWAP1 PUSH2 0x196A JUMP JUMPDEST PUSH1 0x2 PUSH1 0x0 DUP6 PUSH20 0xFFFFFFFFFFFFFFFFFFFFFFFFFFFFFFFFFFFFFFFF AND PUSH20 0xFFFFFFFFFFFFFFFFFFFFFFFFFFFFFFFFFFFFFFFF AND DUP2 MSTORE PUSH1 0x20 ADD SWAP1 DUP2 MSTORE PUSH1 0x20 ADD PUSH1 0x0 KECCAK256 DUP2 SWAP1 SSTORE POP PUSH1 0x1 PUSH1 0x2 PUSH1 0x0 DUP5 PUSH20 0xFFFFFFFFFFFFFFFFFFFFFFFFFFFFFFFFFFFFFFFF AND PUSH20 0xFFFFFFFFFFFFFFFFFFFFFFFFFFFFFFFFFFFFFFFF AND DUP2 MSTORE PUSH1 0x20 ADD SWAP1 DUP2 MSTORE PUSH1 0x20 ADD PUSH1 0x0 KECCAK256 SLOAD PUSH2 0xCC8 SWAP2 SWAP1 PUSH2 0x199E JUMP JUMPDEST PUSH1 0x2 PUSH1 0x0 DUP5 PUSH20 0xFFFFFFFFFFFFFFFFFFFFFFFFFFFFFFFFFFFFFFFF AND PUSH20 0xFFFFFFFFFFFFFFFFFFFFFFFFFFFFFFFFFFFFFFFF AND DUP2 MSTORE PUSH1 0x20 ADD SWAP1 DUP2 MSTORE PUSH1 0x20 ADD PUSH1 0x0 KECCAK256 DUP2 SWAP1 SSTORE POP DUP2 PUSH1 0x1 PUSH1 0x0 DUP4 DUP2 MSTORE PUSH1 0x20 ADD SWAP1 DUP2 MSTORE PUSH1 0x20 ADD PUSH1 0x0 KECCAK256 PUSH1 0x0 PUSH2 0x100 EXP DUP2 SLOAD DUP2 PUSH20 0xFFFFFFFFFFFFFFFFFFFFFFFFFFFFFFFFFFFFFFFF MUL NOT AND SWAP1 DUP4 PUSH20 0xFFFFFFFFFFFFFFFFFFFFFFFFFFFFFFFFFFFFFFFF AND MUL OR SWAP1 SSTORE POP DUP1 DUP3 PUSH20 0xFFFFFFFFFFFFFFFFFFFFFFFFFFFFFFFFFFFFFFFF AND DUP5 PUSH20 0xFFFFFFFFFFFFFFFFFFFFFFFFFFFFFFFFFFFFFFFF AND PUSH32 0xDDF252AD1BE2C89B69C2B068FC378DAA952BA7F163C4A11628F55A4DF523B3EF PUSH1 0x40 MLOAD PUSH1 0x40 MLOAD DUP1 SWAP2 SUB SWAP1 LOG4 POP POP POP JUMP JUMPDEST PUSH1 0x0 PUSH2 0xDDE DUP5 PUSH20 0xFFFFFFFFFFFFFFFFFFFFFFFFFFFFFFFFFFFFFFFF AND PUSH2 0xF83 JUMP JUMPDEST PUSH2 0xDEB JUMPI PUSH1 0x1 SWAP1 POP PUSH2 0xEBD JUMP JUMPDEST PUSH1 0x0 DUP5 PUSH20 0xFFFFFFFFFFFFFFFFFFFFFFFFFFFFFFFFFFFFFFFF AND PUSH4 0x150B7A02 CALLER DUP9 DUP8 DUP8 PUSH1 0x40 MLOAD DUP6 PUSH4 0xFFFFFFFF AND PUSH1 0xE0 SHL DUP2 MSTORE PUSH1 0x4 ADD PUSH2 0xE2C SWAP5 SWAP4 SWAP3 SWAP2 SWAP1 PUSH2 0x1A27 JUMP JUMPDEST PUSH1 0x20 PUSH1 0x40 MLOAD DUP1 DUP4 SUB DUP2 PUSH1 0x0 DUP8 GAS CALL ISZERO DUP1 ISZERO PUSH2 0xE4B JUMPI RETURNDATASIZE PUSH1 0x0 DUP1 RETURNDATACOPY RETURNDATASIZE PUSH1 0x0 REVERT JUMPDEST POP POP POP POP PUSH1 0x40 MLOAD RETURNDATASIZE PUSH1 0x1F NOT PUSH1 0x1F DUP3 ADD AND DUP3 ADD DUP1 PUSH1 0x40 MSTORE POP DUP2 ADD SWAP1 PUSH2 0xE6F SWAP2 SWAP1 PUSH2 0x1A88 JUMP JUMPDEST SWAP1 POP PUSH4 0x150B7A02 PUSH1 0xE0 SHL PUSH28 0xFFFFFFFFFFFFFFFFFFFFFFFFFFFFFFFFFFFFFFFFFFFFFFFFFFFFFFFF NOT AND DUP2 PUSH28 0xFFFFFFFFFFFFFFFFFFFFFFFFFFFFFFFFFFFFFFFFFFFFFFFFFFFFFFFF NOT AND EQ SWAP2 POP POP JUMPDEST SWAP5 SWAP4 POP POP POP POP JUMP JUMPDEST PUSH1 0x0 PUSH20 0xFFFFFFFFFFFFFFFFFFFFFFFFFFFFFFFFFFFFFFFF AND PUSH1 0x3 PUSH1 0x0 DUP4 DUP2 MSTORE PUSH1 0x20 ADD SWAP1 DUP2 MSTORE PUSH1 0x20 ADD PUSH1 0x0 KECCAK256 PUSH1 0x0 SWAP1 SLOAD SWAP1 PUSH2 0x100 EXP SWAP1 DIV PUSH20 0xFFFFFFFFFFFFFFFFFFFFFFFFFFFFFFFFFFFFFFFF AND PUSH20 0xFFFFFFFFFFFFFFFFFFFFFFFFFFFFFFFFFFFFFFFF AND EQ PUSH2 0xF80 JUMPI PUSH1 0x0 PUSH1 0x3 PUSH1 0x0 DUP4 DUP2 MSTORE PUSH1 0x20 ADD SWAP1 DUP2 MSTORE PUSH1 0x20 ADD PUSH1 0x0 KECCAK256 PUSH1 0x0 PUSH2 0x100 EXP DUP2 SLOAD DUP2 PUSH20 0xFFFFFFFFFFFFFFFFFFFFFFFFFFFFFFFFFFFFFFFF MUL NOT AND SWAP1 DUP4 PUSH20 0xFFFFFFFFFFFFFFFFFFFFFFFFFFFFFFFFFFFFFFFF AND MUL OR SWAP1 SSTORE POP JUMPDEST POP JUMP JUMPDEST PUSH1 0x0 DUP1 DUP3 PUSH20 0xFFFFFFFFFFFFFFFFFFFFFFFFFFFFFFFFFFFFFFFF AND EXTCODESIZE GT SWAP1 POP SWAP2 SWAP1 POP JUMP JUMPDEST PUSH1 0x0 PUSH1 0x40 MLOAD SWAP1 POP SWAP1 JUMP JUMPDEST PUSH1 0x0 DUP1 REVERT JUMPDEST PUSH1 0x0 DUP1 REVERT JUMPDEST PUSH1 0x0 PUSH32 0xFFFFFFFF00000000000000000000000000000000000000000000000000000000 DUP3 AND SWAP1 POP SWAP2 SWAP1 POP JUMP JUMPDEST PUSH2 0xFEF DUP2 PUSH2 0xFBA JUMP JUMPDEST DUP2 EQ PUSH2 0xFFA JUMPI PUSH1 0x0 DUP1 REVERT JUMPDEST POP JUMP JUMPDEST PUSH1 0x0 DUP2 CALLDATALOAD SWAP1 POP PUSH2 0x100C DUP2 PUSH2 0xFE6 JUMP JUMPDEST SWAP3 SWAP2 POP POP JUMP JUMPDEST PUSH1 0x0 PUSH1 0x20 DUP3 DUP5 SUB SLT ISZERO PUSH2 0x1028 JUMPI PUSH2 0x1027 PUSH2 0xFB0 JUMP JUMPDEST JUMPDEST PUSH1 0x0 PUSH2 0x1036 DUP5 DUP3 DUP6 ADD PUSH2 0xFFD JUMP JUMPDEST SWAP2 POP POP SWAP3 SWAP2 POP POP JUMP JUMPDEST PUSH1 0x0 DUP2 ISZERO ISZERO SWAP1 POP SWAP2 SWAP1 POP JUMP JUMPDEST PUSH2 0x1054 DUP2 PUSH2 0x103F JUMP JUMPDEST DUP3 MSTORE POP POP JUMP JUMPDEST PUSH1 0x0 PUSH1 0x20 DUP3 ADD SWAP1 POP PUSH2 0x106F PUSH1 0x0 DUP4 ADD DUP5 PUSH2 0x104B JUMP JUMPDEST SWAP3 SWAP2 POP POP JUMP JUMPDEST PUSH1 0x0 DUP2 MLOAD SWAP1 POP SWAP2 SWAP1 POP JUMP JUMPDEST PUSH1 0x0 DUP3 DUP3 MSTORE PUSH1 0x20 DUP3 ADD SWAP1 POP SWAP3 SWAP2 POP POP JUMP JUMPDEST PUSH1 0x0 JUMPDEST DUP4 DUP2 LT ISZERO PUSH2 0x10AF JUMPI DUP1 DUP3 ADD MLOAD DUP2 DUP5 ADD MSTORE PUSH1 0x20 DUP2 ADD SWAP1 POP PUSH2 0x1094 JUMP JUMPDEST PUSH1 0x0 DUP5 DUP5 ADD MSTORE POP POP POP POP JUMP JUMPDEST PUSH1 0x0 PUSH1 0x1F NOT PUSH1 0x1F DUP4 ADD AND SWAP1 POP SWAP2 SWAP1 POP JUMP JUMPDEST PUSH1 0x0 PUSH2 0x10D7 DUP3 PUSH2 0x1075 JUMP JUMPDEST PUSH2 0x10E1 DUP2 DUP6 PUSH2 0x1080 JUMP JUMPDEST SWAP4 POP PUSH2 0x10F1 DUP2 DUP6 PUSH1 0x20 DUP7 ADD PUSH2 0x1091 JUMP JUMPDEST PUSH2 0x10FA DUP2 PUSH2 0x10BB JUMP JUMPDEST DUP5 ADD SWAP2 POP POP SWAP3 SWAP2 POP POP JUMP JUMPDEST PUSH1 0x0 PUSH1 0x20 DUP3 ADD SWAP1 POP DUP2 DUP2 SUB PUSH1 0x0 DUP4 ADD MSTORE PUSH2 0x111F DUP2 DUP5 PUSH2 0x10CC JUMP JUMPDEST SWAP1 POP SWAP3 SWAP2 POP POP JUMP JUMPDEST PUSH1 0x0 DUP2 SWAP1 POP SWAP2 SWAP1 POP JUMP JUMPDEST PUSH2 0x113A DUP2 PUSH2 0x1127 JUMP JUMPDEST DUP2 EQ PUSH2 0x1145 JUMPI PUSH1 0x0 DUP1 REVERT JUMPDEST POP JUMP JUMPDEST PUSH1 0x0 DUP2 CALLDATALOAD SWAP1 POP PUSH2 0x1157 DUP2 PUSH2 0x1131 JUMP JUMPDEST SWAP3 SWAP2 POP POP JUMP JUMPDEST PUSH1 0x0 PUSH1 0x20 DUP3 DUP5 SUB SLT ISZERO PUSH2 0x1173 JUMPI PUSH2 0x1172 PUSH2 0xFB0 JUMP JUMPDEST JUMPDEST PUSH1 0x0 PUSH2 0x1181 DUP5 DUP3 DUP6 ADD PUSH2 0x1148 JUMP JUMPDEST SWAP2 POP POP SWAP3 SWAP2 POP POP JUMP JUMPDEST PUSH1 0x0 PUSH20 0xFFFFFFFFFFFFFFFFFFFFFFFFFFFFFFFFFFFFFFFF DUP3 AND SWAP1 POP SWAP2 SWAP1 POP JUMP JUMPDEST PUSH1 0x0 PUSH2 0x11B5 DUP3 PUSH2 0x118A JUMP JUMPDEST SWAP1 POP SWAP2 SWAP1 POP JUMP JUMPDEST PUSH2 0x11C5 DUP2 PUSH2 0x11AA JUMP JUMPDEST DUP3 MSTORE POP POP JUMP JUMPDEST PUSH1 0x0 PUSH1 0x20 DUP3 ADD SWAP1 POP PUSH2 0x11E0 PUSH1 0x0 DUP4 ADD DUP5 PUSH2 0x11BC JUMP JUMPDEST SWAP3 SWAP2 POP POP JUMP JUMPDEST PUSH2 0x11EF DUP2 PUSH2 0x11AA JUMP JUMPDEST DUP2 EQ PUSH2 0x11FA JUMPI PUSH1 0x0 DUP1 REVERT JUMPDEST POP JUMP JUMPDEST PUSH1 0x0 DUP2 CALLDATALOAD SWAP1 POP PUSH2 0x120C DUP2 PUSH2 0x11E6 JUMP JUMPDEST SWAP3 SWAP2 POP POP JUMP JUMPDEST PUSH1 0x0 DUP1 PUSH1 0x40 DUP4 DUP6 SUB SLT ISZERO PUSH2 0x1229 JUMPI PUSH2 0x1228 PUSH2 0xFB0 JUMP JUMPDEST JUMPDEST PUSH1 0x0 PUSH2 0x1237 DUP6 DUP3 DUP7 ADD PUSH2 0x11FD JUMP JUMPDEST SWAP3 POP POP PUSH1 0x20 PUSH2 0x1248 DUP6 DUP3 DUP7 ADD PUSH2 0x1148 JUMP JUMPDEST SWAP2 POP POP SWAP3 POP SWAP3 SWAP1 POP JUMP JUMPDEST PUSH1 0x0 DUP1 REVERT JUMPDEST PUSH1 0x0 DUP1 REVERT JUMPDEST PUSH32 0x4E487B7100000000000000000000000000000000000000000000000000000000 PUSH1 0x0 MSTORE PUSH1 0x41 PUSH1 0x4 MSTORE PUSH1 0x24 PUSH1 0x0 REVERT JUMPDEST PUSH2 0x1294 DUP3 PUSH2 0x10BB JUMP JUMPDEST DUP2 ADD DUP2 DUP2 LT PUSH8 0xFFFFFFFFFFFFFFFF DUP3 GT OR ISZERO PUSH2 0x12B3 JUMPI PUSH2 0x12B2 PUSH2 0x125C JUMP JUMPDEST JUMPDEST DUP1 PUSH1 0x40 MSTORE POP POP POP JUMP JUMPDEST PUSH1 0x0 PUSH2 0x12C6 PUSH2 0xFA6 JUMP JUMPDEST SWAP1 POP PUSH2 0x12D2 DUP3 DUP3 PUSH2 0x128B JUMP JUMPDEST SWAP2 SWAP1 POP JUMP JUMPDEST PUSH1 0x0 PUSH8 0xFFFFFFFFFFFFFFFF DUP3 GT ISZERO PUSH2 0x12F2 JUMPI PUSH2 0x12F1 PUSH2 0x125C JUMP JUMPDEST JUMPDEST PUSH2 0x12FB DUP3 PUSH2 0x10BB JUMP JUMPDEST SWAP1 POP PUSH1 0x20 DUP2 ADD SWAP1 POP SWAP2 SWAP1 POP JUMP JUMPDEST DUP3 DUP2 DUP4 CALLDATACOPY PUSH1 0x0 DUP4 DUP4 ADD MSTORE POP POP POP JUMP JUMPDEST PUSH1 0x0 PUSH2 0x132A PUSH2 0x1325 DUP5 PUSH2 0x12D7 JUMP JUMPDEST PUSH2 0x12BC JUMP JUMPDEST SWAP1 POP DUP3 DUP2 MSTORE PUSH1 0x20 DUP2 ADD DUP5 DUP5 DUP5 ADD GT ISZERO PUSH2 0x1346 JUMPI PUSH2 0x1345 PUSH2 0x1257 JUMP JUMPDEST JUMPDEST PUSH2 0x1351 DUP5 DUP3 DUP6 PUSH2 0x1308 JUMP JUMPDEST POP SWAP4 SWAP3 POP POP POP JUMP JUMPDEST PUSH1 0x0 DUP3 PUSH1 0x1F DUP4 ADD SLT PUSH2 0x136E JUMPI PUSH2 0x136D PUSH2 0x1252 JUMP JUMPDEST JUMPDEST DUP2 CALLDATALOAD PUSH2 0x137E DUP5 DUP3 PUSH1 0x20 DUP7 ADD PUSH2 0x1317 JUMP JUMPDEST SWAP2 POP POP SWAP3 SWAP2 POP POP JUMP JUMPDEST PUSH1 0x0 DUP1 PUSH1 0x40 DUP4 DUP6 SUB SLT ISZERO PUSH2 0x139E JUMPI PUSH2 0x139D PUSH2 0xFB0 JUMP JUMPDEST JUMPDEST PUSH1 0x0 PUSH2 0x13AC DUP6 DUP3 DUP7 ADD PUSH2 0x1148 JUMP JUMPDEST SWAP3 POP POP PUSH1 0x20 DUP4 ADD CALLDATALOAD PUSH8 0xFFFFFFFFFFFFFFFF DUP2 GT ISZERO PUSH2 0x13CD JUMPI PUSH2 0x13CC PUSH2 0xFB5 JUMP JUMPDEST JUMPDEST PUSH2 0x13D9 DUP6 DUP3 DUP7 ADD PUSH2 0x1359 JUMP JUMPDEST SWAP2 POP POP SWAP3 POP SWAP3 SWAP1 POP JUMP JUMPDEST PUSH1 0x0 DUP1 PUSH1 0x0 PUSH1 0x60 DUP5 DUP7 SUB SLT ISZERO PUSH2 0x13FC JUMPI PUSH2 0x13FB PUSH2 0xFB0 JUMP JUMPDEST JUMPDEST PUSH1 0x0 PUSH2 0x140A DUP7 DUP3 DUP8 ADD PUSH2 0x11FD JUMP JUMPDEST SWAP4 POP POP PUSH1 0x20 PUSH2 0x141B DUP7 DUP3 DUP8 ADD PUSH2 0x11FD JUMP JUMPDEST SWAP3 POP POP PUSH1 0x40 PUSH2 0x142C DUP7 DUP3 DUP8 ADD PUSH2 0x1148 JUMP JUMPDEST SWAP2 POP POP SWAP3 POP SWAP3 POP SWAP3 JUMP JUMPDEST PUSH1 0x0 PUSH1 0x20 DUP3 DUP5 SUB SLT ISZERO PUSH2 0x144C JUMPI PUSH2 0x144B PUSH2 0xFB0 JUMP JUMPDEST JUMPDEST PUSH1 0x0 PUSH2 0x145A DUP5 DUP3 DUP6 ADD PUSH2 0x11FD JUMP JUMPDEST SWAP2 POP POP SWAP3 SWAP2 POP POP JUMP JUMPDEST PUSH2 0x146C DUP2 PUSH2 0x1127 JUMP JUMPDEST DUP3 MSTORE POP POP JUMP JUMPDEST PUSH1 0x0 PUSH1 0x20 DUP3 ADD SWAP1 POP PUSH2 0x1487 PUSH1 0x0 DUP4 ADD DUP5 PUSH2 0x1463 JUMP JUMPDEST SWAP3 SWAP2 POP POP JUMP JUMPDEST PUSH2 0x1496 DUP2 PUSH2 0x103F JUMP JUMPDEST DUP2 EQ PUSH2 0x14A1 JUMPI PUSH1 0x0 DUP1 REVERT JUMPDEST POP JUMP JUMPDEST PUSH1 0x0 DUP2 CALLDATALOAD SWAP1 POP PUSH2 0x14B3 DUP2 PUSH2 0x148D JUMP JUMPDEST SWAP3 SWAP2 POP POP JUMP JUMPDEST PUSH1 0x0 DUP1 PUSH1 0x40 DUP4 DUP6 SUB SLT ISZERO PUSH2 0x14D0 JUMPI PUSH2 0x14CF PUSH2 0xFB0 JUMP JUMPDEST JUMPDEST PUSH1 0x0 PUSH2 0x14DE DUP6 DUP3 DUP7 ADD PUSH2 0x11FD JUMP JUMPDEST SWAP3 POP POP PUSH1 0x20 PUSH2 0x14EF DUP6 DUP3 DUP7 ADD PUSH2 0x14A4 JUMP JUMPDEST SWAP2 POP POP SWAP3 POP SWAP3 SWAP1 POP JUMP JUMPDEST PUSH1 0x0 PUSH8 0xFFFFFFFFFFFFFFFF DUP3 GT ISZERO PUSH2 0x1514 JUMPI PUSH2 0x1513 PUSH2 0x125C JUMP JUMPDEST JUMPDEST PUSH2 0x151D DUP3 PUSH2 0x10BB JUMP JUMPDEST SWAP1 POP PUSH1 0x20 DUP2 ADD SWAP1 POP SWAP2 SWAP1 POP JUMP JUMPDEST PUSH1 0x0 PUSH2 0x153D PUSH2 0x1538 DUP5 PUSH2 0x14F9 JUMP JUMPDEST PUSH2 0x12BC JUMP JUMPDEST SWAP1 POP DUP3 DUP2 MSTORE PUSH1 0x20 DUP2 ADD DUP5 DUP5 DUP5 ADD GT ISZERO PUSH2 0x1559 JUMPI PUSH2 0x1558 PUSH2 0x1257 JUMP JUMPDEST JUMPDEST PUSH2 0x1564 DUP5 DUP3 DUP6 PUSH2 0x1308 JUMP JUMPDEST POP SWAP4 SWAP3 POP POP POP JUMP JUMPDEST PUSH1 0x0 DUP3 PUSH1 0x1F DUP4 ADD SLT PUSH2 0x1581 JUMPI PUSH2 0x1580 PUSH2 0x1252 JUMP JUMPDEST JUMPDEST DUP2 CALLDATALOAD PUSH2 0x1591 DUP5 DUP3 PUSH1 0x20 DUP7 ADD PUSH2 0x152A JUMP JUMPDEST SWAP2 POP POP SWAP3 SWAP2 POP POP JUMP JUMPDEST PUSH1 0x0 DUP1 PUSH1 0x0 DUP1 PUSH1 0x80 DUP6 DUP8 SUB SLT ISZERO PUSH2 0x15B4 JUMPI PUSH2 0x15B3 PUSH2 0xFB0 JUMP JUMPDEST JUMPDEST PUSH1 0x0 PUSH2 0x15C2 DUP8 DUP3 DUP9 ADD PUSH2 0x11FD JUMP JUMPDEST SWAP5 POP POP PUSH1 0x20 PUSH2 0x15D3 DUP8 DUP3 DUP9 ADD PUSH2 0x11FD JUMP JUMPDEST SWAP4 POP POP PUSH1 0x40 PUSH2 0x15E4 DUP8 DUP3 DUP9 ADD PUSH2 0x1148 JUMP JUMPDEST SWAP3 POP POP PUSH1 0x60 DUP6 ADD CALLDATALOAD PUSH8 0xFFFFFFFFFFFFFFFF DUP2 GT ISZERO PUSH2 0x1605 JUMPI PUSH2 0x1604 PUSH2 0xFB5 JUMP JUMPDEST JUMPDEST PUSH2 0x1611 DUP8 DUP3 DUP9 ADD PUSH2 0x156C JUMP JUMPDEST SWAP2 POP POP SWAP3 SWAP6 SWAP2 SWAP5 POP SWAP3 POP JUMP JUMPDEST PUSH1 0x0 DUP1 PUSH1 0x40 DUP4 DUP6 SUB SLT ISZERO PUSH2 0x1634 JUMPI PUSH2 0x1633 PUSH2 0xFB0 JUMP JUMPDEST JUMPDEST PUSH1 0x0 PUSH2 0x1642 DUP6 DUP3 DUP7 ADD PUSH2 0x11FD JUMP JUMPDEST SWAP3 POP POP PUSH1 0x20 PUSH2 0x1653 DUP6 DUP3 DUP7 ADD PUSH2 0x11FD JUMP JUMPDEST SWAP2 POP POP SWAP3 POP SWAP3 SWAP1 POP JUMP JUMPDEST PUSH32 0x4E487B7100000000000000000000000000000000000000000000000000000000 PUSH1 0x0 MSTORE PUSH1 0x22 PUSH1 0x4 MSTORE PUSH1 0x24 PUSH1 0x0 REVERT JUMPDEST PUSH1 0x0 PUSH1 0x2 DUP3 DIV SWAP1 POP PUSH1 0x1 DUP3 AND DUP1 PUSH2 0x16A4 JUMPI PUSH1 0x7F DUP3 AND SWAP2 POP JUMPDEST PUSH1 0x20 DUP3 LT DUP2 SUB PUSH2 0x16B7 JUMPI PUSH2 0x16B6 PUSH2 0x165D JUMP JUMPDEST JUMPDEST POP SWAP2 SWAP1 POP JUMP JUMPDEST PUSH1 0x0 DUP2 SWAP1 POP DUP2 PUSH1 0x0 MSTORE PUSH1 0x20 PUSH1 0x0 KECCAK256 SWAP1 POP SWAP2 SWAP1 POP JUMP JUMPDEST PUSH1 0x0 PUSH1 0x20 PUSH1 0x1F DUP4 ADD DIV SWAP1 POP SWAP2 SWAP1 POP JUMP JUMPDEST PUSH1 0x0 DUP3 DUP3 SHL SWAP1 POP SWAP3 SWAP2 POP POP JUMP JUMPDEST PUSH1 0x0 PUSH1 0x8 DUP4 MUL PUSH2 0x171F PUSH32 0xFFFFFFFFFFFFFFFFFFFFFFFFFFFFFFFFFFFFFFFFFFFFFFFFFFFFFFFFFFFFFFFF DUP3 PUSH2 0x16E2 JUMP JUMPDEST PUSH2 0x1729 DUP7 DUP4 PUSH2 0x16E2 JUMP JUMPDEST SWAP6 POP DUP1 NOT DUP5 AND SWAP4 POP DUP1 DUP7 AND DUP5 OR SWAP3 POP POP POP SWAP4 SWAP3 POP POP POP JUMP JUMPDEST PUSH1 0x0 DUP2 SWAP1 POP SWAP2 SWAP1 POP JUMP JUMPDEST PUSH1 0x0 PUSH2 0x1766 PUSH2 0x1761 PUSH2 0x175C DUP5 PUSH2 0x1127 JUMP JUMPDEST PUSH2 0x1741 JUMP JUMPDEST PUSH2 0x1127 JUMP JUMPDEST SWAP1 POP SWAP2 SWAP1 POP JUMP JUMPDEST PUSH1 0x0 DUP2 SWAP1 POP SWAP2 SWAP1 POP JUMP JUMPDEST PUSH2 0x1780 DUP4 PUSH2 0x174B JUMP JUMPDEST PUSH2 0x1794 PUSH2 0x178C DUP3 PUSH2 0x176D JUMP JUMPDEST DUP5 DUP5 SLOAD PUSH2 0x16EF JUMP JUMPDEST DUP3 SSTORE POP POP POP POP JUMP JUMPDEST PUSH1 0x0 SWAP1 JUMP JUMPDEST PUSH2 0x17A9 PUSH2 0x179C JUMP JUMPDEST PUSH2 0x17B4 DUP2 DUP5 DUP5 PUSH2 0x1777 JUMP JUMPDEST POP POP POP JUMP JUMPDEST JUMPDEST DUP2 DUP2 LT ISZERO PUSH2 0x17D8 JUMPI PUSH2 0x17CD PUSH1 0x0 DUP3 PUSH2 0x17A1 JUMP JUMPDEST PUSH1 0x1 DUP2 ADD SWAP1 POP PUSH2 0x17BA JUMP JUMPDEST POP POP JUMP JUMPDEST PUSH1 0x1F DUP3 GT ISZERO PUSH2 0x181D JUMPI PUSH2 0x17EE DUP2 PUSH2 0x16BD JUMP JUMPDEST PUSH2 0x17F7 DUP5 PUSH2 0x16D2 JUMP JUMPDEST DUP2 ADD PUSH1 0x20 DUP6 LT ISZERO PUSH2 0x1806 JUMPI DUP2 SWAP1 POP JUMPDEST PUSH2 0x181A PUSH2 0x1812 DUP6 PUSH2 0x16D2 JUMP JUMPDEST DUP4 ADD DUP3 PUSH2 0x17B9 JUMP JUMPDEST POP POP JUMPDEST POP POP POP JUMP JUMPDEST PUSH1 0x0 DUP3 DUP3 SHR SWAP1 POP SWAP3 SWAP2 POP POP JUMP JUMPDEST PUSH1 0x0 PUSH2 0x1840 PUSH1 0x0 NOT DUP5 PUSH1 0x8 MUL PUSH2 0x1822 JUMP JUMPDEST NOT DUP1 DUP4 AND SWAP2 POP POP SWAP3 SWAP2 POP POP JUMP JUMPDEST PUSH1 0x0 PUSH2 0x1859 DUP4 DUP4 PUSH2 0x182F JUMP JUMPDEST SWAP2 POP DUP3 PUSH1 0x2 MUL DUP3 OR SWAP1 POP SWAP3 SWAP2 POP POP JUMP JUMPDEST PUSH2 0x1872 DUP3 PUSH2 0x1075 JUMP JUMPDEST PUSH8 0xFFFFFFFFFFFFFFFF DUP2 GT ISZERO PUSH2 0x188B JUMPI PUSH2 0x188A PUSH2 0x125C JUMP JUMPDEST JUMPDEST PUSH2 0x1895 DUP3 SLOAD PUSH2 0x168C JUMP JUMPDEST PUSH2 0x18A0 DUP3 DUP3 DUP6 PUSH2 0x17DC JUMP JUMPDEST PUSH1 0x0 PUSH1 0x20 SWAP1 POP PUSH1 0x1F DUP4 GT PUSH1 0x1 DUP2 EQ PUSH2 0x18D3 JUMPI PUSH1 0x0 DUP5 ISZERO PUSH2 0x18C1 JUMPI DUP3 DUP8 ADD MLOAD SWAP1 POP JUMPDEST PUSH2 0x18CB DUP6 DUP3 PUSH2 0x184D JUMP JUMPDEST DUP7 SSTORE POP PUSH2 0x1933 JUMP JUMPDEST PUSH1 0x1F NOT DUP5 AND PUSH2 0x18E1 DUP7 PUSH2 0x16BD JUMP JUMPDEST PUSH1 0x0 JUMPDEST DUP3 DUP2 LT ISZERO PUSH2 0x1909 JUMPI DUP5 DUP10 ADD MLOAD DUP3 SSTORE PUSH1 0x1 DUP3 ADD SWAP2 POP PUSH1 0x20 DUP6 ADD SWAP5 POP PUSH1 0x20 DUP2 ADD SWAP1 POP PUSH2 0x18E4 JUMP JUMPDEST DUP7 DUP4 LT ISZERO PUSH2 0x1926 JUMPI DUP5 DUP10 ADD MLOAD PUSH2 0x1922 PUSH1 0x1F DUP10 AND DUP3 PUSH2 0x182F JUMP JUMPDEST DUP4 SSTORE POP JUMPDEST PUSH1 0x1 PUSH1 0x2 DUP9 MUL ADD DUP9 SSTORE POP POP POP JUMPDEST POP POP POP POP POP POP JUMP JUMPDEST PUSH32 0x4E487B7100000000000000000000000000000000000000000000000000000000 PUSH1 0x0 MSTORE PUSH1 0x11 PUSH1 0x4 MSTORE PUSH1 0x24 PUSH1 0x0 REVERT JUMPDEST PUSH1 0x0 PUSH2 0x1975 DUP3 PUSH2 0x1127 JUMP JUMPDEST SWAP2 POP PUSH2 0x1980 DUP4 PUSH2 0x1127 JUMP JUMPDEST SWAP3 POP DUP3 DUP3 SUB SWAP1 POP DUP2 DUP2 GT ISZERO PUSH2 0x1998 JUMPI PUSH2 0x1997 PUSH2 0x193B JUMP JUMPDEST JUMPDEST SWAP3 SWAP2 POP POP JUMP JUMPDEST PUSH1 0x0 PUSH2 0x19A9 DUP3 PUSH2 0x1127 JUMP JUMPDEST SWAP2 POP PUSH2 0x19B4 DUP4 PUSH2 0x1127 JUMP JUMPDEST SWAP3 POP DUP3 DUP3 ADD SWAP1 POP DUP1 DUP3 GT ISZERO PUSH2 0x19CC JUMPI PUSH2 0x19CB PUSH2 0x193B JUMP JUMPDEST JUMPDEST SWAP3 SWAP2 POP POP JUMP JUMPDEST PUSH1 0x0 DUP2 MLOAD SWAP1 POP SWAP2 SWAP1 POP JUMP JUMPDEST PUSH1 0x0 DUP3 DUP3 MSTORE PUSH1 0x20 DUP3 ADD SWAP1 POP SWAP3 SWAP2 POP POP JUMP JUMPDEST PUSH1 0x0 PUSH2 0x19F9 DUP3 PUSH2 0x19D2 JUMP JUMPDEST PUSH2 0x1A03 DUP2 DUP6 PUSH2 0x19DD JUMP JUMPDEST SWAP4 POP PUSH2 0x1A13 DUP2 DUP6 PUSH1 0x20 DUP7 ADD PUSH2 0x1091 JUMP JUMPDEST PUSH2 0x1A1C DUP2 PUSH2 0x10BB JUMP JUMPDEST DUP5 ADD SWAP2 POP POP SWAP3 SWAP2 POP POP JUMP JUMPDEST PUSH1 0x0 PUSH1 0x80 DUP3 ADD SWAP1 POP PUSH2 0x1A3C PUSH1 0x0 DUP4 ADD DUP8 PUSH2 0x11BC JUMP JUMPDEST PUSH2 0x1A49 PUSH1 0x20 DUP4 ADD DUP7 PUSH2 0x11BC JUMP JUMPDEST PUSH2 0x1A56 PUSH1 0x40 DUP4 ADD DUP6 PUSH2 0x1463 JUMP JUMPDEST DUP2 DUP2 SUB PUSH1 0x60 DUP4 ADD MSTORE PUSH2 0x1A68 DUP2 DUP5 PUSH2 0x19EE JUMP JUMPDEST SWAP1 POP SWAP6 SWAP5 POP POP POP POP POP JUMP JUMPDEST PUSH1 0x0 DUP2 MLOAD SWAP1 POP PUSH2 0x1A82 DUP2 PUSH2 0xFE6 JUMP JUMPDEST SWAP3 SWAP2 POP POP JUMP JUMPDEST PUSH1 0x0 PUSH1 0x20 DUP3 DUP5 SUB SLT ISZERO PUSH2 0x1A9E JUMPI PUSH2 0x1A9D PUSH2 0xFB0 JUMP JUMPDEST JUMPDEST PUSH1 0x0 PUSH2 0x1AAC DUP5 DUP3 DUP6 ADD PUSH2 0x1A73 JUMP JUMPDEST SWAP2 POP POP SWAP3 SWAP2 POP POP JUMP INVALID LOG2 PUSH5 0x6970667358 0x22 SLT KECCAK256 0x5C PUSH9 0x167E5C48694EB77E4 MLOAD 0x2B 0xDB PUSH6 0x2D9E66E4A9A3 DUP3 0x25 0xBF PUSH8 0xECF33A20A462A564 PUSH20 0x6F6C634300081200330000000000000000000000 "
				},
				"gasEstimates": {
					"creation": {
						"codeDepositCost": "1378200",
						"executionCost": "infinite",
						"totalCost": "infinite"
					},
					"external": {
						"_isApprovedOrOwner(address,uint256)": "10180",
						"approve(address,uint256)": "31691",
						"balanceOf(address)": "2943",
						"getApproved(uint256)": "5241",
						"isApprovedForAll(address,address)": "infinite",
						"name()": "infinite",
						"ownerOf(uint256)": "2958",
						"safeTransferFrom(address,address,uint256)": "infinite",
						"safeTransferFrom(address,address,uint256,bytes)": "infinite",
						"setApprovalForAll(address,bool)": "infinite",
						"setTokenURI(uint256,string)": "infinite",
						"supportsInterface(bytes4)": "2870",
						"symbol()": "infinite",
						"tokenURI(uint256)": "infinite",
						"transferFrom(address,address,uint256)": "infinite"
					}
				},
				"methodIdentifiers": {
					"_isApprovedOrOwner(address,uint256)": "4cdc9549",
					"approve(address,uint256)": "095ea7b3",
					"balanceOf(address)": "70a08231",
					"getApproved(uint256)": "081812fc",
					"isApprovedForAll(address,address)": "e985e9c5",
					"name()": "06fdde03",
					"ownerOf(uint256)": "6352211e",
					"safeTransferFrom(address,address,uint256)": "42842e0e",
					"safeTransferFrom(address,address,uint256,bytes)": "b88d4fde",
					"setApprovalForAll(address,bool)": "a22cb465",
					"setTokenURI(uint256,string)": "162094c4",
					"supportsInterface(bytes4)": "01ffc9a7",
					"symbol()": "95d89b41",
					"tokenURI(uint256)": "c87b56dd",
					"transferFrom(address,address,uint256)": "23b872dd"
				}
			},
			"storageLayout": {
				"storage": [
					{
						"astId": 823,
						"contract": "ERC721Metadata.sol:ERC721Metadata",
						"label": "_supportedInterfaces",
						"offset": 0,
						"slot": "0",
						"type": "t_mapping(t_bytes4,t_bool)"
					},
					{
						"astId": 22,
						"contract": "ERC721Metadata.sol:ERC721Metadata",
						"label": "_tokenowners",
						"offset": 0,
						"slot": "1",
						"type": "t_mapping(t_uint256,t_address)"
					},
					{
						"astId": 26,
						"contract": "ERC721Metadata.sol:ERC721Metadata",
						"label": "_ownedTokensCount",
						"offset": 0,
						"slot": "2",
						"type": "t_mapping(t_address,t_uint256)"
					},
					{
						"astId": 30,
						"contract": "ERC721Metadata.sol:ERC721Metadata",
						"label": "_tokenApprovals",
						"offset": 0,
						"slot": "3",
						"type": "t_mapping(t_uint256,t_address)"
					},
					{
						"astId": 36,
						"contract": "ERC721Metadata.sol:ERC721Metadata",
						"label": "_operatorApprovals",
						"offset": 0,
						"slot": "4",
						"type": "t_mapping(t_address,t_mapping(t_address,t_bool))"
					},
					{
						"astId": 582,
						"contract": "ERC721Metadata.sol:ERC721Metadata",
						"label": "_name",
						"offset": 0,
						"slot": "5",
						"type": "t_string_storage"
					},
					{
						"astId": 584,
						"contract": "ERC721Metadata.sol:ERC721Metadata",
						"label": "_symbol",
						"offset": 0,
						"slot": "6",
						"type": "t_string_storage"
					},
					{
						"astId": 588,
						"contract": "ERC721Metadata.sol:ERC721Metadata",
						"label": "_tokenURI",
						"offset": 0,
						"slot": "7",
						"type": "t_mapping(t_uint256,t_string_storage)"
					}
				],
				"types": {
					"t_address": {
						"encoding": "inplace",
						"label": "address",
						"numberOfBytes": "20"
					},
					"t_bool": {
						"encoding": "inplace",
						"label": "bool",
						"numberOfBytes": "1"
					},
					"t_bytes4": {
						"encoding": "inplace",
						"label": "bytes4",
						"numberOfBytes": "4"
					},
					"t_mapping(t_address,t_bool)": {
						"encoding": "mapping",
						"key": "t_address",
						"label": "mapping(address => bool)",
						"numberOfBytes": "32",
						"value": "t_bool"
					},
					"t_mapping(t_address,t_mapping(t_address,t_bool))": {
						"encoding": "mapping",
						"key": "t_address",
						"label": "mapping(address => mapping(address => bool))",
						"numberOfBytes": "32",
						"value": "t_mapping(t_address,t_bool)"
					},
					"t_mapping(t_address,t_uint256)": {
						"encoding": "mapping",
						"key": "t_address",
						"label": "mapping(address => uint256)",
						"numberOfBytes": "32",
						"value": "t_uint256"
					},
					"t_mapping(t_bytes4,t_bool)": {
						"encoding": "mapping",
						"key": "t_bytes4",
						"label": "mapping(bytes4 => bool)",
						"numberOfBytes": "32",
						"value": "t_bool"
					},
					"t_mapping(t_uint256,t_address)": {
						"encoding": "mapping",
						"key": "t_uint256",
						"label": "mapping(uint256 => address)",
						"numberOfBytes": "32",
						"value": "t_address"
					},
					"t_mapping(t_uint256,t_string_storage)": {
						"encoding": "mapping",
						"key": "t_uint256",
						"label": "mapping(uint256 => string)",
						"numberOfBytes": "32",
						"value": "t_string_storage"
					},
					"t_string_storage": {
						"encoding": "bytes",
						"label": "string",
						"numberOfBytes": "32"
					},
					"t_uint256": {
						"encoding": "inplace",
						"label": "uint256",
						"numberOfBytes": "32"
					}
				}
			},
			"userdoc": {
				"kind": "user",
				"methods": {},
				"version": 1
			}
		}
	}
}